:10000000E8FA0720FD2C00005D2D0000652D0000A2
:100010006D2D0000752D00007D2D000000000000FA
:100020000000000000000000000000009910000027
:100030008D2D000000000000E9110000AD1D000042
:10004000A52D0000A52D0000A52D0000A52D000068
:10005000A52D0000A52D0000A52D0000A52D000058
:10006000A52D0000A52D0000A52D0000A52D000048
:10007000A52D0000A52D0000A52D0000A52D000038
:10008000A52D0000A52D0000A52D0000A52D000028
:10009000A52D0000A52D000075040000A52D000071
:1000A000A52D0000A52D0000A52D0000A52D000008
:1000B000A52D0000A52D0000A52D0000A52D0000F8
:1000C000A52D0000A52D0000A52D000090B484B042
:1000D00000AF78607B68B3FA83F4FC73FB7B18464F
:1000E00007F11007BD4690BC704700BF80B500AF58
:1000F0004CF20803C2F207031B68002B01D101F088
:100100006DF84CF20803C2F207031B6803F1010209
:100110004CF20803C2F207031A6080BD80B500AF3D
:100120004CF20803C2F207031B6803F1FF324CF2E2
:100130000803C2F207031A604CF20803C2F2070375
:100140001B68002B01D101F043F880BD80B500AFE2
:10015000FFF7CCFF4CF20C03C2F207031B6803F15C
:1001600001024CF20C03C2F207031A6001F082FA9A
:10017000FFF7D4FF80BD00BF90B583B000AFFFF79D
:10018000B5FF4CF20C03C2F207031B6803F1FF3208
:100190004CF20C03C2F207031A604CF20C03C2F2D9
:1001A00007031B68002B33D14FF2E863C2F2070349
:1001B0001B687B607B68B3FA83F4FC70FB78C3F147
:1001C0001F024FF2E053C2F2070353F822204FF20E
:1001D000D853C2F207031A6001F04CFA4FF2D85319
:1001E000C2F207031A684FF2DC53C2F207031B681E
:1001F0009A420DD000F0BEFB4FF46D43CEF20003E7
:100200004FF46D42CEF20002526842F080525A60C2
:10021000FFF784FF07F10C07BD4690BD80B582B0A3
:1002200002AF4CF22003C2F209034CF22002C2F2E8
:100230000902126842F480221A604CF22003C2F2D2
:1002400009034CF22002C2F20902126842F4801241
:100250001A604CF22003C2F209034CF22002C2F2EF
:100260000902126842F400121A604CF22003C2F232
:1002700009034CF22002C2F20902126842F40002A1
:100280001A6000F0BDFB574B00934FF00003019341
:100290004FF0020040F20541C0F200014FF00002B1
:1002A0004FF4AF7301F016FB4F4B00934FF0000378
:1002B00001934FF0030040F27D51C0F200014FF076
:1002C00000024FF4AF7301F005FB484B00934FF071
:1002D000000301934FF0040040F20961C0F20001F5
:1002E0004FF000024FF4AF7301F0F4FA404B00936B
:1002F0004FF0000301934FF0050040F2C561C0F2DA
:1003000000014FF000024FF4AF7301F0E3FA394BF4
:1003100000934FF0000301934FF0060040F2F161AB
:10032000C0F200014FF000024FF4AF7301F0D2FAB7
:10033000314B00934FF0000301934FF0070040F260
:100340003571C0F200014FF000024FF4AF7301F0BD
:10035000C1FA2A4B00934FF0000301934FF00800BD
:1003600040F29941C0F200014FF000024FF4AF7328
:1003700001F0B0FA224B00934FF0000301934FF0CD
:10038000090040F28541C0F200014FF000024FF435
:10039000AF7301F09FFA4FF00A004FF0040100F034
:1003A0005FFC02464EF20813C2F207031A604FF0D8
:1003B0000A004FF0040100F053FC02464CF2AC532B
:1003C000C2F207031A604FF0010000F0EFFF02468F
:1003D0004EF26433C2F207031A6000F01DFB1846A8
:1003E000BD4680BD8CDB07209CD00720A8C5072018
:1003F000A4EE072014D60720DCE8072024CB072032
:1004000004E1072080B586B000AF78604FF00003AC
:10041000FB60FB6803F10103FB604FF000037B61AD
:100420004FF001033B614FF001033B614FF00003CC
:100430007B6103E07B6903F101037B617B69312B05
:10044000F8DD4FF001037B610BE07B6903F10103F1
:100450001A463B6902FB03F33B617B6903F101032D
:100460007B617B69632BF0DD4FF0640001F0EEFCF3
:10047000D9E700BF80B500AFFFF768FEFFF77CFE4D
:1004800080BD00BF80B582B000AF78604FF06400DF
:1004900001F0DCFCFAE700BF80B590B000AF7860F7
:1004A00043F60423C0F2000307F108011A464FF097
:1004B0002403084611461A4603F060FA4FF024035D
:1004C0003B634FF00003FB874FF00003BB634FF02B
:1004D00000037B637B6B03F101037B637A6B42F266
:1004E0009343C9F2492383FB02139B184FEAA301EC
:1004F0004FEAE273C91A0B464FEAC3035B1AD31AD9
:100500007B63FA8F7B6BD3183A6B93FBF2F2396BF8
:1005100001FB02F29B1A07F14002D31813F8383C92
:1005200087F82F30BA6B44F6D353C1F2620383FBD2
:1005300002134FEA23114FEAE273CB1A4FF0FA018C
:1005400001FB03F3D31A002B14BF00230123DBB2FA
:10055000BA6B02F10102BA63002B0AD0FB8F03F1E0
:1005600001033A6B93FBF2F2396B01FB02F29B1A27
:10057000FB874FF0640001F069FCABE790B5EBB08E
:1005800000AF07F1040318604FF00003C7F8A03173
:10059000D7F8A03103F10103C7F8A0314FF00003F1
:1005A000C7F89C314FF0000387F89B314FF00003F0
:1005B000C7F8A431D7F8A42146F26763C6F2666390
:1005C00083FB02134FEAE3014FEAE273CC1A23469E
:1005D0004FEA83031B194FEA8303D41A01F03EF854
:1005E00003461A464EF6E003C2F2070343F82420FE
:1005F000D7F8A43103F10103C7F8A4314FF4C87050
:1006000001F024FCD6E700BF80B5E8B000AF07F1E9
:10061000040318604FF00003C7F89831D7F89831F9
:1006200003F10103C7F8983107F108034FF0000206
:100630001A6007F108034FF001025A604FF00203FD
:10064000C7F89C311CE0D7F89C3103F1FF3207F169
:10065000080353F82220D7F89C31A3F1020107F1D7
:10066000080353F82130D11807F10803D7F89C216B
:1006700043F82210D7F89C3103F10103C7F89C31ED
:10068000D7F89C31632BDEDD4EF20813C2F207036C
:100690001A6807F1080303F10C031046194600F02D
:1006A00043FB4CF22003C2F209034CF22002C2F2D7
:1006B0000902526982F400025A614FF0C80001F049
:1006C000C5FBB1E780B584B000AF78604FF00003A0
:1006D000FB60FB6803F10103FB604EF26433C2F27E
:1006E00007031B6818464FF00A0100F089FEF4E783
:1006F00080B584B000AF78604FF00003BB60BB688A
:1007000003F10103BB604FF00003FB604FF4C870BE
:1007100001F09CFB00F018FA4FF00003FB6005E0CD
:1007200000F09CFFFB6803F10103FB60FB68632B97
:10073000F6D9EBE780B584B000AF78604FF00003E6
:10074000FB60FB6803F10103FB604FF0040000F065
:100750007DF80346BB604EF20813C2F207031B6824
:100760001846B9684FF0000200F03AFBF3E700BF0B
:1007700090B484B000AF78607B68B3FA83F4FC7304
:10078000FB7B184607F11007BD4690BC704700BFC1
:1007900080B500AF4CF20803C2F207031B68002BC0
:1007A00001D100F01BFD4CF20803C2F207031B68E5
:1007B00003F101024CF20803C2F207031A6080BD84
:1007C00080B500AF4CF20803C2F207031B6803F1C7
:1007D000FF324CF20803C2F207031A604CF208031E
:1007E000C2F207031B68002B01D100F0F1FC80BDB1
:1007F00080B483B000AF4EF6A863C2F2070303F1E2
:10080000030323F003031A464FF29423C2F20703B3
:100810001A604FF000037B600DE04FF29423C2F2A8
:1008200007031A687B68D3184FF000021A707B68C0
:1008300003F101037B607A6840F2E7339A42ECD916
:1008400007F10C07BD4680BC704700BF80B584B07F
:1008500000AF7860FFF79CFF4CF20403C2F207037D
:100860001B681A467B68D318B3F57A7F23D94CF2FC
:100870000003C2F207031B681A467B689A4203D240
:100880004FF00003FB6030E04FF29423C2F2070305
:100890001B68FB604CF20403C2F207031B681A4694
:1008A0007B68D318A3F57A731A464CF20403C2F29C
:1008B00007031A6019E04FF29423C2F207031A6883
:1008C0004CF20403C2F207031B68D318FB604CF21E
:1008D0000403C2F207031B681A467B68D3181A4642
:1008E0004CF20403C2F207031A60FFF769FFFB68CA
:1008F000184607F11007BD4680BD00BF80B483B025
:1009000000AF786007F10C07BD4680BC704700BFA0
:1009100080B400AF4CF20403C2F207031A684CF231
:100920000003C2F207031B689A420BDD4CF204037A
:10093000C2F207031A684CF20003C2F207031B68F5
:10094000D31A0CE04CF20403C2F207031B6803F550
:100950007A724CF20003C2F207031B68D31A1846DE
:10096000BD4680BC704700BF80B400AFBD4680BCB0
:10097000704700BF80B400AFBD4680BC704700BF69
:1009800090B484B000AF78607B68B3FA83F4FC73F2
:10099000FB7B184607F11007BD4690BC704700BFAF
:1009A00080B500AF4CF20803C2F207031B68002BAE
:1009B00001D100F013FC4CF20803C2F207031B68DC
:1009C00003F101024CF20803C2F207031A6080BD72
:1009D00080B500AF4CF20803C2F207031B6803F1B5
:1009E000FF324CF20803C2F207031A604CF208030C
:1009F000C2F207031B68002B01D100F0E9FB80BDA8
:100A000080B500AFFFF7F4FE00F01AFF00F004FC21
:100A100000F00AFE80BD00BF90B583B000AF4FF27A
:100A2000E863C2F207031B687B607B68B3FA83F458
:100A3000FC70FB78C3F11F024FF2E053C2F20703D0
:100A400053F822204FF2D853C2F207031A604FF234
:100A5000D853C2F207031A684FF2DC53C2F20703FD
:100A60001A6000F049FB00F029FB4CF21403C2F2BB
:100A700007034FF001021A7000F000FB07F10C07AA
:100A8000BD4690BD90B583B000AFFFF789FF4CF233
:100A90000C03C2F207031B68002B39D14FF2E86345
:100AA000C2F207031B687B607B68B3FA83F4FC70B7
:100AB000FB78C3F11F024FF2E053C2F2070353F871
:100AC00022204FF2D853C2F207031A604FF2DC53D0
:100AD000C2F207031A684FF2D853C2F207031B6829
:100AE0009A4202D1FFF774FF15E0FFF771FFFFF79D
:100AF00041FF00F0BFFD4FF46D43CEF200034FF411
:100B00006D42CEF20002526842F080525A6002E01A
:100B1000FFF75EFF00BF07F10C07BD4690BD00BFA9
:100B200080B582B000AF78604CF21003C2F20703C8
:100B30001B6803F101024CF21003C2F207031A60B2
:100B4000FFF712FFF0E700BF80B500AFFFF728FF07
:100B50004FF2DC53C2F207031B684FF002029A7196
:100B60004FF2DC53C2F207031B689B881A464FF210
:100B7000E053C2F207034FF0000143F822104FF296
:100B8000DC53C2F207031B689B8803F01F034FF07E
:100B9000010202FA03F36FEA03031A464FF2E86315
:100BA000C2F207031B681A404FF2E863C2F2070360
:100BB0001A60FFF70DFFFFF765FF80BD80B483B0BB
:100BC00000AF78607B681A687B689A4214BF002384
:100BD0000123184607F10C07BD4680BC704700BFD3
:100BE00090B484B000AF78607B68B3FA83F4FC7390
:100BF000FB7B184607F11007BD4690BC704700BF4D
:100C000080B500AF4CF20803C2F207031B68002B4B
:100C100001D100F0E3FA4CF20803C2F207031B68AB
:100C200003F101024CF20803C2F207031A6080BD0F
:100C300080B500AF4CF20803C2F207031B6803F152
:100C4000FF324CF20803C2F207031A604CF20803A9
:100C5000C2F207031B68002B01D100F0B9FA80BD76
:100C600080B584B000AF786039604FF02C00FFF79A
:100C7000EDFD0346FB60FB68002B02D14FF0000343
:100C800040E03B687A6802FB03F31846FFF7DEFD9D
:100C90000246FB689A60FB689B68002B02D14FF00C
:100CA00000032FE0FB689A683B68796801FB03F357
:100CB000D218FB68DA60FB689A68FB681A60FB6808
:100CC0009A68FB685A60FB687A681A61FB684FF0A3
:100CD00000025A61FB683A689A61FB6803F11C02E2
:100CE000FB68DA61FB6803F11C02FB681A62FB68AF
:100CF00003F12402FB685A62FB6803F12402FB68DB
:100D00009A62FB68184607F11007BD4680BD00BF18
:100D100080B582B000AF78607868FFF7EFFD07F12B
:100D20000807BD4680BD00BF80B584B000AF7860C5
:100D30003960FFF765FF7B685A697B681B699A42D7
:100D400004D1FFF775FF4FF0050343E07B685A6855
:100D50007B689B69D2187B68DB689A4203D37B6807
:100D60009A687B685A607B6859687B689B693A68B7
:100D7000084611461A4602F001FE7B685A687B68F5
:100D80009B69D2187B685A607B685B6903F101023A
:100D90007B685A617B6803F124031846FFF70EFF56
:100DA0000346002B12D17B6803F12403184601F09F
:100DB000CFF90346FB60FB689B68002B03D0FB6800
:100DC0004FF000029A60F86800F090FEFFF730FFE5
:100DD0004FF00303184607F11007BD4680BD00BF62
:100DE00080B584B000AFF860B9607A60FFF708FFA3
:100DF000FB685B69002B10D04FF2DC53C2F2070393
:100E00001B684FF00302DA71B868F96800F088F8DF
:100E1000FFF70EFF4FF003034AE0FB6803F12402E3
:100E20004FF2DC53C2F207031B681046194601F06B
:100E300027F94FF2DC53C2F207031B684FF00002A0
:100E4000DA717B68002B1DD07B68184600F0FEFF2E
:100E5000FFF7EEFE4FF2DC53C2F207031B68DB79AB
:100E6000022B13D1FB6803F124024FF2DC53C2F2D0
:100E700007031B689B881046194601F035F94FF0AF
:100E8000060315E0FFF7D4FEFFF75EFEFFF7B8FE9E
:100E90004FF2DC53C2F207031B684FF00302DA7112
:100EA000B868F96800F03CF8FFF7C2FE4FF00303A2
:100EB000184607F11007BD4680BD00BF80B584B05D
:100EC00000AF78603960FFF79BFE7B685B69002BA1
:100ED0000FD04FF2DC53C2F207031B684FF003023E
:100EE000DA713868796800F01BF84FF00303FB7380
:100EF00002E04FF00403FB73FFF79AFEFB7B1846FA
:100F000007F11007BD4680BD80B483B000AF7860A4
:100F10007B685B69184607F10C07BD4680BC7047CB
:100F200080B582B000AF786039603B681A683B6872
:100F30009B697968084611461A4602F01FFD3B6816
:100F40005B6903F1FF323B685A613B681A683B6892
:100F50009B69D2183B68DB689A4204D33B689A6865
:100F60003B681A6006E03B681A683B689B69D218C8
:100F70003B681A6007F10807BD4680BD80B483B0A6
:100F800000AF03463960FB7197F90730002B10DA88
:100F90004FF46D43CEF20003FA7902F00F02A2F192
:100FA00004013A68D2B24FEAC202D2B25B181A7692
:100FB0000DE04FF46143CEF2000397F907103A6851
:100FC000D2B24FEAC202D2B25B1883F8002307F113
:100FD0000C07BD4680BC704790B484B000AF786009
:100FE0007B68B3FA83F4FC73FB7B184607F11007A8
:100FF000BD4690BC704700BF80B487B000AFF860BA
:10100000B9607A603B60FB6803F00303002B05D0F6
:10101000FB6803F1030323F00303FB60FB687B61C0
:101020007B69A3F104037B617B694FF080721A60D6
:101030007B69A3F104037B61BA687B691A607B69F1
:10104000A3F104037B617B694FF000021A607B69A6
:10105000A3F110037B617B69A3F104037B617A68D0
:101060007B691A607B69A3F120037B617B69184669
:1010700007F11C07BD4680BC704700BF80B400AFBD
:10108000A0480068006880F3088862B600DF00BFEF
:10109000BD4680BC704700BF80B400AF044A1168F1
:1010A0000868B0E8F00F80F309884EF00D0E704725
:1010B000D8F50720BD4680BC704700BF80B400AFA4
:1010C0004EF21003CEF200034FF007021A60BD4645
:1010D00080BC704780B400AF4EF21003CEF2000324
:1010E0004EF21002CEF20002126822F001021A60E3
:1010F000BD4680BC704700BF80B582B000AF48F2EB
:10110000A063C0F201037B607A686FF07F439A426C
:1011100002D94FF0010318E04EF21003CEF20003A3
:101120007A6822F07F4202F1FF325A604FF0FF30BE
:101130004FF01F01FFF722FF4EF21003CEF2000323
:101140004FF000029A604FF00003184607F10807BD
:10115000BD4680BD80B483B000AF78607B681A68FC
:101160004FF29C23C2F207031A607B685A684FF261
:10117000B423C2F207031A607B689A684FF2A42373
:10118000C2F207031A607B68DA684FF29823C2F252
:1011900007031A607B681A694FF2B023C2F2070393
:1011A0001A607B685A694FF2A023C2F207031A60E3
:1011B0007B689A694FF2A823C2F207031A607B6822
:1011C000DA694FF2AC23C2F207031A60FEE700BFF0
:1011D00080B400AF62B6BD4680BC704780B400AF3B
:1011E00072B6BD4680BC7047EFF3098020E9F00F6E
:1011F00007490A681060074A11680868B0E8F00FEC
:1012000080F30988024803490A680260704700BFFA
:10121000DCF50720D8F5072080B400AF4EF6205348
:10122000CEF200034EF62052CEF20002126842F4D3
:101230007F021A604EF62053CEF200034EF6205283
:10124000CEF20002126842F07F421A60BD4680BCB6
:10125000704700BF80B400AF1EF0040F0CBFEFF367
:101260000880EFF30980816974E7BD4680BC704750
:1012700080B500AF4FF0402001F012FB80BD00BFF1
:1012800080B586B000AF4FF001033B744FF001030F
:101290007B614FF000033B714FF001037B714FF016
:1012A0000103FB714FF00003BB714FF000033B7271
:1012B00049F28063C0F29803FB6007F110034FF01E
:1012C00040204FF000011A4601F066F907F10403CF
:1012D0004FF04020194601F019FB4FF040204FF02D
:1012E000010101F0A1FA07F11807BD4680BD00BF5A
:1012F00080B400AF4FF040239B681846BD4680BCC9
:101300007047000008ED00E080B483B000AF786063
:101310007B681A687B689A4214BF00230123184631
:1013200007F10C07BD4680BC704700BF90B484B085
:1013300000AF78607B68B3FA83F4FC73FB7B1846DC
:1013400007F11007BD4690BC704700BF80B500AFE5
:101350004CF20803C2F207031B68002B01D1FFF710
:101360003DFF4CF20803C2F207031B6803F10102C0
:101370004CF20803C2F207031A6080BD80B500AFCB
:101380004CF20803C2F207031B6803F1FF324CF270
:101390000803C2F207031A604CF20803C2F2070303
:1013A0001B68002B01D1FFF713FF80BD80B584B00F
:1013B00000AF78604FF00C00FFF748FA0346FB607F
:1013C000FB687A681A60FB6803F10402FB685A60E4
:1013D000FB6803F10402FB689A60FB68184607F19A
:1013E0001007BD4680BD00BF80B582B000AF7860F9
:1013F0007868FFF783FA07F10807BD4680BD00BF94
:1014000080B582B000AF78603960FFF79FFF7B68DE
:101410001B68002B0AD07B681B6803F1FF327B68D6
:101420001A60FFF7ABFF4FF0030341E04FF2DC53CC
:10143000C2F207031B684FF00102DA717B6803F107
:1014400004024FF2DC53C2F207031B681046194630
:1014500000F016FE3B68002B1CD0386800F0F6FC4C
:10146000FFF78CFF4FF2DC53C2F207031B68DB79F6
:10147000022B13D17B6803F104024FF2DC53C2F25A
:1014800007031B689B881046194600F02DFE4FF09D
:1014900006030DE0FFF772FFFFF756FB4FF2DC5338
:1014A000C2F207031B684FF00302DA714FF0030327
:1014B000184607F10807BD4680BD00BF80B584B05F
:1014C00000AF7860FFF742FF7B6803F10403184622
:1014D000FFF71AFF0346002B06D07B681B6803F159
:1014E00001027B681A6014E07B6803F1040318466C
:1014F00000F02EFE0346FB60FB689B68002B03D0C8
:10150000FB684FF000029A60FB689B88184600F069
:10151000A1FAFFF733FF07F11007BD4680BD00BFFA
:1015200090B484B000AF78607B68B3FA83F4FC7346
:10153000FB7B184607F11007BD4690BC704700BF03
:1015400090B585B000AF78604FF00003FB604CF2BF
:101550001C03C2F207034FF000021A60FFF788FE77
:10156000FFF7C6FE02464CF22403C2F207031A60DC
:101570004FF0640000F06AFCFFF7BAFE0346BB6060
:101580004CF22403C2F207031B68BA68D21A4CF269
:101590002003C2F207031A604CF22003C2F20703D1
:1015A0001A684CF21C03C2F207031B68D31A1846D0
:1015B00002F03CF804464CF22003C2F207031B6819
:1015C000184602F033F803462046194602F03AF96D
:1015D00003461846134902F081F803461A464CF2B6
:1015E0002803C2F207031A60F96848F21F53C5F2D4
:1015F000EB13A3FB01234FEA53124FF0640303FBE9
:1016000002F3CA1A4CF22803C2F2070319684FF218
:10161000B823C2F2070343F82210FB6803F1010369
:10162000FB6094E70000C84280B582B002AFFFF7CC
:1016300027FE094B00934FF0000301934FF0010088
:1016400041F24151C0F200014FF000024FF064033B
:1016500000F040F9BD4680BDD4F5072080B400AF4E
:101660004CF22803C2F207031B681846BD4680BC33
:10167000704700BF80B582B000AFFFF739FE034668
:101680007B604CF20C03C2F207031B68012B38D1BC
:101690004FF26863C2F207031A684FF2D853C2F2DE
:1016A00007031B689A425FD14CF21803C2F207038A
:1016B0001B687A68D21A4CF21C03C2F207031B683B
:1016C000D2184CF21C03C2F207031A6044F2000362
:1016D000C1F200031B68002B46D044F20003C1F2A4
:1016E00000034FF000021A604CF22003C2F209031B
:1016F0004CF22002C2F20902526942F480225A617D
:1017000032E04CF20C03C2F207031B68002B2BD112
:101710004FF26863C2F207031A684FF2D853C2F25D
:1017200007031B689A421FD14CF21803C2F2070349
:101730007A681A6044F20003C1F200031B68002BB0
:1017400012D044F20003C1F200034FF000021A600D
:101750004CF22003C2F209034CF22002C2F2090249
:10176000526942F480125A6107F10807BD4680BDF4
:1017700080B485B000AFF860B9607A607B68FA68C1
:101780005A60FB687A681A60FB68BA685A60BB687E
:10179000FA681A6007F11407BD4680BC704700BFA5
:1017A00080B582B000AF786039603B685B6878686C
:1017B00019463A68FFF7DCFF07F10807BD4680BD10
:1017C00090B484B000AF78607B68B3FA83F4FC73A4
:1017D000FB7B184607F11007BD4690BC704700BF61
:1017E00080B500AF4CF20803C2F207031B68002B60
:1017F00001D1FFF7F3FC4CF20803C2F207031B68A8
:1018000003F101024CF20803C2F207031A6080BD23
:1018100080B500AF4CF20803C2F207031B6803F166
:10182000FF324CF20803C2F207031A604CF20803BD
:10183000C2F207031B68002B01D1FFF7C9FC80BD72
:1018400080B582B000AF4FF000037B600CE04FF238
:101850006863C2F207037A684FF0000143F8221070
:101860007B6803F101037B607B681F2BEFDD4FF08A
:1018700000037B600CE04FF2E053C2F207037A688A
:101880004FF0000143F822107B6803F101037B60F5
:101890007B681F2BEFDD4FF2E863C2F207034FF0C6
:1018A00000021A604FF26063C2F207034FF26062F7
:1018B000C2F207021A604FF26063C2F207034FF2EE
:1018C0006062C2F207025A6000F0AAF907F1080745
:1018D000BD4680BD80B588B000AFB9607A603B601E
:1018E0000346FB734FF00303FB77FB7B202B08D8E9
:1018F000FA7B4FF26863C2F2070353F82230002BE1
:1019000004D04FF00103FB77FB7F55E04CF22C0332
:10191000C2F207031B6803F101024CF22C03C2F26E
:1019200007031A604FF01C00FEF790FF0346BB61EF
:10193000FB7BB86919463A6800F044F8B86AB968A0
:101940007A683B68FFF758FB0246BB691A60BB69BF
:101950009B881A464FF26863C2F20703B96943F8DD
:101960002210BB699B881A464FF2E053C2F207036C
:10197000B96943F82210BB699B8803F01F034FF03D
:10198000010202FA03F31A464FF2E863C2F20703B8
:101990001B681A434FF2E863C2F207031A60BB697F
:1019A00003F1140318464FF26061C2F20701FFF71A
:1019B000F7FEBB697B61FB7F184607F12007BD4638
:1019C00080BD00BF80B485B000AFF8600B467A6080
:1019D000FB72FB7A9AB2FB689A80FB684FF00102B7
:1019E0009A71FB684FF00302DA71FB684FF0000256
:1019F0009A60FB6803F11402FB685A61FB6803F10B
:101A00001402FB689A61FB6803F10C02FB68DA6060
:101A1000FB6803F10C02FB681A6107F11407BD466D
:101A200080BC704780B483B000AF78607B681F2BA8
:101A300007D84FF26863C2F207037A6853F822307E
:101A400001E04FF00003184607F10C07BD4680BCCB
:101A5000704700BF80B582B000AF0346FB80FFF740
:101A6000BFFEFA884FF26863C2F2070353F82230D0
:101A7000002B04D1FFF7CCFE4FF0010330E0FA88D1
:101A80004FF26863C2F2070353F822304FF00102AD
:101A90009A71FA88F9884FF26863C2F2070353F823
:101AA00021104FF2E053C2F2070343F82210FB88E3
:101AB00003F01F034FF0010202FA03F31A464FF23C
:101AC000E863C2F207031B681A434FF2E863C2F2ED
:101AD00007031A60FFF79CFEFEF7D4FF4FF00303E5
:101AE000184607F10807BD4680BD00BF80B584B029
:101AF00000AF78607B689B88FB81FFF771FEFA89F5
:101B00004FF26863C2F2070353F82230002B04D16E
:101B1000FFF77EFE4FF001032BE07B684FF00102E0
:101B20009A71FA894FF2E053C2F20703796843F8D9
:101B30002210FB8903F01F034FF0010202FA03F3A6
:101B40001A464FF2E863C2F207031B681A434FF2CA
:101B5000E863C2F207031A60FFF75AFE4CF20C0367
:101B6000C2F207031B68002B01D1FEF78BFF4FF079
:101B70000303184607F11007BD4680BD80B582B04B
:101B800000AF0346FB80FA884FF26863C2F2070396
:101B900053F82230002B02D14FF001033BE04FF20B
:101BA000DC53C2F207031B689B88FA889A4204D16F
:101BB000FEF7CAFF4FF003032DE0FFF711FEFA888E
:101BC0004FF26863C2F2070353F822304FF002026B
:101BD0009A71FA884FF2E053C2F207034FF0000106
:101BE00043F82210FB8803F01F034FF0010202FAB2
:101BF00003F36FEA03031A464FF2E863C2F20703E6
:101C00001B681A404FF2E863C2F207031A60FFF73D
:101C1000FFFD4FF00303184607F10807BD4680BDDE
:101C200080B582B002AF094B00934FF000030193DF
:101C30004FF0000040F62131C0F200014FF00002E9
:101C40004FF09603FFF746FEBD4680BD60E30720D8
:101C500090B484B000AF78607B68B3FA83F4FC730F
:101C6000FB7B184607F11007BD4690BC704700BFCC
:101C700080B500AF4CF20803C2F207031B68002BCB
:101C800001D1FFF7ABFA4CF20803C2F207031B685D
:101C900003F101024CF20803C2F207031A6080BD8F
:101CA00080B500AF4CF20803C2F207031B6803F1D2
:101CB000FF324CF20803C2F207031A604CF2080329
:101CC000C2F207031B68002B01D1FFF781FA80BD28
:101CD00080B500AFFFF7CCFF4CF20C03C2F2070354
:101CE0001B6803F101024CF20C03C2F207031A60F5
:101CF00041F27563C0F200039847FFF7D1FF80BD42
:101D000090B583B000AFFFF7B3FF4CF20C03C2F203
:101D100007031B6803F1FF324CF20C03C2F2070306
:101D20001A604CF20C03C2F207031B68002B36D179
:101D30004FF2E863C2F207031B687B607B68B3FA6B
:101D400083F4FC70FB78C3F11F024FF2E053C2F240
:101D5000070353F822204FF2D853C2F207031A6048
:101D600041F27563C0F2000398474FF2D853C2F2B4
:101D700007031A684FF2DC53C2F207031B689A424A
:101D80000DD0FEF7F7FD4FF46D43CEF200034FF494
:101D90006D42CEF20002526842F080525A60FFF764
:101DA0007FFF07F10C07BD4690BD00BF80B582B034
:101DB00000AFFFF78DFF4CF23003C2F207031B6840
:101DC00003F101024CF23003C2F207031A60FFF77D
:101DD0004FFF4FF26063C2F207031B687B601FE096
:101DE0007B68A3F114033B603B689B68002B14D015
:101DF0003B689B6803F1FF323B689A603B689B68D5
:101E0000002B0AD13B68DB79032B03D03B684FF0F2
:101E10000202DA713868FFF769FE7B681B687B6035
:101E20007A684FF26063C2F207039A42D8D1FFF793
:101E300037FFFFF765FF07F10807BD4680BD00BF0C
:101E400080B400AFBD4680BC704700BF80B582B093
:101E500000AF7860FFF70CFF4FF2DC53C2F20703CC
:101E60001B687A689A604FF2DC53C2F207031B6862
:101E70004FF002029A714FF2DC53C2F207031B6863
:101E80009B881A464FF2E053C2F207034FF000015D
:101E900043F822104FF2DC53C2F207031B689B8801
:101EA00003F01F034FF0010202FA03F36FEA03038A
:101EB0001A464FF2E863C2F207031B681A404FF25A
:101EC000E863C2F207031A60FFF7EAFEFEF7DAFDE5
:101ED00007F10807BD4680BD80B400AF4CF2300367
:101EE000C2F207031B681846BD4680BC704700BF9E
:101EF00080B485B000AFF860B9607A607B68FA683A
:101F00005A60FB687A681A60FB68BA685A60BB68F6
:101F1000FA681A6007F11407BD4680BC704700BF1D
:101F200080B582B000AF786039603B681B68786824
:101F300039681A46FFF7DCFF07F10807BD4680BD88
:101F400080B582B000AF786039603B685B687868C4
:101F500019463A68FFF7CCFF07F10807BD4680BD78
:101F600080B483B000AF786039603B687A685A60AB
:101F70007B683A681A6007F10C07BD4680BC704761
:101F800080B582B000AF78607B685A687B681B6858
:101F900010461946FFF7E4FF7B684FF000021A6015
:101FA0007B684FF000025A6007F10807BD4680BD0C
:101FB00080B582B000AF78607B685A687B681B6828
:101FC00010461946FFF7CCFF7B687A681A607B6879
:101FD0007A685A6007F10807BD4680BD80B483B0B7
:101FE00000AF78607B681A687B689A4214BF002350
:101FF0000123184607F10C07BD4680BC704700BF9F
:1020000090B484B000AF78607B68B3FA83F4FC735B
:10201000FB7B184607F11007BD4690BC704700BF18
:1020200080B500AF4CF20803C2F207031B68002B17
:1020300001D1FFF7D3F84CF20803C2F207031B6883
:1020400003F101024CF20803C2F207031A6080BDDB
:1020500080B500AF4CF20803C2F207031B6803F11E
:10206000FF324CF20803C2F207031A604CF2080375
:10207000C2F207031B68002B01D1FFF7A9F880BD4E
:1020800080B584B000AF78603960FFF7C9FF786829
:10209000FFF7A4FF0346002B07D03B6803F10C03B6
:1020A00018467968FFF73CFF15E07B68FB6002E0AB
:1020B000FB685B68FB60FB685B68A3F10C039A88B4
:1020C0003B689B889A42F3D93B6803F10C0318469E
:1020D000F968FFF735FFFFF7BBFF4FF00303184622
:1020E00007F11007BD4680BD80B584B000AF7860B1
:1020F0003960FFF795FF7868FFF770FF0346002B04
:1021000004D0FFF7A5FF4FF000031BE07B681B68BE
:10211000BB6010E0BB68A3F10C03FB60FB689B880D
:102120001A463B689A4203D1B868FFF741FF06E0C0
:10213000BB681B68BB60BA687B689A42EAD1FFF74C
:1021400087FFFB68184607F11007BD4680BD00BF3A
:1021500080B584B000AF7860FFF762FF7868FFF762
:102160003DFF0346002B04D0FFF772FF4FF0000342
:102170000CE07B681B68A3F10C03FB607B681B68A9
:102180001846FFF7FDFEFFF763FFFB68184607F1EF
:102190001007BD4680BD00BF80B584B000AF786039
:1021A0007B68032B26D801A252F823F0BD21000042
:1021B000CB210000D9210000E72100004FF00200F0
:1021C00000F08EFE0346FB6014E04FF0040000F0C8
:1021D00087FE0346FB600DE04FF02C0000F080FE10
:1021E0000346FB6006E04FF02E0000F079FE034648
:1021F000FB6000BFFB68184607F11007BD4680BDB5
:1022000080B584B000AF786039607868FFF7C4FFAC
:102210000346FB60FB683A6802FB03F24DF68363FA
:10222000C4F21B33A3FB02134FEA9343FB60FB682A
:10223000184607F11007BD4680BD00BF80B485B0C9
:1022400000AF78604FF0FF33FB607B68B3F1402F45
:1022500003D14FF00003FB601FE07A684FF40043A6
:10226000C4F200039A4203D14FF00103FB6014E073
:102270007A684FF00003C4F209039A4203D14FF089
:102280000203FB6009E07A684FF48043C4F209035B
:102290009A4202D14FF00303FB60FB68184607F136
:1022A0001407BD4680BC704780B584B000AF78602D
:1022B0000B46FB707B68B3F1402F1CD07A684FF45B
:1022C0000043C4F200039A4215D07A684FF000032D
:1022D000C4F209039A420ED07A684FF48043C4F2E4
:1022E00009039A4207D043F62820C0F200004FF0BD
:1022F0009F0101F0DFF8FB78002B16D0FB78012B53
:1023000013D0FB78022B10D0FB78032B0DD0FB7879
:10231000042B0AD0FB78052B07D043F62820C0F207
:1023200000004FF0A00101F0C5F87B681B68DAB22D
:10233000FB784FF0010101FA03F3DBB21340FB73AA
:10234000FB7B002B02D04FF0010301E04FF00003B4
:10235000184607F11007BD4680BD00BF80B584B0A8
:1023600000AF78600B46FB707B68B3F1402F1CD048
:102370007A684FF40043C4F200039A4215D07A6899
:102380004FF00003C4F209039A420ED07A684FF46A
:102390008043C4F209039A4207D043F62820C0F2D2
:1023A00000004FF0BD0101F085F8FB78002B16D03E
:1023B000FB78012B13D0FB78022B10D0FB78032B7A
:1023C0000DD0FB78042B0AD0FB78052B07D043F601
:1023D0002820C0F200004FF0BE0101F06BF87B68CE
:1023E0001B68DAB2FB7803F104034FF0010101FA34
:1023F00003F3DBB21340FB73FB7B002B02D04FF0E7
:10240000010301E04FF00003184607F11007BD4635
:1024100080BD00BF80B582B000AF78600B46FB7016
:102420007B68B3F1402F1CD07A684FF40043C4F2AC
:1024300000039A4215D07A684FF00003C4F20903F2
:102440009A420ED07A684FF48043C4F209039A424C
:1024500007D043F62820C0F200004FF0D60101F06B
:1024600029F8FB78002B16D0FB78012B13D0FB78D2
:10247000022B10D0FB78032B0DD0FB78042B0AD055
:10248000FB78052B07D043F62820C0F200004FF060
:10249000D70101F00FF87B681B681A46FB784FF0F4
:1024A000010101FA03F31A437B681A6007F1080778
:1024B000BD4680BD80B582B000AF78600B46FB7032
:1024C0007B68B3F1402F1CD07A684FF40043C4F20C
:1024D00000039A4215D07A684FF00003C4F2090352
:1024E0009A420ED07A684FF48043C4F209039A42AC
:1024F00007D043F62820C0F200004FF0ED0100F0B5
:10250000D9FFFB78002B16D0FB78012B13D0FB787A
:10251000022B10D0FB78032B0DD0FB78042B0AD0B4
:10252000FB78052B07D043F62820C0F200004FF0BF
:10253000EE0100F0BFFF7B681B681A46FB7803F1D1
:1025400004034FF0010101FA03F31A437B681A6098
:1025500007F10807BD4680BD80B485B000AF0346D3
:102560003960FB71FB79002B0AD13B68FB60FB688B
:102570004FF001021A70FB684FF001025A6005E04B
:102580003B68BB60BB684FF000025A7007F114074C
:10259000BD4680BC704700BF80B586B000AFF86014
:1025A0000B467A60FB72FB68B3F1402F1CD0FA68CF
:1025B0004FF40043C4F200039A4215D0FA684FF07A
:1025C0000003C4F209039A420ED0FA684FF4804324
:1025D000C4F209039A4207D043F62820C0F2000053
:1025E0004FF4927100F066FFFB7A002B10D0FB7A5B
:1025F000012B0DD0FB7A012B0AD0FB7A012B07D0DF
:1026000043F62820C0F2000040F2251100F052FFEE
:10261000FB68B3F1402F0CD14FF002004FF00101E5
:1026200000F098FC4FF002004FF0000100F0C8FBF2
:102630003AE0FA684FF40043C4F200039A420CD126
:102640004FF004004FF0010100F084FC4FF0040053
:102650004FF0000100F0B4FB26E0FA684FF00003F1
:10266000C4F209039A420CD14FF480004FF00101EB
:1026700000F070FC4FF02C004FF0000100F0A0FBC8
:1026800012E0FA684FF48043C4F209039A420BD176
:102690004FF400004FF0010100F05CFC4FF02E0001
:1026A0004FF0000100F08CFBFB689B6A23F00302F3
:1026B000FB689A62FB689B6A1A46FB689A62FB6831
:1026C0004FF000029A60FB684FF000021A61FB684D
:1026D0004FF00002DA60FB685B6843F00202FB68BF
:1026E0005A60FB685B6823F00202FB685A60FB7A61
:1026F000002B1CD17B687B617B691B78002B06D18A
:102700007B695B6803F1FF32FB68DA6021E0F868FF
:10271000FFF794FD02467B695B6810461946FFF798
:102720006FFD034603F1FF32FB68DA6011E07B685E
:102730003B61FB689B6A23F00C02FB689A623B6971
:102740005B78012B05D1FB689B6A43F00402FB68B0
:102750009A62FB684FF0FF321A6007F11807BD4616
:1027600080BD00BF80B582B000AF78607B68B3F1F8
:10277000402F1CD07A684FF40043C4F200039A4201
:1027800015D07A684FF00003C4F209039A420ED0C4
:102790007A684FF48043C4F209039A4207D043F6A3
:1027A0002820C0F2000040F26D1100F083FE7B682B
:1027B0004FF000025A607B68B3F1402F06D14FF012
:1027C00002004FF0000100F0C5FB28E07A684FF4EA
:1027D0000043C4F200039A4206D14FF004004FF0C8
:1027E000000100F0B7FB1AE07A684FF00003C4F272
:1027F00009039A4206D14FF480004FF0000100F027
:10280000A9FB0CE07A684FF48043C4F209039A42B2
:1028100005D14FF480004FF0000100F09BFB07F161
:102820000807BD4680BD00BF80B582B000AF7860AC
:102830000B46FB707B68B3F1402F1CD07A684FF4D5
:102840000043C4F200039A4215D07A684FF00003A7
:10285000C4F209039A420ED07A684FF48043C4F25E
:1028600009039A4207D043F62820C0F200004FF433
:10287000C77100F01FFEFB78012B06D17B685B68F7
:1028800043F001027B685A6005E07B685B6823F0D7
:1028900001027B685A6007F10807BD4680BD00BF92
:1028A00080B582B000AF78607B68B3F1402F1CD058
:1028B0007A684FF40043C4F200039A4215D07A6854
:1028C0004FF00003C4F209039A420ED07A684FF425
:1028D0008043C4F209039A4207D043F62820C0F28D
:1028E00000004FF4D37100F0E5FD7B685B6843F0B6
:1028F00002027B685A607B685B6823F002027B6897
:102900005A6007F10807BD4680BD00BF80B582B0A0
:1029100000AF786039607B68B3F1402F1CD07A68D3
:102920004FF40043C4F200039A4215D07A684FF086
:102930000003C4F209039A420ED07A684FF4804330
:10294000C4F209039A4207D043F62820C0F20000DF
:1029500040F2C51100F0AEFD3B681B79002B13D08F
:102960003B681B79012B0FD03B681B79022B0BD0E6
:102970003B681B79032B07D043F62820C0F20000E8
:102980004FF4E37100F096FD3B681B78032B1FD8D2
:1029900001A252F823F000BFA9290000B3290000CA
:1029A000BD290000C72900003B689A687B689A61CE
:1029B0000FE03B689A687B68DA610AE03B689A68D6
:1029C0007B681A6205E03B689A687B685A6200E09F
:1029D000FEE77B685B6919463B681B781A4613461D
:1029E0004FEA43039B184FF0070202FA03F36FEA22
:1029F000030301EA03027B685A613B685B78002BA2
:102A000011D07B685B6919463B681B781A461346F0
:102A10004FEA43039B184FF0010202FA03F341EA25
:102A200003027B685A613B68DB78002B13D07B681C
:102A30005B6919463B681B781A4613464FEA430305
:102A40009B1803F101034FF0010202FA03F341EA7C
:102A500003027B685A613B689B78002B13D07B682C
:102A60005B6919463B681B781A4613464FEA4303D5
:102A70009B1803F102034FF0010202FA03F341EA4B
:102A800003027B685A617B68DB6B1A463B681B78E4
:102A90004FEA430303F104034FF0030101FA03F388
:102AA0006FEA03031A407B68DA637B68DB6B1A46C4
:102AB0003B681B7903F003013B681B784FEA430333
:102AC00003F1040301FA03F31A437B68DA6307F1A5
:102AD0000807BD4680BD00BF80B584B000AFF86078
:102AE0000B467A60FB72FB68B3F1402F1CD0FA688A
:102AF0004FF40043C4F200039A4215D0FA684FF035
:102B00000003C4F209039A420ED0FA684FF48043DE
:102B1000C4F209039A4207D043F62820C0F200000D
:102B200040F2FB1100F0C6FCFB7A032B1BD801A27C
:102B300052F823F0452B00004D2B0000552B0000D0
:102B40005D2B0000FB687A689A610DE0FB687A688B
:102B5000DA6109E0FB687A681A6205E0FB687A6866
:102B60005A6200BF00E0FEE707F11007BD4680BDD6
:102B700080B582B000AF786039607B68B3F1402FD8
:102B80001CD07A684FF40043C4F200039A4215D077
:102B90007A684FF00003C4F209039A420ED07A68B3
:102BA0004FF48043C4F209039A4207D043F6282029
:102BB000C0F2000040F2212100F07CFC7B689B6A9F
:102BC00019463B681B781A4613464FEA43039B1885
:102BD0004FF0070202FA03F36FEA030301EA03026C
:102BE0007B689A623B685B78002B11D07B689B6A9C
:102BF00019463B681B781A4613464FEA43039B1855
:102C00004FF0010202FA03F341EA03027B689A6281
:102C10003B689B78002B13D07B689B6A19463B6806
:102C20001B781A4613464FEA43039B1803F101032E
:102C30004FF0010202FA03F341EA03027B689A6251
:102C40003B68DB78002B13D07B689B6A19463B6896
:102C50001B781A4613464FEA43039B1803F10203FD
:102C60004FF0010202FA03F341EA03027B689A6221
:102C700007F10807BD4680BD80B582B000AF78601F
:102C80000B46FB707B68B3F1402F1CD07A684FF481
:102C90000043C4F200039A4215D07A684FF0000353
:102CA000C4F209039A420ED07A684FF48043C4F20A
:102CB00009039A4207D043F62820C0F200004FF4DF
:102CC0000F7100F0F7FBFB78002B0AD0FB78012B8B
:102CD00007D043F62820C0F2000040F23D2100F06A
:102CE000E9FBFB78002B02D17B68DB6A01E07B68A3
:102CF0001B6B184607F10807BD4680BD80B582B042
:102D000000AF43F65423C0F200037B6044F200039B
:102D1000C1F200033B600BE07B681A683B681A60F5
:102D20003B6803F104033B607B6803F104037B60B1
:102D30003A6844F20803C1F200039A42ECD31B48FC
:102D40001B494FF000028842B8BF40F8042BFADB61
:102D500000F090FAFDF762FAFEE700BF80B400AF22
:102D6000FEE700BF80B400AFFEE700BF80B400AF55
:102D7000FEE700BF80B400AFFEE700BF80B400AF45
:102D8000FEE700BF80B400AFFEE700BF80B400AF35
:102D9000FEE700BF80B400AFFEE700BF80B400AF25
:102DA000FEE700BF80B400AFFEE7000000C00720D0
:102DB000ECFA072080B400AF30BFBD4680BC70473E
:102DC00080B485B000AF786039607B681F2B03D971
:102DD0007B68A3F1200300E07B68FB607B681F2B0E
:102DE00027D84FF44043C4F20F034FF44042C4F2DB
:102DF0000F02D2F8A8211146FA684FF0030000FA3A
:102E000002F26FEA02020A40C3F8A8214FF44043DD
:102E1000C4F20F034FF44042C4F20F02D2F8A821CB
:102E20001146FA68386800FA02F20A43C3F8A8218A
:102E300026E04FF44043C4F20F034FF44042C4F283
:102E40000F02D2F8AC211146FA684FF0030000FAE5
:102E500002F26FEA02020A40C3F8AC214FF4404389
:102E6000C4F20F034FF44042C4F20F02D2F8AC2177
:102E70001146FA68386800FA02F20A43C3F8AC2136
:102E800007F11407BD4680BC704700BF80B485B011
:102E900000AF78607B681F2B09D87B68FB604FF41C
:102EA0004043C4F20F03D3F8A831BB600AE07B684B
:102EB000A3F12003FB604FF44043C4F20F03D3F8A7
:102EC000AC31BB60FB68BA6822FA03F303F003037A
:102ED000BB60BB68184607F11407BD4680BC70474D
:102EE00080B584B000AF786044F20403C1F20003FF
:102EF0001B68BB607868FFF7C9FF0346FB60FB688F
:102F0000032B1BD801A252F823F000BF1D2F000095
:102F1000252F00002D2F0000352F00004FF0040357
:102F2000FB600BE04FF00103FB6007E04FF0020392
:102F3000FB6003E04FF00803FB6000BFBA68FB686A
:102F4000B2FBF3F3BB60BB68184607F11007BD4640
:102F500080BD00BF80B483B000AF78600B46FB70CB
:102F6000FB78012B14D14FF44042C4F20F024FF40E
:102F70004043C4F20F03D3F8C430194678684FF2C7
:102F8000DE73CEF6EF7303400B43C2F8C43018E093
:102F9000FB78002B15D14FF44042C4F20F024FF4DE
:102FA0004043C4F20F03D3F8C43019467B686FEA7C
:102FB000030319404FF2DE73CEF6EF730B40C2F8F5
:102FC000C43007F10C07BD4680BC704780B500AF28
:102FD0004FF44043C4F20F034FF00002C3F8C02087
:102FE000FFF7E8FE80BD00BF80B500AF4FF46D4332
:102FF000CEF200034FF004021A614FF44043C4F2D2
:103000000F034FF00802C3F8C020FFF7D3FE80BDC6
:1030100080B500AF4FF46D43CEF200034FF00402D1
:103020001A614FF44043C4F20F034FF00902C3F892
:10303000C020FFF7BFFE80BD80B500AF4FF46D43E9
:10304000CEF200034FF004021A614FF44043C4F281
:103050000F034FF00302C3F8C020FFF7ABFE80BDA3
:1030600080B400AF4FF44043C4F20F03D3F888306C
:103070004FEA136303F00303032B40F0A4804FF4E3
:103080004043C4F20F03D3F80C3103F00303032BC6
:1030900000F2EC8001A252F823F000BFAD30000036
:1030A0000D3100006F310000AD3000004FF440439F
:1030B000C4F20F03D3F888304FEA43434FEA534337
:1030C00003F101024FF49053C0F27A0303FB02F2C2
:1030D0004FF44043C4F20F03D3F888304FEA134350
:1030E000DBB203F10103B2FBF3F24FF44043C4F24D
:1030F0000F03D3F80431DBB203F10103B2FBF3F2A7
:1031000044F20403C1F200031A60B0E04FF44043FC
:10311000C4F20F03D3F888304FEA43434FEA5343D6
:1031200003F101024FF45853C0F26E1303FB02F295
:103130004FF44043C4F20F03D3F888304FEA1343EF
:10314000DBB203F10103B2FBF3F24FF44043C4F2EC
:103150000F03D3F80431DBB203F10103B2FBF3F246
:1031600044F20403C1F200031A6000BF7FE04FF491
:103170004043C4F20F03D3F888304FEA43434FEA89
:10318000534303F101034FEA03424FF44043C4F2B7
:103190000F03D3F888304FEA1343DBB203F1010386
:1031A000B2FBF3F24FF44043C4F20F03D3F80431FF
:1031B000DBB203F10103B2FBF3F244F20403C1F208
:1031C00000031A6052E04FF44043C4F20F03D3F8F7
:1031D0000C3103F00303032B49D801A252F823F06A
:1031E000F13100001B32000045320000F1310000D7
:1031F0004FF44043C4F20F03D3F80431DBB203F1C0
:1032000001024FF41063C0F23D03B3FBF2F244F24B
:103210000403C1F200031A6029E04FF44043C4F2F2
:103220000F03D3F80431DBB203F101024FF4D8539A
:10323000C0F2B703B3FBF2F244F20403C1F200039D
:103240001A6014E04FF44043C4F20F03D3F8043182
:10325000DBB203F101034FF40042B2FBF3F244F29C
:103260000403C1F200031A6000BF00E000BFBD46C6
:1032700080BC704780B400AF4FF44043C4F20F03EA
:103280004FF02002C3F8A0214FF44043C4F20F03D3
:10329000D3F8A03103F02003002B0AD000BF4FF475
:1032A0004043C4F20F03D3F8A03103F04003002BD6
:1032B000F5D04FF44043C4F20F034FF00302C3F8BC
:1032C00004214FF44043C4F20F034FF00002C3F84F
:1032D000A8214FF44043C4F20F034FF00002C3F89B
:1032E000AC214FF44043C4F20F034FF00102C3F886
:1032F0000C214FF44043C4F20F034FF06302C0F2BD
:103300000502C3F884204FF44043C4F20F034FF08A
:10331000AA02C3F88C204FF44043C4F20F034FF0CD
:103320005502C3F88C204FF44043C4F20F034FF012
:103330000102C3F880204FF44043C4F20F034FF062
:10334000AA02C3F88C204FF44043C4F20F034FF09D
:103350005502C3F88C2000BF4FF44043C4F20F0362
:10336000D3F8883003F08063002BF5D04FF440434E
:10337000C4F20F034FF00302C3F880204FF4404320
:10338000C4F20F034FF0AA02C3F88C204FF440435D
:10339000C4F20F034FF05502C3F88C2000BF4FF466
:1033A0004043C4F20F03D3F8883003F04073002B7E
:1033B000F5D04FF44043C4F20F034FF02302C3F89B
:1033C000A4204FF44043C4F20F034FF0AA02C3F805
:1033D000AC204FF44043C4F20F034FF05502C3F842
:1033E000AC204FF44043C4F20F034FF00102C3F886
:1033F000A0204FF44043C4F20F034FF0AA02C3F8D9
:10340000AC204FF44043C4F20F034FF05502C3F811
:10341000AC2000BF4FF44043C4F20F03D3F8A830F0
:1034200003F48063002BF5D04FF44043C4F20F0344
:103430004FF00302C3F8A0204FF44043C4F20F033F
:103440004FF0AA02C3F8AC204FF44043C4F20F037C
:103450004FF05502C3F8AC2000BF4FF44043C4F214
:103460000F03D3F8A83003F44073002BF5D04FF4CA
:103470004043C4F20F0348F2DE72C0F22842C3F8A0
:10348000C4204FF44043C4F20F034FF00002C3F8CE
:10349000C8214FF44043C4F20F0343F23A021A60CA
:1034A0004FF46D43CEF200034FF000029A60BD4628
:1034B00080BC704780B483B000AF78603960FEE7AD
:1034C00080F0004002E000BF81F0004142001FBFD9
:1034D0005FEA410392EA030F7FEA226C7FEA236CE2
:1034E0006AD04FEA1262D2EB1363C1BFD2184140D7
:1034F00048404140B8BF5B42192B88BF704710F06D
:10350000004F40F4000020F07F4018BF404211F00F
:10351000004F41F4000121F07F4118BF494292EA77
:10352000030F3FD0A2F1010241FA03FC10EB0C00A3
:10353000C3F1200301FA03F100F0004302D5494230
:1035400060EB4000B0F5000F13D3B0F1807F06D3DD
:1035500040084FEA310102F10102FE2A51D2B1F1D5
:10356000004F40EBC25008BF20F0010040EA0300CA
:103570007047490040EB000010F4000FA2F1010277
:10358000EDD1B0FA80FCACF1080CB2EB0C0200FA01
:103590000CF0AABF00EBC25052421843BCBFD0404F
:1035A0001843704792F0000F81F4000106BF80F4C9
:1035B00000000132013BB5E74FEA41037FEA226C8C
:1035C00018BF7FEA236C21D092EA030F04D092F057
:1035D000000F08BF0846704790EA010F1CBF00208B
:1035E000704712F07F4F04D1400028BF40F00040E8
:1035F000704712F100723CBF00F50000704700F008
:10360000004343F0FE4040F4000070477FEA22622E
:1036100016BF08467FEA23630146420206BF5FEAFF
:10362000412390EA010F40F4800070474FF00003FF
:1036300004E000BF10F0004348BF40425FEA000CC6
:1036400008BF704743F0964301464FF000001CE06E
:1036500050EA010208BF70474FF000030AE000BFC4
:1036600050EA010208BF704711F0004302D5404202
:1036700061EB41015FEA010C02BF84460146002074
:1036800043F0B64308BFA3F18053A3F50003BCFA8F
:103690008CF2083AA3EBC25310DB01FA02FC63443C
:1036A00000FA02FCC2F12002BCF1004F20FA02F243
:1036B00043EB020008BF20F00100704702F1200236
:1036C00001FA02FCC2F1200250EA4C0021FA02F297
:1036D00043EB020008BF20EADC7070474FF0FF0C9C
:1036E0001CEAD0521EBF1CEAD15392EA0C0F93EA97
:1036F0000C0F6FD01A4480EA010C400218BF5FEA39
:1037000041211ED04FF0006343EA501043EA5111AB
:10371000A0FB01310CF00040B1F5000F3EBF4900A5
:1037200041EAD3715B0040EA010062F17F02FD2AA9
:103730001DD8B3F1004F40EBC25008BF20F001008C
:10374000704790F0000F0CF0004C08BF49024CEAA3
:10375000502040EA51207F3AC2BFD2F1FF0340EA35
:10376000C250704740F400004FF00003013A5DDCA6
:1037700012F1190FDCBF00F000407047C2F10002E7
:10378000410021FA02F1C2F1200200FA02FC5FEAD4
:10379000310040F1000053EA4C0308BF20EADC701E
:1037A000704792F0000F00F0004C02BF400010F490
:1037B000000F013AF9D040EA0C0093F0000F01F03D
:1037C000004C02BF490011F4000F013BF9D041EA5F
:1037D0000C018FE70CEAD15392EA0C0F18BF93EA61
:1037E0000C0F0AD030F0004C18BF31F0004CD8D18B
:1037F00080EA010000F00040704790F0000F17BF12
:1038000090F0004F084691F0000F91F0004F14D057
:1038100092EA0C0F01D142020FD193EA0C0F03D1AF
:103820004B0218BF084608D180EA010000F00040B2
:1038300040F0FE4040F40000704740F0FE4040F48D
:10384000400070474FF0FF0C1CEAD0521EBF1CEA2C
:10385000D15392EA0C0F93EA0C0F69D0A2EB03024A
:1038600080EA010C49024FEA402037D04FF08053E4
:1038700043EA111143EA10130CF000408B4238BFA9
:103880005B0042F17D024FF4000C8B4224BF5B1AB7
:1038900040EA0C00B3EB510F24BFA3EB510340EA05
:1038A0005C00B3EB910F24BFA3EB910340EA9C00B3
:1038B000B3EBD10F24BFA3EBD10340EADC001B0123
:1038C00018BF5FEA1C1CE0D1FD2A3FF650AF8B42C7
:1038D00040EBC25008BF20F0010070470CF0004CD4
:1038E0004CEA50207F32C2BFD2F1FF0340EAC250FF
:1038F000704740F400004FF00003013A37E792F0C0
:10390000000F00F0004C02BF400010F4000F013A1D
:10391000F9D040EA0C0093F0000F01F0004C02BF18
:10392000490011F4000F013BF9D041EA0C0195E781
:103930000CEAD15392EA0C0F08D142027FF47DAF1A
:1039400093EA0C0F7FF470AF084676E793EA0C0F0A
:1039500004D14B023FF44CAF08466EE730F0004C08
:1039600018BF31F0004CCAD130F000427FF45CAF98
:1039700031F000437FF43CAF5FE700BF0F2AF0B4A3
:103980003AD941EA00039B0738D10C460346154655
:103990002668103D1E6066685E60A6689E60E668E8
:1039A0001034DE6010330F2DF2D8A2F1100424F091
:1039B0000F0402F00F021034032A00EB0403214429
:1039C00011D90E461D46144656F8047B043C032CC0
:1039D00045F8047BF8D8141F24F00304043402F0E3
:1039E000030209191B192AB111F8014B013A03F816
:1039F000014BF9D1F0BC70470346F4E70346F3E707
:103A00000100000000000000001F0804081F001053
:103A1000080708100000001F0101001F111F0018F7
:103A200006010618001F15152E2E5C2E2E5C6C70DC
:103A300063313778785F6C69625C736F7572636548
:103A40005C6C7063313778785F74696D65722E6372
:043A50000000000072
:083A54000100000000E1F5058E
:00000001FF
