:10000000180400100D030000750300007D030000BC
:10001000850300008D030000950300000000000030
:10002000000000000000000000000000C9120000F5
:100030009D0300000000000079130000D5100000AF
:10004000A5030000A5030000A5030000A503000010
:10005000A5030000A5030000A5030000A503000000
:10006000A5030000A5030000A5030000A5030000F0
:10007000A5030000A5030000A5030000A5030000E0
:10008000A5030000A5030000A5030000A5030000D0
:10009000A5030000A5030000A5030000A5030000C0
:1000A000A5030000A5030000A5030000A5030000B0
:1000B000A5030000A5030000A5030000A5030000A0
:1000C000A5030000A5030000A503000080B400AF55
:1000D0004FF44043C4F20F034FF02002C3F8A021B5
:1000E0004FF44043C4F20F03D3F8A03103F02003D0
:1000F000002B0AD000BF4FF44043C4F20F03D3F8E3
:10010000A03103F04003002BF5D04FF44043C4F27C
:100110000F034FF00302C3F804214FF44043C4F22D
:100120000F034FF00002C3F8A8214FF44043C4F27C
:100130000F034FF00002C3F8AC214FF44043C4F268
:100140000F034FF00102C3F80C214FF44043C4F2F7
:100150000F034FF06302C0F20502C3F884204FF48E
:100160004043C4F20F034FF0AA02C3F88C204FF4AF
:100170004043C4F20F034FF05502C3F88C204FF4F4
:100180004043C4F20F034FF00102C3F880204FF444
:100190004043C4F20F034FF0AA02C3F88C204FF47F
:1001A0004043C4F20F034FF05502C3F88C2000BF48
:1001B0004FF44043C4F20F03D3F8883003F0806358
:1001C000002BF5D04FF44043C4F20F034FF003026D
:1001D000C3F880204FF44043C4F20F034FF0AA024B
:1001E000C3F88C204FF44043C4F20F034FF0550284
:1001F000C3F88C2000BF4FF44043C4F20F03D3F880
:10020000883003F04073002BF5D04FF44043C4F224
:100210000F034FF02302C3F8A4204FF44043C4F26D
:100220000F034FF0AA02C3F8AC204FF44043C4F2CE
:100230000F034FF05502C3F8AC204FF44043C4F213
:100240000F034FF00102C3F8A0204FF44043C4F263
:100250000F034FF0AA02C3F8AC204FF44043C4F29E
:100260000F034FF05502C3F8AC2000BF4FF44043DA
:10027000C4F20F03D3F8A83003F48063002BF5D049
:100280004FF44043C4F20F034FF00302C3F8A02021
:100290004FF44043C4F20F034FF0AA02C3F8AC205E
:1002A0004FF44043C4F20F034FF05502C3F8AC20A3
:1002B00000BF4FF44043C4F20F03D3F8A83003F457
:1002C0004073002BF5D04FF44043C4F20F0348F2C3
:1002D000DE72C0F22842C3F8C4204FF44043C4F297
:1002E0000F034FF00002C3F8C8214FF44043C4F29B
:1002F0000F0343F23A021A604FF46D43CEF200034B
:100300004FF000029A60BD4680BC704780B582B055
:1003100000AF41F65423C0F200037B6040F20003BB
:10032000C1F200033B600BE07B681A683B681A600F
:100330003B6803F104033B607B6803F104037B60CB
:100340003A6840F20003C1F200039A42ECD3074836
:1003500007494FF000028842B8BF40F8042BFADB8F
:10036000FFF7B4FE00F03CFAFEE7000000000010CA
:10037000D82A001080B400AFFEE700BF80B400AF01
:10038000FEE700BF80B400AFFEE700BF80B400AF5F
:10039000FEE700BF80B400AFFEE700BF80B400AF4F
:1003A000FEE700BF80B400AFFEE700BF80B485B0B9
:1003B00000AFF860B9607A607B68FA685A60FB68E1
:1003C0007A681A60FB68BA685A60BB68FA681A6093
:1003D00007F11407BD4680BC704700BF80B582B0EE
:1003E00000AF786039603B685B68786819463A68A6
:1003F000FFF7DCFF07F10807BD4680BD80B500AF01
:1004000040F21003C1F200031B68002B01D100F081
:10041000ADFF40F21003C1F200031B6803F10102BB
:1004200040F21003C1F200031A6080BD80B500AF36
:1004300040F21003C1F200031B6803F1FF3240F2E7
:100440001003C1F200031A6040F21003C1F200036E
:100450001B68002B01D100F083FF80BD80B582B006
:1004600000AF4FF000037B600CE040F25443C1F258
:1004700000037A684FF0000143F822107B6803F113
:1004800001037B607B68092BEFDD4FF000037B608D
:100490000CE040F22443C1F200037A684FF00001FF
:1004A00043F822107B6803F101037B607B68092B12
:1004B000EFDD40F27C43C1F200034FF000021A600E
:1004C00040F24C43C1F2000340F24C42C1F2000240
:1004D0001A6040F24C43C1F2000340F24C42C1F2B8
:1004E00000025A6000F0D8FF07F10807BD4680BD42
:1004F00080B588B000AFB9607A603B600346FB739B
:100500004FF00303FB77FB7B0A2B08D8FA7B40F202
:100510005443C1F2000353F82230002B04D04FF0B3
:100520000103FB77FB7F55E040F20003C1F20003BB
:100530001B6803F1010240F20003C1F200031A60DC
:100540004FF01C0000F09CFB0346BB61FB7BB869CD
:1005500019463A6800F044F8B86AB9687A683B68A6
:1005600000F06CFE0246BB691A60BB699B881A46A4
:1005700040F25443C1F20003B96943F82210BB6949
:100580009B881A4640F22443C1F20003B96943F83C
:100590002210BB699B8803F01F034FF0010202FA8F
:1005A00003F31A4640F27C43C1F200031B681A436E
:1005B00040F27C43C1F200031A60BB6903F11403EB
:1005C000184640F24C41C1F20001FFF707FFBB693A
:1005D0007B61FB7F184607F12007BD4680BD00BF49
:1005E00080B485B000AFF8600B467A60FB72FB7A8E
:1005F0009AB2FB689A80FB684FF001029A71FB681F
:100600004FF00302DA71FB684FF000029A60FB685A
:1006100003F11402FB685A61FB6803F11402FB68E2
:100620009A61FB6803F10C02FB68DA60FB6803F176
:100630000C02FB681A6107F11407BD4680BC7047C5
:1006400090B583B000AFFFF7D9FE40F21403C1F2BA
:1006500000031B68002B35D140F27C43C1F200033C
:100660001B687B607B68B3FA83F4FC70FB78C3F192
:100670001F0240F22443C1F2000353F8222040F24B
:100680001C43C1F200031A6040F22043C1F2000390
:100690001A6840F21C43C1F200031B689A4202D15F
:1006A000FFF7C4FE11E0FFF7C1FE4FF46D43CEF239
:1006B00000034FF46D42CEF20002526842F08052C5
:1006C0005A6002E0FFF7B2FE00BF07F10C07BD461B
:1006D00090BD00BF80B500AFFFF790FE40F2204311
:1006E000C1F200031B684FF002029A7140F22043EE
:1006F000C1F200031B689B881A4640F22443C1F2F2
:1007000000034FF0000143F8221040F22043C1F2F1
:1007100000031B689B8803F01F034FF0010202FADD
:1007200003F36FEA03031A4640F27C43C1F200036D
:100730001B681A4040F27C43C1F200031A60FFF7C5
:1007400075FEFFF77DFF80BD80B582B000AF034628
:10075000FB80FFF753FEFA8840F25443C1F20003D6
:1007600053F82230002B04D1FFF760FE4FF0010355
:1007700030E0FA8840F25443C1F2000353F82230CB
:100780004FF001029A71FA88F98840F25443C1F29D
:10079000000353F8211040F22443C1F2000343F850
:1007A0002210FB8803F01F034FF0010202FA03F34B
:1007B0001A4640F27C43C1F200031B681A4340F220
:1007C0007C43C1F200031A60FFF730FEFFF738FFE9
:1007D0004FF00303184607F10807BD4680BD00BF70
:1007E00080B582B002AF4CF22003C2F209034CF292
:1007F0002002C2F20902126842F480221A604CF20E
:100800002003C2F209034CF22002C2F2090212686C
:1008100042F480121A604CF22003C2F209034CF237
:100820002002C2F20902126842F400121A604CF26D
:100830002003C2F209034CF22002C2F2090212683C
:1008400042F400021A6000F0D3FD404B00934FF0D9
:10085000000301934FF0010040F66511C0F2000162
:100860004FF000024FF4AF73FFF742FE384B009396
:100870004FF0000301934FF0020040F6DD11C0F28B
:1008800000014FF000024FF4AF73FFF731FE314B20
:1008900000934FF0000301934FF0030040F6D52181
:1008A000C0F200014FF000024FF4AF73FFF720FEDB
:1008B000294B00934FF0000301934FF0040040F6E2
:1008C0007531C0F200014FF000024FF4AF73FFF733
:1008D0000FFE224B00934FF0000301934FF00500F1
:1008E00040F6AD31C0F200014FF000024FF4AF739B
:1008F000FFF7FEFD1A4B00934FF0000301934FF0FA
:10090000060040F6C531C0F200014FF000024FF47E
:10091000AF73FFF7EDFD4FF00A004FF0040100F058
:1009200005FF024641F66023C1F200031A604FF052
:10093000010000F00BFE024641F66423C1F2000301
:100940001A6000F05FFD1846BD4680BD5C1A0010BD
:100950006C0F0010F409001054250010E41400106E
:10096000DC1F001080B584B000AF78604FF000034A
:10097000FB604FF00103BB604FF00103BB604FF021
:100980000003FB6003E0FB6803F10103FB60FB680D
:10099000042BF8DD4FF00103FB600BE0FB6803F173
:1009A00001031A46BB6802FB03F3BB60FB6803F15B
:1009B0000103FB60FB68092BF0DD4CF22003C2F25F
:1009C00009034CF22002C2F20902526982F4802229
:1009D0005A614FF0640000F0E5FBCDE780B5EAB066
:1009E00000AF07F1040318604FF0000387F89F3150
:1009F0004FF00003C7F898314FF00003C7F8A43157
:100A000052E04FF00203C7F8A0311BE04FF00103A2
:100A100087F89F31D7F8A431D7F8A02193FBF2F2E1
:100A2000D7F8A01101FB02F29B1A002B04D14FF062
:100A3000000387F89F310BE0D7F8A03103F10103E1
:100A4000C7F8A031D7F8A021D7F8A4319A42DDDB4E
:100A500097F89F31002B21D0D7F8982148F21F53E7
:100A6000C5F2EB1383FB02134FEA63114FEAE27303
:100A7000CB1A4FF0640101FB03F3D31AD7F8A4118A
:100A800007F1080242F82310D7F8983103F1010367
:100A9000C7F898314FF0000387F89F31D7F8A43199
:100AA00003F10103C7F8A431D7F8A431632BA8DD03
:100AB0004CF22003C2F209034CF22002C2F20902F6
:100AC000526982F480125A614FF0C80000F06AFB4C
:100AD00092E700BF80B5E8B000AF07F104031860EB
:100AE00007F10C034FF000021A6007F10C034FF0FE
:100AF00001025A604FF00203C7F89C311CE0D7F89E
:100B00009C3103F1FF3207F10C0353F82220D7F890
:100B10009C31A3F1020107F10C0353F82130D118E5
:100B200007F10C03D7F89C2143F82210D7F89C3129
:100B300003F10103C7F89C31D7F89C31632BDEDD4C
:100B400041F66023C1F200031A6807F10C0303F1B8
:100B50000C031046194600F041FE41F66423C1F231
:100B600000031B68184600F06DFD4FF4967000F00E
:100B700019FBB5E780B582B000AF786041F6642319
:100B8000C1F200031B6818464FF47A7100F0FCFCB8
:100B90004CF22003C2F209034CF22002C2F2090215
:100BA000526982F400125A61E8E700BF80B582B052
:100BB00000AF78604FF4FA6000F0F4FAFFF78AFDB6
:100BC000F8E700BF80B584B000AF78604FF0040054
:100BD00000F056F80346FB6041F66423C1F20003BF
:100BE0001B6818464FF0000100F0CEFC41F6602370
:100BF000C1F200031B681846F9684FF0000200F0CC
:100C00004BFE4CF22003C2F209034CF22002C2F266
:100C10000902526982F400025A614FF0640000F048
:100C2000C1FAE3E780B483B000AF42F25853C1F297
:100C3000000303F1030323F003031A4642F64413AF
:100C4000C1F200031A604FF000037B600DE042F632
:100C50004413C1F200031A687B68D3184FF00002F6
:100C60001A707B6803F101037B607A6840F2E73316
:100C70009A42ECD907F10C07BD4680BC704700BF13
:100C800080B485B000AF786040F20803C1F2000381
:100C90001B681A467B68D318B3F57A7F23D940F2D4
:100CA0000403C1F200031B681A467B689A4203D210
:100CB0004FF00003FB6030E042F64413C1F2000342
:100CC0001B68FB6040F20803C1F200031B681A4670
:100CD0007B68D318A3F57A731A4640F20803C1F271
:100CE00000031A6019E042F64413C1F200031A68C7
:100CF00040F20803C1F200031B68D318FB6040F206
:100D00000803C1F200031B681A467B68D3181A4611
:100D100040F20803C1F200031A60FB68184607F1AD
:100D20001407BD4680BC704780B485B000AFF86042
:100D3000B9607A607B68FA685A60FB687A681A6002
:100D4000FB68BA685A60BB68FA681A6007F1140752
:100D5000BD4680BC704700BF80B582B000AF7860F0
:100D600039603B681B68786839681A46FFF7DCFF12
:100D700007F10807BD4680BD80B582B000AF78603E
:100D800039603B685B68786819463A68FFF7CCFFC2
:100D900007F10807BD4680BD80B483B000AF78601E
:100DA00039603B687A685A607B683A681A6007F174
:100DB0000C07BD4680BC704780B582B000AF78603C
:100DC0007B685A687B681B6810461946FFF7E4FF8A
:100DD0007B684FF000021A607B684FF000025A6097
:100DE00007F10807BD4680BD80B582B000AF7860CE
:100DF0007B685A687B681B6810461946FFF7CCFF72
:100E00007B687A681A607B687A685A6007F108071D
:100E1000BD4680BD80B483B000AF78607B681A683F
:100E20007B689A4214BF00230123184607F10C0780
:100E3000BD4680BC704700BF80B500AF40F21003D4
:100E4000C1F200031B68002B01D100F08FFA40F2C1
:100E50001003C1F200031B6803F1010240F210030A
:100E6000C1F200031A6080BD80B500AF40F21003EC
:100E7000C1F200031B6803F1FF3240F21003C1F21C
:100E800000031A6040F21003C1F200031B68002B3C
:100E900001D100F065FA80BD80B584B000AF786004
:100EA0003960FFF7C9FF7868FFF7B4FF0346002BEE
:100EB00007D03B6803F10C0318467968FFF74CFF35
:100EC00015E07B68FB6002E0FB685B68FB60FB6829
:100ED0005B68A3F10C039A883B689B889A42F3D91C
:100EE0003B6803F10C031846F968FFF745FFFFF76D
:100EF000BBFF4FF00303184607F11007BD4680BD46
:100F000080B584B000AF78603960FFF795FF7868EE
:100F1000FFF780FF0346002B04D0FFF7A5FF4FF03B
:100F200000031BE07B681B68BB6010E0BB68A3F19B
:100F30000C03FB60FB689B881A463B689A4203D10E
:100F4000B868FFF751FF06E0BB681B68BB60BA6872
:100F50007B689A42EAD1FFF787FFFB68184607F1E2
:100F60001007BD4680BD00BF80B584B000AF78607B
:100F7000FFF762FF7868FFF74DFF0346002B04D0B0
:100F8000FFF772FF4FF000030CE07B681B68A3F1D2
:100F90000C03FB607B681B681846FFF70DFFFFF72B
:100FA00063FFFB68184607F11007BD4680BD00BF10
:100FB00080B500AF40F21003C1F200031B68002BA4
:100FC00001D100F0D3F940F21003C1F200031B6815
:100FD00003F1010240F21003C1F200031A6080BD68
:100FE00080B500AF40F21003C1F200031B6803F1AB
:100FF000FF3240F21003C1F200031A6040F2100306
:10100000C1F200031B68002B01D100F0A9F980BDDB
:1010100080B500AFFFF7CCFF40F21403C1F200032C
:101020001B6803F1010240F21403C1F200031A60CD
:10103000FFF7D6FF80BD00BF90B583B000AFFFF7CC
:10104000B7FF40F21403C1F200031B6803F1FF3243
:1010500040F21403C1F200031A6040F21403C1F21B
:1010600000031B68002B2FD140F27C43C1F2000328
:101070001B687B607B68B3FA83F4FC70FB78C3F178
:101080001F0240F22443C1F2000353F8222040F231
:101090001C43C1F200031A6040F21C43C1F200037A
:1010A0001A6840F22043C1F200031B689A420BD039
:1010B0004FF46D43CEF200034FF46D42CEF20002C6
:1010C000526842F080525A60FFF78AFF07F10C071E
:1010D000BD4690BD80B582B000AFFFF799FF40F2EA
:1010E0000C03C1F200031B6803F1010240F20C0380
:1010F000C1F200031A60FFF75BFF40F24C43C1F2FC
:1011000000031B687B603EE07B68A3F114033B6037
:101110003B689B68002B33D03B689B6803F1FF3230
:101120003B689A603B689B68002B29D13B684FF075
:1011300001029A713B68DB79032B03D03B684FF0C7
:101140000202DA713B689B881A4640F22443C1F2DE
:101150000003396843F822103B689B8803F01F03A3
:101160004FF0010202FA03F31A4640F27C43C1F247
:1011700000031B681A4340F27C43C1F200031A606B
:101180007B681B687B607A6840F24C43C1F20003C5
:101190009A42B9D1FFF724FFFFF74EFF07F1080786
:1011A000BD4680BD80B582B000AF7860FFF700FF1C
:1011B00040F22043C1F200031B687A689A6040F253
:1011C0002043C1F200031B684FF002029A71FFF73F
:1011D00007FFFFF77FFA07F10807BD4680BD00BF94
:1011E00080B483B000AF03463960FB7197F90730D4
:1011F000002B10DA4FF46D43CEF20003FA7902F0BF
:101200000F02A2F104013A68D2B24FEAC202D2B28E
:101210005B181A760DE04FF46143CEF2000397F9A4
:1012200007103A68D2B24FEAC202D2B25B1883F812
:10123000002307F10C07BD4680BC704780B487B01F
:1012400000AFF860B9607A603B60FB687B617B69E6
:10125000A3F104037B617B694FF080721A607B69A4
:10126000A3F104037B61BA687B691A607B69A3F10F
:1012700004037B617B694FF000021A607B69A3F174
:1012800010037B617B69A3F104037B617A687B694E
:101290001A607B69A3F120037B617B69184607F123
:1012A0001C07BD4680BC704780B400AF054800688D
:1012B000006880F3088862B600DF00BFBD4680BCCE
:1012C0007047000008ED00E080B400AF044A1168E8
:1012D0000868B0E8F00F80F309884EF00D0E7047F3
:1012E0001C040010BD4680BC704700BF80B400AF36
:1012F0004EF21003CEF200034FF007021A60BD4613
:1013000080BC704780B582B000AF48F2A063C0F2E5
:1013100001037B607A686FF07F439A4202D94FF0F5
:10132000010318E04EF21003CEF200037A6822F0B7
:101330007F4202F1FF325A604FF0FF304FF01F0141
:10134000FFF74EFF4EF21003CEF200034FF0000203
:101350009A604FF00003184607F10807BD4680BDAC
:1013600080B400AF62B6BD4680BC704780B400AFA9
:1013700072B6BD4680BC7047EFF3098020E9F00FDC
:1013800007490A681060074A11680868B0E8F00F5A
:1013900080F30988024803490A680260704700BF69
:1013A000200400101C04001080B500AF4EF620533E
:1013B000CEF200034EF62052CEF20002126842F442
:1013C0007F021A604EF62053CEF200034EF62052F2
:1013D000CEF20002126842F07F421A60FFF764FF0B
:1013E00080BD00BF80B400AF30BFBD4680BC704739
:1013F00080B500AFFFF716FCFFF730F8FFF782FF6C
:1014000080BD00BF90B583B000AF40F27C43C1F215
:1014100000031B687B607B68B3FA83F4FC70FB7885
:10142000C3F11F0240F22443C1F2000353F822200B
:1014300040F21C43C1F200031A6040F21C43C1F2A7
:1014400000031A6840F22043C1F200031A60FFF75C
:101450004DFFFFF7A9FF07F10C07BD4690BD00BF88
:1014600080B582B000AF786040F21803C1F200038B
:101470001B6803F1010240F21803C1F200031A6075
:101480004FF44043C4F20F034FF00002C3F8C020F2
:10149000FFF7A8FFE8E700BF80B582B002AF094BB5
:1014A00000934FF0000301934FF0000041F26141BF
:1014B000C0F200014FF000024FF06403FFF718F88C
:1014C000BD4680BDD42A001080B483B000AF7860E0
:1014D0007B681A687B689A4214BF00230123184670
:1014E00007F10C07BD4680BC704700BF80B500AF58
:1014F00040F21003C1F200031B68002B01D1FFF77B
:1015000035FF40F21003C1F200031B6803F1010232
:1015100040F21003C1F200031A6080BD80B500AF35
:1015200040F21003C1F200031B6803F1FF3240F2E6
:101530001003C1F200031A6040F21003C1F200036D
:101540001B68002B01D1FFF70BFF80BD80B584B075
:1015500000AF78604FF00C00FFF792FB0346FB6092
:10156000FB687A681A60FB6803F10402FB685A6042
:10157000FB6803F10402FB689A60FB68184607F1F8
:101580001007BD4680BD00BF80B582B000AF786057
:101590003960FFF7ABFF7B681B68002B0AD07B68C4
:1015A0001B6803F1FF327B681A60FFF7B7FF4FF04B
:1015B000030341E040F22043C1F200031B684FF0F7
:1015C0000102DA717B6803F1040240F22043C1F2A8
:1015D00000031B6810461946FFF75EFC3B68002BB2
:1015E0001CD03868FFF7DEFDFFF798FF40F220437C
:1015F000C1F200031B68DB79022B13D17B6803F176
:10160000040240F22043C1F200031B689B8810468D
:101610001946FFF775FC4FF006030DE0FFF77EFF5C
:10162000FFF758F840F22043C1F200031B684FF067
:101630000302DA714FF00303184607F10807BD46AD
:1016400080BD00BF80B584B000AF7860FFF74EFF6B
:101650007B6803F104031846FFF736FF0346002BAF
:1016600006D07B681B6803F101027B681A6014E0F6
:101670007B6803F104031846FFF776FC0346FB6022
:10168000FB689B68002B03D0FB684FF000029A6058
:10169000FB689B881846FFF757F8FFF73FFF07F1F5
:1016A0001007BD4680BD00BF80B483B000AF786036
:1016B0007B681A687B689A4214BF0023012318468E
:1016C00007F10C07BD4680BC704700BF80B500AF76
:1016D00040F21003C1F200031B68002B01D1FFF799
:1016E00045FE40F21003C1F200031B6803F1010242
:1016F00040F21003C1F200031A6080BD80B500AF54
:1017000040F21003C1F200031B6803F1FF3240F204
:101710001003C1F200031A6040F21003C1F200038B
:101720001B68002B01D1FFF71BFE80BD80B584B084
:1017300000AF786039604FF02C00FFF7A1FA034644
:10174000FB60FB68002B02D14FF0000340E03B68D8
:101750007A6802FB03F31846FFF792FA0246FB6829
:101760009A60FB689B68002B02D14FF000032FE0CA
:10177000FB689A683B68796801FB03F3D218FB6841
:10178000DA60FB689A68FB681A60FB689A68FB6815
:101790005A60FB687A681A61FB684FF000025A6170
:1017A000FB683A689A61FB6803F11C02FB68DA6126
:1017B000FB6803F11C02FB681A62FB6803F1240258
:1017C000FB685A62FB6803F12402FB689A62FB68BB
:1017D000184607F11007BD4680BD00BF80B584B034
:1017E00000AF78603960FFF771FF7B685A697B68EA
:1017F0001B699A4204D1FFF781FF4FF0050345E0D2
:101800007B685A687B689B69D2187B68DB689A4260
:1018100003D37B689A687B685A607B6859687B68E9
:101820009B693A68084611461A4600F0D1F87B6871
:101830005A687B689B69D2187B685A607B685B69D1
:1018400003F101027B685A617B6803F124031846A7
:10185000FFF72AFF0346002B14D17B6803F1240312
:101860001846FFF781FB0346FB60FB689B68002B73
:1018700003D0FB684FF000029A60FB689B88184613
:10188000FEF762FFFFF73AFF4FF00303184607F138
:101890001007BD4680BD00BF80B584B000AFF860C2
:1018A000B9607A60FFF712FFFB685B69002B10D00C
:1018B00040F22043C1F200031B684FF00302DA71CB
:1018C000B868F96800F056F8FFF718FF4FF0030307
:1018D0004AE0FB6803F1240240F22043C1F2000316
:1018E0001B6810461946FFF7D7FA40F22043C1F2B1
:1018F00000031B684FF00002DA717B68002B1DD0DB
:101900007B681846FFF74EFCFFF7F8FE40F22043D5
:10191000C1F200031B68DB79022B13D1FB6803F1D2
:10192000240240F22043C1F200031B689B8810464A
:101930001946FFF7E5FA4FF0060315E0FFF7DEFE64
:10194000FEF7C8FEFFF7C2FE40F22043C1F20003DB
:101950001B684FF00302DA71B868F96800F00AF802
:10196000FFF7CCFE4FF00303184607F11007BD4602
:1019700080BD00BF80B582B000AF786039603B6841
:101980001A683B689B697968084611461A4600F058
:101990001FF83B685B6903F1FF323B685A613B68A3
:1019A0001A683B689B69D2183B68DB689A4204D38B
:1019B0003B689A683B681A6006E03B681A683B68B7
:1019C0009B69D2183B681A6007F10807BD4680BDC5
:1019D0000F2AF0B43AD941EA00039B0738D10C46EC
:1019E000034615462668103D1E6066685E60A66860
:1019F0009E60E6681034DE6010330F2DF2D8A2F13D
:101A0000100424F00F0402F00F021034032A00EB3C
:101A10000403214411D90E461D46144656F8047B92
:101A2000043C032C45F8047BF8D8141F24F003046D
:101A3000043402F0030209191B192AB111F8014BF1
:101A4000013A03F8014BF9D1F0BC70470346F4E7C3
:041A50000346F3E76F
:00000001FF
