:100000002C0400104D040000B5040000BD040000E5
:10001000C5040000CD040000D5040000000000006D
:10002000000000000000000000000000511C000063
:10003000DD04000000000000251D00000D1A000076
:10004000E5040000E5040000E5040000E50400000C
:10005000E5040000E5040000E5040000E5040000FC
:10006000E5040000E5040000E5040000E5040000EC
:10007000E5040000E5040000E5040000E5040000DC
:10008000E5040000E5040000E5040000E5040000CC
:10009000E5040000E5040000C90E0000E5040000CE
:1000A000E5040000E5040000E5040000E5040000AC
:1000B000E5040000E5040000E5040000E50400009C
:1000C000E5040000E5040000E504000080B485B00C
:1000D00000AF78607B681F2B09D87B68FB604FF40A
:1000E0004043C4F20F03D3F8A831BB600AE07B6839
:1000F000A3F12003FB604FF44043C4F20F03D3F895
:10010000AC31BB60FB68BA6822FA03F303F0030367
:10011000BB60BB68184607F11407BD4680BC70473A
:1001200080B584B000AF786040F20003C1F20003F4
:100130001B68BB607868FFF7C9FF0346FB60FB687C
:10014000032B1BD801A252F823F000BF5D01000071
:10015000650100006D010000750100004FF004030F
:10016000FB600BE04FF00103FB6007E04FF0020380
:10017000FB6003E04FF00803FB6000BFBA68FB6858
:10018000B2FBF3F3BB60BB68184607F11007BD462E
:1001900080BD00BF80B483B000AF78600B46FB70B9
:1001A000FB78012B14D14FF44042C4F20F024FF4FC
:1001B0004043C4F20F03D3F8C430194678684FF2B5
:1001C000DE73CEF6EF7303400B43C2F8C43018E081
:1001D000FB78002B15D14FF44042C4F20F024FF4CC
:1001E0004043C4F20F03D3F8C43019467B686FEA6A
:1001F000030319404FF2DE73CEF6EF730B40C2F8E3
:10020000C43007F10C07BD4680BC704780B400AF16
:100210004FF44043C4F20F034FF02002C3F8A02173
:100220004FF44043C4F20F03D3F8A03103F020038E
:10023000002B0AD000BF4FF44043C4F20F03D3F8A1
:10024000A03103F04003002BF5D04FF44043C4F23B
:100250000F034FF00302C3F804214FF44043C4F2EC
:100260000F034FF00002C3F8A8214FF44043C4F23B
:100270000F034FF00002C3F8AC214FF44043C4F227
:100280000F034FF00102C3F80C214FF44043C4F2B6
:100290000F034FF06302C0F20502C3F884204FF44D
:1002A0004043C4F20F034FF0AA02C3F88C204FF46E
:1002B0004043C4F20F034FF05502C3F88C204FF4B3
:1002C0004043C4F20F034FF00102C3F880204FF403
:1002D0004043C4F20F034FF0AA02C3F88C204FF43E
:1002E0004043C4F20F034FF05502C3F88C2000BF07
:1002F0004FF44043C4F20F03D3F8883003F0806317
:10030000002BF5D04FF44043C4F20F034FF003022B
:10031000C3F880204FF44043C4F20F034FF0AA0209
:10032000C3F88C204FF44043C4F20F034FF0550242
:10033000C3F88C2000BF4FF44043C4F20F03D3F83E
:10034000883003F04073002BF5D04FF44043C4F2E3
:100350000F034FF02302C3F8A4204FF44043C4F22C
:100360000F034FF0AA02C3F8AC204FF44043C4F28D
:100370000F034FF05502C3F8AC204FF44043C4F2D2
:100380000F034FF00102C3F8A0204FF44043C4F222
:100390000F034FF0AA02C3F8AC204FF44043C4F25D
:1003A0000F034FF05502C3F8AC2000BF4FF4404399
:1003B000C4F20F03D3F8A83003F48063002BF5D008
:1003C0004FF44043C4F20F034FF00302C3F8A020E0
:1003D0004FF44043C4F20F034FF0AA02C3F8AC201D
:1003E0004FF44043C4F20F034FF05502C3F8AC2062
:1003F00000BF4FF44043C4F20F03D3F8A83003F416
:100400004073002BF5D04FF44043C4F20F0348F281
:10041000DE72C0F22842C3F8C4204FF44043C4F255
:100420000F034FF00002C3F8C8214FF44043C4F259
:100430000F0343F23A021A604FF46D43CEF2000309
:100440004FF000029A60BD4680BC704780B582B014
:1004500000AF42F61C33C0F200037B6040F20003A1
:10046000C1F200033B600BE07B681A683B681A60CE
:100470003B6803F104033B607B6803F104037B608A
:100480003A6840F20403C1F200039A42ECD30748F1
:1004900007494FF000028842B8BF40F8042BFADB4E
:1004A000FFF7B4FE00F0E0FBFEE7000004000010E0
:1004B000A836001080B400AFFEE700BF80B400AFE4
:1004C000FEE700BF80B400AFFEE700BF80B400AF1E
:1004D000FEE700BF80B400AFFEE700BF80B400AF0E
:1004E000FEE700BF80B400AFFEE700BF80B485B078
:1004F00000AFF860B9607A607B68FA685A60FB68A0
:100500007A681A60FB68BA685A60BB68FA681A6051
:1005100007F11407BD4680BC704700BF80B582B0AC
:1005200000AF786039603B685B68786819463A6864
:10053000FFF7DCFF07F10807BD4680BD80B500AFBF
:1005400040F22003C1F200031B68002B01D101F02F
:10055000E3FB40F22003C1F200031B6803F1010238
:1005600040F22003C1F200031A6080BD80B500AFE5
:1005700040F22003C1F200031B6803F1FF3240F296
:100580002003C1F200031A6040F22003C1F200030D
:100590001B68002B01D101F0B9FB80BD80B582B092
:1005A00000AF4FF000037B600CE040F26843C1F203
:1005B00000037A684FF0000143F822107B6803F1D2
:1005C00001037B607B68092BEFDD4FF000037B604C
:1005D0000CE040F23843C1F200037A684FF00001AA
:1005E00043F822107B6803F101037B607B68092BD1
:1005F000EFDD40F2E863C1F200034FF000021A6041
:1006000040F26043C1F2000340F26042C1F20002D6
:100610001A6040F26043C1F2000340F26042C1F24E
:1006200000025A6000F0EEF807F10807BD4680BDF1
:1006300080B588B000AFB9607A603B600346FB7359
:100640004FF00303FB77FB7B0A2B08D8FA7B40F2C1
:100650006843C1F2000353F82230002B04D04FF05E
:100660000103FB77FB7F55E040F20403C1F2000376
:100670001B6803F1010240F20403C1F200031A6097
:100680004FF01C0000F098FE0346BB61FB7BB8698D
:1006900019463A6800F044F8B86AB9687A683B6865
:1006A00001F090FA0246BB691A60BB699B881A4642
:1006B00040F26843C1F20003B96943F82210BB69F4
:1006C0009B881A4640F23843C1F20003B96943F8E7
:1006D0002210BB699B8803F01F034FF0010202FA4E
:1006E00003F31A4640F2E863C1F200031B681A43A1
:1006F00040F2E863C1F200031A60BB6903F114031E
:10070000184640F26041C1F20001FFF707FFBB69E4
:100710007B61FB7F184607F12007BD4680BD00BF07
:1007200080B485B000AFF8600B467A60FB72FB7A4C
:100730009AB2FB689A80FB684FF001029A71FB68DD
:100740004FF00302DA71FB684FF000029A60FB6819
:1007500003F11402FB685A61FB6803F11402FB68A1
:100760009A61FB6803F10C02FB68DA60FB6803F135
:100770000C02FB681A6107F11407BD4680BC704784
:1007800080B584B000AF78607B689B88FB81FFF701
:10079000D5FEFA8940F26843C1F2000353F82230D3
:1007A000002B04D1FFF7E2FE4FF0010324E07B6849
:1007B0004FF001029A71FA8940F23843C1F2000306
:1007C000796843F82210FB8903F01F034FF0010200
:1007D00002FA03F31A4640F2E863C1F200031B6811
:1007E0001A4340F2E863C1F200031A60FFF7BEFE4D
:1007F00001F046FB4FF00303184607F11007BD4612
:1008000080BD00BF80B582B002AF094B00934FF0AE
:10081000000301934FF0000041F61571C0F2000192
:100820004FF000024FF09603FFF702FFBD4680BD78
:10083000E406001080B584B000AF786039607A6853
:100840004FF48043C4F203039A4207D042F6A0203B
:10085000C0F200004FF03C0101F040F83B68002B73
:1008600006D03A684FF45463C0F203039A4207D9A2
:1008700042F6A020C0F200004FF03D0101F02EF83A
:100880004FF480504FF00101FFF784FC7B684FF07C
:1008900000021A604FF40013FB604FF01800FFF7DE
:1008A0003FFC0346BB603A6813464FEA83139B182C
:1008B000BA68B2FBF3F303F1FF33BB60BB684FEAE6
:1008C0000323FA681343FB607B68FA681A6007F138
:1008D0001007BD4680BD00BF80B582B000AF786014
:1008E0000B46FB707A684FF48043C4F203039A42CC
:1008F00007D042F6A020C0F200004FF0970100F0B0
:10090000EDFF7B681B6823F480327B681A60FB78FC
:10091000002B05D07B681B6843F480327B681A602B
:1009200007F10807BD4680BD80B582B000AF786092
:1009300013460A46FA70BB707A684FF48043C4F2DB
:1009400003039A4207D042F6A020C0F200004FF005
:10095000D40100F0C3FFFB78002B1FD0FB78012BE4
:100960001CD0FB78022B19D0FB78032B16D0FB7818
:10097000042B13D0FB78052B10D0FB78062B0DD061
:10098000FB78072B0AD0FB78082B07D042F6A02073
:10099000C0F200004FF0D50100F0A0FF7B68DB68DB
:1009A0001A46FB784FF0010101FA03F36FEA0303E3
:1009B0001A407B68DA60BB78002B0AD07B68DB6862
:1009C0001A46FB784FF0010101FA03F31A437B68E2
:1009D000DA6007F10807BD4680BD00BF80B582B070
:1009E00000AF786013460A46FA70BB707A684FF41D
:1009F0008043C4F203039A4207D042F6A020C0F21B
:100A000000004FF0E70100F069FFBB78012B0BD12C
:100A10007B681B681A46FB784FF0010101FA03F36B
:100A20001A437B681A600CE07B681B681A46FB78E7
:100A30004FF0010101FA03F36FEA03031A407B68E8
:100A40001A6007F10807BD4680BD00BF80B586B0BB
:100A500000AFF8600B467A60FB72FA684FF480438F
:100A6000C4F203039A4207D042F6A020C0F200006D
:100A700040F20F1100F032FF7B68002B0AD07B6838
:100A8000012B07D042F6A020C0F2000040F2111165
:100A900000F024FFFB6803F11002FB7A4FEA8303A6
:100AA000D3181B687B617B68002B04D07B6903F043
:100AB00000437B6103E07B6903F080437B617B69DA
:100AC000002B02D04FF0010301E04FF00003184665
:100AD00007F11807BD4680BD80B582B000AF7860D1
:100AE0007A684FF48043C4F203039A4207D042F677
:100AF000A020C0F200004FF4947100F0EFFE7B687C
:100B00005B68184607F10807BD4680BD80B483B016
:100B100000AF0346FB714FF46143CEF2000397F937
:100B200007204FEA5212F97901F01F014FF001003E
:100B300000FA01F143F8221007F10C07BD4680BC12
:100B4000704700BF80B500AF40F22003C1F2000340
:100B50001B68002B01D101F0DFF840F22003C1F245
:100B600000031B6803F1010240F22003C1F20003FD
:100B70001A6080BD80B500AF40F22003C1F20003CF
:100B80001B6803F1FF3240F22003C1F200031A6038
:100B900040F22003C1F200031B68002B01D101F0D9
:100BA000B5F880BD80B500AFFFF7CCFF40F224035D
:100BB000C1F200031B6803F1010240F22403C1F2F9
:100BC00000031A60FFF7D6FF80BD00BF90B583B069
:100BD00000AFFFF7B7FF40F22403C1F200031B6828
:100BE00003F1FF3240F22403C1F200031A6040F225
:100BF0002403C1F200031B68002B2FD140F2E863ED
:100C0000C1F200031B687B607B68B3FA83F4FC705D
:100C1000FB78C3F11F0240F23843C1F2000353F8DE
:100C2000222040F23043C1F200031A6040F2304308
:100C3000C1F200031A6840F23443C1F200031B689A
:100C40009A420BD04FF46D43CEF200034FF46D4245
:100C5000CEF20002526842F080525A60FFF78AFFDB
:100C600007F10C07BD4690BD80B582B002AF4CF2D3
:100C70002003C2F209034CF22002C2F209021268F8
:100C800042F480221A604CF22003C2F209034CF2B3
:100C90002002C2F20902126842F480121A604CF279
:100CA0002003C2F209034CF22002C2F209021268C8
:100CB00042F400121A604CF22003C2F209034CF213
:100CC0002002C2F20902126842F400021A6001F026
:100CD00095F8574B00934FF0000301934FF001003C
:100CE00040F65161C0F200014FF000024FF4AF73C3
:100CF000FFF79EFC4F4B00934FF0000301934FF022
:100D0000020041F28901C0F200014FF000024FF4ED
:100D1000AF73FFF78DFC484B00934FF00003019336
:100D20004FF0030041F2CD11C0F200014FF000027C
:100D30004FF4AF73FFF77CFC404B00934FF0000380
:100D400001934FF0040041F25D21C0F200014FF029
:100D500000024FF4AF73FFF76BFC394B00934FF079
:100D6000000301934FF0050041F29521C0F200010C
:100D70004FF000024FF4AF73FFF75AFC314B009372
:100D80004FF0000301934FF0060041F2AD21C0F295
:100D900000014FF000024FF4AF73FFF749FC2A4BFC
:100DA00000934FF0000301934FF0070040F6897164
:100DB000C0F200014FF000024FF4AF73FFF738FCB0
:100DC000224B00934FF0000301934FF0080040F6D0
:100DD0000D71C0F200014FF000024FF4AF73FFF746
:100DE00027FC4FF00A004FF0040101F049FA0246D7
:100DF00042F2C073C1F200031A604FF00A004FF0D4
:100E0000040101F03DFA024640F66443C1F20003DA
:100E10001A604FF0010001F075F9024642F2C47306
:100E2000C1F200031A6000F0F5FF1846BD4680BD10
:100E30004422001054170010600C0010B43200104F
:100E4000CC1C00103C2D0010DC110010BC27001041
:100E500080B584B000AF78604FF00003FB604FF0C6
:100E60000103BB604FF00103BB604FF00003FB6068
:100E700003E0FB6803F10103FB60FB68042BF8DD72
:100E80004FF00103FB600BE0FB6803F101031A461E
:100E9000BB6802FB03F3BB60FB6803F10103FB606B
:100EA000FB68092BF0DD4CF22003C2F209034CF27F
:100EB0002002C2F20902526982F480225A614FF084
:100EC000640000F033FECDE780B582B000AFFFF7DD
:100ED00069FE4FF48040C4F203004FF000014FF070
:100EE0000102FFF7B3FD0346002B07D04FF480400B
:100EF000C4F20300FFF7F0FD03467B60FFF766FED8
:100F0000184607F10807BD4680BD00BF80B582B016
:100F100000AF78604FF48040C4F203004FF4FA61F0
:100F2000FFF788FC4FF48040C4F203004FF000014B
:100F30004FF00102FFF752FD4FF48040C4F203006E
:100F40004FF000014FF00102FFF7EEFC4FF480403C
:100F5000C4F203004FF00101FFF7BEFC4FF0160092
:100F6000FFF7D4FD4CF22003C2F209034CF2200239
:100F7000C2F20902526982F480125A614FF47A7007
:100F800000F0D4FDEEE700BF80B590B000AF786010
:100F900042F6F823C0F2000307F108011A464FF0A9
:100FA0002403084611461A4601F038FD4FF0240389
:100FB0003B634FF00003FB8701F004F84FF00003A0
:100FC000BB634FF000037B63786B01F03BF87B6BF6
:100FD00003F101037B637A6B42F29343C9F2492325
:100FE00083FB02139B184FEAA3014FEAE273C91A6D
:100FF0000B464FEAC3035B1AD31A7B63786B01F08D
:1010000001F8FA8F7B6BD3183A6B93FBF2F2396BD2
:1010100001FB02F29B1A07F14002D31813F8383C87
:1010200087F82F3097F82F30184601F029F8BA6B5F
:1010300044F6D353C1F2620383FB02134FEA231138
:101040004FEAE273CB1A4FF0FA0101FB03F3D31A14
:10105000002B14BF00230123DBB2BA6B02F10102A3
:10106000BA63002B0AD0FB8F03F101033A6B93FBA9
:10107000F2F2396B01FB02F29B1AFB874FF0010081
:1010800000F054FDA0E700BF90B5ADF5017D00AFC5
:1010900007F1040318604FF0000387F8F7314FF0B1
:1010A0000003C7F8F0314FF00003C7F8EC314FF000
:1010B0000003C7F8FC3152E04FF00203C7F8F831E3
:1010C0001BE04FF0010387F8F731D7F8FC31D7F870
:1010D000F82193FBF2F2D7F8F81101FB02F29B1A08
:1010E000002B04D14FF0000387F8F7310BE0D7F85D
:1010F000F83103F10103C7F8F831D7F8F821D7F830
:10110000FC319A42DDDB97F8F731002B21D0D7F87C
:10111000F02148F21F53C5F2EB1383FB02134FEA91
:1011200063114FEAE273CB1A4FF0640101FB03F342
:10113000D31AD7F8FC1107F15C0242F82310D7F854
:10114000F03103F10103C7F8F0314FF0000387F8E5
:10115000F731D7F8FC3103F10103C7F8FC31D7F8B8
:10116000FC31632BA8DD4CF22003C2F209034CF2E0
:101170002002C2F20902526982F480125A61D7F841
:10118000EC2146F26763C6F2666383FB02134FEA03
:10119000E3014FEAE273CC1A23464FEA83031B199B
:1011A0004FEA8303D41A00F063FB03461A4607F1A3
:1011B0000C0343F82420D7F8EC3103F10103C7F8FE
:1011C000EC314FF0C80000F0B1FC70E780B5E8B03A
:1011D00000AF07F10403186007F10C034FF00002A1
:1011E0001A6007F10C034FF001025A604FF002033E
:1011F000C7F89C311CE0D7F89C3103F1FF3207F1AE
:101200000C0353F82220D7F89C31A3F1020107F117
:101210000C0353F82130D11807F10C03D7F89C21A7
:1012200043F82210D7F89C3103F10103C7F89C3131
:10123000D7F89C31632BDEDD42F2C073C1F20003AC
:101240001A6807F10C0303F10C031046194601F06C
:101250006FF84FF0640000F069FCBDE780B582B024
:1012600000AF786042F2C473C1F200031B681846F5
:101270004FF47A7100F064FF4CF22003C2F20903CC
:101280004CF22002C2F20902526982F400125A6141
:10129000E8E700BF80B582B000AF78604FF4FA6035
:1012A00000F044FC00F054FEF8E700BF80B584B0C5
:1012B00000AF78604FF0040000F07EF80346FB605A
:1012C00042F2C073C1F200031B681846F9684FF080
:1012D000000201F089F84CF22003C2F209034CF23B
:1012E0002002C2F20902526982F400025A61E7E761
:1012F00080B400AFBD4680BC704700BF80B500AF72
:1013000040F22003C1F200031B68002B01D100F062
:1013100003FD40F22003C1F200031B6803F1010248
:1013200040F22003C1F200031A6080BD80B500AF17
:1013300040F22003C1F200031B6803F1FF3240F2C8
:101340002003C1F200031A6040F22003C1F200033F
:101350001B68002B01D100F0D9FC80BD80B483B0A4
:1013600000AF43F2B823C1F2000303F1030323F0FB
:1013700003031A4643F2A463C1F200031A604FF05C
:1013800000037B600DE043F2A463C1F200031A681E
:101390007B68D3184FF000021A707B6803F10103D9
:1013A0007B607A6840F2E7339A42ECD907F10C0788
:1013B000BD4680BC704700BF80B584B000AF786088
:1013C000FFF79CFF40F20C03C1F200031B681A46B2
:1013D0007B68D318B3F57A7F23D940F20803C1F2B2
:1013E00000031B681A467B689A4203D24FF0000341
:1013F000FB6030E043F2A463C1F200031B68FB60B2
:1014000040F20C03C1F200031B681A467B68D31834
:10141000A3F57A731A4640F20C03C1F200031A6076
:1014200019E043F2A463C1F200031A6840F20C030E
:10143000C1F200031B68D318FB6040F20C03C1F239
:1014400000031B681A467B68D3181A4640F20C0347
:10145000C1F200031A60FFF769FFFB68184607F145
:101460001007BD4680BD00BF80B485B000AF034605
:10147000FB714FF00003FB60FB79042B2AD801A21B
:1014800052F823F099140000A5140000B1140000D4
:10149000BD140000C91400004FF44043C2F2090318
:1014A000FB6018E04CF22003C2F20903FB6012E07B
:1014B0004CF24003C2F20903FB600CE04CF2600303
:1014C000C2F20903FB6006E04CF28003C2F209039A
:1014D000FB6000E000BFFB68184607F11407BD463B
:1014E00080BC704780B584B000AF396013460246B7
:1014F000FA71BB71FB791846FFF7B6FF0346FB6034
:10150000FB68002B13D0BB79002B07D0FB681B684E
:101510001A463B681A43FB681A6008E0FB681B68C0
:101520001A463B686FEA03031A40FB681A6007F12A
:101530001007BD4680BD00BF80B584B000AF034634
:101540003960FB71FB791846FFF78EFF0346FB609D
:10155000FB68002B02D0FB683A689A6107F110071C
:10156000BD4680BD80B584B000AF03463960FB71D5
:10157000FB791846FFF778FF0346FB60FB68002BFA
:1015800002D0FB683A68DA6107F11007BD4680BDFA
:1015900080B485B000AFF860B9607A607B68FA68A3
:1015A0005A60FB687A681A60FB68BA685A60BB6860
:1015B000FA681A6007F11407BD4680BC704700BF87
:1015C00080B582B000AF786039603B681B6878688E
:1015D00039681A46FFF7DCFF07F10807BD4680BDF2
:1015E00080B582B000AF786039603B685B6878682E
:1015F00019463A68FFF7CCFF07F10807BD4680BDE2
:1016000080B483B000AF786039603B687A685A6014
:101610007B683A681A6007F10C07BD4680BC7047CA
:1016200080B582B000AF78607B685A687B681B68C1
:1016300010461946FFF7E4FF7B684FF000021A607E
:101640007B684FF000025A6007F10807BD4680BD75
:1016500080B582B000AF78607B685A687B681B6891
:1016600010461946FFF7CCFF7B687A681A607B68E2
:101670007A685A6007F10807BD4680BD80B483B020
:1016800000AF78607B681A687B689A4214BF0023B9
:101690000123184607F10C07BD4680BC704700BF08
:1016A00080B500AF40F22003C1F200031B68002B9D
:1016B00001D100F031FB40F22003C1F200031B68AE
:1016C00003F1010240F22003C1F200031A6080BD61
:1016D00080B500AF40F22003C1F200031B6803F1A4
:1016E000FF3240F22003C1F200031A6040F22003EF
:1016F000C1F200031B68002B01D100F007FB80BD85
:1017000080B584B000AF78603960FFF7C9FF7868B2
:10171000FFF7B4FF0346002B07D03B6803F10C032F
:1017200018467968FFF74CFF15E07B68FB6002E024
:10173000FB685B68FB60FB685B68A3F10C039A883D
:101740003B689B889A42F3D93B6803F10C03184627
:10175000F968FFF745FFFFF7BBFF4FF0030318469B
:1017600007F11007BD4680BD80B584B000AF78603A
:101770003960FFF795FF7868FFF780FF0346002B7D
:1017800004D0FFF7A5FF4FF000031BE07B681B6848
:10179000BB6010E0BB68A3F10C03FB60FB689B8897
:1017A0001A463B689A4203D1B868FFF751FF06E03A
:1017B000BB681B68BB60BA687B689A42EAD1FFF7D6
:1017C00087FFFB68184607F11007BD4680BD00BFC4
:1017D00080B584B000AF7860FFF762FF7868FFF7EC
:1017E0004DFF0346002B04D0FFF772FF4FF00003BC
:1017F0000CE07B681B68A3F10C03FB607B681B6833
:101800001846FFF70DFFFFF763FFFB68184607F167
:101810001007BD4680BD00BF80B500AF00F076FA6E
:1018200000F046FA00F026FA00BF40F21403C1F2BD
:1018300000031B78DBB2002BF7D00BE040F2100363
:10184000C1F200031B6803F1010240F21003C1F270
:1018500000031A6040F21403C1F200031B78DBB2EC
:10186000002BEBD100F058FA00F010FA80BD00BF59
:1018700098B500AF40F22C03C1F200031B78002B97
:1018800002D14FF0FF3325E040F21003C1F2000314
:101890001A6840F21803C1F200031B68D31A1846F5
:1018A00000F0F4FE044640F21003C1F200031B688E
:1018B000184600F0EBFE03462046194600F0F2FF02
:1018C00003461846044900F039FF0346184601F064
:1018D00085F80346184698BD0000C84280B483B01E
:1018E00000AF78603960FEE780B500AF40F22003BA
:1018F000C1F200031B68002B01D100F00DFA40F289
:101900002003C1F200031B6803F1010240F220032F
:10191000C1F200031A6080BD80B500AF40F2200321
:10192000C1F200031B6803F1FF3240F22003C1F251
:1019300000031A6040F22003C1F200031B68002B71
:1019400001D100F0E3F980BD80B500AFFFF7CCFF17
:1019500040F22403C1F200031B6803F1010240F2CC
:101960002403C1F200031A60FFF7D6FF80BD00BF59
:1019700090B583B000AFFFF7B7FF40F22403C1F288
:1019800000031B6803F1FF3240F22403C1F200039D
:101990001A6040F22403C1F200031B68002B2FD110
:1019A00040F2E863C1F200031B687B607B68B3FA16
:1019B00083F4FC70FB78C3F11F0240F23843C1F29C
:1019C000000353F8222040F23043C1F200031A60B2
:1019D00040F23043C1F200031A6840F23443C1F2CE
:1019E00000031B689A420BD04FF46D43CEF2000304
:1019F0004FF46D42CEF20002526842F080525A60BB
:101A0000FFF78AFF07F10C07BD4690BD80B582B095
:101A100000AF40F22C03C1F200031B78002B0ED163
:101A200040F21403C1F200031B78DBB283F0010320
:101A3000DAB240F21403C1F200031A7071E040F20E
:101A40002803C1F200031A6840F21803C1F2000330
:101A50001A6040F22803C1F200034FF000021A603E
:101A6000FFF772FF40F21C03C1F200031B6803F191
:101A7000010240F21C03C1F200031A60FFF734FFB9
:101A800040F26043C1F200031B687B603EE07B686C
:101A9000A3F114033B603B689B68002B33D03B6889
:101AA0009B6803F1FF323B689A603B689B68002BA0
:101AB00029D13B684FF001029A713B68DB79032B17
:101AC00003D03B684FF00202DA713B689B881A46EC
:101AD00040F23843C1F20003396843F822103B68F2
:101AE0009B8803F01F034FF0010202FA03F31A462A
:101AF00040F2E863C1F200031B681A4340F2E86356
:101B0000C1F200031A607B681B687B607A6840F250
:101B10006043C1F200039A42B9D1FFF7FDFEFFF71F
:101B200027FF07F10807BD4680BD00BF80B582B022
:101B300000AF7860FFF7D8FE40F23443C1F20003F3
:101B40001B687A689A6040F23443C1F200031B6854
:101B50004FF002029A71FFF7DFFE00F0F9F907F18A
:101B60000807BD4680BD00BF80B483B000AF034608
:101B70003960FB7197F90730002B10DA4FF46D4391
:101B8000CEF20003FA7902F00F02A2F104013A68E2
:101B9000D2B24FEAC202D2B25B181A760DE04FF40D
:101BA0006143CEF2000397F907103A68D2B24FEAC8
:101BB000C202D2B25B1883F8002307F10C07BD46BE
:101BC00080BC704780B487B000AFF860B9607A60BD
:101BD0003B60FB687B617B69A3F104037B617B69EC
:101BE0004FF080721A607B69A3F104037B61BA68CD
:101BF0007B691A607B69A3F104037B617B694FF009
:101C000000021A607B69A3F110037B617B69A3F179
:101C100004037B617A687B691A607B69A3F1200306
:101C20007B617B69184607F11C07BD4680BC704785
:101C300080B400AF05480068006880F3088862B689
:101C400000DF00BFBD4680BC7047000008ED00E02B
:101C500080B400AF044A11680868B0E8F00F80F360
:101C600009884EF00D0E704730040010BD4680BC50
:101C7000704700BF80B400AF4EF21003CEF20003F5
:101C80004FF007021A60BD4680BC704780B400AFB9
:101C90004EF21003CEF200034EF21002CEF200021A
:101CA000126822F001021A60BD4680BC704700BF76
:101CB00080B582B000AF48F2A063C0F201037B6040
:101CC0007A686FF07F439A4202D94FF0010318E01F
:101CD0004EF21003CEF200037A6822F07F4202F146
:101CE000FF325A604FF0FF304FF01F01FFF73CFF0B
:101CF0004EF21003CEF200034FF000029A604FF054
:101D00000003184607F10807BD4680BD80B400AF48
:101D100062B6BD4680BC704780B400AF72B6BD46A7
:101D200080BC7047EFF3098020E9F00F07490A688B
:101D30001060074A11680868B0E8F00F80F309885E
:101D4000024803490A680260704700BF340400106B
:101D50003004001080B400AF4EF62053CEF20003E2
:101D60004EF62052CEF20002126842F47F021A6050
:101D70004EF62053CEF200034EF62052CEF2000271
:101D8000126842F07F421A60BD4680BC704700BFB7
:101D900080B500AFFFF74CFF80BD00BF80B500AF3E
:101DA00040F22003C1F200031B68002B01D1FFF7B2
:101DB000B3FF40F22003C1F200031B6803F10102EC
:101DC00040F22003C1F200031A6080BD80B500AF6D
:101DD00040F22003C1F200031B6803F1FF3240F21E
:101DE0002003C1F200031A6040F22003C1F2000395
:101DF0001B68002B01D1FFF789FF80BD80B500AFC4
:101E0000FFF7ACFAFEF7CAFBFFF7A4FFFFF704FDEC
:101E100080BD00BF90B583B000AF40F2E863C1F26F
:101E200000031B687B607B68B3FA83F4FC70FB786B
:101E3000C3F11F0240F23843C1F2000353F82220DD
:101E400040F23043C1F200031A6040F23043C1F265
:101E500000031A6840F23443C1F200031A60FFF72E
:101E600027FFFFF707FF40F22C03C1F200034FF0FA
:101E700001021A70FFF78CFF07F10C07BD4690BDF9
:101E800090B583B000AFFFF789FF40F22403C1F2A1
:101E900000031B68002B35D140F2E863C1F2000358
:101EA0001B687B607B68B3FA83F4FC70FB78C3F13A
:101EB0001F0240F23843C1F2000353F8222040F2DF
:101EC0003043C1F200031A6040F23443C1F2000310
:101ED0001A6840F23043C1F200031B689A4202D1F3
:101EE000FFF774FF11E0FFF771FF4FF46D43CEF27F
:101EF00000034FF46D42CEF20002526842F080526D
:101F00005A6002E0FFF762FF00BF07F10C07BD4611
:101F100090BD00BF80B584B000AF78604FF0010382
:101F2000FB730DE040F22803C1F200031B6803F1CC
:101F3000010240F22803C1F200031A60FFF7D8F94A
:101F4000FB7B002BEED107F11007BD4680BD00BF23
:101F500080B500AFFFF722FF40F23443C1F2000327
:101F60001B684FF002029A7140F23443C1F2000341
:101F70001B689B881A4640F23843C1F200034FF0B9
:101F8000000143F8221040F23443C1F200031B6801
:101F90009B8803F01F034FF0010202FA03F36FEA7C
:101FA00003031A4640F2E863C1F200031B681A40BB
:101FB00040F2E863C1F200031A60FFF707FFFFF782
:101FC0005FFF80BD80B500AF4FF002004FF03E01D3
:101FD0004FF00102FFF786FA4FF002004FF03E018A
:101FE000FFF7C0FA4FF000004FF4FE614FF001021E
:101FF000FFF778FA4FF000004FF4FE61FFF79CFA0C
:1020000080BD00BF80B483B000AF78607B68062BD2
:1020100012DC4FF44043C2F209034FF44042C2F2D3
:102020000902526911464FF010007A6800FA02F274
:102030006FEA02020A405A6107F10C07BD4680BCF4
:10204000704700BF80B483B000AF78607B68062B18
:1020500010DC4FF44043C2F209034FF44042C2F295
:102060000902526911464FF010007A6800FA02F234
:102070000A435A6107F10C07BD4680BC704700BF98
:1020800080B483B000AF78604CF24003C2F2090321
:102090007A684FEA42025A6107F10C07BD4680BCDC
:1020A000704700BF80B500AF40F22003C1F20003CB
:1020B0001B68002B01D1FFF72FFE40F22003C1F275
:1020C00000031B6803F1010240F22003C1F2000388
:1020D0001A6080BD80B500AF40F22003C1F200035A
:1020E0001B6803F1FF3240F22003C1F200031A60C3
:1020F00040F22003C1F200031B68002B01D1FFF75F
:1021000005FE80BD80B584B000AF78604FF00C0054
:10211000FFF752F90346FB60FB687A681A60FB68B8
:1021200003F10402FB685A60FB6803F10402FB68D8
:102130009A60FB68184607F11007BD4680BD00BFD6
:1021400080B582B000AF78603960FFF7ABFF7B6885
:102150001B68002B0AD07B681B6803F1FF327B6889
:102160001A60FFF7B7FF4FF0030341E040F234433A
:10217000C1F200031B684FF00102DA717B6803F1C2
:10218000040240F23443C1F200031B6810461946B2
:10219000FFF7B6FA3B68002B1CD03868FFF7C6FC87
:1021A000FFF798FF40F23443C1F200031B68DB796C
:1021B000022B13D17B6803F1040240F23443C1F2D5
:1021C00000031B689B8810461946FFF7CDFA4FF0B5
:1021D00006030DE0FFF77EFFFFF7BAFE40F234433F
:1021E000C1F200031B684FF00302DA714FF00303E2
:1021F000184607F10807BD4680BD00BF80B483B014
:1022000000AF78607B681A687B689A4214BF00232D
:102210000123184607F10C07BD4680BC704700BF7C
:1022200080B500AF40F22003C1F200031B68002B11
:1022300001D1FFF771FD40F22003C1F200031B68DA
:1022400003F1010240F22003C1F200031A6080BDD5
:1022500080B500AF40F22003C1F200031B6803F118
:10226000FF3240F22003C1F200031A6040F2200363
:10227000C1F200031B68002B01D1FFF747FD80BDB1
:1022800080B584B000AF786039604FF02C00FFF764
:1022900093F80346FB60FB68002B02D14FF000036C
:1022A00040E03B687A6802FB03F31846FFF784F8C6
:1022B0000246FB689A60FB689B68002B02D14FF0D6
:1022C00000032FE0FB689A683B68796801FB03F321
:1022D000D218FB68DA60FB689A68FB681A60FB68D2
:1022E0009A68FB685A60FB687A681A61FB684FF06D
:1022F00000025A61FB683A689A61FB6803F11C02AC
:10230000FB68DA61FB6803F11C02FB681A62FB6878
:1023100003F12402FB685A62FB6803F12402FB68A4
:102320009A62FB68184607F11007BD4680BD00BFE2
:1023300080B584B000AF78603960FFF771FF7B68CB
:102340005A697B681B699A4204D1FFF781FF4FF0FD
:10235000050343E07B685A687B689B69D2187B68F9
:10236000DB689A4203D37B689A687B685A607B6813
:1023700059687B689B693A68084611461A4600F01E
:102380004DFB7B685A687B689B69D2187B685A60F2
:102390007B685B6903F101027B685A617B6803F12A
:1023A00024031846FFF72AFF0346002B12D17B684F
:1023B00003F124031846FFF70BFA0346FB60FB68A2
:1023C0009B68002B03D0FB684FF000029A60F8680E
:1023D000FEF7D6F9FFF73CFF4FF00303184607F16D
:1023E0001007BD4680BD00BF80B584B000AFF86067
:1023F000B9607A60FFF714FFFB685B69002B10D0AF
:1024000040F23443C1F200031B684FF00302DA715B
:10241000B868F96800F056F8FFF71AFF4FF00303A9
:102420004AE0FB6803F1240240F23443C1F20003A6
:102430001B6810461946FFF763F940F23443C1F2B6
:1024400000031B684FF00002DA717B68002B1DD07F
:102450007B681846FFF76AFBFFF7FAFE40F2344349
:10246000C1F200031B68DB79022B13D1FB6803F177
:10247000240240F23443C1F200031B689B881046DB
:102480001946FFF771F94FF0060315E0FFF7E0FE7C
:10249000FFF75EFDFFF7C4FE40F23443C1F20003D4
:1024A0001B684FF00302DA71B868F96800F00AF8A7
:1024B000FFF7CEFE4FF00303184607F11007BD46A5
:1024C00080BD00BF80B582B000AF786039603B68E6
:1024D0001A683B689B697968084611461A4600F0FD
:1024E0009DFA3B685B6903F1FF323B685A613B68C8
:1024F0001A683B689B69D2183B68DB689A4204D330
:102500003B689A683B681A6006E03B681A683B685B
:102510009B69D2183B681A6007F10807BD4680BD69
:1025200080F0004002E000BF81F0004142001FBF88
:102530005FEA410392EA030F7FEA226C7FEA236C91
:102540006AD04FEA1262D2EB1363C1BFD218414086
:1025500048404140B8BF5B42192B88BF704710F01C
:10256000004F40F4000020F07F4018BF404211F0BF
:10257000004F41F4000121F07F4118BF494292EA27
:10258000030F3FD0A2F1010241FA03FC10EB0C0053
:10259000C3F1200301FA03F100F0004302D54942E0
:1025A00060EB4000B0F5000F13D3B0F1807F06D38D
:1025B00040084FEA310102F10102FE2A51D2B1F185
:1025C000004F40EBC25008BF20F0010040EA03007A
:1025D0007047490040EB000010F4000FA2F1010227
:1025E000EDD1B0FA80FCACF1080CB2EB0C0200FAB1
:1025F0000CF0AABF00EBC25052421843BCBFD040FF
:102600001843704792F0000F81F4000106BF80F478
:1026100000000132013BB5E74FEA41037FEA226C3B
:1026200018BF7FEA236C21D092EA030F04D092F006
:10263000000F08BF0846704790EA010F1CBF00203A
:10264000704712F07F4F04D1400028BF40F0004097
:10265000704712F100723CBF00F50000704700F0B7
:10266000004343F0FE4040F4000070477FEA2262DE
:1026700016BF08467FEA23630146420206BF5FEAAF
:10268000412390EA010F40F4800070474FF00003AF
:1026900004E000BF10F0004348BF40425FEA000C76
:1026A00008BF704743F0964301464FF000001CE01E
:1026B00050EA010208BF70474FF000030AE000BF74
:1026C00050EA010208BF704711F0004302D54042B2
:1026D00061EB41015FEA010C02BF84460146002024
:1026E00043F0B64308BFA3F18053A3F50003BCFA3F
:1026F0008CF2083AA3EBC25310DB01FA02FC6344EC
:1027000000FA02FCC2F12002BCF1004F20FA02F2F2
:1027100043EB020008BF20F00100704702F12002E5
:1027200001FA02FCC2F1200250EA4C0021FA02F246
:1027300043EB020008BF20EADC7070474FF0FF0C4B
:102740001CEAD0521EBF1CEAD15392EA0C0F93EA46
:102750000C0F6FD01A4480EA010C400218BF5FEAE8
:1027600041211ED04FF0006343EA501043EA51115B
:10277000A0FB01310CF00040B1F5000F3EBF490055
:1027800041EAD3715B0040EA010062F17F02FD2A59
:102790001DD8B3F1004F40EBC25008BF20F001003C
:1027A000704790F0000F0CF0004C08BF49024CEA53
:1027B000502040EA51207F3AC2BFD2F1FF0340EAE5
:1027C000C250704740F400004FF00003013A5DDC56
:1027D00012F1190FDCBF00F000407047C2F1000297
:1027E000410021FA02F1C2F1200200FA02FC5FEA84
:1027F000310040F1000053EA4C0308BF20EADC70CE
:10280000704792F0000F00F0004C02BF400010F43F
:10281000000F013AF9D040EA0C0093F0000F01F0EC
:10282000004C02BF490011F4000F013BF9D041EA0E
:102830000C018FE70CEAD15392EA0C0F18BF93EA10
:102840000C0F0AD030F0004C18BF31F0004CD8D13A
:1028500080EA010000F00040704790F0000F17BFC1
:1028600090F0004F084691F0000F91F0004F14D007
:1028700092EA0C0F01D142020FD193EA0C0F03D15F
:102880004B0218BF084608D180EA010000F0004062
:1028900040F0FE4040F40000704740F0FE4040F43D
:1028A000400070474FF0FF0C1CEAD0521EBF1CEADC
:1028B000D15392EA0C0F93EA0C0F69D0A2EB0302FA
:1028C00080EA010C49024FEA402037D04FF0805394
:1028D00043EA111143EA10130CF000408B4238BF59
:1028E0005B0042F17D024FF4000C8B4224BF5B1A67
:1028F00040EA0C00B3EB510F24BFA3EB510340EAB5
:102900005C00B3EB910F24BFA3EB910340EA9C0062
:10291000B3EBD10F24BFA3EBD10340EADC001B01D2
:1029200018BF5FEA1C1CE0D1FD2A3FF650AF8B4276
:1029300040EBC25008BF20F0010070470CF0004C83
:102940004CEA50207F32C2BFD2F1FF0340EAC250AE
:10295000704740F400004FF00003013A37E792F06F
:10296000000F00F0004C02BF400010F4000F013ACD
:10297000F9D040EA0C0093F0000F01F0004C02BFC8
:10298000490011F4000F013BF9D041EA0C0195E731
:102990000CEAD15392EA0C0F08D142027FF47DAFCA
:1029A00093EA0C0F7FF470AF084676E793EA0C0FBA
:1029B00004D14B023FF44CAF08466EE730F0004CB8
:1029C00018BF31F0004CCAD130F000427FF45CAF48
:1029D00031F000437FF43CAF5FE700BF42000ED20E
:1029E000B2F1FE4F0BD34FF09E03B3EB126209D44A
:1029F0004FEA002343F0004323FA02F070474FF000
:102A00000000704712F1610F01D1420202D14FF074
:102A1000FF3070474FF00000704700BF0F2AF0B43E
:102A20003AD941EA00039B0738D10C4603461546C4
:102A30002668103D1E6066685E60A6689E60E66857
:102A40001034DE6010330F2DF2D8A2F1100424F000
:102A50000F0402F00F021034032A00EB0403214498
:102A600011D90E461D46144656F8047B043C032C2F
:102A700045F8047BF8D8141F24F00304043402F052
:102A8000030209191B192AB111F8014B013A03F885
:102A9000014BF9D1F0BC70470346F4E70346F3E776
:102AA000433A5C55736572735C686C6961735C442E
:102AB00065736B746F705C72746F732D766172697D
:102AC000616E745C4743435C754B65726E656C5C0C
:102AD0006C7063313778785F6C69625C736F7572A4
:102AE00063655C6C7063313778785F6164632E6313
:102AF000000000000100000000000000001F0804AA
:102B0000081F0010080708100000001F0101001F27
:0C2B1000111F001806010618001F151503
:042B1C0000E1F505DA
:00000001FF
