:1000000030440010CD0000001D010000250100005B
:100010002D010000350100003D010000000000003E
:100020000000000000000000000000001D1D000096
:100030004D01000000000000451E00001D270000CB
:100040006501000065010000650100006501000018
:100050006501000065010000650100006501000008
:1000600065010000650100006501000065010000F8
:1000700065010000650100006501000065010000E8
:1000800065010000650100006501000065010000D8
:100090006501000065010000A51200006501000077
:1000A00065010000650100006501000065010000B8
:1000B00065010000650100006501000065010000A8
:1000C00065010000650100006501000080B582B097
:1000D00000AF0F4B7B600F4B3B6007E03B681A1D86
:1000E0003A607A68111D796012681A603B680A4AA2
:1000F0009342F3D31D481E494FF000028842B8BF17
:1001000040F8042BFADB00F0E7F800F0E3FFFEE72D
:100110003C300000004000100440001080B400AFEC
:10012000FEE700BF80B400AFFEE700BF80B400AFC1
:10013000FEE700BF80B400AFFEE700BF80B400AFB1
:10014000FEE700BF80B400AFFEE700BF80B400AFA1
:10015000FEE700BF80B400AFFEE700BF80B400AF91
:10016000FEE700BF80B400AFFEE7000004400010CF
:10017000C07A001080B400AF514BD3F888301B0E0A
:1001800003F00303032B63D14D4BD3F80C3103F081
:100190000303032B00F2908001A252F823F000BF6A
:1001A000B1010000E70100001D020000B1010000E4
:1001B000434BD3F88830C3F30E030133414A02FBAB
:1001C00003F23F4BD3F888301B0CDBB20133B2FB98
:1001D000F3F23B4BD3F80431DBB20133B2FBF3F360
:1001E000394A136033E0364BD3F88830C3F30E033B
:1001F0000133364A02FB03F2314BD3F888301B0C33
:10020000DBB20133B2FBF3F22D4BD3F80431DBB296
:100210000133B2FBF3F32C4A136018E0284BD3F8F8
:100220008830C3F30E0301331A04254BD3F888300A
:100230001B0CDBB20133B2FBF3F2214BD3F80431D8
:10024000DBB20133B2FBF3F31F4A136000BF33E0AC
:100250001B4BD3F80C3103F00303032B2CD801A262
:1002600052F823F0750200008B020000A10200008A
:1002700075020000124BD3F80431DBB20133144A8B
:10028000B2FBF3F3104A136016E00D4BD3F80431C0
:10029000DBB201330F4AB2FBF3F30B4A13600BE0FE
:1002A000074BD3F80431DBB201334FF40042B2FB09
:1002B000F3F3054A136000BFBD465DF8047B704749
:1002C00000C00F4000127A000040001000366E019E
:1002D00000093D00001BB70080B400AF4E4B202248
:1002E000C3F8A0214C4BD3F8A03103F02003002B1E
:1002F00007D000BF484BD3F8A03103F04003002BD8
:10030000F8D0454B0322C3F80421434B0022C3F825
:10031000A821414B0022C3F8AC213F4B0122C3F876
:100320000C213D4B3D4AC3F884203B4BAA22C3F825
:100330008C20394B5522C3F88C20374B0122C3F84F
:100340008020354BAA22C3F88C20334B5522C3F8AA
:100350008C2000BF304BD3F8883003F08063002B33
:10036000F8D02D4B0322C3F880202B4BAA22C3F8D0
:100370008C20294B5522C3F88C2000BF264BD3F884
:10038000883003F04073002BF8D0234B2322C3F8AE
:10039000A420214BAA22C3F8AC201F4B5522C3F83E
:1003A000AC201D4B0122C3F8A0201B4BAA22C3F88E
:1003B000AC20194B5522C3F8AC2000BF164BD3F824
:1003C000A83003F48063002BF8D0134B0322C3F84A
:1003D000A020114BAA22C3F8AC200F4B5522C3F822
:1003E000AC2000BF0C4BD3F8A83003F44073002BB3
:1003F000F8D0094B0A4AC3F8C420074B0022C3F8BF
:10040000C821054B43F23A021A60064B00229A605B
:10041000BD465DF8047B704700C00F4063000500D7
:10042000DE87280400ED00E080B584B000AF78607E
:100430007B68032B1ED801A252F823F04D04000064
:1004400057040000610400006B040000022000F06B
:1004500035FDF8600EE0042000F030FDF86009E0A2
:100460002C2000F02BFDF86004E02E2000F026FD8B
:10047000F86000BFFB6818461037BD4680BD00BF5E
:1004800080B584B000AF786039607868FFF7CCFF42
:10049000F860FB683A6802FB03F3054AA2FB0323FA
:1004A0009B0CFB60FB6818461037BD4680BD00BF43
:1004B00083DE1B4380B485B000AF78604FF0FF331C
:1004C000FB607B68B3F1402F02D10023FB6013E097
:1004D0007B680D4A934202D10123FB600CE07B68EC
:1004E0000A4A934202D10223FB6005E07B68084A76
:1004F000934201D10323FB60FB6818461437BD46C5
:100500005DF8047B704700BF008000400000094098
:100510000040094080B584B000AF78600B46FB70A6
:100520007B68B3F1402F0FD07B681C4A93420BD0FD
:100530007B681B4A934207D07B681A4A934203D0D8
:1005400019489F2100F054FDFB78002B12D0FB7856
:10055000012B0FD0FB78022B0CD0FB78032B09D09A
:10056000FB78042B06D0FB78052B03D00E48A02186
:1005700000F03EFD7B681B68DAB2FB78012101FACE
:1005800003F3DBB21340FB73FB7B002B01D0012391
:1005900000E0002318461037BD4680BD00800040B3
:1005A0000000094000400940E82F000080B584B0F9
:1005B00000AF78600B46FB707B68B3F1402F0FD023
:1005C0007B681D4A93420BD07B681C4A934207D03C
:1005D0007B681B4A934203D01A48BD2100F008FDF6
:1005E000FB78002B12D0FB78012B0FD0FB78022B6D
:1005F0000CD0FB78032B09D0FB78042B06D0FB78BA
:10060000052B03D00F48BE2100F0F2FC7B681B686D
:10061000DAB2FB780433012101FA03F3DBB21340B1
:10062000FB73FB7B002B01D0012300E00023184665
:100630001037BD4680BD00BF00800040000009406B
:1006400000400940E82F000080B582B000AF78601C
:100650000B46FB707B68B3F1402F0FD07B68184AC4
:1006600093420BD07B68174A934207D07B68164AA7
:10067000934203D01548D62100F0BAFCFB78002B3A
:1006800012D0FB78012B0FD0FB78022B0CD0FB781B
:10069000032B09D0FB78042B06D0FB78052B03D065
:1006A0000A48D72100F0A4FC7B681B68FA78012176
:1006B00001FA02F21A437B681A600837BD4680BD12
:1006C000008000400000094000400940E82F000081
:1006D00080B582B000AF78600B46FB707B68B3F1E9
:1006E000402F0FD07B68194A93420BD07B68184A81
:1006F000934207D07B68174A934203D01648ED21F6
:1007000000F076FCFB78002B12D0FB78012B0FD089
:10071000FB78022B0CD0FB78032B09D0FB78042B41
:1007200006D0FB78052B03D00B48EE2100F060FCCF
:100730007B681B68FA780432012101FA02F21A433D
:100740007B681A600837BD4680BD00BF008000404E
:100750000000094000400940E82F000080B485B047
:1007600000AF03463960FB71FB79002B08D13B6871
:10077000FB60FB6801221A70FB6801225A6004E0EA
:100780003B68BB60BB6800225A701437BD465DF8F9
:10079000047B704780B586B000AFF8600B467A6086
:1007A000FB72FB68B3F1402F10D0FB68554A9342AF
:1007B0000CD0FB68544A934208D0FB68534A9342DA
:1007C00004D053484FF4927100F012FCFB7A002BD6
:1007D0000DD0FB7A012B0AD0FB7A012B07D0FB7AD4
:1007E000012B04D04A4840F2251100F001FCFB68BF
:1007F000B3F1402F08D10220012100F091FB02202B
:10080000002100F0EFFA27E0FB683E4A934208D14E
:100810000420012100F084FB0420002100F0E2FA12
:100820001AE0FB68384A934209D14FF48000012155
:1008300000F076FB2C20002100F0D4FA0CE0FB68DD
:10084000324A934208D14FF40000012100F068FBC6
:100850002E20002100F0C6FAFB689B6A23F00302F9
:10086000FB689A62FB689A6AFB689A62FB680022DE
:100870009A60FB6800221A61FB680022DA60FB685C
:100880005B6843F00202FB685A60FB685B6823F018
:100890000202FB685A60FB7A002B1AD17B687B61ED
:1008A0007B691B78002B05D17B695B685A1EFB684E
:1008B000DA6020E0F868FFF7FDFD02467B695B68BF
:1008C00010461946FFF7DCFD03465A1EFB68DA6046
:1008D00011E07B683B61FB689B6A23F00C02FB68BC
:1008E0009A623B695B78012B05D1FB689B6A43F0F8
:1008F0000402FB689A62FB684FF0FF321A601837F7
:10090000BD4680BD00800040000009400040094015
:10091000E82F000080B582B000AF78607B68B3F14B
:10092000402F10D07B681D4A93420CD07B681C4A34
:10093000934208D07B681B4A934204D01A4840F285
:100940006D1100F055FB7B6800225A607B68B3F1A3
:10095000402F04D10220002100F0E2FA1BE07B6866
:100960000E4A934204D10420002100F0D9FA12E08B
:100970007B680B4A934205D14FF48000002100F0C0
:10098000CFFA08E07B68074A934204D14FF4800015
:10099000002100F0C5FA0837BD4680BD0080004048
:1009A0000000094000400940E82F000080B582B0F7
:1009B00000AF78600B46FB707B68B3F1402F10D01E
:1009C0007B68114A93420CD07B68104A934208D04E
:1009D0007B680F4A934204D00E484FF4C77100F071
:1009E00007FBFB78012B06D17B685B6843F00102B3
:1009F0007B685A6005E07B685B6823F001027B68D6
:100A00005A600837BD4680BD0080004000000940A4
:100A100000400940E82F000080B582B000AF786048
:100A20007B68B3F1402F10D07B680F4A93420CD003
:100A30007B680E4A934208D07B680D4A934204D0EB
:100A40000C484FF4D37100F0D3FA7B685B6843F035
:100A500002027B685A607B685B6823F002027B6855
:100A60005A600837BD4680BD008000400000094044
:100A700000400940E82F000080B582B000AF7860E8
:100A800039607B68B3F1402F10D07B68574A93429E
:100A90000CD07B68564A934208D07B68554A9342F3
:100AA00004D0554840F2C51100F0A2FA3B681B790A
:100AB000002B10D03B681B79012B0CD03B681B79B5
:100AC000022B08D03B681B79032B04D04A484FF413
:100AD000E37100F08DFA3B681B78032B1ED801A24E
:100AE00052F823F0F50A0000FF0A0000090B00008D
:100AF000130B00003B689A687B689A610FE03B68C3
:100B00009A687B68DA610AE03B689A687B681A62D7
:100B100005E03B689A687B685A6200E0FEE77B6804
:100B20005A693B681B7819460B465B000B4407214A
:100B300001FA03F3DB431A407B685A613B685B7838
:100B4000002B0DD07B685A693B681B7819460B4611
:100B50005B000B44012101FA03F31A437B685A61DD
:100B60003B68DB78002B0ED07B685A693B681B78AA
:100B700019460B465B000B440133012101FA03F3D4
:100B80001A437B685A613B689B78002B0ED07B68C8
:100B90005A693B681B7819460B465B000B440233CD
:100BA000012101FA03F31A437B685A617B68DB6B0E
:100BB0003A68127852000432032101FA02F2D24359
:100BC0001A407B68DA637B68DB6B3A68127902F063
:100BD00003013A6812785200043201FA02F21A4311
:100BE0007B68DA630837BD4680BD00BF00800040E7
:100BF0000000094000400940E82F000080B584B0A3
:100C000000AFF8600B467A60FB72FB68B3F1402FCF
:100C100010D0FB68184A93420CD0FB68174A9342E5
:100C200008D0FB68164A934204D0164840F2FB11E4
:100C300000F0DEF9FB7A032B1AD801A252F823F058
:100C4000510C0000590C0000610C0000690C000000
:100C5000FB687A689A610CE0FB687A68DA6108E000
:100C6000FB687A681A6204E0FB687A685A6200E0FE
:100C7000FEE71037BD4680BD0080004000000940FF
:100C800000400940E82F000080B582B000AF7860D6
:100C900039607B68B3F1402F10D07B682C4A9342B7
:100CA0000CD07B682B4A934208D07B682A4A934237
:100CB00004D02A4840F2212100F09AF97B689A6A10
:100CC0003B681B7819460B465B000B44072101FA71
:100CD00003F3DB431A407B689A623B685B78002B26
:100CE0000DD07B689A6A3B681B7819460B465B00FF
:100CF0000B44012101FA03F31A437B689A623B68B3
:100D00009B78002B0ED07B689A6A3B681B7819464B
:100D10000B465B000B440133012101FA03F31A4334
:100D20007B689A623B68DB78002B0ED07B689A6AFE
:100D30003B681B7819460B465B000B4402330121CC
:100D400001FA03F31A437B689A620837BD4680BDF7
:100D5000008000400000094000400940E82F0000EA
:100D600080B582B000AF78600B46FB707B68B3F152
:100D7000402F10D07B68134A93420CD07B68124AF4
:100D8000934208D07B68114A934204D010484FF434
:100D90000F7100F02DF9FB78002B07D0FB78012BA9
:100DA00004D00B4840F23D2100F022F9FB78002BE3
:100DB00002D17B68DB6A01E07B681B6B1846083751
:100DC000BD4680BD00800040000009400040094051
:100DD000E82F000080B400AF30BFBD465DF8047B53
:100DE000704700BF80B485B000AF786039607B6821
:100DF0001F2B02D97B68203B00E07B68FB607B688F
:100E00001F2B17D81949194BD3F8A831FA680320BA
:100E100000FA02F2D2431340C1F8A8311348134B31
:100E2000D3F8A821FB68396801FA03F31343C0F82B
:100E3000A83116E00D490D4BD3F8AC31FA68032008
:100E400000FA02F2D2431340C1F8AC310748074B15
:100E5000D3F8AC21FB68396801FA03F31343C0F8F7
:100E6000AC311437BD465DF8047B704700C00F40BD
:100E700080B485B000AF78607B681F2B06D87B6894
:100E8000FB600D4BD3F8A831BB6006E07B68203BCC
:100E9000FB60094BD3F8AC31BB60FB68BA6822FA3F
:100EA00003F303F00303BB60BB6818461437BD4669
:100EB0005DF8047B704700BF00C00F4080B584B070
:100EC00000AF7860154B1B68BB607868FFF7D0FFF8
:100ED000F860FB68032B17D801A252F823F000BF7B
:100EE000F10E0000F70E0000FD0E0000030F0000E1
:100EF0000423FB6008E00123FB6005E00223FB60A4
:100F000002E00823FB6000BFBA68FB68B2FBF3F3A2
:100F1000BB60BB6818461037BD4680BD004000105E
:100F200080B483B000AF78600B46FB70FB78012B78
:100F30000AD10F480E4BD3F8C42079680D4B0B40F3
:100F40001343C0F8C4300DE0FB78002B0AD10849E8
:100F5000074BD3F8C4207B68DB431A40054B134092
:100F6000C1F8C4300C37BD465DF8047B704700BF44
:100F700000C00F40DEF7EFEF80B500AF034B00225B
:100F8000C3F8C020FFF726FF80BD00BF00C00F40A0
:100F900080B500AF044B04221A61044B0822C3F849
:100FA000C020FFF717FF80BD00ED00E000C00F403C
:100FB00080B500AF044B04221A61044B0922C3F828
:100FC000C020FFF707FF80BD00ED00E000C00F402C
:100FD00080B500AF044B04221A61044B0322C3F80E
:100FE000C020FFF7F7FE80BD00ED00E000C00F401D
:100FF00080B483B000AF78603960FEE780B500AFA1
:10100000054B1B68002B01D100F014FF024B1B683D
:101010000133014A136080BD0C40001080B500AF61
:10102000054B1B68013B044A1360034B1B68002BF4
:1010300001D100F0F7FE80BD0C40001080B500AF7C
:10104000FFF7DCFF044B1B680133034A136001F018
:1010500005F9FFF7E3FF80BD1040001080B582B0B6
:1010600000AFFFF7CBFF154B1B68013B134A136022
:10107000124B1B68002B1CD1114B1B687B607B68DB
:10108000B3FA83F3FB70FB78C3F11F030D4A52F8E8
:1010900023300D4A13600C4B1A680C4B1B689A42A4
:1010A00007D000F053FB0A4A094B5B6843F08053BA
:1010B0005360FFF7B3FF0837BD4680BD10400010F6
:1010C000BC7A0010B4790010AC790010B07900102F
:1010D00000ED00E080B582B002AF3E4A3D4B1B6898
:1010E00043F4802313603B4A3A4B1B6843F480135C
:1010F0001360384A374B1B6843F400131360354ABA
:10110000344B1B6843F40003136000F045FB324B83
:101110000093002301930220304900224FF4AF7363
:1011200001F020F92E4B00930023019303202D4959
:1011300000224FF4AF7301F015F92B4B00930023FD
:1011400001930420294900224FF4AF7301F00AF9FA
:10115000274B0093002301930520264900224FF4DA
:10116000AF7301F0FFF8244B009300230193062096
:10117000224900224FF4AF7301F0F4F8204B0093A2
:101180000023019307201F4900224FF4AF7301F0A1
:10119000E9F80A20042100F0F5FB02461A4B1A6018
:1011A0000A20042100F0EEFB0246184B1A600120D1
:1011B00000F0F4FE0246164B1A60012000F0EEFE2D
:1011C0000246144B1A6000F0F3FA00BF1846BD4601
:1011D00080BD00BF20C009209C5F001019120000D4
:1011E000A8540010A1130000A84900109114000099
:1011F000647200102D150000205A001065150000C3
:10120000EC6C0010B115000018650010B449001016
:1012100074670010245A001080B584B000AF786065
:1012200000237B607B6801337B600023FB6001232C
:10123000BB600123BB600023FB6002E0FB6801335D
:10124000FB60FB68312BF9DD0123FB6009E0FB68E3
:1012500001331A46BB6802FB03F3BB60FB68013332
:10126000FB60FB68092BF2DD0B4B1B681846642101
:1012700000F0B6FE094ABB681360074B1B681846AE
:1012800000F0F6FE064A064B5B6983F48023536147
:10129000642001F07FFACCE7245A0010B84900100E
:1012A00020C0092080B500AFFFF7C8FEFFF7D6FECB
:1012B00080BD00BF80B582B000AF7860044A044BA7
:1012C0005B6983F480135361642001F063FAF5E7EE
:1012D00020C00920F0B591B000AF78602D4B1C46BE
:1012E00007F1080604F1200E3546234618685968B0
:1012F0009A68DB680FC5103410367445F4D1334654
:1013000022461068186024233B630023FB870023D8
:10131000BB6300237B637B6B01337B637A6B1E4B68
:1013200082FB030153189910D317C91A0B46DB002F
:101330005B1AD31A7B63FA8F7B6B13443A6B93FB74
:10134000F2F2396B01FB02F29B1A07F140021344DF
:1013500013F8383C87F82F30BB6B5A1CBA630F4A1E
:1013600082FB03121111DA178A1AFA2101FB02F229
:101370009A1A002A09D1FB8F01333A6B93FBF2F2E0
:10138000396B01FB02F29B1AFB87642001F002FA21
:10139000C1E700BF1830000093244992D34D62107A
:1013A00080B5EAB000AF3B1D18603B1D00221A60FB
:1013B0003B1D1B685A1C3B1D1A600023C7F8A43153
:1013C000002387F89F310023C7F898310023C7F81E
:1013D000A43143E00223C7F8A03118E0012387F8C5
:1013E0009F31D7F8A431D7F8A02193FBF2F2D7F8B8
:1013F000A01101FB02F29B1A002B03D1002387F8F6
:101400009F310AE0D7F8A0310133C7F8A031D7F8EF
:10141000A021D7F8A4319A42E0DB97F89F31002B46
:1014200017D0D7F898315A1CC7F89821154A82FB73
:1014300003125111DA178A1A642101FB02F29A1A77
:10144000D7F8A41107F1080343F82210002387F806
:101450009F31D7F8A4310133C7F8A431D7F8A431AC
:10146000632BB7DD07F108031B68074A1360C82028
:1014700001F090F9054A054B5B6983F480135361D1
:10148000A4E700BF1F85EB51B049001020C0092020
:1014900080B5E8B000AF3B1D18603B1D00221A600C
:1014A0003B1D1B685A1C3B1D1A6007F10C030022F0
:1014B0001A6007F10C0301225A600223C7F89C311D
:1014C00019E0D7F89C315A1E07F10C0353F822207B
:1014D000D7F89C31991E07F10C0353F82130D1182D
:1014E00007F10C03D7F89C2143F82210D7F89C3160
:1014F0000133C7F89C31D7F89C31632BE1DD094BF0
:101500001A6807F10C030C331046194600F096FADE
:10151000054A054B5B6983F400035361642001F0C5
:1015200039F9C2E71865001020C0092080B582B0E3
:1015300000AF7860084B1B6818464FF4FA7100F052
:101540004FFD03461A46054B1A70054A044B5B696A
:1015500083F400135361EDE774670010AC49001089
:1015600020C0092080B584B000AF786000237B6084
:101570007B6801337B600023FB600C4B1B681846C3
:10158000002100F02DFD4FF4967001F003F900F0FA
:101590009DF90023FB6004E000F04EFEFB68013380
:1015A000FB60FB68632BF7D9E7E700BF74670010A7
:1015B00080B584B000AF786000237B607B68013326
:1015C0007B60042000F054F8F860064B1B68184656
:1015D000F968002200F084FA4FF4FA7001F0DAF8AA
:1015E000F3E700BF1865001080B500AF054B1B681E
:1015F000002B01D100F01EFC024B1B680133014A95
:10160000136080BD0C40001080B500AF054B1B6817
:10161000013B044A1360034B1B68002B01D100F00F
:1016200001FC80BD0C40001080B483B000AF0E4BB5
:10163000033323F003031A460C4B1A6000237B602C
:1016400008E00A4B1A687B68134400221A707B6812
:1016500001337B607B68B3F57A7FF2D30C37BD46EC
:101660005DF8047B704700BF68720010547600106C
:1016700080B584B000AF7860FFF7B6FF194B1B68E8
:101680001A467B681344B3F57A7F16D9164B1B684C
:101690001A467B689A4202D20023FB601BE0134B80
:1016A0001B68FB600F4B1B681A467B681344A3F54D
:1016B0007A731A460B4B1A600DE00C4B1B68094AF3
:1016C00012681344FB60074B1B681A467B6813447F
:1016D0001A46044B1A60FFF797FFFB68184610374D
:1016E000BD4680BD08400010044000105476001034
:1016F00080B483B000AF786000BF0C37BD465DF8A2
:10170000047B704780B400AF0B4B1A680B4B1B680F
:101710009A4205DD084B1A68084B1B68D31A06E08D
:10172000054B1B6803F57A72044B1B68D31A1846E5
:10173000BD465DF8047B704708400010044000106F
:1017400080B400AFBD465DF8047B704780B400AF45
:10175000BD465DF8047B704780B500AF054B1B6844
:10176000002B01D100F066FB024B1B680133014ADC
:10177000136080BD0C40001080B500AF054B1B68A6
:10178000013B044A1360034B1B68002B01D100F09E
:1017900049FB80BD0C40001080B500AFFFF744FF4F
:1017A00000F0AAFD00F066FB00F012FD80BD00BF56
:1017B00080B582B000AF114B1B687B607B68B3FAC9
:1017C00083F3FB70FB78C3F11F030D4A52F82330FB
:1017D0000C4A13600B4B1B680B4A136000F0CAFAEB
:1017E00000F0AEFA094B01221A70064B1B68012269
:1017F0009A7100F089FA0837BD4680BDBC7A0010A6
:10180000B4790010AC790010B079001018400010C5
:1018100080B582B000AFFFF79FFF184B1B68002B0D
:1018200026D1174B1B687B607B68B3FA83F3FB7090
:10183000FB78C3F11F03134A52F82330124A136096
:10184000124B1A68104B1B689A4202D1FFF794FFA3
:1018500011E00D4B1B6801229A71FFF78DFFFFF716
:1018600075FF0B4A0A4B5B6843F08053536002E0FC
:10187000FFF782FF00BF0837BD4680BD1040001053
:10188000BC7A0010B4790010AC790010B079001067
:1018900000ED00E080B582B000AF7860094B012216
:1018A0001A7008E000F0C6FA074B1B680133064ABD
:1018B000136000F0B7FA034B1B78002BF2D1083706
:1018C000BD4680BD587600101440001080B500AFB2
:1018D000FFF742FF0F4B1B6803229A710D4B1B68E9
:1018E0009B8819460C4B002243F82120094B1B68AA
:1018F0009B8803F01F03012202FA03F3DB431A461D
:10190000064B1B681340054A1360FFF735FFFFF7CE
:101910007FFF80BDB0790010B4790010BC7A001050
:1019200080B483B000AF78607B681A687B689A42A5
:101930000CBF01230023DBB218460C37BD465DF80F
:10194000047B704780B500AF054B1B68002B01D1AD
:1019500000F070FA024B1B680133014A136080BD2E
:101960000C40001080B500AF054B1B68013B044ADA
:101970001360034B1B68002B01D100F053FA80BDAC
:101980000C40001080B584B000AF786039602C2026
:10199000FFF76EFEF860FB68002B01D100233EE0EC
:1019A0003B687A6802FB03F31846FFF761FE0246C4
:1019B000FB689A60FB689B68002B01D100232EE036
:1019C000FB689A683B68796801FB03F31A44FB687B
:1019D000DA60FB689A68FB681A60FB689A68FB68C3
:1019E0005A60FB687A681A61FB6800225A61FB68DA
:1019F0003A689A61FB6803F11C02FB68DA61FB68D4
:101A000003F11C02FB681A62FB6803F12402FB6805
:101A10005A62FB6803F12402FB689A62FB6818466D
:101A20001037BD4680BD00BF80B582B000AF786082
:101A30007868FFF75DFE0837BD4680BD80B584B08D
:101A400000AF78603960FFF77DFF7B685A697B687B
:101A50001B699A4203D1FFF785FF05233CE07B68B1
:101A60005A687B689B691A447B68DB689A4203D397
:101A70007B689A687B685A607B685A687B689B6958
:101A8000104639681A4601F039FA7B685A687B6853
:101A90009B691A447B685A607B685B695A1C7B6847
:101AA0005A617B6824331846FFF73AFF0346002B40
:101AB0000FD17B682433184600F0A2FFF860FB6862
:101AC0009B68002B02D0FB6800229A60F86800F047
:101AD00029FDFFF747FF032318461037BD4680BD99
:101AE00080B584B000AFF860B9607A60FFF72AFF74
:101AF000FB685B69002B0BD0234B1B680322DA7158
:101B0000B868F96800F070F8FFF72CFF032337E09E
:101B1000FB6803F124021C4B1B681046194600F0B9
:101B20001DFF194B1B680022DA717B68002B16D051
:101B30007B68184600F02EFEFFF714FF124B1B685F
:101B4000DB79022B0FD1FB6803F124020E4B1B68DB
:101B50009B881046194600F023FF062310E0FFF78C
:101B600001FFFFF7B3FEFFF7EDFE074B1B680322F3
:101B7000DA71B868F96800F037F8FFF7F3FE03236D
:101B800018461037BD4680BDB079001080B584B0CE
:101B900000AF78603960FFF7D5FE7B685B69002B8A
:101BA0000AD00A4B1B680322DA713868796800F0A2
:101BB0001BF80323FB7301E00423FB73FFF7D2FE42
:101BC000FB7B18461037BD4680BD00BFB0790010C2
:101BD00080B483B000AF78607B685B6918460C37CF
:101BE000BD465DF8047B704780B582B000AF786079
:101BF00039603B681A683B689B69786811461A46E9
:101C000001F07CF93B685B695A1E3B685A613B688E
:101C10001A683B689B691A443B68DB689A4204D3A4
:101C20003B689A683B681A6006E03B681A683B6844
:101C30009B691A443B681A600837BD4680BD00BFE7
:101C400080B483B000AF03463960FB7197F9073069
:101C5000002B0BDA0D49FB7903F00F03043B3A68C4
:101C6000D2B2D200D2B20B441A7609E0084997F9F1
:101C700007303A68D2B2D200D2B20B4483F80023C4
:101C80000C37BD465DF8047B704700BF00ED00E0F7
:101C900000E100E080B487B000AFF860B9607A601E
:101CA0003B60FB6803F00303002B04D0FB680333A5
:101CB00023F00303FB60FB687B617B69043B7B6172
:101CC0007B694FF080721A607B69043B7B61BA6864
:101CD0007B691A607B69043B7B617B6900221A6027
:101CE0007B69103B7B617B69043B7B617A687B6924
:101CF0001A607B69203B7B617B6918461C37BD46B7
:101D00005DF8047B704700BF80B400AF62B600DFAF
:101D100000BFBD465DF8047B704700BF80B400AFD4
:101D2000044A11680868B0E8F00F80F309884EF0A3
:101D30000D0E7047AC790010BD465DF8047B70470E
:101D400080B400AF034B07221A60BD465DF8047BE8
:101D5000704700BF10E000E080B400AF044A044BBD
:101D60001B6823F001031360BD465DF8047B7047D8
:101D700010E000E080B582B000AF0D4B7B607B6867
:101D8000B3F1807F01D301230EE00A4A7B6823F080
:101D90007F43013B53604FF0FF301F21FFF750FF9F
:101DA000044B00229A60002318460837BD4680BDC8
:101DB000A086010010E000E080B483B000AF78603E
:101DC0007B681B680F4A13607B685B680E4A136070
:101DD0007B689B680D4A13607B68DB680C4A136064
:101DE0007B681B690B4A13607B685B690A4A136056
:101DF0007B689B69094A13607B68DB69084A13604A
:101E0000FEE700BF6076001078760010687600105C
:101E10005C76001074760010647600106C7600100A
:101E20007076001080B400AF62B6BD465DF8047BEA
:101E3000704700BF80B400AF72B6BD465DF8047B4A
:101E4000704700BFEFF3098020E9F00F07490A68E7
:101E50001060074A11680868B0E8F00F80F309883D
:101E6000024803490A680260704700BFB079001059
:101E7000AC79001080B400AF074A074B1B6843F4ED
:101E80007F031360044A044B1B6843F07F431360D5
:101E9000BD465DF8047B704720ED00E080B400AFE4
:101EA0001EF0040F0CBFEFF30880EFF30980816987
:101EB000FFF782BFBD465DF8047B704780B500AF79
:101EC0004FF04020FEF7A8FD80BD00BF80B586B072
:101ED00000AF01233B7401237B6100233B7101238D
:101EE0007B710123FB710023BB7100233B720C4B00
:101EF000FB6007F110034FF0402000211A46FEF767
:101F000049FC3B1D4FF040201946FEF7B5FD4FF050
:101F100040200121FEF74AFD1837BD4680BD00BFB5
:101F20008096980080B400AF4FF040239B6818461D
:101F3000BD465DF8047B704780B483B000AF786025
:101F40007B681A687B689A420CBF01230023DBB2CE
:101F500018460C37BD465DF8047B704780B500AF6E
:101F6000054B1B68002B01D1FFF764FF024B1B6878
:101F70000133014A136080BD0C40001080B500AFF2
:101F8000054B1B68013B044A1360034B1B68002B85
:101F900001D1FFF747FF80BD0C40001080B584B031
:101FA00000AF78600C20FFF763FBF860FB687A688D
:101FB0001A60FB681A1DFB685A60FB681A1DFB68F3
:101FC0009A60FB6818461037BD4680BD80B582B068
:101FD00000AF78607868FFF78BFB0837BD4680BD9F
:101FE00080B582B000AF78603960FFF7B7FF7B68DB
:101FF0001B68002B08D07B681B685A1E7B681A6020
:10200000FFF7BCFF03232CE0184B1B680122DA7199
:102010007B681A1D154B1B681046194600F09EFC84
:102020003B68002B14D0386800F0B4FBFFF7A6FF24
:102030000E4B1B68DB79022B0ED17B681A1D0B4BF4
:102040001B689B881046194600F0AAFC062308E08E
:10205000FFF794FFFFF73AFC044B1B680322DA7189
:10206000032318460837BD4680BD00BFB079001075
:1020700080B584B000AF7860FFF770FF7B680433F1
:102080001846FFF759FF0346002B05D07B681B68F5
:102090005A1C7B681A6011E07B680433184600F014
:1020A000AFFCF860FB689B68002B02D0FB68002245
:1020B0009A60FB689B88184600F0FAF9FFF75EFF0C
:1020C00000BF1037BD4680BD90B585B000AF7860C9
:1020D0000023FB6000237B81364B00221A60012322
:1020E0007B72354B00221A607B7A002B12D00123C1
:1020F0007B810CE0314B1B689B887A899A4203D024
:102100007B89184600F04AFA7B8901337B817B8901
:102110001F2BEFD94FF47A7000F03CFB7B7A002B39
:1021200018D0254B1B68234A136000237B720123C0
:102130007B810CE0214B1B689B887A899A4203D0F3
:102140007B89184600F0B4F97B8901337B817B8958
:102150001F2BEFD9184B1B68184600F027FD0446CB
:10216000144B1B68184600F021FD03462046194613
:1021700000F028FE03464FF07E50194600F064FC44
:10218000034618460E4900F069FD03461A460D4BFA
:102190001A60FA68531CFB600B4BA3FB02135B092C
:1021A000642101FB03F3D31A064A1268074941F878
:1021B000232096E71478001014400010B079001026
:1021C0000000C8421C4000101F85EB5180760010B3
:1021D00080B582B002AF064B0093002301930A2022
:1021E00004490022642300F0BDF8BD4680BD00BF55
:1021F000A4790010C920000080B500AFFFF7A0FD52
:10220000FFF710FE08E0FFF715FE084B1B680133CF
:10221000064A1360FFF706FE054B1B78002BF2D130
:10222000044B01221A70FFF705FE80BD14780010E0
:10223000A87900101078001080B400AF034B1B6821
:102240001846BD465DF8047B704700BF1C40001077
:1022500080B400AFBD465DF8047B704780B400AF2A
:10226000BD465DF8047B704780B485B000AFF86070
:10227000B9607A607B68FA685A60FB687A681A60AD
:10228000FB68BA685A60BB68FA681A601437BD46C2
:102290005DF8047B704700BF80B582B000AF786006
:1022A00039603B685B68786819463A68FFF7DCFF7D
:1022B0000837BD4680BD00BF80B500AF054B1B6829
:1022C000002B01D1FFF7B6FD024B1B680133014A19
:1022D000136080BD0C40001080B500AF054B1B683B
:1022E000013B044A1360034B1B68002B01D1FFF72D
:1022F00099FD80BD0C40001080B582B000AF002376
:102300007B6007E0134A7B68002142F823107B685A
:1023100001337B607B681F2BF4DD00237B6007E0CB
:102320000D4A7B68002142F823107B6801337B60F3
:102330007B681F2BF4DD094B00221A60084B084A0A
:102340001A60074B064A5A6000F068F90837BD4624
:1023500080BD00BF3C7A0010B4790010BC7A001038
:10236000347A001080B586B000AFB9607A603B6007
:102370000346FB730323FB75FB7B202B05D8FB7BFC
:10238000244A52F82330002B03D00123FB75FB7D38
:102390003BE0214B1B6801331F4A13601C20FFF7F1
:1023A00067F93861FB7B386919463A6800F03CF8F8
:1023B000386AB9687A683B68FFF76CFC02463B698B
:1023C0001A603B699B881946124A3B6942F82130E2
:1023D0003B699B881946114A3B6942F821303B69A9
:1023E0009B8803F01F03012202FA03F31A460C4BE9
:1023F0001B6813430A4A13603B69143318460949A2
:10240000FFF74AFF3B697B62FB7D18461837BD46E4
:1024100080BD00BF3C7A001020400010B47900104D
:10242000BC7A0010347A001080B485B000AFF86038
:102430000B467A60FB72FB7A9AB2FB689A80FB6863
:1024400002229A71FB680322DA71FB6800229A600B
:10245000FB6803F11402FB685A61FB6803F1140284
:10246000FB689A61FB6803F10C02FB68DA60FB68A9
:1024700003F10C02FB681A611437BD465DF8047B5A
:10248000704700BF80B483B000AF78607B681F2BBB
:1024900004D8064A7B6852F8233000E0002318462F
:1024A0000C37BD465DF8047B704700BF3C7A0010D6
:1024B00080B582B000AF0346FB80FFF7FDFEFB88CE
:1024C000154A52F82330002B03D1FFF705FF0123F3
:1024D0001EE0FB88104A52F8233002229A71FB88D2
:1024E000FA880D4951F822200C4941F82320FB8835
:1024F00003F01F03012202FA03F31A46084B1B687C
:102500001343074A1360FFF7E7FEFFF781F9032340
:1025100018460837BD4680BD3C7A0010B4790010DB
:10252000BC7A001080B584B000AF78607B689B886F
:10253000FB81FFF7C1FEFB89144A52F82330002BC0
:1025400003D1FFF7C9FE01231CE07B6802229A71C8
:10255000FB890F497A6841F82320FB8903F01F03A8
:10256000012202FA03F31A460A4B1B681343094A75
:102570001360FFF7B1FE084B1B68002B01D1FFF77A
:1025800047F9032318461037BD4680BD3C7A00103A
:10259000B4790010BC7A00101040001080B582B0F1
:1025A00000AF0346FB80FB88184A52F82330002B0B
:1025B00001D1012326E0164B1B689B88FA889A42BA
:1025C00003D1FFF783F903231CE0FFF775FEFB88B7
:1025D0000E4A52F8233003229A71FB880D4A0021DB
:1025E00042F82310FB8803F01F03012202FA03F3D1
:1025F000DB431A46084B1B681340074A1360FFF77A
:102600006BFE032318460837BD4680BD3C7A001098
:10261000B0790010B4790010BC7A001080B582B097
:1026200002AF064B009300230193002004490022CF
:102630009623FFF797FEBD4680BD00BF7067001070
:102640009518000080B500AF054B1B68002B01D129
:10265000FFF7F0FB024B1B680133014A136080BD9A
:102660000C40001080B500AF054B1B68013B044ACD
:102670001360034B1B68002B01D1FFF7D3FB80BD18
:102680000C40001080B500AFFFF7DCFF044B1B6867
:102690000133034A1360FFF7E1FDFFF7E3FF80BD5D
:1026A0001040001080B582B000AFFFF7CBFF154B94
:1026B0001B68013B134A1360124B1B68002B1CD193
:1026C000114B1B687B607B68B3FA83F3FB70FB786C
:1026D000C3F11F030D4A52F823300D4A13600C4B0F
:1026E0001A680C4B1B689A4207D0FFF72FF80A4A6A
:1026F000094B5B6843F080535360FFF7B3FF083723
:10270000BD4680BD10400010BC7A0010B4790010A6
:10271000AC790010B079001000ED00E080B582B017
:1027200000AFFFF7AFFF194B1B680133174A136067
:10273000FFF788FF164B1B687B601CE07B68143B2F
:102740003B603B689B68002B12D03B689B685A1E1D
:102750003B689A603B689B68002B09D13B68DB793A
:10276000032B02D03B680222DA713868FFF7DAFEE9
:102770007B681B687B607B68054A9342DED1FFF76C
:1027800071FFFFF78FFF0837BD4680BD284000105E
:10279000347A001080B582B000AF7860FFF752FF46
:1027A000124B1B687A689A60104B1B6803229A715F
:1027B0000E4B1B689B8819460D4B002243F82120C5
:1027C0000A4B1B689B8803F01F03012202FA03F3E4
:1027D000DB431A46074B1B681340064A1360FFF79A
:1027E00041FFFFF715F80837BD4680BDB0790010EE
:1027F000B4790010BC7A001080B400AF034B1B68A2
:102800001846BD465DF8047B704700BF28400010A5
:1028100080B485B000AFF860B9607A607B68FA6810
:102820005A60FB687A681A60FB68BA685A60BB68CD
:10283000FA681A601437BD465DF8047B704700BF24
:1028400080B582B000AF786039603B681B687868FB
:1028500039681A46FFF7DCFF0837BD4680BD00BF68
:1028600080B582B000AF786039603B685B6878689B
:1028700019463A68FFF7CCFF0837BD4680BD00BF58
:1028800080B483B000AF786039603B687A685A6082
:102890007B683A681A600C37BD465DF8047B704768
:1028A00080B582B000AF78607B685A687B681B682F
:1028B00010461946FFF7E4FF7B6800221A607B6828
:1028C00000225A600837BD4680BD00BF80B582B087
:1028D00000AF78607B685A687B681B6810461946B1
:1028E000FFF7CEFF7B687A681A607B687A685A6067
:1028F0000837BD4680BD00BF80B483B000AF7860AC
:102900007B681A687B689A420CBF01230023DBB204
:1029100018460C37BD465DF8047B704780B500AFA4
:10292000054B1B68002B01D1FFF784FA024B1B6893
:102930000133014A136080BD0C40001080B500AF28
:10294000054B1B68013B044A1360034B1B68002BBB
:1029500001D1FFF767FA80BD0C40001080B582B04E
:1029600000AF78603960FFF7D9FF7868FFF7C4FFE0
:102970000346002B06D03B680C3318467968FFF7F6
:102980005FFF05E03B680C3318467968FFF768FF86
:10299000FFF7D4FF032318460837BD4680BD00BFAC
:1029A00080B584B000AF78603960FFF7B7FF786812
:1029B000FFF7A2FF0346002B03D0FFF7BFFF002362
:1029C0001AE07B681B68BB600FE0BB680C3BFB60D8
:1029D000FB689B881A463B689A4203D1B868FFF7A8
:1029E00075FF06E0BB681B68BB60BA687B689A42EB
:1029F000EBD1FFF7A3FFFB6818461037BD4680BD3B
:102A000080B584B000AF7860FFF788FF7868FFF783
:102A100073FF0346002B03D0FFF790FF00230BE06A
:102A20007B681B680C3BFB607B681B681846FFF7E4
:102A300037FFFFF783FFFB6818461037BD4680BDA0
:102A400080F0004002E000BF81F0004142001FBF63
:102A50005FEA410392EA030F7FEA226C7FEA236C6C
:102A60006AD04FEA1262D2EB1363C1BFD218414061
:102A700048404140B8BF5B42192B88BF704710F0F7
:102A8000004F40F4000020F07F4018BF404211F09A
:102A9000004F41F4000121F07F4118BF494292EA02
:102AA000030F3FD0A2F1010241FA03FC10EB0C002E
:102AB000C3F1200301FA03F100F0004302D54942BB
:102AC00060EB4000B0F5000F13D3B0F1807F06D368
:102AD00040084FEA310102F10102FE2A51D2B1F160
:102AE000004F40EBC25008BF20F0010040EA030055
:102AF0007047490040EB000010F4000FA2F1010202
:102B0000EDD1B0FA80FCACF1080CB2EB0C0200FA8B
:102B10000CF0AABF00EBC25052421843BCBFD040D9
:102B20001843704792F0000F81F4000106BF80F453
:102B300000000132013BB5E74FEA41037FEA226C16
:102B400018BF7FEA236C21D092EA030F04D092F0E1
:102B5000000F08BF0846704790EA010F1CBF002015
:102B6000704712F07F4F04D1400028BF40F0004072
:102B7000704712F100723CBF00F50000704700F092
:102B8000004343F0FE4040F4000070477FEA2262B9
:102B900016BF08467FEA23630146420206BF5FEA8A
:102BA000412390EA010F40F4800070474FF000038A
:102BB00004E000BF10F0004348BF40425FEA000C51
:102BC00008BF704743F0964301464FF000001CE0F9
:102BD00050EA010208BF70474FF000030AE000BF4F
:102BE00050EA010208BF704711F0004302D540428D
:102BF00061EB41015FEA010C02BF844601460020FF
:102C000043F0B64308BFA3F18053A3F50003BCFA19
:102C10008CF2083AA3EBC25310DB01FA02FC6344C6
:102C200000FA02FCC2F12002BCF1004F20FA02F2CD
:102C300043EB020008BF20F00100704702F12002C0
:102C400001FA02FCC2F1200250EA4C0021FA02F221
:102C500043EB020008BF20EADC7070474FF0FF0C26
:102C60001CEAD0521EBF1CEAD15392EA0C0F93EA21
:102C70000C0F6FD01A4480EA010C400218BF5FEAC3
:102C800041211ED04FF0006343EA501043EA511136
:102C9000A0FB01310CF00040B1F5000F3EBF490030
:102CA00041EAD3715B0040EA010062F17F02FD2A34
:102CB0001DD8B3F1004F40EBC25008BF20F0010017
:102CC000704790F0000F0CF0004C08BF49024CEA2E
:102CD000502040EA51207F3AC2BFD2F1FF0340EAC0
:102CE000C250704740F400004FF00003013A5DDC31
:102CF00012F1190FDCBF00F000407047C2F1000272
:102D0000410021FA02F1C2F1200200FA02FC5FEA5E
:102D1000310040F1000053EA4C0308BF20EADC70A8
:102D2000704792F0000F00F0004C02BF400010F41A
:102D3000000F013AF9D040EA0C0093F0000F01F0C7
:102D4000004C02BF490011F4000F013BF9D041EAE9
:102D50000C018FE70CEAD15392EA0C0F18BF93EAEB
:102D60000C0F0AD030F0004C18BF31F0004CD8D115
:102D700080EA010000F00040704790F0000F17BF9C
:102D800090F0004F084691F0000F91F0004F14D0E2
:102D900092EA0C0F01D142020FD193EA0C0F03D13A
:102DA0004B0218BF084608D180EA010000F000403D
:102DB00040F0FE4040F40000704740F0FE4040F418
:102DC000400070474FF0FF0C1CEAD0521EBF1CEAB7
:102DD000D15392EA0C0F93EA0C0F69D0A2EB0302D5
:102DE00080EA010C49024FEA402037D04FF080536F
:102DF00043EA111143EA10130CF000408B4238BF34
:102E00005B0042F17D024FF4000C8B4224BF5B1A41
:102E100040EA0C00B3EB510F24BFA3EB510340EA8F
:102E20005C00B3EB910F24BFA3EB910340EA9C003D
:102E3000B3EBD10F24BFA3EBD10340EADC001B01AD
:102E400018BF5FEA1C1CE0D1FD2A3FF650AF8B4251
:102E500040EBC25008BF20F0010070470CF0004C5E
:102E60004CEA50207F32C2BFD2F1FF0340EAC25089
:102E7000704740F400004FF00003013A37E792F04A
:102E8000000F00F0004C02BF400010F4000F013AA8
:102E9000F9D040EA0C0093F0000F01F0004C02BFA3
:102EA000490011F4000F013BF9D041EA0C0195E70C
:102EB0000CEAD15392EA0C0F08D142027FF47DAFA5
:102EC00093EA0C0F7FF470AF084676E793EA0C0F95
:102ED00004D14B023FF44CAF08466EE730F0004C93
:102EE00018BF31F0004CCAD130F000427FF45CAF23
:102EF00031F000437FF43CAF5FE700BF844641EA16
:102F0000000313F0030349D1403A23D30B68036055
:102F10004B6843608B688360CB68C3600B69036157
:102F20004B6943618B698361CB69C3610B6A03623F
:102F30004B6A43628B6A8362CB6AC3620B6B036327
:102F40004B6B43638B6B8363CB6BC363403040310C
:102F5000403ADBD230320BD30B6803604B684360DE
:102F60008B688360CB68C36010301031103AF3D2A5
:102F70000C3205D351F8043B40F8043B043AF9D233
:102F8000043208D0D2071CBF11F8013B00F8013B06
:102F900001D30B8803806046704700BF082A13D313
:102FA0008B07B1D010F00303AED0C3F10403D21AE3
:102FB000DB071CBF11F8013B00F8013BA4D331F83B
:102FC000023B20F8023B9FE7043AD9D3013A11F8BB
:102FD000013B00F8013BF9D20B7803704B7843704A
:102FE0008B788370604670472E2E2F2E2E2F6C709C
:102FF00063313778785F6C69622F736F75726365C0
:103000002F6C7063313778785F74696D65722E63E9
:10301000000000000100000000000000001F080484
:10302000081F0010080708100000001F0101001F02
:0C303000111F001806010618001F1515DE
:04303C0000E1F505B5
:00000001FF
