:1000000058750010CD00000021010000953400005B
:10001000210100002101000021010000000000007A
:100020000000000000000000000000001533000088
:1000300021010000000000003D340000713D00007F
:100040002101000021010000210100002101000028
:100050002101000021010000210100002101000018
:10006000412A0000210100002101000021010000BF
:1000700021010000210100002101000021010000F8
:1000800021010000210100002101000021010000E8
:1000900021010000210100002101000021010000D8
:1000A00021010000210100002101000021010000C8
:1000B00021010000210100002101000021010000B8
:1000C00021010000210100002101000080B582B063
:1000D00000AF104B7B60104B3B6007E03B681A1D84
:1000E0003A607A68111D796012681A603B680B4AA1
:1000F0009342F3D30C480D494FF000028842B8BF39
:1001000040F8042BFADB00F0C5F802F00DFA0837CE
:10011000BD4680BD884B0000004000100440001028
:1001200080B400AFFEE700000440001058710010DA
:1001300080B400AF514BD3F888301B0E03F003039B
:10014000032B63D14D4BD3F80C3103F00303032B86
:1001500000F2908001A252F823F000BF6D01000070
:10016000A3010000D90100006D010000434BD3F84A
:100170008830C3F30E030133414A02FB03F23F4BC5
:10018000D3F888301B0CDBB20133B2FBF3F23B4BEC
:10019000D3F80431DBB20133B2FBF3F3394A136015
:1001A00033E0364BD3F88830C3F30E030133364ABD
:1001B00002FB03F2314BD3F888301B0CDBB2013366
:1001C000B2FBF3F22D4BD3F80431DBB20133B2FBB7
:1001D000F3F32C4A136018E0284BD3F88830C3F3AC
:1001E0000E0301331A04254BD3F888301B0CDBB205
:1001F0000133B2FBF3F2214BD3F80431DBB201330C
:10020000B2FBF3F31F4A136000BF33E01B4BD3F87C
:100210000C3103F00303032B2CD801A252F823F076
:1002200031020000470200005D02000031020000C0
:10023000124BD3F80431DBB20133144AB2FBF3F3AF
:10024000104A136016E00D4BD3F80431DBB20133D2
:100250000F4AB2FBF3F30B4A13600BE0074BD3F8E2
:100260000431DBB201334FF40042B2FBF3F3054A31
:10027000136000BFBD465DF8047B704700C00F40AF
:1002800000127A000040001000366E0100093D00A7
:10029000001BB70080B400AF4E4B2022C3F8A02152
:1002A0004C4BD3F8A03103F02003002B07D000BF44
:1002B000484BD3F8A03103F04003002BF8D0454B56
:1002C0000322C3F80421434B0022C3F8A821414B69
:1002D0000022C3F8AC213F4B0122C3F80C213D4B57
:1002E0003D4AC3F884203B4BAA22C3F88C20394BEB
:1002F0005522C3F88C20374B0122C3F88020354BA0
:10030000AA22C3F88C20334B5522C3F88C2000BF9F
:10031000304BD3F8883003F08063002BF8D02D4B9E
:100320000322C3F880202B4BAA22C3F88C20294B30
:100330005522C3F88C2000BF264BD3F8883003F039
:100340004073002BF8D0234B2322C3F8A420214B69
:10035000AA22C3F8AC201F4B5522C3F8AC201D4B7A
:100360000122C3F8A0201B4BAA22C3F8AC20194BD2
:100370005522C3F8AC2000BF164BD3F8A83003F4C5
:100380008063002BF8D0134B0322C3F8A020114B3D
:10039000AA22C3F8AC200F4B5522C3F8AC2000BFF3
:1003A0000C4BD3F8A83003F44073002BF8D0094B62
:1003B0000A4AC3F8C420074B0022C3F8C821054BE2
:1003C00043F23A021A60064B00229A60BD465DF87D
:1003D000047B704700C00F4063000500DE872804DF
:1003E00000ED00E080B584B000AF78607B68032B3F
:1003F0001ED801A252F823F00904000013040000E3
:100400001D04000027040000022000F04BFDF860EE
:100410000EE0042000F046FDF86009E02C2000F01A
:1004200041FDF86004E02E2000F03CFDF86000BFC4
:10043000FB6818461037BD4680BD00BF80B584B04C
:1004400000AF786039607868FFF7CCFF03461A4642
:100450004FF00003C7E902233B681A464FF0000340
:10046000B96803FB01F0F96802FB01F10144B868C7
:10047000A0FB022319440B4610461946064A4FF0CA
:10048000000304F075F802460B46C7E90223BB6877
:1004900018461037BD4680BD40420F0080B485B07D
:1004A00000AF78604FF0FF33FB607B68B3F1402F03
:1004B00002D10023FB6013E07B680D4A934202D116
:1004C0000123FB600CE07B680A4A934202D10223BD
:1004D000FB6005E07B68084A934201D10323FB607F
:1004E000FB6818461437BD465DF8047B704700BFB3
:1004F00000800040000009400040094080B584B001
:1005000000AF78600B46FB707B68B3F1402F0FD0D3
:100510007B681C4A93420BD07B681B4A934207D0EE
:100520007B681A4A934203D019489F2100F054FD7A
:10053000FB78002B12D0FB78012B0FD0FB78022B1D
:100540000CD0FB78032B09D0FB78042B06D0FB786A
:10055000052B03D00E48A02100F03EFD7B681B68F0
:10056000DAB2FB78012101FA03F3DBB21340FB732B
:10057000FB7B002B01D0012300E00023184610373D
:10058000BD4680BD00800040000009400040094099
:10059000204B000080B584B000AF78600B46FB7044
:1005A0007B68B3F1402F0FD07B681D4A93420BD07C
:1005B0007B681C4A934207D07B681B4A934203D056
:1005C0001A48BD2100F008FDFB78002B12D0FB7803
:1005D000012B0FD0FB78022B0CD0FB78032B09D01A
:1005E000FB78042B06D0FB78052B03D00F48BE21E7
:1005F00000F0F2FC7B681B68DAB2FB78043301215F
:1006000001FA03F3DBB21340FB73FB7B002B01D039
:10061000012300E0002318461037BD4680BD00BF0F
:10062000008000400000094000400940204B0000CD
:1006300080B582B000AF78600B46FB707B68B3F189
:10064000402F0FD07B68184A93420BD07B68174A23
:10065000934207D07B68164A934203D01548D621AF
:1006600000F0BAFCFB78002B12D0FB78012B0FD0E6
:10067000FB78022B0CD0FB78032B09D0FB78042BE2
:1006800006D0FB78052B03D00A48D72100F0A4FC44
:100690007B681B68FA78012101FA02F21A437B6831
:1006A0001A600837BD4680BD008000400000094048
:1006B00000400940204B000080B582B000AF786058
:1006C0000B46FB707B68B3F1402F0FD07B68194A53
:1006D00093420BD07B68184A934207D07B68174A35
:1006E000934203D01648ED2100F076FCFB78002BF6
:1006F00012D0FB78012B0FD0FB78022B0CD0FB78AB
:10070000032B09D0FB78042B06D0FB78052B03D0F4
:100710000B48EE2100F060FC7B681B68FA7804321D
:10072000012101FA02F21A437B681A600837BD46BC
:1007300080BD00BF0080004000000940004009402B
:10074000204B000080B485B000AF03463960FB71D8
:10075000FB79002B08D13B68FB60FB6801221A7013
:10076000FB6801225A6004E03B68BB60BB68002262
:100770005A701437BD465DF8047B704780B586B06B
:1007800000AFF8600B467A60FB72FB68B3F1402F54
:1007900010D0FB68554A93420CD0FB68544A9342F0
:1007A00008D0FB68534A934204D053484FF49271E7
:1007B00000F012FCFB7A002B0DD0FB7A012B0AD043
:1007C000FB7A012B07D0FB7A012B04D04A4840F278
:1007D000251100F001FCFB68B3F1402F08D1022085
:1007E000012100F091FB0220002100F0EFFA27E048
:1007F000FB683E4A934208D10420012100F084FBAB
:100800000420002100F0E2FA1AE0FB68384A934223
:1008100009D14FF48000012100F076FB2C2000214B
:1008200000F0D4FA0CE0FB68324A934208D14FF44E
:100830000000012100F068FB2E20002100F0C6FA24
:10084000FB689B6A23F00302FB689A62FB689A6A62
:10085000FB689A62FB6800229A60FB6800221A61BA
:10086000FB680022DA60FB685B6843F00202FB6809
:100870005A60FB685B6823F00202FB685A60FB7AEF
:10088000002B1AD17B687B617B691B78002B05D11B
:100890007B695B685A1EFB68DA6020E0F868FFF746
:1008A000FDFD02467B695B6810461946FFF7C6FDF1
:1008B00003465A1EFB68DA6011E07B683B61FB6807
:1008C0009B6A23F00C02FB689A623B695B78012B00
:1008D00005D1FB689B6A43F00402FB689A62FB68DF
:1008E0004FF0FF321A601837BD4680BD00800040CF
:1008F0000000094000400940204B000080B582B054
:1009000000AF78607B68B3F1402F10D07B681D4A40
:1009100093420CD07B681C4A934208D07B681B4AE8
:10092000934204D01A4840F26D1100F055FB7B68E9
:1009300000225A607B68B3F1402F04D102200021CD
:1009400000F0E2FA1BE07B680E4A934204D10420D7
:10095000002100F0D9FA12E07B680B4A934205D1DE
:100960004FF48000002100F0CFFA08E07B68074ACE
:10097000934204D14FF48000002100F0C5FA0837FB
:10098000BD4680BD00800040000009400040094095
:10099000204B000080B582B000AF78600B46FB7042
:1009A0007B68B3F1402F10D07B68114A93420CD082
:1009B0007B68104A934208D07B680F4A934204D068
:1009C0000E484FF4C77100F007FBFB78012B06D1EE
:1009D0007B685B6843F001027B685A6005E07B68D6
:1009E0005B6823F001027B685A600837BD4680BD12
:1009F000008000400000094000400940204B0000FA
:100A000080B582B000AF78607B68B3F1402F10D022
:100A10007B680F4A93420CD07B680E4A934208D001
:100A20007B680D4A934204D00C484FF4D37100F018
:100A3000D3FA7B685B6843F002027B685A607B688C
:100A40005B6823F002027B685A600837BD4680BDB0
:100A5000008000400000094000400940204B000099
:100A600080B582B000AF786039607B68B3F1402F09
:100A700010D07B68574A93420CD07B68564A934209
:100A800008D07B68554A934204D0554840F2C511BE
:100A900000F0A2FA3B681B79002B10D03B681B7951
:100AA000012B0CD03B681B79022B08D03B681B79CB
:100AB000032B04D04A484FF4E37100F08DFA3B68F1
:100AC0001B78032B1ED801A252F823F0DD0A000088
:100AD000E70A0000F10A0000FB0A00003B689A6880
:100AE0007B689A610FE03B689A687B68DA610AE08C
:100AF0003B689A687B681A6205E03B689A687B6885
:100B00005A6200E0FEE77B685A693B681B78194629
:100B10000B465B000B44072101FA03F3DB431A4049
:100B20007B685A613B685B78002B0DD07B685A6903
:100B30003B681B7819460B465B000B44012101FA08
:100B400003F31A437B685A613B68DB78002B0ED0B5
:100B50007B685A693B681B7819460B465B000B445F
:100B60000133012101FA03F31A437B685A613B68A0
:100B70009B78002B0ED07B685A693B681B7819461E
:100B80000B465B000B440233012101FA03F31A43C5
:100B90007B685A617B68DB6B3A68127852000432DA
:100BA000032101FA02F2D2431A407B68DA637B68C0
:100BB000DB6B3A68127902F003013A68127852004E
:100BC000043201FA02F21A437B68DA630837BD4641
:100BD00080BD00BF00800040000009400040094087
:100BE000204B000080B584B000AFF8600B467A60FF
:100BF000FB72FB68B3F1402F10D0FB68184A934298
:100C00000CD0FB68174A934208D0FB68164A9342FF
:100C100004D0164840F2FB1100F0DEF9FB7A032BFA
:100C20001AD801A252F823F0390C0000410C000040
:100C3000490C0000510C0000FB687A689A610CE0D6
:100C4000FB687A68DA6108E0FB687A681A6204E097
:100C5000FB687A685A6200E0FEE71037BD4680BD47
:100C6000008000400000094000400940204B000087
:100C700080B582B000AF786039607B68B3F1402FF7
:100C800010D07B682C4A93420CD07B682B4A93424D
:100C900008D07B682A4A934204D02A4840F2212196
:100CA00000F09AF97B689A6A3B681B7819460B46F4
:100CB0005B000B44072101FA03F3DB431A407B6816
:100CC0009A623B685B78002B0DD07B689A6A3B6820
:100CD0001B7819460B465B000B44012101FA03F314
:100CE0001A437B689A623B689B78002B0ED07B6826
:100CF0009A6A3B681B7819460B465B000B4401332C
:100D0000012101FA03F31A437B689A623B68DB789E
:100D1000002B0ED07B689A6A3B681B7819460B46FD
:100D20005B000B440233012101FA03F31A437B6891
:100D30009A620837BD4680BD00800040000009402F
:100D400000400940204B000080B582B000AF7860C1
:100D50000B46FB707B68B3F1402F10D07B68134AC1
:100D600093420CD07B68124A934208D07B68114AA8
:100D7000934204D010484FF40F7100F02DF9FB7826
:100D8000002B07D0FB78012B04D00B4840F23D210B
:100D900000F022F9FB78002B02D17B68DB6A01E0CE
:100DA0007B681B6B18460837BD4680BD008000403D
:100DB0000000094000400940204B000080B400AF13
:100DC00030BFBD465DF8047B704700BF80B485B07E
:100DD00000AF786039607B681F2B02D97B68203BAD
:100DE00000E07B68FB607B681F2B17D81949194B03
:100DF000D3F8A831FA68032000FA02F2D243134074
:100E0000C1F8A8311348134BD3F8A821FB683968FF
:100E100001FA03F31343C0F8A83116E00D490D4B56
:100E2000D3F8AC31FA68032000FA02F2D24313403F
:100E3000C1F8AC310748074BD3F8AC21FB683968DF
:100E400001FA03F31343C0F8AC311437BD465DF823
:100E5000047B704700C00F4080B485B000AF78605D
:100E60007B681F2B06D87B68FB600D4BD3F8A8313D
:100E7000BB6006E07B68203BFB60094BD3F8AC31DC
:100E8000BB60FB68BA6822FA03F303F00303BB609C
:100E9000BB6818461437BD465DF8047B704700BF39
:100EA00000C00F4080B584B000AF7860154B1B6860
:100EB000BB607868FFF7D0FFF860FB68032B17D89A
:100EC00001A252F823F000BFD90E0000DF0E00008F
:100ED000E50E0000EB0E00000423FB6008E0012398
:100EE000FB6005E00223FB6002E00823FB6000BF1B
:100EF000BA68FB68B2FBF3F3BB60BB6818461037F7
:100F0000BD4680BD0040001080B483B000AF786063
:100F10000B46FB70FB78012B0AD10F480E4BD3F820
:100F2000C42079680D4B0B401343C0F8C4300DE06A
:100F3000FB78002B0AD10849074BD3F8C4207B6803
:100F4000DB431A40054B1340C1F8C4300C37BD4693
:100F50005DF8047B704700BF00C00F40DEF7EFEF85
:100F600080B500AF034B0022C3F8C020FFF726FF77
:100F700080BD00BF00C00F4080B500AF044B04220D
:100F80001A61044B0822C3F8C020FFF717FF80BD89
:100F900000ED00E000C00F4080B500AF044B04221C
:100FA0001A61044B0922C3F8C020FFF707FF80BD78
:100FB00000ED00E000C00F4080B500AF044B0422FC
:100FC0001A61044B0322C3F8C020FFF7F7FE80BD6F
:100FD00000ED00E000C00F4080B483B000AF786047
:100FE0003960FEE780B58EB000AF786039600023CD
:100FF00087F837300023FB600023BB6000237B624F
:1010000001233B620023FB610023BB6100237B6162
:10101000734B3B617B68734A934204D10620FFF710
:1010200041FF386319E07B686F4A934204D108207E
:10103000FFF738FF386310E07B686C4A934204D1B5
:101040003020FFF72FFF386307E07B68684A934240
:1010500003D13220FFF726FF38633B6B1B093B634C
:101060000123FB6256E00023BB6249E0FB6A3A6B56
:1010700002FB03F2F96ABB6A0B44B2FBF3F3BB60F9
:10108000BA683B68B2FBF3F37B62BB683A68B3FBB8
:10109000F2F2396801FB02F29A1A3B685B089A4245
:1010A00002D97B6A01337B627B6A022B25D97B6A7A
:1010B000B3F5803F21D2BA687B6AB2FBF3F3FB60E1
:1010C000FA683B689A4204D83A68FB68D31A7B6195
:1010D00003E0FA683B68D31A7B617A693B699A42FC
:1010E0000BD2FB6A3B62BB6AFB617B6ABB617B69BB
:1010F0003B617B69002B00D105E0BB6A0133BB6219
:10110000BB6A0F2BB2D97B69002B00D105E0FB6ACB
:101110000133FB62FB6A0F2BA5D93A6813465B00CB
:101120001344344AA2FB03235A093B699A4251D91A
:101130007B682D4A934223D17B681B7BDBB263F033
:101140007F03DAB27B681A73BB691B0ADAB27B6869
:101150001A71BB69DAB27B681A707B681B7BDBB2E1
:1011600003F07F03DAB27B681A733B6A1B01DAB2C1
:10117000FB6903F00F031343DAB27B689A6226E03F
:101180007B681B7BDBB263F07F03DAB27B681A7388
:10119000BB691B0ADAB27B681A71BB69DAB27B6879
:1011A0001A707B681B7BDBB203F07F03DAB27B68CB
:1011B0001A733B6ADBB21B01DAB2FB69DBB203F0E4
:1011C0000F03DBB21343DAB27B6883F828200123D4
:1011D00087F8373097F8373018463837BD4680BD26
:1011E000A086010000C000400000014000800940CE
:1011F00000C009401F85EB5180B584B000AF786016
:1012000039607B68A44A93420FD07B68A34A93421B
:101210000BD07B68A24A934207D07B68A14A9342D5
:1012200003D0A148BF21FFF7D7FE3B685B79002BB5
:101230000FD03B685B79012B0BD03B685B79022BAD
:1012400007D03B685B79032B03D09748C021FFF799
:10125000C3FE3B689B79002B07D03B689B79012B31
:1012600003D09148C121FFF7B7FE3B681B79002BE3
:1012700013D03B681B79012B0FD03B681B79022BE5
:101280000BD03B681B79032B07D03B681B79042BE1
:1012900003D08548C221FFF79FFE7B687E4A9342B8
:1012A00003D108200121FFF72FFE7B687B4A934280
:1012B00003D110200121FFF727FE7B68784A934273
:1012C00004D14FF080700121FFF71EFE7B68754A44
:1012D000934204D14FF000700121FFF715FE7B68A7
:1012E0006E4A934242D17B6807221A727B680022C1
:1012F0001A7203E07B681B78DBB2FB607B681B7DA6
:10130000DBB203F00103002BF4D17B68802283F869
:10131000302000BF7B681B7DDBB203F02003002B75
:10132000F8D07B68002283F830207B6800225A6066
:101330007B6800221A737B6800221A627B68002295
:101340001A747B68002283F84C207B68002283F8A3
:1013500054207B68002283F850207B681B7EDBB220
:10136000FB607B681B7DDBB2FB602EE07B680722A5
:101370001A727B6800221A7203E07B681B78DBB26A
:10138000FB607B681B7DDBB203F00103002BF4D113
:101390007B68802283F8302000BF7B681B7DDBB236
:1013A00003F02003002BF8D07B68002283F8302064
:1013B0007B6800225A607B6800221A737B680022D7
:1013C0001A627B681B7DDBB2FB607B68354A934207
:1013D00003D17B68002283F824203B681B6878686F
:1013E0001946FFF7FFFD7B682C4A934206D17B68C4
:1013F0001B7BDBB203F0C003FB6005E07B681B7B5B
:10140000DBB203F0C003FB603B685B79012B04D0C7
:10141000022B07D0002B0FD009E0FB6843F001033B
:10142000FB600AE0FB6843F00203FB6005E0FB6839
:1014300043F00303FB6000E000BF3B681B79002B17
:1014400024D0FB6843F00803FB603B681B79013B39
:10145000032B1AD801A252F823F000BF8B1400000E
:101460006D1400007714000081140000FB6843F045
:101470001003FB600AE0FB6843F02003FB6005E01B
:10148000FB6843F03003FB6000E000BF3B689B79E2
:10149000012B0BD00FE000BF00C000400000014056
:1014A0000080094000C009404C4B0000FB6843F03D
:1014B0000403FB6000BF7B68074A934204D1FB68CA
:1014C000DAB27B681A7303E0FB68DAB27B681A73DE
:1014D0001037BD4680BD00BF0000014080B582B01E
:1014E00000AF78607B681E4A934210D07B681D4A2B
:1014F00093420CD07B681C4A934208D07B681B4AFD
:10150000934204D01A4840F28B11FFF765FD7868CA
:10151000002100F089FC7B68114A934203D1082026
:101520000021FFF7F1FC7B680E4A934203D11020A3
:101530000021FFF7E9FC7B680B4A934204D14FF08E
:1015400080700021FFF7E0FC7B68084A934204D1D9
:101550004FF000700021FFF7D7FC0837BD4680BD73
:1015600000C00040000001400080094000C0094068
:101570004C4B000080B483B000AF78607B684FF4C0
:1015800016521A607B6803225A717B6800221A7116
:101590007B6800229A710C37BD465DF8047B70476A
:1015A00080B582B000AF78600B46FB707B68114A53
:1015B000934210D07B68104A93420CD07B680F4A4C
:1015C000934208D07B680E4A934204D00D4840F203
:1015D000CF11FFF701FD7B68074A934203D17B6877
:1015E000FA781A7002E07B68FA781A700837BD46FC
:1015F00080BD00BF00C000400000014000800940E5
:1016000000C009404C4B000080B582B000AF78604C
:101610007B68114A934210D07B68104A93420CD0E9
:101620007B680F4A934208D07B680E4A934204D0ED
:101630000D4840F2E711FFF7CFFC7B68074A934261
:1016400003D17B681B78DBB202E07B681B78DBB2DE
:1016500018460837BD4680BD00C00040000001406C
:101660000080094000C009404C4B000080B58AB0A2
:1016700000AFF860B9607A60FB70BB687B617B6823
:101680007B62FB78012B37D100233B6230E04FF0C7
:10169000FF33FB6106E0FB69002B00D109E0FB6929
:1016A000013BFB61FB681B7DDBB203F02003002BD9
:1016B000F1D0FB69002B01D100BF45E01023BB61D5
:1016C00010E07B695A1C7A611B78F8681946FFF7AD
:1016D00067FFBB69013BBB617B6A013B7B623B6A85
:1016E00001333B62BB69002B02D07B6A002BE8D13F
:1016F0007B6A002BCBD127E000233B6221E0FB6813
:101700001B7DDBB203F02003002B00D11CE0102373
:10171000BB6110E07B695A1C7A611B78F868194636
:10172000FFF73EFF7B6A013B7B62BB69013BBB610C
:101730003B6A01333B62BB69002B02D07B6A002B02
:10174000E8D17B6A002BDAD13B6A18462837BD46C0
:1017500080BD00BF90B589B000AFF860B9607A6015
:10176000FB70BB683B617B68FB61FB78012B2BD175
:101770000023BB6124E04FF0FF337B6106E07B690F
:10178000002B00D109E07B69013B7B61FB681B7D7D
:10179000DBB203F00103002BF1D07B69002B01D1F8
:1017A00000BF2DE03C69631C3B61F868FFF72CFF2C
:1017B00003462370FB69013BFB61BB690133BB61DD
:1017C000FB69002BD7D11BE00023BB6115E0FB6850
:1017D0001B7DDBB203F00103002B00D110E03C695C
:1017E000631C3B61F868FFF70FFF03462370BB697A
:1017F0000133BB61FB69013BFB61FB69002BE6D157
:10180000BB6918462437BD4690BD00BF80B582B085
:1018100000AF78607B68164A934210D07B68154A07
:1018200093420CD07B68144A934208D07B68134AD9
:10183000934204D0124840F27921FFF7CDFB7B6838
:101840000C4A934208D17B681B7BDBB243F0400318
:10185000DAB27B681A7307E07B681B7BDBB243F06C
:101860004003DAB27B681A730837BD4680BD00BFFB
:1018700000C00040000001400080094000C0094055
:101880004C4B000080B584B000AF78600B46FB7015
:101890001346BB707B685B4A934210D07B685A4A00
:1018A00093420CD07B68594A934208D07B68584ACF
:1018B000934204D057484FF42871FFF78DFBBB7853
:1018C000002B07D0BB78012B04D0524840F2A12155
:1018D000FFF782FBFB78062B27D801A252F823F0F2
:1018E000FD18000003190000091900000F1900007D
:1018F000151900001B190000231900000123FB60CB
:1019000013E00223FB6010E00423FB600DE00823DA
:10191000FB600AE08023FB6007E04FF48073FB600C
:1019200003E04FF40073FB6000BF7B68364A9342CC
:101930001AD1FB78002B2BD0FB78012B28D0FB7819
:10194000022B25D0FB78052B22D0FB78062B1FD04D
:10195000FB78032B1CD0FB78042B19D02D4840F2C8
:10196000BD21FFF739FB13E0FB78002B10D0FB788B
:10197000012B0DD0FB78022B0AD0FB78052B07D06A
:10198000FB78062B04D0234840F2C121FFF724FB4B
:10199000BB78012B19D17B681B4A934206D17B6827
:1019A0005A68FB681A437B685A6027E07B681B7B98
:1019B000DBB203F07F03DAB27B681A737B685A6884
:1019C000FB681A437B685A6018E07B680E4A9342B2
:1019D0000AD17B685A68FB68DB431A4040F28F33B8
:1019E00013407A68536009E07B685A68FB68DB4300
:1019F0001A4040F2073313407A6853601037BD46EF
:101A000080BD00BF00C000400000014000800940D0
:101A100000C009404C4B000080B582B000AF786038
:101A20007B68114A934210D07B68104A93420CD0D5
:101A30007B680F4A934208D07B680E4A934204D0D9
:101A40000D4840F2F221FFF7C7FA7B68074A93423C
:101A500003D1064B1B7DDBB202E07B681B7DDBB252
:101A600018460837BD4680BD00C000400000014058
:101A70000080094000C009404C4B000080B582B096
:101A800000AF78607B680E4A934210D07B680D4AA5
:101A900093420CD07B680C4A934208D07B680B4A77
:101AA000934204D00A4840F20931FFF795FA7B6867
:101AB0009A6840F2CF33134018460837BD4680BDC0
:101AC00000C00040000001400080094000C0094003
:101AD0004C4B000080B483B000AF78607B681B7D06
:101AE000DBB203F04003002B01D0002300E0012310
:101AF00018460C37BD465DF8047B704780B584B04E
:101B000000AF786039600023FB737B684C4A9342D6
:101B100010D07B684B4A93420CD07B684A4A934270
:101B200008D07B68494A934204D0494840F22F319B
:101B3000FFF752FA3B68DB78002B10D03B68DB786C
:101B4000012B0CD03B68DB78022B08D03B68DB789C
:101B5000032B04D03E484FF44C71FFF73DFA3B682D
:101B60009B78002B08D03B689B78012B04D0384829
:101B700040F23131FFF730FA3B681B78002B08D078
:101B80003B681B78012B04D0314840F23231FFF71B
:101B900023FA3B685B78002B08D03B685B78012B0D
:101BA00004D02B4840F23331FFF716FAFB7B43F0A9
:101BB0000103FB733B68DB78012B04D0022B07D0B9
:101BC000002B0FD009E0FB7B43F04003FB730AE0DE
:101BD000FB7B63F07F03FB7305E0FB7B63F03F035C
:101BE000FB7300E000BF3B685B78012B03D1FB7BFC
:101BF00043F00403FB733B681B78012B03D1FB7B91
:101C000043F00203FB733B689B78012B03D1FB7B02
:101C100043F00803FB737B680A4A934206D1FB7BBF
:101C200023F03003DAB27B681A7205E0FB7B23F005
:101C30003003DAB27B681A721037BD4680BD00BF30
:101C400000C00040000001400080094000C0094081
:101C50004C4B000080B483B000AF78607B680022FA
:101C60009A707B680022DA707B6801221A707B68A8
:101C700001225A700C37BD465DF8047B704700BFE7
:101C800080B586B000AFF860B9601346FB71FB68A1
:101C9000434A934210D0FB68424A93420CD0FB68FF
:101CA000414A934208D0FB68404A934204D04048DE
:101CB00040F28931FFF790F9FB79002B07D0FB79CF
:101CC000012B04D03A4840F28A31FFF785F900230E
:101CD0007B61FB79012B0FD1BB681B78012B03D1F2
:101CE0007B6943F002037B61BB685B78012B03D106
:101CF0007B6943F004037B61FB682A4A934225D148
:101D0000FB79012B1ED1FB681B7BDBB263F07F03E9
:101D1000DAB2FB681A73FB6800221A70FB680022B3
:101D20001A71FB681B7BDBB203F07F03DAB2FB683E
:101D30001A73FB6810229A627B6943F00102FB6808
:101D40001A6229E0FB6800221A6225E0FB79012B68
:101D50001FD1FB681B7BDBB263F07F03DAB2FB6849
:101D60001A73FB6800221A70FB6800221A71FB6864
:101D70001B7BDBB203F07F03DAB2FB681A73FB68EC
:101D8000102283F828207B6943F00102FB681A6265
:101D900002E0FB6800221A621837BD4680BD00BF12
:101DA00000C00040000001400080094000C0094020
:101DB0004C4B000080B582B000AF78600B467B8052
:101DC0007B68144A934210D07B68134A93420CD02C
:101DD0007B68124A934208D07B68114A934204D030
:101DE000104840F2CA31FFF7F7F87B680A4A93427D
:101DF00006D17B681A6A7B881A437B681A6205E001
:101E00007B681A6A7B881A437B681A620837BD466A
:101E100080BD00BF00C000400000014000800940BC
:101E200000C009404C4B000080B582B000AF786024
:101E30000B46FB707B68294A934210D07B68284A86
:101E400093420CD07B68274A934208D07B68264A8D
:101E5000934204D0254840F2E131FFF7BDF8FB780A
:101E6000002B07D0FB78012B04D0204840F2E23150
:101E7000FFF7B2F8FB78012B19D17B68184A93421F
:101E80000AD17B6893F83030DBB263F07F03DAB2BB
:101E90007B6883F830201DE07B6893F83030DBB23C
:101EA00063F07F03DAB27B6883F8302012E07B684E
:101EB0000B4A934207D17B6893F830307B6800224D
:101EC00083F8302006E07B6893F830307B6800228E
:101ED00083F830200837BD4680BD00BF00C00040F9
:101EE000000001400080094000C009404C4B000048
:101EF00080B582B000AF78600B46FB707B68184AF3
:101F0000934204D0174840F20B41FFF765F8FB7885
:101F1000002B07D0FB78012B04D0124840F20C4173
:101F2000FFF75AF8FB78012B0AD17B6893F824302D
:101F3000DBB243F00203DAB27B6883F824200CE0C2
:101F4000FB78002B09D17B6893F82430DBB203F0D7
:101F50003D03DAB27B6883F824200837BD4680BD94
:101F600000C009404C4B000080B582B000AF7860E3
:101F70000B46FB707B68174A934204D0164840F228
:101F80002341FFF729F8FB78002B07D0FB78012BC2
:101F900004D0114840F22441FFF71EF8FB78012BD2
:101FA0000AD17B6893F82430DBB243F00103DAB244
:101FB0007B6883F8242009E07B6893F82430DBB247
:101FC00003F03E03DAB27B6883F824200837BD466D
:101FD00080BD00BF00C009404C4B000080B584B0FC
:101FE00000AF78600B46FB707B68214A934204D0B7
:101FF000204840F24441FEF7EFFFFB78002B19D058
:10200000FB78012B16D0FB78022B13D0FB78032B27
:1020100010D0FB78042B0DD0FB78052B0AD0FB7871
:10202000062B07D0FB78072B04D0124840F245411D
:10203000FEF7D2FFFB7803F00703DB00FB607B6851
:1020400093F82430DBB223F03803BB60FA68BB6836
:10205000134343F00403BB60BB68DBB203F03F03F0
:10206000DAB27B6883F824201037BD4680BD00BFFC
:1020700000C009404C4B000080B584B000AF7860D0
:102080000B46FB701346BB700023FB737B68234A2F
:10209000934204D0224840F26441FEF79DFFFB7852
:1020A000002B07D0FB78012B04D01D4840F265417E
:1020B000FEF792FFBB78002B07D0BB78012B04D032
:1020C000174840F26641FEF787FFFB78002B02D0ED
:1020D000012B03D005E00123FB7302E00223FB7315
:1020E00000BFBB78012B08D17B681B7CDAB2FB7B7D
:1020F0001343DAB27B681A740CE07B681B7CDAB29B
:10210000FB7BDB43DBB21340DBB223F00C03DAB220
:102110007B681A741037BD4680BD00BF00000140C7
:102120004C4B000080B584B000AF78600B46FB706C
:102130001346BB707B68274A934204D0264840F27E
:102140008C41FEF749FFFB78002B0AD0FB78012B6E
:1021500007D0FB78022B04D01F4840F28D41FEF7D8
:102160003BFFBB78002B07D0BB78012B04D01A486B
:1021700040F28E41FEF730FFFB78012B07D0022B97
:1021800008D0002B00D008E01023FB7305E04023AB
:10219000FB7302E08023FB7300BFBB78012B08D1E7
:1021A0007B681B7CDAB2FB7B1343DAB27B681A7460
:1021B0000CE07B681B7CDAB2FB7BDB43DBB21340B9
:1021C000DBB223F00C03DAB27B681A741037BD4619
:1021D00080BD00BF000001404C4B000080B582B0C4
:1021E00000AF78607B68074A934204D0064840F20B
:1021F000B741FEF7F1FE7B681B7EDBB2184608375D
:10220000BD4680BD000001404C4B000080B584B04D
:1022100000AF786039607B685B4A934204D05B48CA
:1022200040F2CB41FEF7D8FE3B689B78002B08D0EC
:102230003B689B78012B04D0544840F2CC41FEF718
:10224000CBFE3B68DB78002B08D03B68DB78012BAA
:1022500004D04E4840F2CD41FEF7BEFE3B68DB792C
:10226000FF2B04D1494840F2CE41FEF7B5FE3B6852
:102270005B79002B08D03B685B79012B04D0434885
:1022800040F2CF41FEF7A8FE3B681B79002B08D037
:102290003B681B79012B04D03C484FF49A61FEF750
:1022A0009BFE3B689B79FF2B04D1384840F2D1411B
:1022B000FEF792FE3B681B78002B08D03B681B782A
:1022C000012B04D0314840F2D241FEF785FE3B6835
:1022D0005B78002B08D03B685B78012B04D02B483F
:1022E00040F2D341FEF778FE0023FB603B68DB78C9
:1022F000012B18D1FB6843F01003FB603B685B794E
:10230000012B03D1FB6843F02003FB603B681B7982
:10231000012B03D1FB6843F00803FB603B68DA79CB
:102320007B6883F854203B681B78012B03D1FB6842
:1023300043F00103FB603B689B78012B08D1FB68ED
:1023400043F00403FB603B689A797B6883F8502074
:102350003B685B78002B03D1FB6843F00203FB6012
:10236000FB68DBB203F03F03DAB27B6883F84C20F2
:102370007B681B7BDBB243F03803DAB27B681A73ED
:102380001037BD4680BD00BF000001404C4B00002F
:1023900080B483B000AF78600B46FB70FB78012BF4
:1023A0000AD17B6893F84C30DBB223F00203DAB237
:1023B0007B6883F84C2009E07B6893F84C30DBB2F3
:1023C00043F00203DAB27B6883F84C200C37BD4639
:1023D0005DF8047B704700BF80B586B000AFF86041
:1023E000B9607A60FB70FB78002B1ED0FB681B7B0A
:1023F000FB74FB7CBB74FB7C23F01003FB74FB6859
:10240000FA7C1A73F868B9687A680123FFF72EF925
:10241000786100BFFB681B7DDBB203F04003002B3B
:10242000F8D0FB68BA7C1A730EE0F868B9687A686D
:102430000123FFF71BF9786100BFFB681B7DDBB24E
:1024400003F04003002BF8D07B6918461837BD46CF
:1024500080BD00BF80B582B000AF78600B46FB70D6
:10246000FB1C7868194601220123FFF7B5FF0837E6
:10247000BD4680BD80B584B000AFF860B9607A60B9
:10248000F868B9687A680023FFF7A6FF0346184684
:102490001037BD4680BD00BF80B483B000AF034697
:1024A000FB71084997F907305B09FA7902F01F02BE
:1024B000012000FA02F241F823200C37BD465DF8F6
:1024C000047B704700E100E080B485B000AF786025
:1024D0007B68B3FA83F3FB73FB7B18461437BD4666
:1024E0005DF8047B704700BF80B500AF054B1B68EB
:1024F000002B01D100F09AFF024B1B680133014A07
:10250000136080BD2440001080B500AF054B1B68F0
:10251000013B044A1360034B1B68002B01D100F000
:102520007DFF80BD2440001080B582B002AF00F076
:10253000F1FB334B00930023019302203149002229
:102540004FF4AF7301F02EFA2F4B00930023019349
:1025500003202E4900224FF4AF7301F023FA2C4BD5
:1025600000930023019304202A4900224FF4AF7303
:1025700001F018FA284B0093002301930520274906
:1025800000224FF4AF7301F00DFA254B00930023A6
:1025900001930620234900224FF4AF7301F002FAA1
:1025A000214B0093002301930720204900224FF480
:1025B000AF7301F0F7F91E4B00930023019308203D
:1025C0001C4900224FF4AF7301F0ECF90A201021EE
:1025D00000F09EFC0246184B1A60012000F0E4FF58
:1025E0000246164B1A60012000F0DEFF0246144B33
:1025F0001A6000F09BFB00231846BD4680BD00BF5B
:10260000A85B001045260000B4500010B126000061
:10261000C0450010A5270000FC68001065280000D8
:102620002C5600109528000080630010C52800007B
:10263000384B001021290000AC5B0010085E001030
:102640003056001080B584B000AF786000237B6006
:102650007B6801337B600023FB600123BB600123A7
:10266000BB600123FB6009E0FB6801331A46BB68CD
:1026700002FB03F3BB60FB680133FB60FB68092BC3
:10268000F2DD094B1B681846002100F0AFFF074A36
:10269000BB681360044B1B68184600F0EFFF642012
:1026A00001F0A2FBDBE700BF305600103C4B0010EE
:1026B00080B5EAB000AF3B1D18603B1D00221A60D8
:1026C0003B1D1B685A1C3B1D1A600023C7F8A43130
:1026D000002387F89F310023C7F898310023C7F8FB
:1026E000A43143E00223C7F8A03118E0012387F8A2
:1026F0009F31D7F8A431D7F8A02193FBF2F2D7F895
:10270000A01101FB02F29B1A002B03D1002387F8D2
:102710009F310AE0D7F8A0310133C7F8A031D7F8CC
:10272000A021D7F8A4319A42E0DB97F89F31002B23
:1027300017D0D7F898315A1CC7F89821164A82FB4F
:1027400003125111DA178A1A642101FB02F29A1A54
:10275000D7F8A41107F1080343F82210002387F8E3
:102760009F31D7F8A4310133C7F8A431D7F8A43189
:10277000632BB7DD094B1B681846002100F036FFBC
:10278000074BAA221A60054B1B68184600F076FF1B
:10279000C82001F029FBA1E71F85EB51305600103E
:1027A0003C4B001090B5E9B000AF3B1D18603B1DDD
:1027B00000221A603B1D1B685A1C3B1D1A60002337
:1027C000C7F8983107F1080300221A6007F10803DF
:1027D00001225A600223C7F89C3137E0D7F89C21C8
:1027E0001F4B83FB02135911D317CB1A642101FB32
:1027F00003F3D31AD7F89C21511E194A82FB010218
:102800005011CA17821A642000FB02F28A1A07F1DB
:10281000080151F82200D7F89C21911E104A82FB32
:1028200001425411CA17A21A642404FB02F28A1A44
:1028300007F1080151F82220811807F1080242F837
:102840002310D7F89C310133C7F89C31D7F89C315D
:10285000B3F57A7FC2DBC82001F0C6FAB2E700BF49
:102860001F85EB5180B584B000AF7860074B1B68C3
:102870001846642100F0BAFE0346FB73044A044B79
:102880005B6983F400135361F0E700BF085E00103A
:1028900020C0092080B584B000AF786000237B6041
:1028A0000023FB601E2001F09FFA0023FB6005E07F
:1028B00000F0D8FFB860FB680133FB60FB68632B56
:1028C000F6D9EFE780B584B000AF786000237B6075
:1028D000102000F07BF9F8600E4B1B681846F96871
:1028E000002200F0C3FB0C4A0B4B5B6983F480139E
:1028F00053610A4B1968FB685A1CFB681B78084631
:1029000011461A460023FEF7B1FE0A2001F06CFAC8
:10291000E2E700BFAC5B001020C009208463001018
:1029200080B582B000AF786000F01EF80A4B1B78CB
:10293000DBB2012B05D1094809490C220023FEF71F
:1029400095FE642001F050FA064A064B5B6983F459
:1029500000035361EAE700BF1840001000C00940BF
:10296000744B000020C0092080B500AF0E4A0E4B0A
:102970001B6843F4802313600B4A0B4B1B6843F422
:1029800080131360084A084B1B6843F4001313605C
:10299000054A054B1B6843F40003136000F006F87A
:1029A00000F014F880BD00BF20C0092080B483B0BF
:1029B00000AF054A044B1B6843F00A0313600C3751
:1029C000BD465DF8047B704700C0024080B584B00E
:1029D00000AF194B194A1A6007F108031846FEF7B1
:1029E000C9FD4FF41653BB60134B1A6807F1080377
:1029F00010461946FEF700FC3B1D1846FFF72AF962
:102A00000223FB710C4B1A683B1D10461946FFF759
:102A100075F8094B1B68184600210122FEF732FFAA
:102A20000820FFF739FD044B1B6818460121FFF70A
:102A3000FBF91037BD4680BD8463001000C009401B
:102A400080B584B000AF00237B603248FFF716F8F2
:102A5000B86056E0BB6803F00E03042B02D00C2BC9
:102A60002AD04AE00023FB730EE02A48FEF7CCFD93
:102A70000346FB707B685A1C7A6001332649FA785A
:102A8000CA54FB7B0133FB73FB7B072BEDD9FFF7AC
:102A90002BFD7B68DAB2204B1A70204B1B6818465E
:102AA0001D4900F091FAFFF72FFD1D4A1C4B5B6991
:102AB00083F48023536120E01648FEF7A5FD03460A
:102AC000FB707B685A1C7A6001331349FA78CA5448
:102AD000FFF70AFD7B68DAB20F4B1A700F4B1B68C9
:102AE00018460D4900F070FAFFF70EFD0C4A0C4B2A
:102AF0005B6983F48023536100BF0648FEF7BEFF85
:102B0000B860BB6803F00103002BA3D01037BD46AB
:102B100080BD00BF00C0094004400010AC5B001045
:102B200020C0092080B485B000AF78607B68B3FA1C
:102B300083F3FB73FB7B18461437BD465DF8047BBB
:102B4000704700BF80B500AF054B1B68002B01D15B
:102B500000F06CFC024B1B680133014A136080BD1E
:102B60002440001080B500AF054B1B68013B044AB0
:102B70001360034B1B68002B01D100F04FFC80BD9C
:102B80002440001080B483B000AF0E4B033323F019
:102B900003031A460C4B1A6000237B6008E00A4BC3
:102BA0001A687B68134400221A707B6801337B60CB
:102BB0007B68B3F57A7FF2D30C37BD465DF8047BB2
:102BC000704700BF00690010EC6C001080B584B045
:102BD00000AF7860FFF7B6FF194B1B681A467B6899
:102BE0001344B3F57A7F16D9164B1B681A467B68D7
:102BF0009A4202D20023FB601BE0134B1B68FB6070
:102C00000F4B1B681A467B681344A3F57A731A4668
:102C10000B4B1A600DE00C4B1B68094A12681344F9
:102C2000FB60074B1B681A467B6813441A46044B2B
:102C30001A60FFF797FFFB6818461037BD4680BD46
:102C4000204000101C400010EC6C001080B483B0D9
:102C500000AF786000BF0C37BD465DF8047B70475D
:102C600080B400AF0B4B1A680B4B1B689A4205DD12
:102C7000084B1A68084B1B68D31A06E0054B1B6803
:102C800003F57A72044B1B68D31A1846BD465DF8EB
:102C9000047B7047204000101C40001080B400AF3F
:102CA000BD465DF8047B704780B400AFBD465DF85B
:102CB000047B704780B485B000AF78607B68B3FA5E
:102CC00083F3FB73FB7B18461437BD465DF8047B2A
:102CD000704700BF80B500AF054B1B68002B01D1CA
:102CE00000F0A4FB024B1B680133014A136080BD56
:102CF0002440001080B500AF054B1B68013B044A1F
:102D00001360034B1B68002B01D100F087FB80BDD3
:102D10002440001080B500AFFFF734FF00F00CFE38
:102D200000F0A4FB00F06AFD80BD00BF80B500AFDD
:102D30000F4B1B681846FFF7BDFF0346C3F11F0387
:102D40000C4A52F823300C4A13600B4B1B680B4A99
:102D5000136000F00BFB00F0EFFA094B01221A7030
:102D6000054B1B6801229A7100F0CAFA80BD00BFB2
:102D7000547100104C700010447000104870001026
:102D80003040001080B500AFFFF7A4FF164B1B6862
:102D9000002B24D1154B1B681846FFF78BFF034609
:102DA000C3F11F03124A52F82330124A1360124B28
:102DB0001A68104B1B689A4202D1FFF79BFF11E083
:102DC0000C4B1B6801229A71FFF794FFFFF76CFF11
:102DD0000A4A0A4B5B6843F08053536002E0FFF7F6
:102DE00089FF00BF80BD00BF284000105471001053
:102DF0004C700010447000104870001000ED00E0AE
:102E000080B582B000AF7860094B01221A7008E0EB
:102E100000F00CFB074B1B680133064A136000F0FF
:102E2000FDFA034B1B78002BF2D10837BD4680BD5D
:102E3000F06C00102C40001080B500AFFFF74AFF87
:102E40000F4B1B6803229A710D4B1B689B88194618
:102E50000C4B002243F82120094B1B689B8803F090
:102E60001F03012202FA03F3DB431A46064B1B68D9
:102E70001340054A1360FFF73DFFFFF783FF80BD56
:102E8000487000104C7000105471001080B483B072
:102E900000AF78607B681A687B689A420CBF012398
:102EA0000023DBB218460C37BD465DF8047B704743
:102EB00080B485B000AF78607B68B3FA83F3FB73AE
:102EC000FB7B18461437BD465DF8047B704700BF96
:102ED00080B500AF054B1B68002B01D100F0A6FAAE
:102EE000024B1B680133014A136080BD244000106F
:102EF00080B500AF054B1B68013B044A1360034BD0
:102F00001B68002B01D100F089FA80BD244000101D
:102F100080B584B000AF786039602C20FFF756FE92
:102F2000F860FB68002B01D100233EE03B687A6823
:102F300002FB03F31846FFF749FE0246FB689A605E
:102F4000FB689B68002B01D100232EE0FB689A6888
:102F50003B68796801FB03F31A44FB68DA60FB689D
:102F60009A68FB681A60FB689A68FB685A60FB689D
:102F70007A681A61FB6800225A61FB683A689A61B4
:102F8000FB6803F11C02FB68DA61FB6803F11C02B9
:102F9000FB681A62FB6803F12402FB685A62FB6853
:102FA00003F12402FB689A62FB6818461037BD469D
:102FB00080BD00BF80B582B000AF78607868FFF751
:102FC00045FE0837BD4680BD80B584B000AF78604F
:102FD0003960FFF77DFF7B685A697B681B699A42FD
:102FE00003D1FFF785FF05233CE07B685A687B68C7
:102FF0009B691A447B68DB689A4203D37B689A68B2
:103000007B685A607B685A687B689B6910463968A0
:103010001A4600F015F97B685A687B689B691A4468
:103020007B685A607B685B695A1C7B685A617B6865
:1030300024331846FFF72AFF0346002B0FD17B6885
:103040002433184601F016F8F860FB689B68002BE3
:1030500002D0FB6800229A60F86800F083FDFFF759
:1030600047FF032318461037BD4680BD80B584B0A6
:1030700000AFF860B9607A60FFF72AFFFB685B6910
:10308000002B0BD0234B1B680322DA71B868F96858
:1030900000F070F8FFF72CFF032337E0FB6803F123
:1030A00024021C4B1B681046194600F091FF194B77
:1030B0001B680022DA717B68002B16D07B681846EB
:1030C00000F092FEFFF714FF124B1B68DB79022B16
:1030D0000FD1FB6803F124020E4B1B689B8810463E
:1030E000194600F097FF062310E0FFF701FFFFF7F6
:1030F000A3FEFFF7EDFE074B1B680322DA71B868E9
:10310000F96800F037F8FFF7F3FE0323184610378D
:10311000BD4680BD4870001080B584B000AF7860B7
:103120003960FFF7D5FE7B685B69002B0AD00A4B3C
:103130001B680322DA713868796800F01BF80323F2
:10314000FB7301E00423FB73FFF7D2FEFB7B184601
:103150001037BD4680BD00BF4870001080B483B0FA
:1031600000AF78607B685B6918460C37BD465DF838
:10317000047B704780B582B000AF786039603B68EF
:103180001A683B689B69786811461A4600F058F83F
:103190003B685B695A1E3B685A613B681A683B682A
:1031A0009B691A443B68DB689A4204D33B689A687F
:1031B0003B681A6006E03B681A683B689B691A44E2
:1031C0003B681A600837BD4680BD00BF80B483B03D
:1031D00000AF03463960FB7197F90730002B0BDA1B
:1031E0000D49FB7903F00F03043B3A68D2B2D200D9
:1031F000D2B20B441A7609E0084997F907303A68C9
:10320000D2B2D200D2B20B4483F800230C37BD46B1
:103210005DF8047B704700BF00ED00E000E100E0D6
:1032200080B485B000AF78607B68B3FA83F3FB733A
:10323000FB7B18461437BD465DF8047B704700BF22
:1032400080B489B000AFF860B9607A60FB68BB6198
:10325000FB687B61BB683B610023FB610AE07A6924
:10326000FB6913443969FA690A4412781A70FB69D8
:103270000133FB61FA697B689A42F0D3BB69184657
:103280002437BD465DF8047B704700BF80B487B02B
:1032900000AFF860B9607A603B60FB6803F003033D
:1032A000002B04D0FB68033323F00303FB60FB68AF
:1032B0007B617B69043B7B617B694FF080721A60A4
:1032C0007B69043B7B61BA687B691A607B69043B5C
:1032D0007B617B6900221A607B69103B7B617B69A3
:1032E000043B7B617A687B691A607B69203B7B6168
:1032F0007B6918461C37BD465DF8047B704700BFEC
:1033000080B400AF62B600DF00BFBD465DF8047B4D
:10331000704700BF80B400AF044A11680868B0E885
:10332000F00F80F309884EF00D0E704744700010C6
:10333000BD465DF8047B704780B400AF034B0722A5
:103340001A60BD465DF8047B704700BF10E000E0E6
:1033500080B400AF044A044B1B6823F001031360E0
:10336000BD465DF8047B704710E000E080B582B098
:1033700000AF0D4B7B607B68B3F1807F01D30123ED
:103380000EE00A4A7B6823F07F43013B53604FF015
:10339000FF301F21FFF71AFF044B00229A60002321
:1033A00018460837BD4680BDA086010010E000E049
:1033B00080B483B000AF78607B681B680F4A1360ED
:1033C0007B685B680E4A13607B689B680D4A1360DC
:1033D0007B68DB680C4A13607B681B690B4A1360CF
:1033E0007B685B690A4A13607B689B69094A1360C2
:1033F0007B68DB69084A1360FEE700BFF86C0010C9
:10340000106D0010006D0010F46C00100C6D0010B9
:10341000FC6C0010046D0010086D001080B400AF4B
:1034200062B6BD465DF8047B704700BF80B400AF54
:1034300072B6BD465DF8047B704700BFEFF30980AC
:1034400020E9F00F07490A681060074A1168086808
:10345000B0E8F00F80F30988024803490A68026067
:10346000704700BF487000104470001080B400AF77
:10347000074A074B1B6843F47F031360044A044B5D
:103480001B6843F07F431360BD465DF8047B7047C3
:1034900020ED00E01EF0040F0CBFEFF30880EFF307
:1034A00009808169FFF784BF80B500AF4FF04020ED
:1034B000FDF7A6FA80BD00BF80B586B000AF01233E
:1034C0003B7401237B6100233B7101237B7101234A
:1034D000FB710023BB7100233B720C4BFB6007F1B7
:1034E00010034FF0402000211A46FDF747F93B1D1D
:1034F0004FF040201946FDF7B3FA4FF0402001216C
:10350000FDF748FA1837BD4680BD00BF8096980089
:1035100080B400AF4FF040239B681846BD465DF86D
:10352000047B704780B483B000AF78607B681A6812
:103530007B689A420CBF01230023DBB218460C378C
:10354000BD465DF8047B704780B485B000AF7860FD
:103550007B68B3FA83F3FB73FB7B18461437BD46D5
:103560005DF8047B704700BF80B500AF054B1B685A
:10357000002B01D1FFF75AFF024B1B680133014AB0
:10358000136080BD2440001080B500AF054B1B6860
:10359000013B044A1360034B1B68002B01D1FFF76A
:1035A0003DFF80BD2440001080B584B000AF78603E
:1035B0000C20FFF70BFBF860FB687A681A60FB6869
:1035C0001A1DFB685A60FB681A1DFB689A60FB684D
:1035D00018461037BD4680BD80B582B000AF786018
:1035E0007868FFF733FB0837BD4680BD80B582B0F1
:1035F00000AF78603960FFF7B7FF7B681B68002B6E
:1036000008D07B681B685A1E7B681A60FFF7BCFFF6
:1036100003232CE0184B1B680122DA717B681A1D0A
:10362000154B1B681046194600F0D2FC3B68002B76
:1036300014D0386800F0D8FBFFF7A6FF0E4B1B68CC
:10364000DB79022B0ED17B681A1D0B4B1B689B8804
:103650001046194600F0DEFC062308E0FFF794FF51
:10366000FFF7EAFB044B1B680322DA7103231846B9
:103670000837BD4680BD00BF4870001080B584B0DB
:1036800000AF7860FFF770FF7B6804331846FFF7E0
:1036900049FF0346002B05D07B681B685A1C7B68DA
:1036A0001A6011E07B680433184600F0E3FCF86010
:1036B000FB689B68002B02D0FB6800229A60FB68C5
:1036C0009B88184600F014FAFFF75EFF00BF103722
:1036D000BD4680BD80B485B000AF78607B68B3FA2A
:1036E00083F3FB73FB7B18461437BD465DF8047B00
:1036F000704700BF90B585B000AF78600023FB60D5
:1037000000237B81364B00221A6001237B72354BEC
:1037100000221A607B7A002B12D001237B810CE0FF
:10372000314B1B689B887A899A4203D07B89184663
:1037300000F054FA7B8901337B817B891F2BEFD901
:103740004FF47A7000F050FB7B7A002B18D0254B99
:103750001B68234A136000237B7201237B810CE0EA
:10376000214B1B689B887A899A4203D07B89184633
:1037700000F0BEF97B8901337B817B891F2BEFD958
:10378000184B1B68184600F04BFD0446144B1B6891
:10379000184600F045FD03462046194600F04CFE51
:1037A00003464FF07E50194600F088FC0346184649
:1037B0000E4900F08DFD03461A460D4B1A60FA685B
:1037C000531CFB600B4BA3FB02135B09642101FB41
:1037D00003F3D31A064A1268074941F8232096E7F3
:1037E000AC6E00102C400010487000100000C84261
:1037F000344000101F85EB51186D001080B582B069
:1038000002AF064B0093002301930A2004490022D3
:10381000642300F0C7F8BD4680BD00BF3C700010B7
:10382000F536000080B500AFFFF786FDFFF7F6FD27
:1038300008E0FFF7FBFD084B1B680133064A1360E5
:10384000FFF7ECFD054B1B78002BF2D1044B012256
:103850001A70FFF7EBFD80BDAC6E001040700010D9
:10386000A86E001080B400AF034B1B681846BD461D
:103870005DF8047B704700BF3440001080B400AF97
:10388000BD465DF8047B704780B485B000AFF8603A
:10389000B9607A607B68FA685A60FB687A681A6077
:1038A000FB68BA685A60BB68FA681A601437BD468C
:1038B0005DF8047B704700BF80B582B000AF7860D0
:1038C00039603B685B68786819463A68FFF7DCFF47
:1038D0000837BD4680BD00BF80B485B000AF7860BA
:1038E0007B68B3FA83F3FB73FB7B18461437BD4642
:1038F0005DF8047B704700BF80B500AF054B1B68C7
:10390000002B01D1FFF792FD024B1B680133014AE6
:10391000136080BD2440001080B500AF054B1B68CC
:10392000013B044A1360034B1B68002B01D1FFF7D6
:1039300075FD80BD2440001080B582B000AF00232B
:103940007B6007E0134A7B68002142F823107B6804
:1039500001337B607B681F2BF4DD00237B6007E075
:103960000D4A7B68002142F823107B6801337B609D
:103970007B681F2BF4DD094B00221A60084B084AB4
:103980001A60074B064A5A6000F068F90837BD46CE
:1039900080BD00BFD47000104C7000105471001036
:1039A000CC70001080B586B000AFB9607A603B6023
:1039B0000346FB730323FB75FB7B202B05D8FB7BA6
:1039C000244A52F82330002B03D00123FB75FB7DE2
:1039D0003BE0214B1B6801331F4A13601C20FFF79B
:1039E000F5F83861FB7B386919463A6800F03CF815
:1039F000386AB9687A683B68FFF748FC02463B6959
:103A00001A603B699B881946124A3B6942F821308B
:103A10003B699B881946114A3B6942F821303B6952
:103A20009B8803F01F03012202FA03F31A460C4B92
:103A30001B6813430A4A13603B691433184609494B
:103A4000FFF73AFF3B697B62FB7D18461837BD469E
:103A500080BD00BFD4700010384000104C700010C2
:103A600054710010CC70001080B485B000AFF860C5
:103A70000B467A60FB72FB7A9AB2FB689A80FB680D
:103A800002229A71FB680322DA71FB6800229A60B5
:103A9000FB6803F11402FB685A61FB6803F114022E
:103AA000FB689A61FB6803F10C02FB68DA60FB6853
:103AB00003F10C02FB681A611437BD465DF8047B04
:103AC000704700BF80B483B000AF78607B681F2B65
:103AD00004D8064A7B6852F8233000E000231846D9
:103AE0000C37BD465DF8047B704700BFD4700010F2
:103AF00080B582B000AF0346FB80FFF7FDFEFB8878
:103B0000154A52F82330002B03D1FFF705FF01239C
:103B10001EE0FB88104A52F8233002229A71FB887B
:103B2000FA880D4951F822200C4941F82320FB88DE
:103B300003F01F03012202FA03F31A46084B1B6825
:103B40001343074A1360FFF7E7FEFFF71BF9032350
:103B500018460837BD4680BDD47000104C70001068
:103B60005471001080B584B000AF78607B689B888A
:103B7000FB81FFF7C1FEFB89144A52F82330002B6A
:103B800003D1FFF7C9FE01231CE07B6802229A7172
:103B9000FB890F497A6841F82320FB8903F01F0352
:103BA000012202FA03F31A460A4B1B681343094A1F
:103BB0001360FFF7B1FE084B1B68002B01D1FFF724
:103BC000E1F8032318461037BD4680BDD4700010BD
:103BD0004C700010547100102840001080B582B065
:103BE00000AF0346FB80FB88184A52F82330002BB5
:103BF00001D1012326E0164B1B689B88FA889A4264
:103C000003D1FFF719F903231CE0FFF775FEFB88CA
:103C10000E4A52F8233003229A71FB880D4A002184
:103C200042F82310FB8803F01F03012202FA03F37A
:103C3000DB431A46084B1B681340074A1360FFF723
:103C40006BFE032318460837BD4680BDD4700010B4
:103C5000487000104C7000105471001080B582B094
:103C600002AF064B00930023019300200449002279
:103C70009623FFF797FEBD4680BD00BF045E00108F
:103C8000012E000080B485B000AF78607B68B3FA85
:103C900083F3FB73FB7B18461437BD465DF8047B4A
:103CA000704700BF80B500AF054B1B68002B01D1EA
:103CB000FFF7BCFB024B1B680133014A136080BD58
:103CC0002440001080B500AF054B1B68013B044A3F
:103CD0001360034B1B68002B01D1FFF79FFB80BDD6
:103CE0002440001080B500AFFFF7DCFF044B1B68D9
:103CF0000133034A1360FFF7C1FDFFF7E3FF80BD07
:103D00002840001080B500AFFFF7CCFF124B1B68B6
:103D1000013B114A1360104B1B68002B18D10F4B4D
:103D20001B681846FFF7AEFF0346C3F11F030C4A9A
:103D300052F823300B4A13600A4B1A680A4B1B686F
:103D40009A4205D0094A094B5B6843F0805353609F
:103D5000FFF7B8FF80BD00BF28400010547100106D
:103D60004C700010447000104870001000ED00E02E
:103D700080B582B000AFFFF7B5FF194B1B68013368
:103D8000174A1360FFF78EFF164B1B687B601CE021
:103D90007B68143B3B603B689B68002B12D03B6800
:103DA0009B685A1E3B689A603B689B68002B09D150
:103DB0003B68DB79032B02D03B680222DA7138685A
:103DC000FFF7D0FE7B681B687B607B68054A9342E7
:103DD000DED1FFF777FFFFF795FF0837BD4680BDBF
:103DE00040400010CC70001080B582B000AF786009
:103DF000FFF758FF124B1B687A689A60104B1B68DC
:103E000003229A710E4B1B689B8819460D4B0022AA
:103E100043F821200A4B1B689B8803F01F030122F3
:103E200002FA03F3DB431A46074B1B681340064AAA
:103E30001360FFF747FFFEF7A5FF0837BD4680BDBB
:103E4000487000104C7000105471001080B400AF26
:103E5000034B1B681846BD465DF8047B704700BFE6
:103E60004040001080B485B000AFF860B9607A605F
:103E70007B68FA685A60FB687A681A60FB68BA68FF
:103E80005A60BB68FA681A601437BD465DF8047B57
:103E9000704700BF80B582B000AF786039603B6882
:103EA0001B68786839681A46FFF7DCFF0837BD469B
:103EB00080BD00BF80B582B000AF786039603B68DC
:103EC0005B68786819463A68FFF7CCFF0837BD464B
:103ED00080BD00BF80B483B000AF786039603B68BC
:103EE0007A685A607B683A681A600C37BD465DF89C
:103EF000047B704780B582B000AF78607B685A68F9
:103F00007B681B6810461946FFF7E4FF7B680022B8
:103F10001A607B6800225A600837BD4680BD00BF2A
:103F200080B582B000AF78607B685A687B681B6898
:103F300010461946FFF7CEFF7B687A681A607B68E7
:103F40007A685A600837BD4680BD00BF80B483B030
:103F500000AF78607B681A687B689A420CBF0123C7
:103F60000023DBB218460C37BD465DF8047B704772
:103F700080B485B000AF78607B68B3FA83F3FB73DD
:103F8000FB7B18461437BD465DF8047B704700BFC5
:103F900080B500AF054B1B68002B01D1FFF746FA37
:103FA000024B1B680133014A136080BD244000109E
:103FB00080B500AF054B1B68013B044A1360034BFF
:103FC0001B68002B01D1FFF729FA80BD24400010A7
:103FD00080B582B000AF78603960FFF7D9FF7868AC
:103FE000FFF7B4FF0346002B06D03B680C3318469E
:103FF0007968FFF74FFF05E03B680C331846796896
:10400000FFF758FFFFF7D4FF032318460837BD46D4
:1040100080BD00BF80B584B000AF78603960FFF725
:10402000B7FF7868FFF792FF0346002B03D0FFF736
:10403000BFFF00231AE07B681B68BB600FE0BB6812
:104040000C3BFB60FB689B881A463B689A4203D195
:10405000B868FFF765FF06E0BB681B68BB60BA681D
:104060007B689A42EBD1FFF7A3FFFB681846103735
:10407000BD4680BD80B584B000AF7860FFF788FF93
:104080007868FFF763FF0346002B03D0FFF790FF2C
:1040900000230BE07B681B680C3BFB607B681B68A4
:1040A0001846FFF727FFFFF783FFFB681846103716
:1040B000BD4680BD80F0004002E000BF81F00041BD
:1040C00042001FBF5FEA410392EA030F7FEA226CBE
:1040D0007FEA236C6AD04FEA1262D2EB1363C1BF4E
:1040E000D218414048404140B8BF5B42192B88BFBD
:1040F000704710F0004F40F4000020F07F4018BFE0
:10410000404211F0004F41F4000121F07F4118BFFF
:10411000494292EA030F3FD0A2F1010241FA03FCA7
:1041200010EB0C00C3F1200301FA03F100F000438F
:1041300002D5494260EB4000B0F5000F13D3B0F157
:10414000807F06D340084FEA310102F10102FE2AC6
:1041500051D2B1F1004F40EBC25008BF20F0010036
:1041600040EA03007047490040EB000010F4000FE4
:10417000A2F10102EDD1B0FA80FCACF1080CB2EB77
:104180000C0200FA0CF0AABF00EBC25052421843D6
:10419000BCBFD0401843704792F0000F81F400017B
:1041A00006BF80F400000132013BB5E74FEA41034E
:1041B0007FEA226C18BF7FEA236C21D092EA030FBA
:1041C00004D092F0000F08BF0846704790EA010F34
:1041D0001CBF0020704712F07F4F04D1400028BF61
:1041E00040F00040704712F100723CBF00F5000043
:1041F000704700F0004343F0FE4040F40000704779
:104200007FEA226216BF08467FEA23630146420224
:1042100006BF5FEA412390EA010F40F48000704737
:104220004FF0000304E000BF10F0004348BF4042DD
:104230005FEA000C08BF704743F0964301464FF019
:1042400000001CE050EA010208BF70474FF0000375
:104250000AE000BF50EA010208BF704711F00043B6
:1042600002D5404261EB41015FEA010C02BF844686
:104270000146002043F0B64308BFA3F18053A3F5E5
:104280000003BCFA8CF2083AA3EBC25310DB01FA2C
:1042900002FC634400FA02FCC2F12002BCF1004FB0
:1042A00020FA02F243EB020008BF20F00100704741
:1042B00002F1200201FA02FCC2F1200250EA4C0095
:1042C00021FA02F243EB020008BF20EADC707047DB
:1042D0004FF0FF0C1CEAD0521EBF1CEAD15392EAE9
:1042E0000C0F93EA0C0F6FD01A4480EA010C4002C5
:1042F00018BF5FEA41211ED04FF0006343EA50101F
:1043000043EA5111A0FB01310CF00040B1F5000F60
:104310003EBF490041EAD3715B0040EA010062F10F
:104320007F02FD2A1DD8B3F1004F40EBC25008BFF9
:1043300020F00100704790F0000F0CF0004C08BF17
:1043400049024CEA502040EA51207F3AC2BFD2F1E4
:10435000FF0340EAC250704740F400004FF00003F2
:10436000013A5DDC12F1190FDCBF00F0004070472C
:10437000C2F10002410021FA02F1C2F1200200FA6A
:1043800002FC5FEA310040F1000053EA4C0308BF31
:1043900020EADC70704792F0000F00F0004C02BF82
:1043A000400010F4000F013AF9D040EA0C0093F0FD
:1043B000000F01F0004C02BF490011F4000F013B57
:1043C000F9D041EA0C018FE70CEAD15392EA0C0FC5
:1043D00018BF93EA0C0F0AD030F0004C18BF31F030
:1043E000004CD8D180EA010000F00040704790F006
:1043F000000F17BF90F0004F084691F0000F91F0AA
:10440000004F14D092EA0C0F01D142020FD193EA6F
:104410000C0F03D14B0218BF084608D180EA0100F7
:1044200000F0004040F0FE4040F40000704740F0D3
:10443000FE4040F4400070474FF0FF0C1CEAD052A1
:104440001EBF1CEAD15392EA0C0F93EA0C0F69D0FD
:10445000A2EB030280EA010C49024FEA402037D068
:104460004FF0805343EA111143EA10130CF000405F
:104470008B4238BF5B0042F17D024FF4000C8B424F
:1044800024BF5B1A40EA0C00B3EB510F24BFA3EB2F
:10449000510340EA5C00B3EB910F24BFA3EB9103FF
:1044A00040EA9C00B3EBD10F24BFA3EBD10340EA59
:1044B000DC001B0118BF5FEA1C1CE0D1FD2A3FF69F
:1044C00050AF8B4240EBC25008BF20F00100704754
:1044D0000CF0004C4CEA50207F32C2BFD2F1FF03F7
:1044E00040EAC250704740F400004FF00003013A28
:1044F00037E792F0000F00F0004C02BF400010F4CC
:10450000000F013AF9D040EA0C0093F0000F01F0DF
:10451000004C02BF490011F4000F013BF9D041EA01
:104520000C0195E70CEAD15392EA0C0F08D1420234
:104530007FF47DAF93EA0C0F7FF470AF084676E707
:1045400093EA0C0F04D14B023FF44CAF08466EE7E0
:1045500030F0004C18BF31F0004CCAD130F00042AE
:104560007FF45CAF31F000437FF43CAF5FE700BF06
:1045700053B94AB9002908BF00281CBF4FF0FF31CA
:104580004FF0FF3000F03CB882B0EC462DE900500F
:1045900000F01EF8DDF804E002B00CBC704700BF6C
:1045A0002DE9F041069C904606460F461D4600F058
:1045B00029F808FB01FCA8FB002300FB05C5B21A83
:1045C0002B4467EB03038646C4E90023BDE8F08172
:1045D0002DE9F843089E1746804689461D4600F09F
:1045E00067F900FB05F3A0FB074507FB0137B8EBB4
:1045F00004043D4469EB0505C6E90045BDE8F883C0
:10460000704700BF00292DE9F043C0F2A8800026C2
:10461000002BC0F29E8081468E4690469C461746EF
:1046200004460D46002B3DD18A4259D9B2FA82F395
:104630003BB1C3F120029D4020FA02F29F40154396
:104640009C40390CB5FBF1F01FFA87FE01FB1055B9
:104650000EFB00F3220C42EA0545AB4209D9ED19E5
:1046600000F1FF3280F00B81AB4240F2088102384A
:104670003D44ED1AB5FBF1F301FB13550EFB03FEB0
:10468000A4B244EA0545AE4508D9ED1903F1FF325D
:1046900080F0F780AE4540F2F480023B43EA0043ED
:1046A000002203E08B420FD900221346341C18BFAE
:1046B000012460424FF0000565EB45015840514030
:1046C00000196941BDE8F083B3FA83F2002A40F093
:1046D00089808B4202D3804500F2E2800123E5E726
:1046E00012B90123B3FBF2F7B7FA87F8B8F1000F5C
:1046F0003BD1ED1B4FEA174C1FFA87FE0122B5FB99
:10470000FCF00CFB10550EFB00F3210C41EA0545B3
:10471000AB4207D9ED1900F1FF3102D2AB4200F2F2
:10472000C3800846ED1AB5FBFCF30CFB13550EFBDA
:1047300003FEA4B244EA0545AE4507D9ED1903F1DD
:10474000FF3102D2AE4500F2AD800B4643EA004392
:10475000ACE752426FEA060663EB43035BE7404275
:1047600061EB41014FF0FF3652E707FA08F7C8F155
:10477000200225FA02F34FEA174CB3FBFCF11FFAB3
:1047800087FE0CFB113324FA02F205FA08F50EFB42
:1047900001F92A43100C40EA0343994504FA08F44E
:1047A00007D9DB1901F1FF3078D2994576D9023962
:1047B0003B44C9EB0303B3FBFCF00CFB10330EFBD3
:1047C00000F592B242EA03439D4207D9DB1900F19A
:1047D000FF325FD29D425DD902383B445D1B40EA07
:1047E00001428CE7C2F1200328FA03F10CFA02FC23
:1047F00041EA0C0C4FEA1C402EFA03F1B1FBF0F534
:104800001FFA8CF700FB151129FA03F30EFA02FECA
:1048100007FB05F943EA0E0E4FEA1E4343EA014146
:10482000894508FA02F808D911EB0C0105F1FF33AC
:1048300032D2894530D9023D6144C9EB0101B1FB57
:10484000F0F300FB131107FB03F71FFA8EFE4EEA8D
:10485000014E774508D91EEB0C0E03F1FF3117D23C
:10486000774515D9023BE64443EA0543A3FB088993
:10487000C7EB0E0ECE4509D305D0002216E7104631
:10488000F7E613460AE794404445F6D2013BF4E7C5
:104890000B46E9E71046A1E71D46CEE7014688E74B
:1048A000134603E7023B51E702383D443AE700BFB5
:1048B0002DE9F043002B44D18A42154604464FD9D6
:1048C000B2FA82F70E464FB1C7F12003B94020FA81
:1048D00003F602FA07F50E4300FA07F42F0CB6FBB5
:1048E000F7F01FFA85FE07FB10620EFB00F1260CA5
:1048F00046EA0243994209D95B1900F1FF3280F080
:10490000EE80994240F2EB8002382B44591AB1FBF9
:10491000F7F307FB13110EFB03FEA4B244EA0141B7
:104920008E4508D9491903F1FF3280F0DA808E45AF
:1049300040F2D780023B43EA004000263146BDE802
:10494000F0838B4247D8B3FA83F6002E48D18B42CE
:1049500002D3824200F2CF8001203146BDE8F083CD
:1049600012B90125B5FBF2F5B5FA85FCBCF1000FD3
:1049700078D1491B2F0C1FFA85FE0126B1FBF7F0F9
:1049800007FB10110EFB00F2230C43EA01418A429F
:1049900007D9491900F1FF3302D28A4200F2BC80E4
:1049A0001846891AB1FBF7F307FB13110EFB03FE40
:1049B000A4B244EA0142964508D9521903F1FF31E5
:1049C00080F09180964540F28E80023B43EA0040A1
:1049D0003146BDE8F083002630463146BDE8F0831D
:1049E000C6F1200422FA04F5B3402B4321FA04F760
:1049F0004FEA1348B7FBF8FC1FFA83F908FB1C7752
:104A000020FA04FE01FA06F509FB0CF44EEA05054E
:104A10004FEA154E4EEA0747BC4202FA06F204D9A5
:104A2000FF180CF1FF3168D38C463F1BB7FBF8F43D
:104A300008FB147709FB04F9ADB245EA0741894543
:104A400004D9C91804F1FF355DD32C4644EA0C445F
:104A5000A4FB0223C9EB0101994249D345D020466A
:104A600000266BE7CCF1200405FA0CF521FA04F3DB
:104A70002A0CB3FBF2F61FFA85FE02FB163820FA69
:104A800004F701FA0CF10EFB06F90F433C0C44EA63
:104A90000843994500FA0CF407D95B1906F1FF3178
:104AA00038D2994536D9023E2B44C9EB0303B3FBF8
:104AB000F2F002FB10330EFB00F1BFB247EA0343F2
:104AC000994207D95B1900F1FF3721D299421FD9CA
:104AD00002382B441746591A40EA06464EE710465C
:104AE00014E7134627E70B4670E7B0409042B6D272
:104AF000601E002622E7304620E7BC4294D9ACF184
:104B0000020C1F4491E789459FD9023C19449DE757
:104B10003846DFE70E46C8E70238294441E700BFC0
:104B20002E2E2F2E2E2F6C7063313778785F6C69A4
:104B3000622F736F757263652F6C7063313778788D
:104B40005F74696D65722E63000000002E2E2F2E9B
:104B50002E2F6C7063313778785F6C69622F736FBA
:104B6000757263652F6C7063313778785F75617229
:104B7000742E630068656C6C6F20776F72640A0036
:084B800084FAFF7F0100000030
:044B880000E1F5054E
:00000001FF
