:020000041000EA
:100000001C4400100D030010750300107D03001048
:10001000850300108D030010950300100000000000
:100020000000000000000000000000004514001067
:100030009D03001000000000F51400105112001084
:10004000A5030010A5030010A5030010A5030010D0
:10005000A5030010A5030010A5030010A5030010C0
:10006000A5030010A5030010A5030010A5030010B0
:10007000A5030010A5030010A5030010A5030010A0
:10008000A5030010A5030010A5030010A503001090
:10009000A5030010A5030010A5030010A503001080
:1000A000A5030010A5030010A5030010A503001070
:1000B000A5030010A5030010A5030010A503001060
:1000C000A5030010A5030010A503001080B400AF25
:1000D0004FF44043C4F20F034FF02002C3F8A021B5
:1000E0004FF44043C4F20F03D3F8A03103F02003D0
:1000F000002B0AD000BF4FF44043C4F20F03D3F8E3
:10010000A03103F04003002BF5D04FF44043C4F27C
:100110000F034FF00302C3F804214FF44043C4F22D
:100120000F034FF00002C3F8A8214FF44043C4F27C
:100130000F034FF00002C3F8AC214FF44043C4F268
:100140000F034FF00102C3F80C214FF44043C4F2F7
:100150000F034FF06302C0F20502C3F884204FF48E
:100160004043C4F20F034FF0AA02C3F88C204FF4AF
:100170004043C4F20F034FF05502C3F88C204FF4F4
:100180004043C4F20F034FF00102C3F880204FF444
:100190004043C4F20F034FF0AA02C3F88C204FF47F
:1001A0004043C4F20F034FF05502C3F88C2000BF48
:1001B0004FF44043C4F20F03D3F8883003F0806358
:1001C000002BF5D04FF44043C4F20F034FF003026D
:1001D000C3F880204FF44043C4F20F034FF0AA024B
:1001E000C3F88C204FF44043C4F20F034FF0550284
:1001F000C3F88C2000BF4FF44043C4F20F03D3F880
:10020000883003F04073002BF5D04FF44043C4F224
:100210000F034FF02302C3F8A4204FF44043C4F26D
:100220000F034FF0AA02C3F8AC204FF44043C4F2CE
:100230000F034FF05502C3F8AC204FF44043C4F213
:100240000F034FF00102C3F8A0204FF44043C4F263
:100250000F034FF0AA02C3F8AC204FF44043C4F29E
:100260000F034FF05502C3F8AC2000BF4FF44043DA
:10027000C4F20F03D3F8A83003F48063002BF5D049
:100280004FF44043C4F20F034FF00302C3F8A02021
:100290004FF44043C4F20F034FF0AA02C3F8AC205E
:1002A0004FF44043C4F20F034FF05502C3F8AC20A3
:1002B00000BF4FF44043C4F20F03D3F8A83003F457
:1002C0004073002BF5D04FF44043C4F20F0348F2C3
:1002D000DE72C0F22842C3F8C4204FF44043C4F297
:1002E0000F034FF00002C3F8C8214FF44043C4F29B
:1002F0000F0343F23A021A604FF46D43CEF200034B
:100300004FF000029A60BD4680BC704780B582B055
:1003100000AF41F69053C1F200037B6044F200034A
:10032000C1F200033B600BE07B681A683B681A600F
:100330003B6803F104033B607B6803F104037B60CB
:100340003A6844F20003C1F200039A42ECD3074832
:1003500007494FF000028842B8BF40F8042BFADB8F
:10036000FFF7B4FE00F0C6F9FEE700000040001001
:100370005870001080B400AFFEE700BF80B400AF3B
:10038000FEE700BF80B400AFFEE700BF80B400AF5F
:10039000FEE700BF80B400AFFEE700BF80B400AF4F
:1003A000FEE700BF80B400AFFEE700BF80B485B0B9
:1003B00000AFF860B9607A607B68FA685A60FB68E1
:1003C0007A681A60FB68BA685A60BB68FA681A6093
:1003D00007F11407BD4680BC704700BF80B582B0EE
:1003E00000AF786039603B685B68786819463A68A6
:1003F000FFF7DCFF07F10807BD4680BD80B500AF01
:1004000044F21003C1F200031B68002B01D101F07C
:100410006BF844F21003C1F200031B6803F1010200
:1004200044F21003C1F200031A6080BD80B500AF32
:1004300044F21003C1F200031B6803F1FF3244F2DF
:100440001003C1F200031A6044F21003C1F200036A
:100450001B68002B01D101F041F880BD80B582B04E
:1004600000AF4FF000037B600CE044F25843C1F250
:1004700000037A684FF0000143F822107B6803F113
:1004800001037B607B68092BEFDD4FF000037B608D
:100490000CE044F22843C1F200037A684FF00001F7
:1004A00043F822107B6803F101037B607B68092B12
:1004B000EFDD44F21063C1F200034FF000021A6056
:1004C00044F25043C1F2000344F25042C1F2000230
:1004D0001A6044F25043C1F2000344F25042C1F2A8
:1004E00000025A6000F0EEF807F10807BD4680BD33
:1004F00080B588B000AFB9607A603B600346FB739B
:100500004FF00303FB77FB7B0A2B08D8FA7B44F2FE
:100510005843C1F2000353F82230002B04D04FF0AF
:100520000103FB77FB7F55E044F20003C1F20003B7
:100530001B6803F1010244F20003C1F200031A60D8
:100540004FF01C0000F0BEFB0346BB61FB7BB869AB
:1005500019463A6800F044F8B86AB9687A683B68A6
:1005600000F02AFF0246BB691A60BB699B881A46E5
:1005700044F25843C1F20003B96943F82210BB6941
:100580009B881A4644F22843C1F20003B96943F834
:100590002210BB699B8803F01F034FF0010202FA8F
:1005A00003F31A4644F21063C1F200031B681A43B6
:1005B00044F21063C1F200031A60BB6903F1140333
:1005C000184644F25041C1F20001FFF707FFBB6932
:1005D0007B61FB7F184607F12007BD4680BD00BF49
:1005E00080B485B000AFF8600B467A60FB72FB7A8E
:1005F0009AB2FB689A80FB684FF001029A71FB681F
:100600004FF00302DA71FB684FF000029A60FB685A
:1006100003F11402FB685A61FB6803F11402FB68E2
:100620009A61FB6803F10C02FB68DA60FB6803F176
:100630000C02FB681A6107F11407BD4680BC7047C5
:1006400080B584B000AF78607B689B88FB81FFF742
:10065000D5FEFA8944F25843C1F2000353F8223020
:10066000002B04D1FFF7E2FE4FF0010324E07B688A
:100670004FF001029A71FA8944F22843C1F2000353
:10068000796843F82210FB8903F01F034FF0010241
:1006900002FA03F31A4644F21063C1F200031B6826
:1006A0001A4344F21063C1F200031A60FFF7BEFE62
:1006B00000F0D2FF4FF00303184607F11007BD46C4
:1006C00080BD00BF80B582B002AF094B00934FF0F0
:1006D000000301934FF0000041F2ED61C1F200010F
:1006E0004FF000024FF06403FFF702FFBD4680BDEC
:1006F0000C46001080B582B002AF4CF22003C2F26B
:1007000009034CF22002C2F20902126842F480226C
:100710001A604CF22003C2F209034CF22002C2F22A
:100720000902126842F480121A604CF22003C2F2ED
:1007300009034CF22002C2F20902126842F40012CC
:100740001A604CF22003C2F209034CF22002C2F2FA
:100750000902126842F400021A6000F03DFF4F4B9C
:1007600000934FF0000301934FF0010040F6B901F0
:10077000C1F200014FF000024FF4AF73FFF7B8FE73
:10078000474B00934FF0000301934FF0020040F6F7
:100790003121C1F200014FF000024FF4AF73FFF7B7
:1007A000A7FE404B00934FF0000301934FF003006E
:1007B00040F63931C1F200014FF000024FF4AF733F
:1007C000FFF796FE384B00934FF0000301934FF074
:1007D000040040F6C931C1F200014FF000024FF4AD
:1007E000AF73FFF785FE314B00934FF00003019389
:1007F0004FF0050040F60141C1F200014FF0000248
:100800004FF4AF73FFF774FE294B00934FF00003D2
:1008100001934FF0060040F61941C1F200014FF07C
:1008200000024FF4AF73FFF763FE224B00934FF0CB
:10083000000301934FF0070040F63111C1F20001AF
:100840004FF000024FF4AF73FFF752FE4FF00A0073
:100850004FF0040101F0F6F8024646F27013C1F2BF
:1008600000031A604FF00A004FF0040101F0EAF8AB
:10087000024644F68C33C1F200031A604FF00100C7
:1008800001F022F8024646F27413C1F200031A6026
:1008900000F0ACFE1846BD4680BD00BF6C61001084
:1008A0007C560010884B0010646C0010F45B001044
:1008B000EC6600100451001080B584B000AF786081
:1008C0004FF00003FB604FF00103BB604FF00103EA
:1008D000BB604FF00003FB6003E0FB6803F1010322
:1008E000FB60FB68042BF8DD4FF00103FB600BE0BD
:1008F000FB6803F101031A46BB6802FB03F3BB600C
:10090000FB6803F10103FB60FB68092BF0DD4CF28F
:100910002003C2F209034CF22002C2F2090252691A
:1009200082F480225A614FF0640000F0F9FCCDE7B8
:1009300080B590B000AF786041F66C53C1F200030F
:1009400007F108011A464FF02403084611461A46DB
:1009500001F0C8F94FF024033B634FF00003FB871D
:1009600000F012FF4FF00003BB634FF000037B6306
:10097000786B00F049FF7B6B03F101037B637A6BBB
:1009800042F29343C9F2492383FB02139B184FEAB7
:10099000A3014FEAE273C91A0B464FEAC3035B1A7D
:1009A000D31A7B63786B00F00FFFFA8F7B6BD31841
:1009B0003A6B93FBF2F2396B01FB02F29B1A07F1DF
:1009C0004002D31813F8383C87F82F3097F82F30AF
:1009D000184600F037FFBA6B44F6D353C1F26203F6
:1009E00083FB02134FEA23114FEAE273CB1A4FF055
:1009F000FA0101FB03F3D31A002B14BF00230123D8
:100A0000DBB2BA6B02F10102BA63002B0AD0FB8F92
:100A100003F101033A6B93FBF2F2396B01FB02F233
:100A20009B1AFB874FF0010000F07AFCA0E700BFA3
:100A300080B5ECB000AF07F1040318604FF000037D
:100A400087F8A7314FF0000387F89F314FF000037C
:100A5000C7F8A0314FF00003C7F8AC3152E04FF0B7
:100A60000203C7F8A8311BE04FF0010387F8A73154
:100A7000D7F8AC31D7F8A82193FBF2F2D7F8A81138
:100A800001FB02F29B1A002B04D14FF0000387F800
:100A9000A7310BE0D7F8A83103F10103C7F8A8315B
:100AA000D7F8A821D7F8AC319A42DDDB97F8A73107
:100AB000002B21D0D7F8A02148F21F53C5F2EB1329
:100AC00083FB02134FEA63114FEAE273CB1A4FF034
:100AD000640101FB03F3D31AD7F8AC1107F10C0240
:100AE00042F82310D7F8A03103F10103C7F8A03171
:100AF0004FF0000387F8A731D7F8AC3103F10103B9
:100B0000C7F8AC31D7F8AC31632BA8DD4CF2200329
:100B1000C2F209034CF22002C2F20902526982F4C5
:100B200080125A6100F0FAFA034687F89F314FF0BD
:100B3000C80000F0F5FB8DE780B5E8B000AF07F125
:100B40000403186007F10C034FF000021A6007F16C
:100B50000C034FF001025A604FF00203C7F89C31BA
:100B60001CE0D7F89C3103F1FF3207F10C0353F876
:100B70002220D7F89C31A3F1020107F10C0353F8AE
:100B80002130D11807F10C03D7F89C2143F822102B
:100B9000D7F89C3103F10103C7F89C31D7F89C3199
:100BA000632BDEDD46F27013C1F200031A6807F111
:100BB0000C0303F10C031046194600F09BFF4FF0A5
:100BC000640000F0ADFBBDE780B582B000AF786097
:100BD00046F27413C1F200031B6818464FF47A7191
:100BE00000F090FE4CF22003C2F209034CF2200206
:100BF000C2F20902526982F400125A61E8E700BFAA
:100C000080B582B000AF78604FF4FA6000F088FBE6
:100C100000F080FDF8E700BF80B584B000AF7860D9
:100C20004FF0040000F04EF80346FB6046F27013EC
:100C3000C1F200031B681846F9684FF0000200F08B
:100C4000B5FF4CF22003C2F209034CF22002C2F2BB
:100C50000902526982F400025A61E7E780B400AFEA
:100C6000BD4680BC704700BF80B483B000AF46F67D
:100C70006843C1F2000303F1030323F003031A46A0
:100C800047F25403C1F200031A604FF000037B6087
:100C90000DE047F25403C1F200031A687B68D318D1
:100CA0004FF000021A707B6803F101037B607A68E1
:100CB00040F2E7339A42ECD907F10C07BD4680BCFD
:100CC000704700BF80B485B000AF786044F208037D
:100CD000C1F200031B681A467B68D318B3F57A7F0C
:100CE00023D944F20403C1F200031B681A467B684F
:100CF0009A4203D24FF00003FB6030E047F2540306
:100D0000C1F200031B68FB6044F20803C1F2000358
:100D10001B681A467B68D318A3F57A731A4644F207
:100D20000803C1F200031A6019E047F25403C1F24C
:100D300000031A6844F20803C1F200031B68D318C9
:100D4000FB6044F20803C1F200031B681A467B688B
:100D5000D3181A4644F20803C1F200031A60FB6874
:100D6000184607F11407BD4680BC704780B485B0B3
:100D700000AF0346FB714FF00003FB60FB79042BCF
:100D80002AD801A252F823F09D0D0010A90D0010E1
:100D9000B50D0010C10D0010CD0D00104FF44043F3
:100DA000C2F20903FB6018E04CF22003C2F209030F
:100DB000FB6012E04CF24003C2F20903FB600CE05E
:100DC0004CF26003C2F20903FB6006E04CF28003C0
:100DD000C2F20903FB6000E000BFFB68184607F1A0
:100DE0001407BD4680BC704780B584B000AF396041
:100DF00013460246FA71BB71FB791846FFF7B6FF3E
:100E00000346FB60FB68002B13D0BB79002B07D097
:100E1000FB681B681A463B681A43FB681A6008E0C7
:100E2000FB681B681A463B686FEA03031A40FB68BD
:100E30001A6007F11007BD4680BD00BF80B584B0C1
:100E400000AF03463960FB71FB791846FFF78EFF50
:100E50000346FB60FB68002B02D0FB683A689A618E
:100E600007F11007BD4680BD80B584B000AF0346D2
:100E70003960FB71FB791846FFF778FF0346FB608A
:100E8000FB68002B02D0FB683A68DA6107F11007B3
:100E9000BD4680BD80B485B000AFF860B9607A60AF
:100EA0007B68FA685A60FB687A681A60FB68BA68FF
:100EB0005A60BB68FA681A6007F11407BD4680BC27
:100EC000704700BF80B582B000AF786039603B6882
:100ED0001B68786839681A46FFF7DCFF07F10807D6
:100EE000BD4680BD80B582B000AF786039603B6898
:100EF0005B68786819463A68FFF7CCFF07F1080786
:100F0000BD4680BD80B483B000AF786039603B6877
:100F10007A685A607B683A681A6007F10C07BD4628
:100F200080BC704780B582B000AF78607B685A683B
:100F30007B681B6810461946FFF7E4FF7B684FF09B
:100F400000021A607B684FF000025A6007F1080740
:100F5000BD4680BD80B582B000AF78607B685A68BE
:100F60007B681B6810461946FFF7CCFF7B687A68E0
:100F70001A607B687A685A6007F10807BD4680BD31
:100F800080B483B000AF78607B681A687B689A424F
:100F900014BF00230123184607F10C07BD4680BC8F
:100FA000704700BF80B500AF44F21003C1F20003E8
:100FB0001B68002B01D100F097FA44F21003C1F234
:100FC00000031B6803F1010244F21003C1F20003A5
:100FD0001A6080BD80B500AF44F21003C1F2000377
:100FE0001B6803F1FF3244F21003C1F200031A60E0
:100FF00044F21003C1F200031B68002B01D100F082
:101000006DFA80BD80B584B000AF78603960FFF7BD
:10101000C9FF7868FFF7B4FF0346002B07D03B6891
:1010200003F10C0318467968FFF74CFF15E07B6865
:10103000FB6002E0FB685B68FB60FB685B68A3F138
:101040000C039A883B689B889A42F3D93B6803F16A
:101050000C031846F968FFF745FFFFF7BBFF4FF099
:101060000303184607F11007BD4680BD80B584B064
:1010700000AF78603960FFF795FF7868FFF780FF71
:101080000346002B04D0FFF7A5FF4FF000031BE041
:101090007B681B68BB6010E0BB68A3F10C03FB60BE
:1010A000FB689B881A463B689A4203D1B868FFF7F1
:1010B00051FF06E0BB681B68BB60BA687B689A4258
:1010C000EAD1FFF787FFFB68184607F11007BD4616
:1010D00080BD00BF80B584B000AF7860FFF762FFCD
:1010E0007868FFF74DFF0346002B04D0FFF772FF2F
:1010F0004FF000030CE07B681B68A3F10C03FB605E
:101100007B681B681846FFF70DFFFFF763FFFB685E
:10111000184607F11007BD4680BD00BF80B400AF80
:101120004FF0FF031846BD4680BC704780B500AF46
:1011300044F21003C1F200031B68002B01D100F040
:10114000D3F944F21003C1F200031B6803F101025A
:1011500044F21003C1F200031A6080BD80B500AFF5
:1011600044F21003C1F200031B6803F1FF3244F2A2
:101170001003C1F200031A6044F21003C1F200032D
:101180001B68002B01D100F0A9F980BD80B500AF2C
:10119000FFF7CCFF44F21403C1F200031B6803F114
:1011A000010244F21403C1F200031A60FFF7D6FFF4
:1011B00080BD00BF90B583B000AFFFF7B7FF44F22A
:1011C0001403C1F200031B6803F1FF3244F214035D
:1011D000C1F200031A6044F21403C1F200031B6859
:1011E000002B2FD144F21063C1F200031B687B6017
:1011F0007B68B3FA83F4FC70FB78C3F11F0244F2FE
:101200002843C1F2000353F8222044F22043C1F2E4
:1012100000031A6044F22043C1F200031A6844F24A
:101220002443C1F200031B689A420BD04FF46D4374
:10123000CEF200034FF46D42CEF20002526842F04B
:1012400080525A60FFF78AFF07F10C07BD4690BD38
:1012500080B582B000AFFFF799FF44F20C03C1F2F2
:1012600000031B6803F1010244F20C03C1F2000306
:101270001A60FFF75BFF44F25043C1F200031B68A2
:101280007B603EE07B68A3F114033B603B689B6896
:10129000002B33D03B689B6803F1FF323B689A60B8
:1012A0003B689B68002B29D13B684FF001029A7183
:1012B0003B68DB79032B03D03B684FF00202DA7105
:1012C0003B689B881A4644F22843C1F20003396800
:1012D00043F822103B689B8803F01F034FF0010284
:1012E00002FA03F31A4644F21063C1F200031B68CA
:1012F0001A4344F21063C1F200031A607B681B6852
:101300007B607A6844F25043C1F200039A42B9D13B
:10131000FFF724FFFFF74EFF07F10807BD4680BD2A
:1013200080B582B000AF7860FFF700FF44F224433D
:10133000C1F200031B687A689A6044F22443C1F248
:1013400000031B684FF002029A71FFF707FF00F0DD
:10135000E1F907F10807BD4680BD00BF80B483B046
:1013600000AF03463960FB7197F90730002B10DAA4
:101370004FF46D43CEF20003FA7902F00F02A2F1AE
:1013800004013A68D2B24FEAC202D2B25B181A76AE
:101390000DE04FF46143CEF2000397F907103A686D
:1013A000D2B24FEAC202D2B25B1883F8002307F12F
:1013B0000C07BD4680BC704780B487B000AFF860B2
:1013C000B9607A603B60FB687B617B69A3F10403D1
:1013D0007B617B694FF080721A607B69A3F1040323
:1013E0007B61BA687B691A607B69A3F104037B6146
:1013F0007B694FF000021A607B69A3F110037B61E7
:101400007B69A3F104037B617A687B691A607B695D
:10141000A3F120037B617B69184607F11C07BD46D9
:1014200080BC704780B400AF05480068006880F356
:10143000088862B600DF00BFBD4680BC7047000070
:1014400008ED00E080B400AF044A11680868B0E815
:10145000F00F80F309884EF00D0E70472044001005
:10146000BD4680BC704700BF80B400AF4EF2100391
:10147000CEF200034FF007021A60BD4680BC7047F1
:1014800080B582B000AF48F2A063C0F201037B6078
:101490007A686FF07F439A4202D94FF0010318E057
:1014A0004EF21003CEF200037A6822F07F4202F17E
:1014B000FF325A604FF0FF304FF01F01FFF74EFF31
:1014C0004EF21003CEF200034FF000029A604FF08C
:1014D0000003184607F10807BD4680BD80B400AF81
:1014E00062B6BD4680BC704780B400AF72B6BD46E0
:1014F00080BC7047EFF3098020E9F00F07490A68C4
:101500001060074A11680868B0E8F00F80F3098896
:10151000024803490A680260704700BF2444001073
:101520002044001080B400AF4FF46D43CEF20003AE
:101530004FF080529A604EF62053CEF200034EF6E2
:101540002052CEF20002126842F47F021A604EF678
:101550002053CEF200034EF62052CEF20002126863
:1015600042F07F421A60BD4680BC704780B500AF34
:10157000FFF758FF80BD00BF80B500AF44F21003F5
:10158000C1F200031B68002B01D1FFF7ADFF44F24D
:101590001003C1F200031B6803F1010244F21003BF
:1015A000C1F200031A6080BD80B500AF44F21003A1
:1015B000C1F200031B6803F1FF3244F21003C1F2D1
:1015C00000031A6044F21003C1F200031B68002BF1
:1015D00001D1FFF783FF80BD80B500AFFFF744FB6B
:1015E000FEF73CFFFFF74CFF80BD00BF90B583B016
:1015F00000AFFFF797FF44F21063C1F200031B68CE
:101600007B607B68B3FA83F4FC70FB78C3F11F0244
:1016100044F22843C1F2000353F8222044F220434D
:10162000C1F200031A6044F22043C1F200031A68B9
:1016300044F22443C1F200031A60FFF715FF44F29D
:101640001C03C1F200034FF001021A70FFF78EFF76
:1016500007F10C07BD4690BD90B583B000AFFFF712
:101660008BFF44F21403C1F200031B68002B35D139
:1016700044F21063C1F200031B687B607B68B3FA1D
:1016800083F4FC70FB78C3F11F0244F22843C1F2DB
:10169000000353F8222044F22043C1F200031A60F1
:1016A00044F22443C1F200031A6844F22043C1F219
:1016B00000031B689A4202D1FFF776FF11E0FFF7A3
:1016C00073FF4FF46D43CEF200034FF46D42CEF240
:1016D0000002526842F080525A6002E0FFF764FF55
:1016E00000BF07F10C07BD4690BD00BF80B582B0BA
:1016F00000AF786044F21803C1F200031B6803F1E5
:10170000010244F21803C1F200031A60FFF7A6FABF
:10171000F0E700BF80B500AFFFF72EFF44F224438F
:10172000C1F200031B684FF002029A7144F2244395
:10173000C1F200031B689B881A4644F22843C1F299
:1017400000034FF0000143F8221044F22443C1F299
:1017500000031B689B8803F01F034FF0010202FA8D
:1017600003F36FEA03031A4644F21063C1F2000365
:101770001B681A4044F21063C1F200031A60FFF7BD
:1017800013FFFFF769FF80BD80B500AF4FF0020087
:101790004FF03E014FF00102FFF726FB4FF0020031
:1017A0004FF03E01FFF760FB4FF000004FF4FE6189
:1017B0004FF00102FFF718FB4FF000004FF4FE61FD
:1017C000FFF73CFB80BD00BF80B483B000AF786002
:1017D0007B68062B12DC4FF44043C2F209034FF43E
:1017E0004042C2F20902526911464FF010007A6875
:1017F00000FA02F26FEA02020A405A6107F10C078E
:10180000BD4680BC704700BF80B483B000AF786035
:101810007B68062B10DC4FF44043C2F209034FF4FF
:101820004042C2F20902526911464FF010007A6834
:1018300000FA02F20A435A6107F10C07BD4680BC68
:10184000704700BF80B483B000AF78604CF24003B3
:10185000C2F209037A684FEA42025A6107F10C07A3
:10186000BD4680BC704700BF80B500AF44F2100396
:10187000C1F200031B68002B01D1FFF735FE44F2D3
:101880001003C1F200031B6803F1010244F21003CC
:10189000C1F200031A6080BD80B500AF44F21003AE
:1018A000C1F200031B6803F1FF3244F21003C1F2DE
:1018B00000031A6044F21003C1F200031B68002BFE
:1018C00001D1FFF70BFE80BD80B584B000AF78601A
:1018D0004FF00C00FFF7F6F90346FB60FB687A68EF
:1018E0001A60FB6803F10402FB685A60FB6803F1AD
:1018F0000402FB689A60FB68184607F11007BD46B2
:1019000080BD00BF80B582B000AF78603960FFF75E
:10191000ABFF7B681B68002B0AD07B681B6803F158
:10192000FF327B681A60FFF7B7FF4FF0030341E017
:1019300044F22443C1F200031B684FF00102DA7144
:101940007B6803F1040244F22443C1F200031B68E4
:1019500010461946FFF756FB3B68002B1CD0386831
:10196000FFF7DEFCFFF798FF44F22443C1F20003C7
:101970001B68DB79022B13D17B6803F1040244F26C
:101980002443C1F200031B689B8810461946FFF7E9
:101990006DFB4FF006030DE0FFF77EFFFFF7BAFE89
:1019A00044F22443C1F200031B684FF00302DA71D2
:1019B0004FF00303184607F10807BD4680BD00BF7E
:1019C00080B483B000AF78607B681A687B689A4205
:1019D00014BF00230123184607F10C07BD4680BC45
:1019E000704700BF80B500AF44F21003C1F200039E
:1019F0001B68002B01D1FFF777FD44F21003C1F201
:101A000000031B6803F1010244F21003C1F200035A
:101A10001A6080BD80B500AF44F21003C1F200032C
:101A20001B6803F1FF3244F21003C1F200031A6095
:101A300044F21003C1F200031B68002B01D1FFF731
:101A40004DFD80BD80B584B000AF786039604FF047
:101A50002C00FFF737F90346FB60FB68002B02D12F
:101A60004FF0000340E03B687A6802FB03F318463E
:101A7000FFF728F90246FB689A60FB689B68002B19
:101A800002D14FF000032FE0FB689A683B68796849
:101A900001FB03F3D218FB68DA60FB689A68FB6805
:101AA0001A60FB689A68FB685A60FB687A681A617A
:101AB000FB684FF000025A61FB683A689A61FB6864
:101AC00003F11C02FB68DA61FB6803F11C02FB688E
:101AD0001A62FB6803F12402FB685A62FB6803F197
:101AE0002402FB689A62FB68184607F11007BD469E
:101AF00080BD00BF80B584B000AF78603960FFF76B
:101B000071FF7B685A697B681B699A4204D1FFF7B1
:101B100081FF4FF0050343E07B685A687B689B694F
:101B2000D2187B68DB689A4203D37B689A687B682B
:101B30005A607B6859687B689B693A680846114619
:101B40001A4600F0CFF87B685A687B689B69D21808
:101B50007B685A607B685B6903F101027B685A61AC
:101B60007B6803F124031846FFF72AFF0346002B86
:101B700012D17B6803F124031846FFF7ABFA034642
:101B8000FB60FB689B68002B03D0FB684FF00002F2
:101B90009A60F868FEF754FDFFF73CFF4FF003032F
:101BA000184607F11007BD4680BD00BF80B584B060
:101BB00000AFF860B9607A60FFF714FFFB685B69FB
:101BC000002B10D044F22443C1F200031B684FF0F5
:101BD0000302DA71B868F96800F056F8FFF71AFFE7
:101BE0004FF003034AE0FB6803F1240244F224436C
:101BF000C1F200031B6810461946FFF703FA44F2CE
:101C00002443C1F200031B684FF00002DA717B68C5
:101C1000002B1DD07B681846FFF782FBFFF7FAFE0A
:101C200044F22443C1F200031B68DB79022B13D179
:101C3000FB6803F1240244F22443C1F200031B6851
:101C40009B8810461946FFF711FA4FF0060315E07E
:101C5000FFF7E0FEFFF75EFDFFF7C4FE44F224430A
:101C6000C1F200031B684FF00302DA71B868F9682B
:101C700000F00AF8FFF7CEFE4FF00303184607F115
:101C80001007BD4680BD00BF80B582B000AF786050
:101C900039603B681A683B689B6979680846114659
:101CA0001A4600F01FF83B685B6903F1FF323B689E
:101CB0005A613B681A683B689B69D2183B68DB68CD
:101CC0009A4204D33B689A683B681A6006E03B6816
:101CD0001A683B689B69D2183B681A6007F10807CD
:101CE000BD4680BD0F2AF0B43AD941EA00039B07F4
:101CF00038D10C46034615462668103D1E606668BE
:101D00005E60A6689E60E6681034DE6010330F2DBA
:101D1000F2D8A2F1100424F00F0402F00F021034E4
:101D2000032A00EB0403214411D90E461D46144634
:101D300056F8047B043C032C45F8047BF8D8141FA8
:101D400024F00304043402F0030209191B192AB118
:101D500011F8014B013A03F8014BF9D1F0BC70477F
:101D60000346F4E70346F3E701000000000000002B
:101D7000001F0804081F0010080708100000001FBB
:101D80000101001F111F001806010618001F15157C
:0400000510000000E7
:00000001FF
