:1000000000FB072041440000A1440000A944000077
:10001000B1440000B9440000C144000000000000E9
:10002000000000000000000000000000E5100000DB
:10003000D14400000000000035120000F91D00004E
:10004000E9440000E9440000E9440000E9440000FC
:10005000E9440000E9440000E9440000E9440000EC
:10006000E9440000E9440000E9440000E9440000DC
:10007000E9440000E9440000E9440000E9440000CC
:10008000E9440000E9440000E9440000E9440000BC
:10009000E9440000E944000075040000E944000060
:1000A000E9440000E9440000E9440000E94400009C
:1000B000E9440000E9440000E9440000E94400008C
:1000C000E9440000E9440000E944000090B484B031
:1000D00000AF78607B68B3FA83F4FC73FB7B18464F
:1000E00007F11007BD4690BC704700BF80B500AF58
:1000F0004CF20803C2F207031B68002B01D101F088
:1001000093F84CF20803C2F207031B6803F10102E3
:100110004CF20803C2F207031A6080BD80B500AF3D
:100120004CF20803C2F207031B6803F1FF324CF2E2
:100130000803C2F207031A604CF20803C2F2070375
:100140001B68002B01D101F069F880BD80B500AFBC
:10015000FFF7CCFF4CF20C03C2F207031B6803F15C
:1001600001024CF20C03C2F207031A6001F0A8FA74
:10017000FFF7D4FF80BD00BF90B583B000AFFFF79D
:10018000B5FF4CF20C03C2F207031B6803F1FF3208
:100190004CF20C03C2F207031A604CF20C03C2F2D9
:1001A00007031B68002B33D14FF20073C2F2070321
:1001B0001B687B607B68B3FA83F4FC70FB78C3F147
:1001C0001F024FF2F853C2F2070353F822204FF2F6
:1001D000F053C2F207031A6001F072FA4FF2F053C3
:1001E000C2F207031A684FF2F453C2F207031B6806
:1001F0009A420DD000F0E4FB4FF46D43CEF20003C1
:100200004FF46D42CEF20002526842F080525A60C2
:10021000FFF784FF07F10C07BD4690BD80B582B0A3
:1002200002AF4CF22003C2F209034CF22002C2F2E8
:100230000902126842F480221A604CF22003C2F2D2
:1002400009034CF22002C2F20902126842F4801241
:100250001A604CF22003C2F209034CF22002C2F2EF
:100260000902126842F400121A604CF22003C2F232
:1002700009034CF22002C2F20902126842F40002A1
:100280001A6000F0E3FB574B00934FF0000301931B
:100290004FF0020040F20541C0F200014FF00002B1
:1002A0004FF4AF7301F03CFB4F4B00934FF0000352
:1002B00001934FF0030040F2C951C0F200014FF02A
:1002C00000024FF4AF7301F02BFB484B00934FF04B
:1002D000000301934FF0040040F25561C0F20001A9
:1002E0004FF000024FF4AF7301F01AFB404B009344
:1002F0004FF0000301934FF0050040F21171C0F27E
:1003000000014FF000024FF4AF7301F009FB394BCD
:1003100000934FF0000301934FF0060040F23D714F
:10032000C0F200014FF000024FF4AF7301F0F8FA91
:10033000314B00934FF0000301934FF0070040F260
:100340008171C0F200014FF000024FF4AF7301F071
:10035000E7FA2A4B00934FF0000301934FF0080097
:1003600040F2C941C0F200014FF000024FF4AF73F8
:1003700001F0D6FA224B00934FF0000301934FF0A7
:10038000090040F2B541C0F200014FF000024FF405
:10039000AF7301F0C5FA4FF00A004FF0040100F00E
:1003A00085FC02464EF21C13C2F207031A604FF09E
:1003B0000A004FF0040100F079FC02464CF2B05301
:1003C000C2F207031A604FF0010001F015F802466F
:1003D0004EF27833C2F207031A6000F043FB18466E
:1003E000BD4680BD98DB0720A0D00720ACC5072004
:1003F000BCEE072020D60720F0E8072028CB0720F6
:1004000018E1072080B586B000AF78604FF0000398
:10041000FB60FB6803F10103FB604FF000037B61AD
:100420004FF001033B614FF001033B614FF00003CC
:100430007B6103E07B6903F101037B617B69312B05
:10044000F8DD4FF001037B610BE07B6903F10103F1
:100450001A463B6902FB03F33B617B6903F101032D
:100460007B617B69632BF0DD4FF0640001F014FDCC
:10047000D9E700BF80B582B000AFFFF767FE4FF449
:100480008040C4F203004FF000014FF0010202F07F
:1004900049FF0346002B07D04FF48040C4F203000D
:1004A00002F086FF03467B60FFF766FE07F1080750
:1004B000BD4680BD80B582B000AF78604FF00A00C5
:1004C00001F0EAFCFAE700BF80B590B000AF7860B9
:1004D00046F2A813C0F2000307F108011A464FF0D4
:1004E0002403084611461A4605F01AFE4FF024036D
:1004F0003B634FF00003FB8701F074FE4FF00003F5
:10050000BB634FF000037B63786B01F0ABFE7B6B4A
:1005100003F101037B637A6B42F29343C9F24923EF
:1005200083FB02139B184FEAA3014FEAE273C91A37
:100530000B464FEAC3035B1AD31A7B63786B01F057
:1005400071FEFA8F7B6BD3183A6B93FBF2F2396B27
:1005500001FB02F29B1A07F14002D31813F8383C52
:1005600087F82F3097F82F30184601F0D7FEBA6B76
:1005700044F6D353C1F2620383FB02134FEA231103
:100580004FEAE273CB1A4FF0FA0101FB03F3D31ADF
:10059000002B14BF00230123DBB2BA6B02F101026E
:1005A000BA63002B0AD0FB8F03F101033A6B93FB74
:1005B000F2F2396B01FB02F29B1AFB874FF06400E9
:1005C00001F06AFCA0E700BF90B5EBB000AF07F107
:1005D000040318604FF00003C7F8A031D7F8A0312A
:1005E00003F10103C7F8A0314FF00003C7F89C31B5
:1005F0004FF0000387F89B314FF00003C7F8A43198
:10060000D7F8A42146F26763C6F2666383FB021340
:100610004FEAE3014FEAE273CC1A23464FEA830321
:100620001B194FEA8303D41A01F03EF803461A4619
:100630004EF6F403C2F2070343F82420D7F8A4319E
:1006400003F10103C7F8A4314FF0280001F024FCA6
:10065000D6E700BF80B5E8B000AF07F1040318602B
:100660004FF00003C7F89831D7F8983103F1010330
:10067000C7F8983107F108034FF000021A6007F13C
:1006800008034FF001025A604FF00203C7F89C3193
:100690001CE0D7F89C3103F1FF3207F1080353F84F
:1006A0002220D7F89C31A3F1020107F1080353F887
:1006B0002130D11807F10803D7F89C2143F8221004
:1006C000D7F89C3103F10103C7F89C31D7F89C316E
:1006D000632BDEDD4EF21C13C2F207031A6807F12A
:1006E000080303F10C031046194600F043FB4CF2DB
:1006F0002003C2F209034CF22002C2F2090252693D
:1007000082F400025A614FF0140001F0C5FBB1E71A
:1007100080B584B000AF78604FF00003FB60FB68E9
:1007200003F10103FB604EF27833C2F207031B684A
:1007300018464FF00A0100F089FEF4E780B584B056
:1007400000AF78604FF00003BB60BB6803F10103AA
:10075000BB604FF00003FB604FF0280001F09CFBF2
:1007600000F018FA4FF00003FB6005E000F09CFF7A
:10077000FB6803F10103FB60FB68632BF6D9EBE731
:1007800080B584B000AF78604FF00003FB60FB6879
:1007900003F10103FB604FF0040000F07DF8034615
:1007A000BB604EF21C13C2F207031B681846B968FF
:1007B0004FF0000200F03AFBF3E700BF90B484B0C2
:1007C00000AF78607B68B3FA83F4FC73FB7B184658
:1007D00007F11007BD4690BC704700BF80B500AF61
:1007E0004CF20803C2F207031B68002B01D100F092
:1007F0001BFD4CF20803C2F207031B6803F1010260
:100800004CF20803C2F207031A6080BD80B500AF46
:100810004CF20803C2F207031B6803F1FF324CF2EB
:100820000803C2F207031A604CF20803C2F207037E
:100830001B68002B01D100F0F1FC80BD80B483B0B7
:1008400000AF4EF6C063C2F2070303F1030323F0C7
:1008500003031A464FF2AC23C2F207031A604FF0AB
:1008600000037B600DE04FF2AC23C2F207031A686D
:100870007B68D3184FF000021A707B6803F1010304
:100880007B607A6840F2E7339A42ECD907F10C07B3
:10089000BD4680BC704700BF80B584B000AF7860B3
:1008A000FFF79CFF4CF20403C2F207031B681A46D1
:1008B0007B68D318B3F57A7F23D94CF20003C2F2D8
:1008C00007031B681A467B689A4203D24FF0000365
:1008D000FB6030E04FF2AC23C2F207031B68FB6001
:1008E0004CF20403C2F207031B681A467B68D31854
:1008F000A3F57A731A464CF20403C2F207031A6096
:1009000019E04FF2AC23C2F207031A684CF2040359
:10091000C2F207031B68D318FB604CF20403C2F257
:1009200007031B681A467B68D3181A464CF2040367
:10093000C2F207031A60FFF769FFFB68184607F168
:100940001007BD4680BD00BF80B483B000AF7860A3
:1009500007F10C07BD4680BC704700BF80B400AFF4
:100960004CF20403C2F207031A684CF20003C2F20D
:1009700007031B689A420BDD4CF20403C2F2070323
:100980001A684CF20003C2F207031B68D31A0CE08A
:100990004CF20403C2F207031B6803F57A724CF2AF
:1009A0000003C2F207031B68D31A1846BD4680BC79
:1009B000704700BF80B400AFBD4680BC704700BF29
:1009C00080B400AFBD4680BC704700BF90B484B017
:1009D00000AF78607B68B3FA83F4FC73FB7B184646
:1009E00007F11007BD4690BC704700BF80B500AF4F
:1009F0004CF20803C2F207031B68002B01D100F080
:100A000013FC4CF20803C2F207031B6803F1010256
:100A10004CF20803C2F207031A6080BD80B500AF34
:100A20004CF20803C2F207031B6803F1FF324CF2D9
:100A30000803C2F207031A604CF20803C2F207036C
:100A40001B68002B01D100F0E9FB80BD80B500AF31
:100A5000FFF7F4FE00F01AFF00F004FC00F00AFEBD
:100A600080BD00BF90B583B000AF4FF20073C2F2FB
:100A700007031B687B607B68B3FA83F4FC70FB7828
:100A8000C3F11F024FF2F853C2F2070353F82220BA
:100A90004FF2F053C2F207031A604FF2F053C2F262
:100AA00007031A684FF2F453C2F207031A6000F00A
:100AB00049FB00F029FB4CF21403C2F207034FF08C
:100AC00001021A7000F000FB07F10C07BD4690BD53
:100AD00090B583B000AFFFF789FF4CF20C03C2F270
:100AE00007031B68002B39D14FF20073C2F20703D2
:100AF0001B687B607B68B3FA83F4FC70FB78C3F1FE
:100B00001F024FF2F853C2F2070353F822204FF2AC
:100B1000F053C2F207031A604FF2F453C2F2070314
:100B20001A684FF2F053C2F207031B689A4202D1CF
:100B3000FFF774FF15E0FFF771FFFFF741FF00F0CB
:100B4000BFFD4FF46D43CEF200034FF46D42CEF281
:100B50000002526842F080525A6002E0FFF75EFFE6
:100B600000BF07F10C07BD4690BD00BF80B582B045
:100B700000AF78604CF21003C2F207031B6803F168
:100B800001024CF21003C2F207031A60FFF712FFD2
:100B9000F0E700BF80B500AFFFF728FF4FF2F45336
:100BA000C2F207031B684FF002029A714FF2F4532E
:100BB000C2F207031B689B881A464FF2F853C2F231
:100BC00007034FF0000143F822104FF2F453C2F232
:100BD00007031B689B8803F01F034FF0010202FA12
:100BE00003F36FEA03031A464FF20073C2F20703DE
:100BF0001B681A404FF20073C2F207031A60FFF736
:100C00000DFFFFF765FF80BD80B483B000AF786053
:100C10007B681A687B689A4214BF00230123184638
:100C200007F10C07BD4680BC704700BF90B484B08C
:100C300000AF78607B68B3FA83F4FC73FB7B1846E3
:100C400007F11007BD4690BC704700BF80B500AFEC
:100C50004CF20803C2F207031B68002B01D100F01D
:100C6000E3FA4CF20803C2F207031B6803F1010226
:100C70004CF20803C2F207031A6080BD80B500AFD2
:100C80004CF20803C2F207031B6803F1FF324CF277
:100C90000803C2F207031A604CF20803C2F207030A
:100CA0001B68002B01D100F0B9FA80BD80B584B07B
:100CB00000AF786039604FF02C00FFF7EDFD034680
:100CC000FB60FB68002B02D14FF0000340E03B6863
:100CD0007A6802FB03F31846FFF7DEFD0246FB6865
:100CE0009A60FB689B68002B02D14FF000032FE055
:100CF000FB689A683B68796801FB03F3D218FB68CC
:100D0000DA60FB689A68FB681A60FB689A68FB689F
:100D10005A60FB687A681A61FB684FF000025A61FA
:100D2000FB683A689A61FB6803F11C02FB68DA61B0
:100D3000FB6803F11C02FB681A62FB6803F12402E2
:100D4000FB685A62FB6803F12402FB689A62FB6845
:100D5000184607F11007BD4680BD00BF80B582B0C0
:100D600000AF78607868FFF7EFFD07F10807BD4630
:100D700080BD00BF80B584B000AF78603960FFF7F8
:100D800065FF7B685A697B681B699A4204D1FFF74B
:100D900075FF4FF0050343E07B685A687B689B69E9
:100DA000D2187B68DB689A4203D37B689A687B68B9
:100DB0005A607B6859687B689B693A6808461146A7
:100DC0001A4605F0ADF97B685A687B689B69D218B2
:100DD0007B685A607B685B6903F101027B685A613A
:100DE0007B6803F124031846FFF70EFF0346002B30
:100DF00012D17B6803F12403184601F0CFF90346B2
:100E0000FB60FB689B68002B03D0FB684FF000027F
:100E10009A60F86800F090FEFFF730FF4FF0030390
:100E2000184607F11007BD4680BD00BF80B584B0ED
:100E300000AFF860B9607A60FFF708FFFB685B6994
:100E4000002B10D04FF2F453C2F207031B684FF08F
:100E50000302DA71B868F96800F088F8FFF70EFF4E
:100E60004FF003034AE0FB6803F124024FF2F4530E
:100E7000C2F207031B681046194601F027F94FF22A
:100E8000F453C2F207031B684FF00002DA717B686B
:100E9000002B1DD07B68184600F0FEFFFFF7EEFE2A
:100EA0004FF2F453C2F207031B68DB79022B13D114
:100EB000FB6803F124024FF2F453C2F207031B68EC
:100EC0009B881046194601F035F94FF0060315E0EE
:100ED000FFF7D4FEFFF75EFEFFF7B8FE4FF2F453C4
:100EE000C2F207031B684FF00302DA71B868F968B1
:100EF00000F03CF8FFF7C2FE4FF00303184607F17D
:100F00001007BD4680BD00BF80B584B000AF7860DB
:100F10003960FFF79BFE7B685B69002B0FD04FF2B7
:100F2000F453C2F207031B684FF00302DA7138680A
:100F3000796800F01BF84FF00303FB7302E04FF0F9
:100F40000403FB73FFF79AFEFB7B184607F11007BB
:100F5000BD4680BD80B483B000AF78607B685B69BC
:100F6000184607F10C07BD4680BC704780B582B0BB
:100F700000AF786039603B681A683B689B697968A4
:100F8000084611461A4605F0CBF83B685B6903F149
:100F9000FF323B685A613B681A683B689B69D2180C
:100FA0003B68DB689A4204D33B689A683B681A60E6
:100FB00006E03B681A683B689B69D2183B681A6078
:100FC00007F10807BD4680BD80B483B000AF03467B
:100FD0003960FB7197F90730002B10DA4FF46D433D
:100FE000CEF20003FA7902F00F02A2F104013A688E
:100FF000D2B24FEAC202D2B25B181A760DE04FF4B9
:101000006143CEF2000397F907103A68D2B24FEA73
:10101000C202D2B25B1883F8002307F10C07BD4669
:1010200080BC704790B484B000AF78607B68B3FA3E
:1010300083F4FC73FB7B184607F11007BD4690BC98
:10104000704700BF80B487B000AFF860B9607A60C5
:101050003B60FB6803F00303002B05D0FB6803F142
:10106000030323F00303FB60FB687B617B69A3F14F
:1010700004037B617B694FF080721A607B69A3F186
:1010800004037B61BA687B691A607B69A3F104037E
:101090007B617B694FF000021A607B69A3F110034A
:1010A0007B617B69A3F104037B617A687B691A60C9
:1010B0007B69A3F120037B617B69184607F11C075C
:1010C000BD4680BC704700BF80B400AFA048006838
:1010D000006880F3088862B600DF00BFBD4680BCB0
:1010E000704700BF80B400AF044A11680868B0E8D8
:1010F000F00F80F309884EF00D0E7047F0F50720D1
:10110000BD4680BC704700BF80B400AF4EF21003F4
:10111000CEF200034FF007021A60BD4680BC704754
:1011200080B400AF4EF21003CEF200034EF2100274
:10113000CEF20002126822F001021A60BD4680BCA5
:10114000704700BF80B582B000AF48F2A063C0F224
:1011500001037B607A686FF07F439A4202D94FF0B7
:10116000010318E04EF21003CEF200037A6822F079
:101170007F4202F1FF325A604FF0FF304FF01F0103
:10118000FFF722FF4EF21003CEF200034FF00002F1
:101190009A604FF00003184607F10807BD4680BD6E
:1011A00080B483B000AF78607B681A684FF2B423D4
:1011B000C2F207031A607B685A684FF2CC23C2F26E
:1011C00007031A607B689A684FF2BC23C2F20703D8
:1011D0001A607B68DA684FF2B023C2F207031A6024
:1011E0007B681A694FF2C823C2F207031A607B6852
:1011F0005A694FF2B823C2F207031A607B689A69F2
:101200004FF2C023C2F207031A607B68DA694FF21B
:10121000C423C2F207031A60FEE700BF80B400AF28
:1012200062B6BD4680BC704780B400AF72B6BD46A2
:1012300080BC7047EFF3098020E9F00F07490A6886
:101240001060074A11680868B0E8F00F80F3098859
:10125000024803490A680260704700BFF4F507209E
:10126000F0F5072080B400AF4EF62053CEF2000315
:101270004EF62052CEF20002126842F47F021A604B
:101280004EF62053CEF200034EF62052CEF200026C
:10129000126842F07F421A60BD4680BC704700BFB2
:1012A00080B400AF1EF0040F0CBFEFF30880EFF323
:1012B0000980816974E7BD4680BC704780B500AF86
:1012C0004FF0402002F064FC80BD00BF80B586B0C6
:1012D00000AF4FF001033B744FF001037B614FF00F
:1012E00000033B714FF001037B714FF00103FB7171
:1012F0004FF00003BB714FF000033B7249F2806373
:10130000C0F29803FB6007F110034FF040204FF04C
:1013100000011A4602F0B8FA07F104034FF040202A
:10132000194602F06BFC4FF040204FF0010102F033
:10133000F3FB07F11807BD4680BD00BF80B400AFC6
:101340004FF040239B681846BD4680BC70470000A4
:1013500008ED00E080B483B000AF78607B681A6865
:101360007B689A4214BF00230123184607F10C073B
:10137000BD4680BC704700BF90B484B000AF7860B9
:101380007B68B3FA83F4FC73FB7B184607F1100704
:10139000BD4690BC704700BF80B500AF4CF208035B
:1013A000C2F207031B68002B01D1FFF73DFF4CF28F
:1013B0000803C2F207031B6803F101024CF20803A1
:1013C000C2F207031A6080BD80B500AF4CF208037B
:1013D000C2F207031B6803F1FF324CF20803C2F2AA
:1013E00007031A604CF20803C2F207031B68002BC4
:1013F00001D1FFF713FF80BD80B584B000AF7860E6
:101400004FF00C00FFF748FA0346FB60FB687A6870
:101410001A60FB6803F10402FB685A60FB6803F181
:101420000402FB689A60FB68184607F11007BD4686
:1014300080BD00BF80B582B000AF78607868FFF7EC
:1014400083FA07F10807BD4680BD00BF80B582B0B2
:1014500000AF78603960FFF79FFF7B681B68002B47
:101460000AD07B681B6803F1FF327B681A60FFF7C4
:10147000ABFF4FF0030341E04FF2F453C2F2070316
:101480001B684FF00102DA717B6803F104024FF22E
:10149000F453C2F207031B681046194600F016FE0B
:1014A0003B68002B1CD0386800F0F6FCFFF78CFF7F
:1014B0004FF2F453C2F207031B68DB79022B13D1FE
:1014C0007B6803F104024FF2F453C2F207031B6876
:1014D0009B881046194600F02DFE4FF006030DE0E4
:1014E000FFF772FFFFF756FB4FF2F453C2F2070308
:1014F0001B684FF00302DA714FF00303184607F13F
:101500000807BD4680BD00BF80B584B000AF7860DD
:10151000FFF742FF7B6803F104031846FFF71AFF49
:101520000346002B06D07B681B6803F101027B6831
:101530001A6014E07B6803F10403184600F02EFEE5
:101540000346FB60FB689B68002B03D0FB684FF0F1
:1015500000029A60FB689B88184600F0A1FAFFF72A
:1015600033FF07F11007BD4680BD00BF90B484B0C3
:1015700000AF78607B68B3FA83F4FC73FB7B18469A
:1015800007F11007BD4690BC704700BF90B585B00D
:1015900000AF78604FF00003FB604CF21C03C2F216
:1015A00007034FF000021A60FFF788FEFFF7C6FE40
:1015B00002464CF22403C2F207031A604FF06400A3
:1015C00000F06AFCFFF7BAFE0346BB604CF224034E
:1015D000C2F207031B68BA68D21A4CF22003C2F2A7
:1015E00007031A604CF22003C2F207031A684CF298
:1015F0001C03C2F207031B68D31A184603F0C6F88F
:1016000004464CF22003C2F207031B68184603F09D
:10161000BDF803462046194603F0C4F903461846B0
:10162000134903F00BF903461A464CF22803C2F2A1
:1016300007031A60F96848F21F53C5F2EB13A3FBC6
:1016400001234FEA53124FF0640303FB02F3CA1A5B
:101650004CF22803C2F2070319684FF2D023C2F2FA
:10166000070343F82210FB6803F10103FB6094E7D2
:101670000000C84280B582B002AFFFF727FE094BD9
:1016800000934FF0000301934FF0010041F28D51A0
:10169000C0F200014FF000024FF0640300F040F987
:1016A000BD4680BDECF5072080B400AF4CF22803A6
:1016B000C2F207031B681846BD4680BC704700BFD6
:1016C00080B582B000AFFFF739FE03467B604CF275
:1016D0000C03C2F207031B68012B38D14FF2806361
:1016E000C2F207031A684FF2F053C2F207031B68F5
:1016F0009A425FD14CF21803C2F207031B687A6862
:10170000D21A4CF21C03C2F207031B68D2184CF227
:101710001C03C2F207031A6044F20003C1F2000383
:101720001B68002B46D044F20003C1F200034FF0C7
:1017300000021A604CF22003C2F209034CF22002AC
:10174000C2F20902526942F480225A6132E04CF23C
:101750000C03C2F207031B68002B2BD14FF28063EE
:10176000C2F207031A684FF2F053C2F207031B6874
:101770009A421FD14CF21803C2F207037A681A602A
:1017800044F20003C1F200031B68002B12D044F2A4
:101790000003C1F200034FF000021A604CF2200374
:1017A000C2F209034CF22002C2F20902526942F469
:1017B00080125A6107F10807BD4680BD80B485B02C
:1017C00000AFF860B9607A607B68FA685A60FB68BD
:1017D0007A681A60FB68BA685A60BB68FA681A606F
:1017E00007F11407BD4680BC704700BF80B582B0CA
:1017F00000AF786039603B685B68786819463A6882
:10180000FFF7DCFF07F10807BD4680BD90B484B048
:1018100000AF78607B68B3FA83F4FC73FB7B1846F7
:1018200007F11007BD4690BC704700BF80B500AF00
:101830004CF20803C2F207031B68002B01D1FFF72B
:10184000F3FC4CF20803C2F207031B6803F1010228
:101850004CF20803C2F207031A6080BD80B500AFE6
:101860004CF20803C2F207031B6803F1FF324CF28B
:101870000803C2F207031A604CF20803C2F207031E
:101880001B68002B01D1FFF7C9FC80BD80B582B079
:1018900000AF4FF000037B600CE04FF28063C2F2B8
:1018A00007037A684FF0000143F822107B6803F1C8
:1018B00001037B607B681F2BEFDD4FF000037B6033
:1018C0000CE04FF2F853C2F207037A684FF00001C0
:1018D00043F822107B6803F101037B607B681F2BB8
:1018E000EFDD4FF20073C2F207034FF000021A60FF
:1018F0004FF27863C2F207034FF27862C2F2070236
:101900001A604FF27863C2F207034FF27862C2F2B4
:1019100007025A6000F0AAF907F10807BD4680BD2A
:1019200080B588B000AFB9607A603B600346FB7356
:101930004FF00303FB77FB7B202B08D8FA7B4FF299
:101940008063C2F2070353F82230002B04D04FF01B
:101950000103FB77FB7F55E04CF22C03C2F2070337
:101960001B6803F101024CF22C03C2F207031A6058
:101970004FF01C00FEF790FF0346BB61FB7BB8698C
:1019800019463A6800F044F8B86AB9687A683B6862
:10199000FFF758FB0246BB691A60BB699B881A4671
:1019A0004FF28063C2F20703B96943F82210BB69A2
:1019B0009B881A464FF2F853C2F20703B96943F8FD
:1019C0002210BB699B8803F01F034FF0010202FA4B
:1019D00003F31A464FF20073C2F207031B681A435F
:1019E0004FF20073C2F207031A60BB6903F11403DC
:1019F00018464FF27861C2F20701FFF7F7FEBB69A4
:101A00007B61FB7F184607F12007BD4680BD00BF04
:101A100080B485B000AFF8600B467A60FB72FB7A49
:101A20009AB2FB689A80FB684FF001029A71FB68DA
:101A30004FF00302DA71FB684FF000029A60FB6816
:101A400003F11402FB685A61FB6803F11402FB689E
:101A50009A61FB6803F10C02FB68DA60FB6803F132
:101A60000C02FB681A6107F11407BD4680BC704781
:101A700080B483B000AF78607B681F2B07D84FF22B
:101A80008063C2F207037A6853F8223001E04FF016
:101A90000003184607F10C07BD4680BC704700BF25
:101AA00080B582B000AF0346FB80FFF7BFFEFA8827
:101AB0004FF28063C2F2070353F82230002B04D1A7
:101AC000FFF7CCFE4FF0010330E0FA884FF280635D
:101AD000C2F2070353F822304FF001029A71FA88DC
:101AE000F9884FF28063C2F2070353F821104FF2D6
:101AF000F853C2F2070343F82210FB8803F01F03D8
:101B00004FF0010202FA03F31A464FF20073C2F2D9
:101B100007031B681A434FF20073C2F207031A60EF
:101B2000FFF79CFEFEF7D4FF4FF00303184607F1C2
:101B30000807BD4680BD00BF80B584B000AF7860A7
:101B40007B689B88FB81FFF771FEFA894FF2806307
:101B5000C2F2070353F82230002B04D1FFF77EFEB8
:101B60004FF001032BE07B684FF001029A71FA8974
:101B70004FF2F853C2F20703796843F82210FB8949
:101B800003F01F034FF0010202FA03F31A464FF26B
:101B90000073C2F207031B681A434FF20073C2F2CC
:101BA00007031A60FFF75AFE4CF20C03C2F2070358
:101BB0001B68002B01D1FEF78BFF4FF00303184683
:101BC00007F11007BD4680BD80B582B000AF034667
:101BD000FB80FA884FF28063C2F2070353F8223089
:101BE000002B02D14FF001033BE04FF2F453C2F25D
:101BF00007031B689B88FA889A4204D1FEF7CAFF44
:101C00004FF003032DE0FFF711FEFA884FF28063D7
:101C1000C2F2070353F822304FF002029A71FA8899
:101C20004FF2F853C2F207034FF0000143F82210BD
:101C3000FB8803F01F034FF0010202FA03F36FEA7F
:101C400003031A464FF20073C2F207031B681A40DF
:101C50004FF20073C2F207031A60FFF7FFFD4FF067
:101C60000303184607F10807BD4680BD80B582B062
:101C700002AF094B00934FF0000301934FF00000B7
:101C800040F66D31C0F200014FF000024FF09603B4
:101C9000FFF746FEBD4680BD74E3072090B484B0D4
:101CA00000AF78607B68B3FA83F4FC73FB7B184663
:101CB00007F11007BD4690BC704700BF80B500AF6C
:101CC0004CF20803C2F207031B68002B01D1FFF797
:101CD000ABFA4CF20803C2F207031B6803F10102DE
:101CE0004CF20803C2F207031A6080BD80B500AF52
:101CF0004CF20803C2F207031B6803F1FF324CF2F7
:101D00000803C2F207031A604CF20803C2F2070389
:101D10001B68002B01D1FFF781FA80BD80B500AFB1
:101D2000FFF7CCFF4CF20C03C2F207031B6803F170
:101D300001024CF20C03C2F207031A6041F2C163C4
:101D4000C0F200039847FFF7D1FF80BD90B583B084
:101D500000AFFFF7B3FF4CF20C03C2F207031B689E
:101D600003F1FF324CF20C03C2F207031A604CF28B
:101D70000C03C2F207031B68002B36D14FF200732D
:101D8000C2F207031B687B607B68B3FA83F4FC70C4
:101D9000FB78C3F11F024FF2F853C2F2070353F866
:101DA00022204FF2F053C2F207031A6041F2C163DE
:101DB000C0F2000398474FF2F053C2F207031A68CB
:101DC0004FF2F453C2F207031B689A420DD0FEF79C
:101DD000F7FD4FF46D43CEF200034FF46D42CEF2A7
:101DE0000002526842F080525A60FFF77FFF07F10D
:101DF0000C07BD4690BD00BF80B582B000AFFFF7B5
:101E00008DFF4CF23003C2F207031B6803F101029D
:101E10004CF23003C2F207031A60FFF74FFF4FF294
:101E20007863C2F207031B687B601FE07B68A3F145
:101E300014033B603B689B68002B14D03B689B6895
:101E400003F1FF323B689A603B689B68002B0AD124
:101E50003B68DB79032B03D03B684FF00202DA7159
:101E60003868FFF769FE7B681B687B607A684FF211
:101E70007863C2F207039A42D8D1FFF737FFFFF722
:101E800065FF07F10807BD4680BD00BF80B400AF05
:101E9000BD4680BC704700BF80B582B000AF78609F
:101EA000FFF70CFF4FF2F453C2F207031B687A6886
:101EB0009A604FF2F453C2F207031B684FF002021C
:101EC0009A714FF2F453C2F207031B689B881A46BB
:101ED0004FF2F853C2F207034FF0000143F822100B
:101EE0004FF2F453C2F207031B689B8803F01F03F1
:101EF0004FF0010202FA03F36FEA03031A464FF2AE
:101F00000073C2F207031B681A404FF20073C2F25B
:101F100007031A60FFF7EAFEFEF7DAFD07F108078C
:101F2000BD4680BD80B400AF4CF23003C2F207035F
:101F30001B681846BD4680BC704700BF80B485B0A2
:101F400000AFF860B9607A607B68FA685A60FB6835
:101F50007A681A60FB68BA685A60BB68FA681A60E7
:101F600007F11407BD4680BC704700BF80B582B042
:101F700000AF786039603B681B68786839681A463A
:101F8000FFF7DCFF07F10807BD4680BD80B582B0D2
:101F900000AF786039603B685B68786819463A68DA
:101FA000FFF7CCFF07F10807BD4680BD80B483B0C2
:101FB00000AF786039603B687A685A607B683A683D
:101FC0001A6007F10C07BD4680BC704780B582B02F
:101FD00000AF78607B685A687B681B6810461946BA
:101FE000FFF7E4FF7B684FF000021A607B684FF058
:101FF00000025A6007F10807BD4680BD80B582B077
:1020000000AF78607B685A687B681B681046194689
:10201000FFF7CCFF7B687A681A607B687A685A6041
:1020200007F10807BD4680BD80B483B000AF78607B
:102030007B681A687B689A4214BF00230123184604
:1020400007F10C07BD4680BC704700BF90B484B058
:1020500000AF78607B68B3FA83F4FC73FB7B1846AF
:1020600007F11007BD4690BC704700BF80B500AFB8
:102070004CF20803C2F207031B68002B01D1FFF7E3
:10208000D3F84CF20803C2F207031B6803F1010204
:102090004CF20803C2F207031A6080BD80B500AF9E
:1020A0004CF20803C2F207031B6803F1FF324CF243
:1020B0000803C2F207031A604CF20803C2F20703D6
:1020C0001B68002B01D1FFF7A9F880BD80B584B053
:1020D00000AF78603960FFF7C9FF7868FFF7A4FFA9
:1020E0000346002B07D03B6803F10C0318467968C0
:1020F000FFF73CFF15E07B68FB6002E0FB685B6874
:10210000FB60FB685B68A3F10C039A883B689B88C3
:102110009A42F3D93B6803F10C031846F968FFF7BC
:1021200035FFFFF7BBFF4FF00303184607F1100719
:10213000BD4680BD80B584B000AF78603960FFF7E0
:1021400095FF7868FFF770FF0346002B04D0FFF778
:10215000A5FF4FF000031BE07B681B68BB6010E02D
:10216000BB68A3F10C03FB60FB689B881A463B68C5
:102170009A4203D1B868FFF741FF06E0BB681B68CD
:10218000BB60BA687B689A42EAD1FFF787FFFB68B9
:10219000184607F11007BD4680BD00BF80B584B06A
:1021A00000AF7860FFF762FF7868FFF73DFF0346F6
:1021B000002B04D0FFF772FF4FF000030CE07B68A8
:1021C0001B68A3F10C03FB607B681B681846FFF7D4
:1021D000FDFEFFF763FFFB68184607F11007BD46D9
:1021E00080BD00BF80B500AF4FF002004FF03E0150
:1021F0004FF0010200F0DAFA4FF002004FF03E011A
:1022000000F014FB4FF000004FF4FE614FF00102AC
:1022100000F0CCFA4FF000004FF4FE6100F0F0FA4D
:1022200080BD00BF80B483B000AF78607B68062BB0
:1022300012DC4FF44043C2F209034FF44042C2F2B1
:102240000902526911464FF010007A6800FA02F252
:102250006FEA02020A405A6107F10C07BD4680BCD2
:10226000704700BF80B483B000AF78607B68062BF6
:1022700010DC4FF44043C2F209034FF44042C2F273
:102280000902526911464FF010007A6800FA02F212
:102290000A435A6107F10C07BD4680BC704700BF76
:1022A00080B483B000AF78607B68042B10DC4CF204
:1022B0004003C2F209034CF24002C2F20902526921
:1022C00011464FF002007A6800FA02F20A435A619E
:1022D00007F10C07BD4680BC704700BF80B483B0D7
:1022E00000AF78607B68042B12DC4CF24003C2F232
:1022F00009034CF24002C2F20902526911464FF042
:1023000002007A6800FA02F26FEA02020A405A6199
:1023100007F10C07BD4680BC704700BF80B483B096
:1023200000AF78604CF24003C2F209037A684FEACA
:1023300042025A6107F10C07BD4680BC704700BFDE
:1023400080B582B000AF786039607868FFF76AFFC7
:102350003868FFF7A5FF07F10807BD4680BD00BF3D
:1023600080B582B000AF786039607868FFF77AFF97
:102370003868FFF7B3FF07F10807BD4680BD00BF0F
:1023800080B400AF30BFBD4680BC704780B485B01C
:1023900000AF786039607B681F2B03D97B68A3F19D
:1023A000200300E07B68FB607B681F2B27D84FF47D
:1023B0004043C4F20F034FF44042C4F20F02D2F87C
:1023C000A8211146FA684FF0030000FA02F26FEA02
:1023D00002020A40C3F8A8214FF44043C4F20F039D
:1023E0004FF44042C4F20F02D2F8A8211146FA6815
:1023F000386800FA02F20A43C3F8A82126E04FF435
:102400004043C4F20F034FF44042C4F20F02D2F82B
:10241000AC211146FA684FF0030000FA02F26FEAAD
:1024200002020A40C3F8AC214FF44043C4F20F0348
:102430004FF44042C4F20F02D2F8AC211146FA68C0
:10244000386800FA02F20A43C3F8AC2107F1140716
:10245000BD4680BC704700BF80B485B000AF7860D7
:102460007B681F2B09D87B68FB604FF44043C4F2A4
:102470000F03D3F8A831BB600AE07B68A3F1200307
:10248000FB604FF44043C4F20F03D3F8AC31BB60A0
:10249000FB68BA6822FA03F303F00303BB60BB686E
:1024A000184607F11407BD4680BC704780B584B05C
:1024B00000AF786044F20403C1F200031B68BB6004
:1024C0007868FFF7C9FF0346FB60FB68032B1BD846
:1024D00001A252F823F000BFE9240000F12400001B
:1024E000F9240000012500004FF00403FB600BE01D
:1024F0004FF00103FB6007E04FF00203FB6003E0D5
:102500004FF00803FB6000BFBA68FB68B2FBF3F34F
:10251000BB60BB68184607F11007BD4680BD00BF11
:1025200080B483B000AF78600B46FB70FB78012B62
:1025300014D14FF44042C4F20F024FF44043C4F2AE
:102540000F03D3F8C430194678684FF2DE73CEF625
:10255000EF7303400B43C2F8C43018E0FB78002B44
:1025600015D14FF44042C4F20F024FF44043C4F27D
:102570000F03D3F8C43019467B686FEA0303194090
:102580004FF2DE73CEF6EF730B40C2F8C43007F1A2
:102590000C07BD4680BC704780B500AF4FF4404388
:1025A000C4F20F034FF00002C3F8C020FFF7E8FEAB
:1025B00080BD00BF80B500AF4FF46D43CEF2000385
:1025C0004FF004021A614FF44043C4F20F034FF07E
:1025D0000802C3F8C020FFF7D3FE80BD80B500AF6E
:1025E0004FF46D43CEF200034FF004021A614FF432
:1025F0004043C4F20F034FF00902C3F8C020FFF7B5
:10260000BFFE80BD80B500AF4FF46D43CEF2000336
:102610004FF004021A614FF44043C4F20F034FF02D
:102620000302C3F8C020FFF7ABFE80BD80B483B0C7
:1026300000AF78603960FEE780B485B000AF034634
:10264000FB714FF00003FB60FB79042B2AD801A239
:1026500052F823F06926000075260000812600004C
:102660008D260000992600004FF44043C2F2090372
:10267000FB6018E04CF22003C2F20903FB6012E099
:102680004CF24003C2F20903FB600CE04CF2600321
:10269000C2F20903FB6006E04CF28003C2F20903B8
:1026A000FB6000E000BFFB68184607F11407BD4659
:1026B00080BC704780B485B000AF0346FB714FF01B
:1026C0000003FB60FB79042B2AD801A252F823F007
:1026D000E5260000F1260000FD2600000927000085
:1026E000152700004FF44043C2F20903FB6018E0D5
:1026F0004CF22003C2F20903FB6012E04CF24003EB
:10270000C2F20903FB600CE04CF26003C2F2090361
:10271000FB6006E04CF28003C2F20903FB6000E0BC
:1027200000BFFB68184607F11407BD4680BC704720
:1027300080B485B000AF0346FB714FF00003FB602F
:10274000FB79042B2AD801A252F823F0612700005C
:102750006D270000792700008527000091270000E1
:102760004FF44043C2F20903FB6018E04CF220032F
:10277000C2F20903FB6012E04CF24003C2F209030B
:10278000FB600CE04CF26003C2F20903FB6006E060
:102790004CF28003C2F20903FB6000E000BFFB685B
:1027A000184607F11407BD4680BC704780B584B059
:1027B00000AF396013460246FA71BB71FB791846C7
:1027C000FFF73AFF0346FB60FB68002B13D0BB7991
:1027D000002B07D0FB681B681A463B681A43FB684E
:1027E0001A6008E0FB681B681A463B686FEA03033F
:1027F0001A40FB681A6007F11007BD4680BD00BF94
:1028000080B584B000AF03463960FB71FB79184690
:10281000FFF712FF0346FB60FB68002B02D0FB684A
:102820003A689A6107F11007BD4680BD80B584B053
:1028300000AF03463960FB71FB791846FFF7FCFED9
:102840000346FB60FB68002B02D0FB683A68DA6144
:1028500007F11007BD4680BD80B584B000AF0346C8
:10286000FB71FB791846FFF7E7FE0346FB60FB6848
:10287000002B02D0FB685B6901E04FF000031846B3
:1028800007F11007BD4680BD80B483B000AF39604A
:1028900013460246FA71BB71FB79002B09D1BB7953
:1028A000002B06D148F28003C4F202033A681A6191
:1028B00027E0FB79022B09D1BB79002B06D148F226
:1028C0008003C4F202033A681A631AE0FB79002B12
:1028D00009D1BB79012B06D148F28003C4F202036F
:1028E0003A685A610DE0FB79022B09D1BB79012BC3
:1028F00006D148F28003C4F202033A685A6300E04A
:10290000FEE707F10C07BD4680BC704780B483B07A
:1029100000AF396013460246FA71BB71FB79002B98
:1029200010D1BB79002B0DD148F28003C4F2020311
:102930005B681A463B6822FA03F3DBB203F001033B
:10294000DBB23CE0FB79022B10D1BB79002B0DD11F
:1029500048F28003C4F202035B6A1A463B6822FA1B
:1029600003F3DBB203F00103DBB228E0FB79002BB9
:1029700010D1BB79012B0DD148F28003C4F20203C0
:102980009B681A463B6822FA03F3DBB203F00103AB
:10299000DBB214E0FB79022B10D1BB79012B0DD1F6
:1029A00048F28003C4F202039B6A1A463B6822FA8B
:1029B00003F3DBB203F00103DBB200E0FEE71846ED
:1029C00007F10C07BD4680BC704700BF80B483B0E0
:1029D00000AF03463960FB71FB79002B06D148F24A
:1029E0008003C4F202033A68DA600AE0FB79022B42
:1029F00006D148F28003C4F202033A68DA6200E0CA
:102A0000FEE707F10C07BD4680BC704780B582B079
:102A100000AF396013460246FA71BB71FA79BB798F
:102A2000104639681A46FFF7C1FE07F10807BD4690
:102A300080BD00BF80B582B000AF03463960FB7136
:102A4000FB7918463968FFF7DBFE07F10807BD463A
:102A500080BD00BF80B582B000AF03463960FB7116
:102A6000FB7918463968FFF7E1FE07F10807BD4614
:102A700080BD00BF80B582B000AF0346FB71FB791B
:102A80001846FFF7E9FE0346184607F10807BD465A
:102A900080BD00BF80B582B000AF396013460246EA
:102AA000FA71BB71FA79BB79104639681A46FFF79B
:102AB000EBFE07F10807BD4680BD00BF80B582B0C0
:102AC00000AF396013460246FA71BB71FA79BB79DF
:102AD000104639681A46FFF719FF0346184607F1F2
:102AE0000807BD4680BD00BF80B582B000AF034679
:102AF0003960FB71FB7918463968FFF767FF07F10A
:102B00000807BD4680BD00BF80B584B000AF396006
:102B100013460246FA71BB71FB791846FFF78CFD2C
:102B20000346FB60FB68002B13D0BB79002B07D05A
:102B3000FB681B691A463B681A43FB681A6108E088
:102B4000FB681B691A463B686FEA03031A40FB687F
:102B50001A6107F11007BD4680BD00BF80B584B083
:102B600000AFF871B971BA80FB70FB791846FFF7B6
:102B7000A1FD0346FB60FB68002B35D0FB78002BE2
:102B800014D0BB79002B08D0FB685B889AB2BB8855
:102B900013439AB2FB685A8026E0FB681B889AB2FE
:102BA000BB8813439AB2FB681A801DE0BB79002BE7
:102BB0000DD0FB685B889BB29AB2BB886FEA0303B7
:102BC0009BB213409BB29AB2FB685A800CE0FB6840
:102BD0001B889BB29AB2BB886FEA03039BB2134077
:102BE0009BB29AB2FB681A8007F11007BD4680BD00
:102BF00080B584B000AFF871B971BA80FB70FB7911
:102C00001846FFF757FD0346FB60FB68002B35D0E5
:102C1000FB78002B14D0BB79002B08D0FB685B8AB3
:102C20009AB2BB8813439AB2FB685A8226E0FB68CB
:102C30001B8A9AB2BB8813439AB2FB681A821DE0C2
:102C4000BB79002B0DD0FB685B8A9BB29AB2BB8824
:102C50006FEA03039BB213409BB29AB2FB685A829D
:102C60000CE0FB681B8A9BB29AB2BB886FEA030335
:102C70009BB213409BB29AB2FB681A8207F110070D
:102C8000BD4680BD80B584B000AF13460246FA71E0
:102C90000A46BA71BB80FB791846FFF70BFD034665
:102CA000FB60FB68002B09D0BB79002B03D0FB68CD
:102CB000BA885A8302E0FB68BA881A8307F11007C2
:102CC000BD4680BD80B584B000AF13460246FA71A0
:102CD0000A46BA71BB80FB791846FFF7EBFC034646
:102CE000FB60FB68002B09D0BB79002B03D0FB688D
:102CF000BA88DA8302E0FB68BA889A8307F1100782
:102D0000BD4680BD80B584B000AF02460B46FA7167
:102D1000BB71FB791846FFF7CDFC0346FB60FB68EF
:102D2000002B0AD0BB79002B03D0FB68DB8A9BB257
:102D300005E0FB689B8A9BB201E04FF00003184658
:102D400007F11007BD4680BD80B584B000AFF871B3
:102D5000B9717A713B71FB791846FFF7E9FC0346BC
:102D6000FB60FB68002B22D03B79002B0DD0BB7998
:102D7000032B1CD8BB79BA79F9688A5CD1B27A790D
:102D80000A43D1B2FA68D15411E0BB79032B0ED8B3
:102D9000BB79BA79F9688A5CD2B2D1B27A796FEA32
:102DA0000202D2B20A40D2B2D1B2FA68D15407F1CB
:102DB0001007BD4680BD00BF80B584B000AFF8717C
:102DC000B9717A713B71FB791846FFF7B1FC034684
:102DD000FB60FB68002B26D03B79002B0FD0BB7922
:102DE000032B20D8BB79BA79F9688A18127CD1B242
:102DF0007A790A43D2B2F968CB181A7413E0BB7916
:102E0000032B10D8BB79BA79F9688A18127CD2B230
:102E1000D1B27A796FEA0202D2B20A40D2B2D2B209
:102E2000F968CB181A7407F11007BD4680BD00BFC2
:102E300080B584B000AF13460246FA710A46BA71F3
:102E40007B71FB791846FFF773FC0346FB60FB6858
:102E5000002B07D0BB79032B04D8BB79FA68D318B1
:102E60007A791A7607F11007BD4680BD80B584B027
:102E700000AF13460246FA710A46BA717B71FB79BC
:102E80001846FFF755FC0346FB60FB68002B07D094
:102E9000BB79032B04D8BB79FA68D3187A791A77EF
:102EA00007F11007BD4680BD80B584B000AF024673
:102EB0000B46FA71BB71FB791846FFF739FC0346E4
:102EC000FB60FB68002B08D0BB79032B05D8BB79CE
:102ED000FA68D3181B7DDBB201E04FF000031846FF
:102EE00007F11007BD4680BD80B584B000AF7860A3
:102EF00039607A684FF48043C4F203039A4207D0E2
:102F000046F2CC10C0F200004FF03C01FFF78EFB00
:102F10003B68002B06D03A684FF45463C0F20303B9
:102F20009A4207D946F2CC10C0F200004FF03D01A2
:102F3000FFF77CFB4FF480504FF00101FFF7F0FAF0
:102F40007B684FF000021A604FF40013FB604FF0F3
:102F50001800FFF7ABFA0346BB603A6813464FEA26
:102F600083139B18BA68B2FBF3F303F1FF33BB6022
:102F7000BB684FEA0323FA681343FB607B68FA6877
:102F80001A6007F11007BD4680BD00BF80B582B052
:102F900000AF78607A684FF48043C4F203039A422A
:102FA00007D046F2CC10C0F200004FF05C01FFF7F2
:102FB0003DFB7B681B6823F400127B681A604FF4AA
:102FC00080504FF00001FFF7ABFA07F10807BD464C
:102FD00080BD00BF80B485B000AF78607B684FEAE9
:102FE000830244F21003C4F20303D3181B68FB608E
:102FF000FB684FEA13134FEA03534FEA1353184683
:1030000007F11407BD4680BC704700BF80B582B091
:1030100000AF78600B46FB707A684FF48043C4F2CF
:1030200003039A4207D046F2CC10C0F200004FF0E2
:103030008501FFF7FBFAFB78002B1CD0FB78012BF6
:1030400019D0FB78022B16D0FB78032B13D0FB781A
:10305000042B10D0FB78052B0DD0FB78062B0AD063
:10306000FB78072B07D046F2CC10C0F200004FF0DF
:103070008601FFF7DBFA7B681B6823F0E0627B6860
:103080001A607B681B681A46FB784FEA03631A4391
:103090007B681A6007F10807BD4680BD80B582B025
:1030A00000AF78600B46FB707A684FF48043C4F23F
:1030B00003039A4207D046F2CC10C0F200004FF052
:1030C0009701FFF7B3FA7B681B6823F480327B68B3
:1030D0001A60FB78002B05D07B681B6843F48032B4
:1030E0007B681A6007F10807BD4680BD80B582B0D5
:1030F00000AF78600B46FB707A684FF48043C4F2EF
:1031000003039A4207D046F2CC10C0F200004FF001
:10311000A901FFF78BFA7B681B6823F400127B6818
:103120001A60FB78002B05D07B681B6843F4001203
:103130007B681A6007F10807BD4680BD80B582B084
:1031400000AF78600B46FB707A684FF48043C4F29E
:1031500003039A4207D046F2CC10C0F200004FF0B1
:10316000BB01FFF763FAFB78002B0AD0FB78012B39
:1031700007D046F2CC10C0F200004FF0BC01FFF7C0
:1031800055FA7B681B6823F000627B681A60FB7845
:10319000002B05D07B681B6843F000627B681A60D7
:1031A00007F10807BD4680BD80B582B000AF7860EA
:1031B00013460A46FA70BB707A684FF48043C4F233
:1031C00003039A4207D046F2CC10C0F200004FF041
:1031D000D401FFF72BFAFB78002B1FD0FB78012BD3
:1031E0001CD0FB78022B19D0FB78032B16D0FB7870
:1031F000042B13D0FB78052B10D0FB78062B0DD0B9
:10320000FB78072B0AD0FB78082B07D046F2CC10AE
:10321000C0F200004FF0D501FFF708FA7B68DB68C9
:103220001A46FB784FF0010101FA03F36FEA03033A
:103230001A407B68DA60BB78002B0AD07B68DB68B9
:103240001A46FB784FF0010101FA03F31A437B6839
:10325000DA6007F10807BD4680BD00BF80B582B0C7
:1032600000AF786013460A46FA70BB707A684FF474
:103270008043C4F203039A4207D046F2CC10C0F256
:1032800000004FF0E701FFF7D1F9BB78012B0BD11C
:103290007B681B681A46FB784FF0010101FA03F3C3
:1032A0001A437B681A600CE07B681B681A46FB783F
:1032B0004FF0010101FA03F36FEA03031A407B6840
:1032C0001A6007F10807BD4680BD00BF80B584B015
:1032D00000AF78600B46FB707A684FF48043C4F20D
:1032E00003039A4207D046F2CC10C0F200004FF020
:1032F000FB01FFF79BF97B6803F11002FB784FEAB3
:103300008303D3181B68FB60FB684FEA13139BB25F
:103310004FEA03534FEA13539BB2184607F11007C5
:10332000BD4680BD80B586B000AFF8600B467A60C0
:10333000FB72FA684FF48043C4F203039A4207D049
:1033400046F2CC10C0F2000040F20F11FFF76EF908
:103350007B68002B0AD07B68012B07D046F2CC108B
:10336000C0F2000040F21111FFF760F9FB6803F1B1
:103370001002FB7A4FEA8303D3181B687B617B68DA
:10338000002B04D07B6903F000437B6103E07B6981
:1033900003F080437B617B69002B02D04FF0010377
:1033A00001E04FF00003184607F11807BD4680BD45
:1033B00080B582B000AF78607A684FF48043C4F281
:1033C00003039A4207D046F2CC10C0F200004FF43B
:1033D0009471FFF72BF97B685B68184607F10807C3
:1033E000BD4680BD80B584B000AF786039607A6832
:1033F0004FF48043C4F203039A4207D046F2CC1044
:10340000C0F2000040F23911FFF710F93B68002BC1
:103410000AD03B68012B07D046F2CC10C0F2000066
:103420004FF49D71FFF702F97B685B68FB603B68B6
:10343000002B04D0FB6803F00043FB6003E0FB6853
:1034400003F08043FB60FB68002B02D04FF00103C8
:1034500001E04FF00003184607F11007BD4680BD9C
:1034600080B584B000AF78607B68032B26D801A2BA
:1034700052F823F08534000093340000A13400009A
:10348000AF3400004FF00200FFF710F80346FB6076
:1034900014E04FF00400FFF709F80346FB600DE06D
:1034A0004FF02C00FFF702F80346FB6006E04FF0F8
:1034B0002E00FEF7FBFF0346FB6000BFFB681846CB
:1034C00007F11007BD4680BD80B584B000AF7860BD
:1034D00039607868FFF7C4FF01460A464FF00003E1
:1034E000C7E9022339680A464FF00003B96803FBB5
:1034F00001F0F96802FB01F14118B868A0FB022352
:10350000C9180B46104619464FF4742202F5107282
:103510004FF0000301F0E2FA02460B46C7E902232E
:10352000BB68184607F11007BD4680BD80B485B062
:1035300000AF78604FF0FF33FB607B68B3F1402F42
:1035400003D14FF00003FB601FE07A684FF40043A3
:10355000C4F200039A4203D14FF00103FB6014E070
:103560007A684FF00003C4F209039A4203D14FF086
:103570000203FB6009E07A684FF48043C4F2090358
:103580009A4202D14FF00303FB60FB68184607F133
:103590001407BD4680BC704780B584B000AF78602A
:1035A0000B46FB707B68B3F1402F1CD07A684FF458
:1035B0000043C4F200039A4215D07A684FF000032A
:1035C000C4F209039A420ED07A684FF48043C4F2E1
:1035D00009039A4207D046F2F410C0F200004FF0FF
:1035E0009F01FFF723F8FB78002B16D0FB78012B07
:1035F00013D0FB78022B10D0FB78032B0DD0FB7877
:10360000042B0AD0FB78052B07D046F2F410C0F249
:1036100000004FF0A001FFF709F87B681B68DAB2E1
:10362000FB784FF0010101FA03F3DBB21340FB73A7
:10363000FB7B002B02D04FF0010301E04FF00003B1
:10364000184607F11007BD4680BD00BF80B584B0A5
:1036500000AF78600B46FB707B68B3F1402F1CD045
:103660007A684FF40043C4F200039A4215D07A6896
:103670004FF00003C4F209039A420ED07A684FF467
:103680008043C4F209039A4207D046F2F410C0F214
:1036900000004FF0BD01FEF7C9FFFB78002B16D0EC
:1036A000FB78012B13D0FB78022B10D0FB78032B77
:1036B0000DD0FB78042B0AD0FB78052B07D046F2FF
:1036C000F410C0F200004FF0BE01FEF7AFFF7B68C0
:1036D0001B68DAB2FB7803F104034FF0010101FA31
:1036E00003F3DBB21340FB73FB7B002B02D04FF0E4
:1036F000010301E04FF00003184607F11007BD4633
:1037000080BD00BF80B582B000AF78600B46FB7013
:103710007B68B3F1402F1CD07A684FF40043C4F2A9
:1037200000039A4215D07A684FF00003C4F20903EF
:103730009A420ED07A684FF48043C4F209039A4249
:1037400007D046F2F410C0F200004FF0D601FEF7A9
:103750006DFFFB78002B16D0FB78012B13D0FB7884
:10376000022B10D0FB78032B0DD0FB78042B0AD052
:10377000FB78052B07D046F2F410C0F200004FF0A2
:10378000D701FEF753FF7B681B681A46FB784FF0A2
:10379000010101FA03F31A437B681A6007F1080775
:1037A000BD4680BD80B582B000AF78600B46FB702F
:1037B0007B68B3F1402F1CD07A684FF40043C4F209
:1037C00000039A4215D07A684FF00003C4F209034F
:1037D0009A420ED07A684FF48043C4F209039A42A9
:1037E00007D046F2F410C0F200004FF0ED01FEF7F2
:1037F0001DFFFB78002B16D0FB78012B13D0FB7834
:10380000022B10D0FB78032B0DD0FB78042B0AD0B1
:10381000FB78052B07D046F2F410C0F200004FF001
:10382000EE01FEF703FF7B681B681A46FB7803F185
:1038300004034FF0010101FA03F31A437B681A6095
:1038400007F10807BD4680BD80B485B000AF0346D0
:103850003960FB71FB79002B0AD13B68FB60FB6888
:103860004FF001021A70FB684FF001025A6005E048
:103870003B68BB60BB684FF000025A7007F1140749
:10388000BD4680BC704700BF80B586B000AFF86011
:103890000B467A60FB72FB68B3F1402F1CD0FA68CC
:1038A0004FF40043C4F200039A4215D0FA684FF077
:1038B0000003C4F209039A420ED0FA684FF4804321
:1038C000C4F209039A4207D046F2F410C0F2000095
:1038D0004FF49271FEF7AAFEFB7A002B10D0FB7A10
:1038E000012B0DD0FB7A012B0AD0FB7A012B07D0DC
:1038F00046F2F410C0F2000040F22511FEF796FEE9
:10390000FB68B3F1402F0CD14FF002004FF00101E2
:10391000FEF706FE4FF002004FF00001FEF736FD05
:103920003AE0FA684FF40043C4F200039A420CD123
:103930004FF004004FF00101FEF7F2FD4FF00400DC
:103940004FF00001FEF722FD26E0FA684FF0000379
:10395000C4F209039A420CD14FF480004FF00101E8
:10396000FEF7DEFD4FF02C004FF00001FEF70EFDDC
:1039700012E0FA684FF48043C4F209039A420BD173
:103980004FF400004FF00101FEF7CAFD4FF02E008A
:103990004FF00001FEF7FAFCFB689B6A23F003027C
:1039A000FB689A62FB689B6A1A46FB689A62FB682E
:1039B0004FF000029A60FB684FF000021A61FB684A
:1039C0004FF00002DA60FB685B6843F00202FB68BC
:1039D0005A60FB685B6823F00202FB685A60FB7A5E
:1039E000002B1CD17B687B617B691B78002B06D187
:1039F0007B695B6803F1FF32FB68DA6021E0F868FD
:103A0000FFF794FD02467B695B6810461946FFF795
:103A10005BFD034603F1FF32FB68DA6011E07B686F
:103A20003B61FB689B6A23F00C02FB689A623B696E
:103A30005B78012B05D1FB689B6A43F00402FB68AD
:103A40009A62FB684FF0FF321A6007F11807BD4613
:103A500080BD00BF80B582B000AF78607B68B3F1F5
:103A6000402F1CD07A684FF40043C4F200039A42FE
:103A700015D07A684FF00003C4F209039A420ED0C1
:103A80007A684FF48043C4F209039A4207D046F2A1
:103A9000F410C0F2000040F26D11FEF7C7FD7B6824
:103AA0004FF000025A607B68B3F1402F06D14FF00F
:103AB00002004FF00001FEF733FD28E07A684FF472
:103AC0000043C4F200039A4206D14FF004004FF0C5
:103AD0000001FEF725FD1AE07A684FF00003C4F2FA
:103AE00009039A4206D14FF480004FF00001FEF71F
:103AF00017FD0CE07A684FF48043C4F209039A4240
:103B000005D14FF480004FF00001FEF709FD07F1E9
:103B10000807BD4680BD00BF80B582B000AF7860A9
:103B20000B46FB707B68B3F1402F1CD07A684FF4D2
:103B30000043C4F200039A4215D07A684FF00003A4
:103B4000C4F209039A420ED07A684FF48043C4F25B
:103B500009039A4207D046F2F410C0F200004FF475
:103B6000C771FEF763FDFB78012B06D17B685B68AC
:103B700043F001027B685A6005E07B685B6823F0D4
:103B800001027B685A6007F10807BD4680BD00BF8F
:103B900080B582B000AF78607B68B3F1402F1CD055
:103BA0007A684FF40043C4F200039A4215D07A6851
:103BB0004FF00003C4F209039A420ED07A684FF422
:103BC0008043C4F209039A4207D046F2F410C0F2CF
:103BD00000004FF4D371FEF729FD7B685B6843F06A
:103BE00002027B685A607B685B6823F002027B6894
:103BF0005A6007F10807BD4680BD00BF80B582B09E
:103C000000AF786039607B68B3F1402F1CD07A68D0
:103C10004FF40043C4F200039A4215D07A684FF083
:103C20000003C4F209039A420ED07A684FF480432D
:103C3000C4F209039A4207D046F2F410C0F2000021
:103C400040F2C511FEF7F2FC3B681B79002B13D044
:103C50003B681B79012B0FD03B681B79022B0BD0E3
:103C60003B681B79032B07D046F2F410C0F200002A
:103C70004FF4E371FEF7DAFC3B681B78032B1FD887
:103C800001A252F823F000BF993C0000A33C0000C1
:103C9000AD3C0000B73C00003B689A687B689A61C5
:103CA0000FE03B689A687B68DA610AE03B689A68D3
:103CB0007B681A6205E03B689A687B685A6200E09C
:103CC000FEE77B685B6919463B681B781A4613461A
:103CD0004FEA43039B184FF0070202FA03F36FEA1F
:103CE000030301EA03027B685A613B685B78002B9F
:103CF00011D07B685B6919463B681B781A461346EE
:103D00004FEA43039B184FF0010202FA03F341EA22
:103D100003027B685A613B68DB78002B13D07B6819
:103D20005B6919463B681B781A4613464FEA430302
:103D30009B1803F101034FF0010202FA03F341EA79
:103D400003027B685A613B689B78002B13D07B6829
:103D50005B6919463B681B781A4613464FEA4303D2
:103D60009B1803F102034FF0010202FA03F341EA48
:103D700003027B685A617B68DB6B1A463B681B78E1
:103D80004FEA430303F104034FF0030101FA03F385
:103D90006FEA03031A407B68DA637B68DB6B1A46C1
:103DA0003B681B7903F003013B681B784FEA430330
:103DB00003F1040301FA03F31A437B68DA6307F1A2
:103DC0000807BD4680BD00BF80B584B000AFF86075
:103DD0000B467A60FB72FB68B3F1402F1CD0FA6887
:103DE0004FF40043C4F200039A4215D0FA684FF032
:103DF0000003C4F209039A420ED0FA684FF48043DC
:103E0000C4F209039A4207D046F2F410C0F200004F
:103E100040F2FB11FEF70AFCFB7A032B1BD801A230
:103E200052F823F0353E00003D3E0000453E0000C4
:103E30004D3E0000FB687A689A610DE0FB687A6885
:103E4000DA6109E0FB687A681A6205E0FB687A6863
:103E50005A6200BF00E0FEE707F11007BD4680BDD3
:103E600080B582B000AF786039607B68B3F1402FD5
:103E70001CD07A684FF40043C4F200039A4215D074
:103E80007A684FF00003C4F209039A420ED07A68B0
:103E90004FF48043C4F209039A4207D046F2F4106B
:103EA000C0F2000040F22121FEF7C0FB7B689B6A54
:103EB00019463B681B781A4613464FEA43039B1882
:103EC0004FF0070202FA03F36FEA030301EA030269
:103ED0007B689A623B685B78002B11D07B689B6A99
:103EE00019463B681B781A4613464FEA43039B1852
:103EF0004FF0010202FA03F341EA03027B689A627F
:103F00003B689B78002B13D07B689B6A19463B6803
:103F10001B781A4613464FEA43039B1803F101032B
:103F20004FF0010202FA03F341EA03027B689A624E
:103F30003B68DB78002B13D07B689B6A19463B6893
:103F40001B781A4613464FEA43039B1803F10203FA
:103F50004FF0010202FA03F341EA03027B689A621E
:103F600007F10807BD4680BD80B582B000AF78601C
:103F70000B46FB707B68B3F1402F1CD07A684FF47E
:103F80000043C4F200039A4215D07A684FF0000350
:103F9000C4F209039A420ED07A684FF48043C4F207
:103FA00009039A4207D046F2F410C0F200004FF421
:103FB0000F71FEF73BFBFB78002B0AD0FB78012B3F
:103FC00007D046F2F410C0F2000040F23D21FEF7A7
:103FD0002DFBFB78002B02D17B68DB6A01E07B685C
:103FE0001B6B184607F10807BD4680BD80B400AFC3
:103FF0004FF44043C4F20F03D3F888304FEA136301
:1040000003F00303032B40F0A4804FF44043C4F2B9
:104010000F03D3F80C3103F00303032B00F2EC8001
:1040200001A252F823F000BF39400000994000007F
:10403000FB400000394000004FF44043C4F20F033E
:10404000D3F888304FEA43434FEA534303F1010268
:104050004FF49053C0F27A0303FB02F24FF4404353
:10406000C4F20F03D3F888304FEA1343DBB203F1F5
:104070000103B2FBF3F24FF44043C4F20F03D3F851
:104080000431DBB203F10103B2FBF3F244F20403A7
:10409000C1F200031A60B0E04FF44043C4F20F03D2
:1040A000D3F888304FEA43434FEA534303F1010208
:1040B0004FF45853C0F26E1303FB02F24FF4404327
:1040C000C4F20F03D3F888304FEA1343DBB203F195
:1040D0000103B2FBF3F24FF44043C4F20F03D3F8F1
:1040E0000431DBB203F10103B2FBF3F244F2040347
:1040F000C1F200031A6000BF7FE04FF44043C4F2F6
:104100000F03D3F888304FEA43434FEA534303F198
:1041100001034FEA03424FF44043C4F20F03D3F8C4
:1041200088304FEA1343DBB203F10103B2FBF3F231
:104130004FF44043C4F20F03D3F80431DBB203F170
:104140000103B2FBF3F244F20403C1F200031A606C
:1041500052E04FF44043C4F20F03D3F80C3103F0A4
:104160000303032B49D801A252F823F07D4100003C
:10417000A7410000D14100007D4100004FF44043C1
:10418000C4F20F03D3F80431DBB203F101024FF4A0
:104190001063C0F23D03B3FBF2F244F20403C1F238
:1041A00000031A6029E04FF44043C4F20F03D3F830
:1041B0000431DBB203F101024FF4D853C0F2B7036C
:1041C000B3FBF2F244F20403C1F200031A6014E0FC
:1041D0004FF44043C4F20F03D3F80431DBB203F1D0
:1041E00001034FF40042B2FBF3F244F20403C1F2C4
:1041F00000031A6000BF00E000BFBD4680BC7047EE
:1042000080B400AF4FF44043C4F20F034FF02002DC
:10421000C3F8A0214FF44043C4F20F03D3F8A031F8
:1042200003F02003002B0AD000BF4FF44043C4F238
:104230000F03D3F8A03103F04003002BF5D04FF467
:104240004043C4F20F034FF00302C3F804214FF4BC
:104250004043C4F20F034FF00002C3F8A8214FF40B
:104260004043C4F20F034FF00002C3F8AC214FF4F7
:104270004043C4F20F034FF00102C3F80C214FF486
:104280004043C4F20F034FF06302C0F20502C3F8CB
:1042900084204FF44043C4F20F034FF0AA02C3F846
:1042A0008C204FF44043C4F20F034FF05502C3F883
:1042B0008C204FF44043C4F20F034FF00102C3F8C7
:1042C00080204FF44043C4F20F034FF0AA02C3F81A
:1042D0008C204FF44043C4F20F034FF05502C3F853
:1042E0008C2000BF4FF44043C4F20F03D3F8883052
:1042F00003F08063002BF5D04FF44043C4F20F036A
:104300004FF00302C3F880204FF44043C4F20F0380
:104310004FF0AA02C3F88C204FF44043C4F20F03BD
:104320004FF05502C3F88C2000BF4FF44043C4F255
:104330000F03D3F8883003F04073002BF5D04FF40F
:104340004043C4F20F034FF02302C3F8A4204FF4FC
:104350004043C4F20F034FF0AA02C3F8AC204FF45D
:104360004043C4F20F034FF05502C3F8AC204FF4A2
:104370004043C4F20F034FF00102C3F8A0204FF4F2
:104380004043C4F20F034FF0AA02C3F8AC204FF42D
:104390004043C4F20F034FF05502C3F8AC2000BFF6
:1043A0004FF44043C4F20F03D3F8A83003F4806302
:1043B000002BF5D04FF44043C4F20F034FF003023B
:1043C000C3F8A0204FF44043C4F20F034FF0AA02F9
:1043D000C3F8AC204FF44043C4F20F034FF0550232
:1043E000C3F8AC2000BF4FF44043C4F20F03D3F82E
:1043F000A83003F44073002BF5D04FF44043C4F2CF
:104400000F0348F2DE72C0F22842C3F8C4204FF412
:104410004043C4F20F034FF00002C3F8C8214FF429
:104420004043C4F20F0343F23A021A604FF46D4363
:10443000CEF200034FF000029A60BD4680BC704788
:1044400080B582B000AF46F23833C0F200037B6023
:1044500044F20003C1F200033B600BE07B681A6882
:104460003B681A603B6803F104033B607B6803F11F
:1044700004037B603A6844F20803C1F200039A42E5
:10448000ECD31B481B494FF000028842B8BF40F8EC
:10449000042BFADBFFF7B4FEFBF7C0FEFEE700BF1C
:1044A00080B400AFFEE700BF80B400AFFEE700BFFE
:1044B00080B400AFFEE700BF80B400AFFEE700BFEE
:1044C00080B400AFFEE700BF80B400AFFEE700BFDE
:1044D00080B400AFFEE700BF80B400AFFEE700BFCE
:1044E00080B400AFFEE700BF80B400AFFEE700007D
:1044F00000C0072004FB072080B485B000AF7860BF
:104500004CF23403C2F207031B68002B08D14CF2B3
:104510003403C2F207034FF60432C2F207021A60F4
:104520004CF23403C2F207031B68FB604CF2340305
:10453000C2F207031A687B68D2184CF23403C2F245
:1045400007031A60FB68184607F11407BD4680BCD4
:10455000704700BF80B483B000AF786039604FF01F
:10456000FF33184607F10C07BD4680BC704700BFFB
:1045700080B483B000AF78604FF0FF33184607F186
:104580000C07BD4680BC704780B483B000AF786034
:1045900039603B684FF400525A604FF000031846F0
:1045A00007F10C07BD4680BC704700BF80B483B0E4
:1045B00000AF78604FF00103184607F10C07BD46C5
:1045C00080BC704780B485B000AFF860B9607A6095
:1045D0004FF00003184607F11407BD4680BC704732
:1045E00080B485B000AFF860B9607A604FF0000326
:1045F000184607F11407BD4680BC704780B485B0EB
:1046000000AFF860B9607A607B68184607F114075C
:10461000BD4680BC704700BF80B400AFFEE700BF5E
:1046200080F0004002E000BF81F0004142001FBF67
:104630005FEA410392EA030F7FEA226C7FEA236C70
:104640006AD04FEA1262D2EB1363C1BFD218414065
:1046500048404140B8BF5B42192B88BF704710F0FB
:10466000004F40F4000020F07F4018BF404211F09E
:10467000004F41F4000121F07F4118BF494292EA06
:10468000030F3FD0A2F1010241FA03FC10EB0C0032
:10469000C3F1200301FA03F100F0004302D54942BF
:1046A00060EB4000B0F5000F13D3B0F1807F06D36C
:1046B00040084FEA310102F10102FE2A51D2B1F164
:1046C000004F40EBC25008BF20F0010040EA030059
:1046D0007047490040EB000010F4000FA2F1010206
:1046E000EDD1B0FA80FCACF1080CB2EB0C0200FA90
:1046F0000CF0AABF00EBC25052421843BCBFD040DE
:104700001843704792F0000F81F4000106BF80F457
:1047100000000132013BB5E74FEA41037FEA226C1A
:1047200018BF7FEA236C21D092EA030F04D092F0E5
:10473000000F08BF0846704790EA010F1CBF002019
:10474000704712F07F4F04D1400028BF40F0004076
:10475000704712F100723CBF00F50000704700F096
:10476000004343F0FE4040F4000070477FEA2262BD
:1047700016BF08467FEA23630146420206BF5FEA8E
:10478000412390EA010F40F4800070474FF000038E
:1047900004E000BF10F0004348BF40425FEA000C55
:1047A00008BF704743F0964301464FF000001CE0FD
:1047B00050EA010208BF70474FF000030AE000BF53
:1047C00050EA010208BF704711F0004302D5404291
:1047D00061EB41015FEA010C02BF84460146002003
:1047E00043F0B64308BFA3F18053A3F50003BCFA1E
:1047F0008CF2083AA3EBC25310DB01FA02FC6344CB
:1048000000FA02FCC2F12002BCF1004F20FA02F2D1
:1048100043EB020008BF20F00100704702F12002C4
:1048200001FA02FCC2F1200250EA4C0021FA02F225
:1048300043EB020008BF20EADC7070474FF0FF0C2A
:104840001CEAD0521EBF1CEAD15392EA0C0F93EA25
:104850000C0F6FD01A4480EA010C400218BF5FEAC7
:1048600041211ED04FF0006343EA501043EA51113A
:10487000A0FB01310CF00040B1F5000F3EBF490034
:1048800041EAD3715B0040EA010062F17F02FD2A38
:104890001DD8B3F1004F40EBC25008BF20F001001B
:1048A000704790F0000F0CF0004C08BF49024CEA32
:1048B000502040EA51207F3AC2BFD2F1FF0340EAC4
:1048C000C250704740F400004FF00003013A5DDC35
:1048D00012F1190FDCBF00F000407047C2F1000276
:1048E000410021FA02F1C2F1200200FA02FC5FEA63
:1048F000310040F1000053EA4C0308BF20EADC70AD
:10490000704792F0000F00F0004C02BF400010F41E
:10491000000F013AF9D040EA0C0093F0000F01F0CB
:10492000004C02BF490011F4000F013BF9D041EAED
:104930000C018FE70CEAD15392EA0C0F18BF93EAEF
:104940000C0F0AD030F0004C18BF31F0004CD8D119
:1049500080EA010000F00040704790F0000F17BFA0
:1049600090F0004F084691F0000F91F0004F14D0E6
:1049700092EA0C0F01D142020FD193EA0C0F03D13E
:104980004B0218BF084608D180EA010000F0004041
:1049900040F0FE4040F40000704740F0FE4040F41C
:1049A000400070474FF0FF0C1CEAD0521EBF1CEABB
:1049B000D15392EA0C0F93EA0C0F69D0A2EB0302D9
:1049C00080EA010C49024FEA402037D04FF0805373
:1049D00043EA111143EA10130CF000408B4238BF38
:1049E0005B0042F17D024FF4000C8B4224BF5B1A46
:1049F00040EA0C00B3EB510F24BFA3EB510340EA94
:104A00005C00B3EB910F24BFA3EB910340EA9C0041
:104A1000B3EBD10F24BFA3EBD10340EADC001B01B1
:104A200018BF5FEA1C1CE0D1FD2A3FF650AF8B4255
:104A300040EBC25008BF20F0010070470CF0004C62
:104A40004CEA50207F32C2BFD2F1FF0340EAC2508D
:104A5000704740F400004FF00003013A37E792F04E
:104A6000000F00F0004C02BF400010F4000F013AAC
:104A7000F9D040EA0C0093F0000F01F0004C02BFA7
:104A8000490011F4000F013BF9D041EA0C0195E710
:104A90000CEAD15392EA0C0F08D142027FF47DAFA9
:104AA00093EA0C0F7FF470AF084676E793EA0C0F99
:104AB00004D14B023FF44CAF08466EE730F0004C97
:104AC00018BF31F0004CCAD130F000427FF45CAF27
:104AD00031F000437FF43CAF5FE700BF4BB942B910
:104AE000002908BF002802D04FF0FF31084601F02E
:104AF0006FB882B0EC462DE9005000F01DF8DDF8EB
:104B000004E002B00CBC70472DE9704315468046A6
:104B100089461C4601F05EF805FB01F6A5FB002363
:104B200000FB0464E318069CB8EB020269EB030384
:104B3000C4E90023BDE87083F8B5144606460F4665
:104B40001D4601F0A7F900FB05F5A0FB042304FBBB
:104B50000154E318069CB21A67EB0303C4E900236F
:104B6000F8BD00BF036803B11B181846704700BFAB
:104B700003685A004CBF43F0004323F00043C018C1
:104B8000704700BF2DE9F84F0446914641B301F14B
:104B9000FF3BDA46002707EB0A0000EBD0756D10EB
:104BA00004EBC5063046FFF7E3FFAB45804610D067
:104BB000691C04EBC100FFF7DBFF0138C84504D9CD
:104BC000BD4209D005F1FF3AE5E7484505D26F1C23
:104BD000E1E74FF0FF30F1E700263046BDE8F88FFF
:104BE0000E463046BDE8F88F30B52B4B83B00446F7
:104BF0008D1E002B49D0284601A9AFF30080034643
:104C0000002822D02A4618460199FFF7BBFF054627
:104C100000281DD0FFF7ACFF6B68A064012B10D0FB
:104C2000281D002B22DBFFF7A3FF0021E064216594
:104C30000368002B0FDBFFF79BFF2061002003B010
:104C400030BD002323610520F9E720610920F6E744
:104C500020610920F3E7C3F3036058B101280CD0A9
:104C600002280ED0002020610920E8E70122E0643C
:104C70002265DDE7094B2361E1E7094A0020226153
:104C8000DDE7084900202161D9E7074A07491346B3
:104C9000881AC2100192B5E700000000AD51000073
:104CA000A9510000A55100005062000038630000C7
:104CB000036810B50446D80706D4990704F14800E4
:104CC00009D500F009FD23685A0709D518070ED544
:104CD000D90613D510BD00F0F7FC23685A07F5D4A8
:104CE00004F1D00000F000FD23681807F0D404F5AB
:104CF000D87000F001FD2368D906EBD404F50C70E0
:104D0000BDE8104000F03CBD2DE9F047ADF5916DD8
:104D100002AC0F1D261D054691460FCF0FC60FCFC3
:104D20000FC60FCF0FC697E80F00D5F80C800027ED
:104D3000D5F818A086E80F00216C28462760FFF7F9
:104D400053FF0646B94514BF4FF00A094FF0090951
:104D5000FEB1A16B49F01009616401208DE81004D7
:104D600049462A462B46C04700282BD1002E2AD17F
:104D7000204692A94FF4107201F0D2F9082F28D1E1
:104D8000216C2846FFF730FF06464FF00909002E38
:104D9000DFD1206C21464FF41072686192A801F0B7
:104DA000BFF92F69294692AA4846B847A09B0746F3
:104DB000636401208DE8100449462A462B46C0470B
:104DC0000028D3D00926304622B00DF5806DBDE80D
:104DD000F087072FF6D1201D00F06AFC38B5044695
:104DE0000D46296C2046FFF7FFFE50B92A6C0120C2
:104DF0006261236921462A4698470828F1D007288E
:104E000001D0FFF709FC281D00F052FC11B933B1A5
:104E10000220704704298CBF0220012070470F2A0E
:104E200001D90220704700EB820042681846009BBF
:104E30001A60704710B50A4684B000210B4603ACD7
:104E40000094FFF7E3FF039804B010BD11B933B12C
:104E50000220704704298CBF0220012070470F2ACE
:104E600001D902207047009900EB820209681846B8
:104E70005160704700B585B004AB43F8042D0A4675
:104E8000002100930B46FFF7E1FF05B000BD00BF16
:104E90002DE9F04FCD6C0C4655F8041B8BB017462E
:104EA00000F008021E46039200F003080795002B4D
:104EB00040F0E08009020691216D8DF82130032336
:104EC000B8F1020F8DF8203008BFA56B11F0010377
:104ED00040F0E480019304F158030293D5F8009068
:104EE000B9F1000F00F0DC80022E00F0BF80B5F8B1
:104EF0000090B5F802A00435A26C0F212AF0010B36
:104F000038469344FFF796FF834518D829F0010CE3
:104F1000E3440AF0010A09F00103584543EA4A094B
:104F20002CBF00200120B9F1010F12D032D2B8F10C
:104F3000000F02D0002840F017810435CEE70AF0B8
:104F4000010A09F0010343EA4A090020B9F1010FFF
:104F5000ECD1B8F1000F40F0C880C8B16B68D5F84B
:104F600000909A1C19D0029A013309920DD0281D85
:104F7000FFF7F8FD4FEAD972014609AB2046AFF3BF
:104F80000080002800F0EC80099A002A40F0CC80D4
:104F90000835A3E7B9F1020F03D009200BB0BDE833
:104FA000F08F2B6823F000420092B8F1000F40F020
:104FB0008380002853D00398002840F0B2800098E6
:104FC000002800F0B180009B05F1040ADB07DDF842
:104FD0000C9010D4029950460991FFF7C3FD039A33
:104FE000014609AB2046AFF30080002833D10AF117
:104FF000040A4FF00109CDF81080AB46B846504680
:105000000596029F11E000998E4200F0C08009973A
:10501000FFF7A8FD5246014609AB2046AFF30080DA
:10502000B14698B9281D06F10109051D0997FFF73A
:1050300099FD09AB014600222046AFF3008082466D
:1050400009F101062846BAF1000FDCD04746059E5B
:10505000DDF810805D46009A4A4565D02B68002B2C
:105060007CDB0099481C05EB800537E7D5F804A0E8
:10507000083541E70B04C1F30740216D0222B8F166
:10508000020F069305EB800508BFA56B11F0010325
:105090008DF821008DF820203FF41CAF00200190F6
:1050A000384606A900F004FC00287FF476AF019A88
:1050B000002A43D1082071E70D213846D4F820900A
:1050C000FFF7B8FE8145C9D1A26A9542C6D10098C2
:1050D000291D00220423A062E26223636163286821
:1050E000002857DB01220192BBE70D213846D4F896
:1050F0002090FFF79FFE81457FF44AAFA16A8D4261
:105100007FF446AF2846FFF733FD0F2102463846AD
:10511000FFF7B0FE384600212246FFF7ABFE07201E
:105120003CE7009900299AD138460D21FFF782FE0D
:10513000099B20626362A56206202FE70F21384693
:10514000FFF778FE0E2102463846FFF793FE3846F9
:105150000F21134AFFF78EFE07201FE7043580E773
:10516000CDF824800835B9E62846FFF701FD04355F
:105170000646A5632046AFF3008000283FF40DAF3C
:1051800038460F213246FFF775FE072006E75D46D9
:105190004746C9E7009B591C05EB8100B3E700BFF8
:1051A00000000000022373E6012371E600236FE68E
:1051B0002DE9F0470446E8B004290CD8DFE801F0F7
:1051C000390392940F00150C012B96B200F07881F0
:1051D000052B00F0C880022068B0BDE8F087002BE6
:1051E000F9D1102AF7D82368D90600F1738164A891
:1051F000019200F0CFFA019AA36BD00744BF53F895
:10520000040B6490910744BF53F8041B6591500749
:1052100048BF53F8041B64A848BF6691110748BFF4
:1052200053F8042BA36348BF679200F0A9FA00204B
:10523000D2E7002BCFD1A36BD00791B244BF53F874
:10524000042B62608A0744BF53F8042BA26048070E
:1052500044BF53F8042BE2600A0744BF53F8042B01
:105260002261C80644BF53F8042B62618A0644BF1A
:1052700053F8042BA261480644BF53F8042BE261A3
:105280000A0644BF53F8042B2262C80544BF53F8F2
:10529000042B62628A0544BF53F8042BA2624805BE
:1052A00044BF53F8042BE2620A0544BF53F8042BB1
:1052B0002263C80444BF53F8042B626311F4005006
:1052C0001CBF53F8042BA2634A0444BF53F8042BB9
:1052D000E2630A0444BF53F8042B2264002840D13F
:1052E000A36379E7012077E7032B7FF474AF160CF3
:1052F00095B2AA19102A3FF66EAF2368180700F17D
:105300000A8144A800F01AFAA76B4FEA450E3B4603
:105310000DB30EF1FF3C44A953F8040B01EBC60694
:1053200062460CF0010146F8040B92B129B153F822
:10533000041B013A46F8041B0BD0184650F8045BD6
:10534000314641F8045B5D68031D75600E1D023A2D
:10535000F3D107EB8E0344A8A36300F0CDF900203E
:105360003AE7002038E777192022BA42FFF433AF3A
:10537000012B00F0A8800F2D40F2A8803746F6B12F
:10538000052B7FF428AF0F2D11D82268D0070ED53A
:1053900022F00101052B216000F0DA8022F00302E7
:1053A000204640F8482B019300F092F9019B1FB171
:1053B0002268510700F1B780012B00F0BE800F2D4D
:1053C00074D9002F40F09F80D4F83890002EC84642
:1053D0002EDD49464FEA46080DF1080C51F8046BE2
:1053E0000CEBC50208F1FF3000F0010A42F8046B33
:1053F000A8F1020CD0B1BAF1000F08D051F8040B9B
:105400000CF1FF3CBCF1FF3F42F8040B0ED00E46FE
:1054100056F804AB104640F804AB4968ACF1020CF6
:105420005160311D021DBCF1FF3FF0D109EB88082E
:105430009FB3102D2CBF2E46102668AA414602EBC2
:10544000C60A4FEA470951F8046BAAF5C87209F178
:10545000FF3000F0010A42F8046BA9F1020CD0B150
:10546000BAF1000F08D051F8040B0CF1FF3CBCF16D
:10547000FF3F42F8040B0ED00E4656F804AB104620
:1054800040F804AB4968ACF1020C5160311D021DBB
:10549000BCF1FF3FF0D108EB8908012B2BD00F2D79
:1054A000C4F8388008D9FFB9384695E602A80193B8
:1054B00000F016F9019B84E702A800F00DF9F2E76D
:1054C0007719102251E70F2D3FF685AE102F10D916
:1054D000103F55E723F01003236004F50C70019290
:1054E00000F058F9019A82E624A800F0FDF80020A7
:1054F00072E6002747E708F1040302A8A36300F05F
:10550000E3F8002068E624A80193C5F1100600F036
:10551000EFF8019B58E723F0080704F5D8702760DF
:1055200000F00CF9EDE622F00401204640F8D01B13
:10553000019300F0DDF8019B3EE702A8019300F023
:10554000C7F8019B002F3FF43FAFC5F110063BE7C2
:1055500041F00201204640F8481B019300F0C0F8DA
:10556000019B24E7406C7047F0B50D46C96BADF563
:10557000117D296401AE2F1D04460FCF0FC60FCF3A
:105580000FC60FCF0FC697E80F0086E80F004FF049
:10559000FF33009310992046FFF726FB58B9266980
:1055A00021466A46B04708280646F3D06846FFF70A
:1055B0007FFB062E03D009200DF5117DF0BD20469E
:1055C0002946FFF70BFC00BF10B4DC6BC1608261A1
:1055D000194600221C6410BCFFF796BB38B542691F
:1055E000C36804460D460A6423B10122FFF78CFB11
:1055F000FFF712F80369214602202A469847072838
:1056000003D0082804D0FFF707F8281D00F050F851
:1056100020462946FFF7E2FBC36823B1CA6B0A6440
:105620000022FFF771BB9FE7704700BF08B5836892
:1056300001460BB10120984708BD00BFF0B5D46BFF
:10564000ADF5277D146401AE171D05460C460FCF3E
:105650000FC60FCF0FC60FCF0FC697E80F0086E813
:105660000F004FF0FF330093109990A8FFF7BCFA9A
:10567000034690AA68460C21BBB9FFF7FBFB214605
:105680006846A847064690A908206A466EB9949BCA
:1056900098470528064601D00928E5D16846FFF756
:1056A00007FB30460DF5277DF0BD0926F6E700BF64
:1056B00000F1340191E838009C46A6464CF8045DA0
:1056C00090E8FF0FE54600BD90EC210B704700BF4E
:1056D00080EC210B704700BF90EC200B704700BF9F
:1056E00080EC200B704700BFD0EC200B704700BF50
:1056F000C0EC200B704700BFF0EC0201F0EC02118F
:10570000F0EC0221F0EC0231F0EC0241F0EC02513D
:10571000F0EC0261F0EC0271F0EC0281F0EC02912D
:10572000F0EC02A1F0EC02B1F0EC02C1F0EC02D11D
:10573000F0EC02E1F0EC02F1704700BFE0EC020196
:10574000E0EC0211E0EC0221E0EC0231E0EC02417D
:10575000E0EC0251E0EC0261E0EC0271E0EC02816D
:10576000E0EC0291E0EC02A1E0EC02B1E0EC02C15D
:10577000E0EC02D1E0EC02E1E0EC02F1704700BFA6
:10578000B0FC0181B0FC0191B0FC01A1B0FC01B101
:10579000704700BFA0FC0181A0FC0191A0FC01A109
:1057A000A0FC01B1704700BFEC4600B52DE90050E8
:1057B0002DE9FF1F4FF000032DE90C0001A9FFF7B1
:1057C000D3FEDDF840E012B0704700BFEC4600B5F4
:1057D0002DE900502DE9FF1F4FF000032DE90C00CB
:1057E00001A9FFF7FBFEDDF840E012B0704700BFF3
:1057F000EC4600B52DE900502DE9FF1F4FF00003E6
:105800002DE90C0001A9FFF707FFDDF840E012B019
:10581000704700BFEC4600B52DE900502DE9FF1F91
:105820004FF000032DE90C0001ABFFF7CDFEDDF8D2
:1058300040E012B0704700BFEC4600B52DE90050C3
:105840002DE9FF1F4FF000032DE90C0001AAFFF71F
:10585000F5FEDDF840E012B0704700BF027A034663
:105860001AB9427A42B9B02070470068013A010281
:105870001A72000E196070474168501E587251F834
:10588000040B0322596001021A72000E196070475E
:1058900010B5002184B00C220DEB02040B460094DD
:1058A000FFF7B4FA039804B010BD00BFF0E700BFE3
:1058B0002DE9F043064685B00D464FF000094FF440
:1058C0007F672846FFF7CAFFB028044600F0B08083
:1058D00010F0800120D000F0F003802B74D0902BCA
:1058E00037D0A02B45D0B02B56D0C02B00F08580F0
:1058F00000F0F800D0280BD104F007035A1C42F442
:105900000022304601210523FFF752FC0028D8D0A1
:10591000092005B0BDE8F0834FEA800203A85FFAD2
:1059200082F800900D220B463046FFF76FFA039B7A
:10593000600608F104084CBFC8EB0303434403AC02
:1059400003930094002130460D220B46FFF77EFAA8
:10595000B7E700F00F020D2ADAD00F2AD8D00021C5
:1059600003AC009430460B4603ACFFF74FFA0094AB
:10597000E8E7C14301F0070257FA02F0210700F4FB
:105980007F6248BF42F48042002130460B46FFF759
:105990000FFC0028BCD194E7B1285DD0B2286ED0AE
:1059A000B32800F0948000F0FC00B42846D004F046
:1059B0000700421C42F40022012130460B46FFF74B
:1059C000F7FB0028A4D17CE72846FFF747FF210218
:1059D00040EA0104B4F5004F9AD0230500211A0CC7
:1059E00030460B462401FFF7E3FB002890D114F466
:1059F000004F18BF4FF0010963E7C62872D0C728CF
:105A000000F0838000F0F800C02800F09180C82CDE
:105A100000F0A580C92C7FF47BAF2846FFF71EFF5E
:105A200000F00F0100F0F0024B1C43EA023268E77D
:105A3000B9F1000F00F0828000206AE704F0030350
:105A4000591C41F48022022130460B46FFF7B0FB7F
:105A500000287FF45DAF34E72846FFF7FFFE0246DB
:105A600000283FF455AF10F0F0017FF451AF3046FD
:105A70000B46FFF79DFB00287FF44AAF21E700218A
:105A80000D220B4603AC30460094FFF7BFF92846C1
:105A9000FFF7E4FE022402060CD500F07F0010FAA6
:105AA00004F1039A284653180393FFF7D7FE0734EF
:105AB0000306F2D400F07F0010FA04F1039B03AA5E
:105AC00003F5017C0CEB0104009203943AE72846AD
:105AD000FFF7C4FE00F00F0200F0F001531C43EA90
