:100000001CC407200D030000750300007D030000E1
:10001000850300008D030000950300000000000030
:100020000000000000000000000000006917000050
:100030009D03000000000000191800004915000091
:10004000A5030000A5030000A5030000A503000010
:10005000A5030000A5030000A5030000A503000000
:10006000A5030000A5030000A5030000A5030000F0
:10007000A5030000A5030000A5030000A5030000E0
:10008000A5030000A5030000A5030000A5030000D0
:10009000A5030000A50300003D0B0000A503000020
:1000A000A5030000A5030000A5030000A5030000B0
:1000B000A5030000A5030000A5030000A5030000A0
:1000C000A5030000A5030000A503000080B400AF55
:1000D0004FF44043C4F20F034FF02002C3F8A021B5
:1000E0004FF44043C4F20F03D3F8A03103F02003D0
:1000F000002B0AD000BF4FF44043C4F20F03D3F8E3
:10010000A03103F04003002BF5D04FF44043C4F27C
:100110000F034FF00302C3F804214FF44043C4F22D
:100120000F034FF00002C3F8A8214FF44043C4F27C
:100130000F034FF00002C3F8AC214FF44043C4F268
:100140000F034FF00102C3F80C214FF44043C4F2F7
:100150000F034FF06302C0F20502C3F884204FF48E
:100160004043C4F20F034FF0AA02C3F88C204FF4AF
:100170004043C4F20F034FF05502C3F88C204FF4F4
:100180004043C4F20F034FF00102C3F880204FF444
:100190004043C4F20F034FF0AA02C3F88C204FF47F
:1001A0004043C4F20F034FF05502C3F88C2000BF48
:1001B0004FF44043C4F20F03D3F8883003F0806358
:1001C000002BF5D04FF44043C4F20F034FF003026D
:1001D000C3F880204FF44043C4F20F034FF0AA024B
:1001E000C3F88C204FF44043C4F20F034FF0550284
:1001F000C3F88C2000BF4FF44043C4F20F03D3F880
:10020000883003F04073002BF5D04FF44043C4F224
:100210000F034FF02302C3F8A4204FF44043C4F26D
:100220000F034FF0AA02C3F8AC204FF44043C4F2CE
:100230000F034FF05502C3F8AC204FF44043C4F213
:100240000F034FF00102C3F8A0204FF44043C4F263
:100250000F034FF0AA02C3F8AC204FF44043C4F29E
:100260000F034FF05502C3F8AC2000BF4FF44043DA
:10027000C4F20F03D3F8A83003F48063002BF5D049
:100280004FF44043C4F20F034FF00302C3F8A02021
:100290004FF44043C4F20F034FF0AA02C3F8AC205E
:1002A0004FF44043C4F20F034FF05502C3F8AC20A3
:1002B00000BF4FF44043C4F20F03D3F8A83003F457
:1002C0004073002BF5D04FF44043C4F20F0348F2C3
:1002D000DE72C0F22842C3F8C4204FF44043C4F297
:1002E0000F034FF00002C3F8C8214FF44043C4F29B
:1002F0000F0343F23A021A604FF46D43CEF200034B
:100300004FF000029A60BD4680BC704780B582B055
:1003100000AF42F2F003C0F200037B6040F2000342
:10032000C1F200033B600BE07B681A683B681A600F
:100330003B6803F104033B607B6803F104037B60CB
:100340003A6840F20003C1F200039A42ECD3074836
:1003500007494FF000028842B8BF40F8042BFADB8F
:10036000FFF7B4FE00F0BAFAFEE7000000C0072075
:1003700048F7072080B400AFFEE700BF80B400AFAD
:10038000FEE700BF80B400AFFEE700BF80B400AF5F
:10039000FEE700BF80B400AFFEE700BF80B400AF4F
:1003A000FEE700BF80B400AFFEE700BF80B485B0B9
:1003B00000AFF860B9607A607B68FA685A60FB68E1
:1003C0007A681A60FB68BA685A60BB68FA681A6093
:1003D00007F11407BD4680BC704700BF80B582B0EE
:1003E00000AF786039603B685B68786819463A68A6
:1003F000FFF7DCFF07F10807BD4680BD80B500AF01
:100400004CF21003C2F207031B68002B01D101F06C
:10041000FDF94CF21003C2F207031B6803F101025D
:100420004CF21003C2F207031A6080BD80B500AF22
:100430004CF21003C2F207031B6803F1FF324CF2C7
:100440001003C2F207031A604CF21003C2F2070352
:100450001B68002B01D101F0D3F980BD80B582B0BB
:1004600000AF4FF000037B600CE04CF2B043C2F2EF
:1004700007037A684FF0000143F822107B6803F10C
:1004800001037B607B681F2BEFDD4FF000037B6077
:100490000CE04CF22843C2F207037A684FF00001E7
:1004A00043F822107B6803F101037B607B681F2BFC
:1004B000EFDD4CF28873C2F207034FF000021A60BE
:1004C0004CF2A843C2F207034CF2A842C2F2070260
:1004D0001A604CF2A843C2F207034CF2A842C2F2DF
:1004E00007025A6000F0EEF807F10807BD4680BD2C
:1004F00080B588B000AFB9607A603B600346FB739B
:100500004FF00303FB77FB7B202B08D8FA7B4CF2E0
:10051000B043C2F2070353F82230002B04D04FF04F
:100520000103FB77FB7F55E04CF20003C2F20703A7
:100530001B6803F101024CF20003C2F207031A60C8
:100540004FF01C0000F036FD0346BB61FB7BB86931
:1005500019463A6800F044F8B86AB9687A683B68A6
:1005600001F0B0F80246BB691A60BB699B881A4665
:100570004CF2B043C2F20703B96943F82210BB69D9
:100580009B881A464CF22843C2F20703B96943F824
:100590002210BB699B8803F01F034FF0010202FA8F
:1005A00003F31A464CF28873C2F207031B681A431E
:1005B0004CF28873C2F207031A60BB6903F114039B
:1005C00018464CF2A841C2F20701FFF707FFBB69CA
:1005D0007B61FB7F184607F12007BD4680BD00BF49
:1005E00080B485B000AFF8600B467A60FB72FB7A8E
:1005F0009AB2FB689A80FB684FF001029A71FB681F
:100600004FF00302DA71FB684FF000029A60FB685A
:1006100003F11402FB685A61FB6803F11402FB68E2
:100620009A61FB6803F10C02FB68DA60FB6803F176
:100630000C02FB681A6107F11407BD4680BC7047C5
:1006400080B584B000AF78607B689B88FB81FFF742
:10065000D5FEFA894CF2B043C2F2070353F82230B8
:10066000002B04D1FFF7E2FE4FF0010324E07B688A
:100670004FF001029A71FA894CF22843C2F2070343
:10068000796843F82210FB8903F01F034FF0010241
:1006900002FA03F31A464CF28873C2F207031B688E
:1006A0001A434CF28873C2F207031A60FFF7BEFECA
:1006B00001F058F94FF00303184607F11007BD4643
:1006C00080BD00BF80B582B002AF094B00934FF0F0
:1006D000000301934FF0000041F6FD11C0F200014C
:1006E0004FF000024FF09603FFF702FFBD4680BDBA
:1006F00084C7072080B586B000AFF8600B467A60EB
:10070000FB72FA684FF48043C4F203039A4207D0A5
:1007100042F27800C0F2000040F20F1100F07AFEC1
:100720007B68002B0AD07B68012B07D042F278004F
:10073000C0F2000040F2111100F06CFEFB6803F102
:100740001002FB7A4FEA8303D3181B687B617B6836
:10075000002B04D07B6903F000437B6103E07B69DD
:1007600003F080437B617B69002B02D04FF00103D3
:1007700001E04FF00003184607F11807BD4680BDA1
:1007800080B582B000AF78607A684FF48043C4F2DD
:1007900003039A4207D042F27800C0F200004FF4FF
:1007A000947100F037FE7B685B68184607F1080714
:1007B000BD4680BD80B500AF4CF21003C2F2070306
:1007C0001B68002B01D101F021F84CF21003C2F29A
:1007D00007031B6803F101024CF21003C2F2070386
:1007E0001A6080BD80B500AF4CF21003C2F207035F
:1007F0001B6803F1FF324CF21003C2F207031A60C8
:100800004CF21003C2F207031B68002B01D100F069
:10081000F7FF80BD80B500AFFFF7CCFF4CF21403AB
:10082000C2F207031B6803F101024CF21403C2F287
:1008300007031A60FFF7D6FF80BD00BF90B583B0F5
:1008400000AFFFF7B7FF4CF21403C2F207031B68B7
:1008500003F1FF324CF21403C2F207031A604CF2A8
:100860001403C2F207031B68002B31D14CF28873CA
:10087000C2F207031B687B607B68B3FA83F4FC70E9
:10088000FB78C3F11F024CF22843C2F2070353F86E
:1008900022204CF22043C2F207031A604CF220439C
:1008A000C2F207031A684CF22443C2F207031B6822
:1008B0009A420DD000F01AFB4FF46D43CEF20003C4
:1008C0004FF46D42CEF20002526842F080525A60FC
:1008D000FFF788FF07F10C07BD4690BD80B582B0D9
:1008E00002AF4CF22003C2F209034CF22002C2F222
:1008F0000902126842F480221A604CF22003C2F20C
:1009000009034CF22002C2F20902126842F480127A
:100910001A604CF22003C2F209034CF22002C2F228
:100920000902126842F400121A604CF22003C2F26B
:1009300009034CF22002C2F20902126842F40002DA
:100940001A6000F0CFFF574B00934FF00003019364
:100950004FF0020040F6C521C0F200014FF0000246
:100960004FF4AF73FFF7C4FD4F4B00934FF00003FC
:1009700001934FF0030040F6A941C0F200014FF08F
:1009800000024FF4AF73FFF7B3FD484B00934FF0F5
:10099000000301934FF0040040F6A151C0F20001A2
:1009A0004FF000024FF4AF73FFF7A2FD404B0093EE
:1009B0004FF0000301934FF0050040F63161C0F2A3
:1009C00000014FF000024FF4AF73FFF791FD394B78
:1009D00000934FF0000301934FF0060040F6696169
:1009E000C0F200014FF000024FF4AF73FFF780FD3B
:1009F000314B00934FF0000301934FF0070040F696
:100A00009D61C0F200014FF000024FF4AF73FFF799
:100A10006FFD2A4B00934FF0000301934FF0080045
:100A200040F6A931C0F200014FF000024FF4AF735D
:100A3000FFF75EFD224B00934FF0000301934FF050
:100A4000090040F67D31C0F200014FF000024FF482
:100A5000AF73FFF74DFD4FF00A004FF0040101F0B6
:100A600079F902464EF66003C2F207031A604FF0AE
:100A70000A004FF0040101F06DF902464CF60453F0
:100A8000C2F207031A604FF0010001F0A5F8024618
:100A90004EF66403C2F207031A6000F02DFF1846F9
:100AA000BD4680BDE4E20720F4D7072000CD072033
:100AB00054F307206CDD0720DCED07207CD20720F3
:100AC0005CE8072080B584B000AF78604FF0000389
:100AD000FB604FF00103BB604FF00103BB604FF0C0
:100AE0000003FB6003E0FB6803F10103FB60FB68AC
:100AF000312BF8DD4FF00103FB600BE0FB6803F1E5
:100B000001031A46BB6802FB03F3BB60FB6803F1F9
:100B10000103FB60FB68632BF0DD4CF22003C2F2A3
:100B200009034CF22002C2F20902526982F48022C7
:100B30005A614FF0640000F051FDCDE780B582B0FE
:100B400000AFFFF767FE4FF48040C4F203004FF0A0
:100B500000014FF00102FFF7CDFD0346002B07D047
:100B60004FF48040C4F20300FFF70AFE03467B60A7
:100B7000FFF764FE07F10807BD4680BD80B582B06F
:100B800000AF78604CF22003C2F209034CF220025D
:100B9000C2F20902526982F480125A614FF0640075
:100BA00000F01CFDEEE700BF80B590B000AF7860AC
:100BB00042F2CC03C0F2000307F108011A464FF0DD
:100BC0002403084611461A4601F014FA4FF0240394
:100BD0003B634FF00003FB8700F05EFF4FF0000324
:100BE000BB634FF000037B63786B00F095FF7B6B7A
:100BF00003F101037B637A6B42F29343C9F2492309
:100C000083FB02139B184FEAA3014FEAE273C91A50
:100C10000B464FEAC3035B1AD31A7B63786B00F071
:100C20005BFFFA8F7B6BD3183A6B93FBF2F2396B55
:100C300001FB02F29B1A07F14002D31813F8383C6B
:100C400087F82F3097F82F30184600F083FFBA6BE3
:100C500044F6D353C1F2620383FB02134FEA23111C
:100C60004FEAE273CB1A4FF0FA0101FB03F3D31AF8
:100C7000002B14BF00230123DBB2BA6B02F1010287
:100C8000BA63002B0AD0FB8F03F101033A6B93FB8D
:100C9000F2F2396B01FB02F29B1AFB874FF0640002
:100CA00000F09CFCA0E700BF80B5EAB000AF07F100
:100CB000040318604FF0000387F89F314FF00003E2
:100CC000C7F898314FF00003C7F8A43152E04FF055
:100CD0000203C7F8A0311BE04FF0010387F89F31F2
:100CE000D7F8A431D7F8A02193FBF2F2D7F8A011DE
:100CF00001FB02F29B1A002B04D14FF0000387F88E
:100D00009F310BE0D7F8A03103F10103C7F8A03100
:100D1000D7F8A021D7F8A4319A42DDDB97F89F31AC
:100D2000002B21D0D7F8982148F21F53C5F2EB13BE
:100D300083FB02134FEA63114FEAE273CB1A4FF0C1
:100D4000640101FB03F3D31AD7F8A41107F10802D9
:100D500042F82310D7F8983103F10103C7F898310E
:100D60004FF0000387F89F31D7F8A43103F1010356
:100D7000C7F8A431D7F8A431632BA8DD4CF22003C7
:100D8000C2F209034CF22002C2F20902526982F453
:100D900080125A614FF0C80000F020FC92E700BFBB
:100DA00080B5E8B000AF07F10403186007F10C0349
:100DB0004FF000021A6007F10C034FF001025A6075
:100DC0004FF00203C7F89C311CE0D7F89C3103F1C7
:100DD000FF3207F10C0353F82220D7F89C31A3F11E
:100DE000020107F10C0353F82130D11807F10C036D
:100DF000D7F89C2143F82210D7F89C3103F1010366
:100E0000C7F89C31D7F89C31632BDEDD4EF66003CA
:100E1000C2F207031A6807F10C0303F10C03104632
:100E2000194600F0EFFF4FF47A7000F0D7FBBDE7F2
:100E300080B582B000AF78604EF66403C2F207035B
:100E40001B6818464FF47A7100F0E4FE4CF2200360
:100E5000C2F209034CF22002C2F20902526982F482
:100E600000125A61E8E700BF80B584B000AF786037
:100E70004FF00003FB604FF0C80000F0AFFB00F044
:100E8000D1FD4FF00003FB6003E0FB6803F10103B9
:100E9000FB60FB68632BF8D9EDE700BF80B584B039
:100EA00000AF78604FF0040000F084F80346FB6068
:100EB0004EF66003C2F207031B681846F9684FF04C
:100EC000000200F0FBFF4CF22003C2F209034CF2D7
:100ED0002002C2F20902526982F400025A61E7E775
:100EE00080B400AFBD4680BC704700BF80B400AF87
:100EF000BD4680BC704700BF80B500AF4CF2100308
:100F0000C2F207031B68002B01D100F07FFC4CF2FA
:100F10001003C2F207031B6803F101024CF2100335
:100F2000C2F207031A6080BD80B500AF4CF2100317
:100F3000C2F207031B6803F1FF324CF21003C2F246
:100F400007031A604CF21003C2F207031B68002B60
:100F500001D100F055FC80BD80B483B000AF4FF2EA
:100F60005833C2F2070303F1030323F003031A46C5
:100F70004FF24473C2F207031A604FF000037B6024
:100F80000DE04FF24473C2F207031A687B68D3186E
:100F90004FF000021A707B6803F101037B607A68EE
:100FA00040F2E7339A42ECD907F10C07BD4680BC0A
:100FB000704700BF80B584B000AF7860FFF79CFF3A
:100FC0004CF20803C2F207031B681A467B68D31869
:100FD000B3F57A7F23D94CF20403C2F207031B68EE
:100FE0001A467B689A4203D24FF00003FB6030E060
:100FF0004FF24473C2F207031B68FB604CF2080314
:10100000C2F207031B681A467B68D318A3F57A73EC
:101010001A464CF20803C2F207031A6019E04FF2B5
:101020004473C2F207031A684CF20803C2F20703C2
:101030001B68D318FB604CF20803C2F207031B685D
:101040001A467B68D3181A464CF20803C2F207030B
:101050001A60FFF769FFFB68184607F11007BD46E5
:1010600080BD00BF80B485B000AF0346FB714FF078
:101070000003FB60FB79042B2AD801A252F823F06D
:1010800095100000A1100000AD100000B910000084
:10109000C51000004FF44043C2F20903FB6018E0A2
:1010A0004CF22003C2F20903FB6012E04CF2400351
:1010B000C2F20903FB600CE04CF26003C2F20903C8
:1010C000FB6006E04CF28003C2F20903FB6000E023
:1010D00000BFFB68184607F11407BD4680BC704787
:1010E00080B584B000AF396013460246FA71BB7117
:1010F000FB791846FFF7B6FF0346FB60FB68002B41
:1011000013D0BB79002B07D0FB681B681A463B68DD
:101110001A43FB681A6008E0FB681B681A463B68C4
:101120006FEA03031A40FB681A6007F11007BD4617
:1011300080BD00BF80B584B000AF03463960FB714D
:10114000FB791846FFF78EFF0346FB60FB68002B18
:1011500002D0FB683A689A6107F11007BD4680BD6E
:1011600080B584B000AF03463960FB71FB79184647
:10117000FFF778FF0346FB60FB68002B02D0FB689B
:101180003A68DA6107F11007BD4680BD80B485B0CA
:1011900000AFF860B9607A607B68FA685A60FB68F3
:1011A0007A681A60FB68BA685A60BB68FA681A60A5
:1011B00007F11407BD4680BC704700BF80B582B000
:1011C00000AF786039603B681B68786839681A46F8
:1011D000FFF7DCFF07F10807BD4680BD80B582B090
:1011E00000AF786039603B685B68786819463A6898
:1011F000FFF7CCFF07F10807BD4680BD80B483B080
:1012000000AF786039603B687A685A607B683A68FA
:101210001A6007F10C07BD4680BC704780B582B0EC
:1012200000AF78607B685A687B681B681046194677
:10123000FFF7E4FF7B684FF000021A607B684FF015
:1012400000025A6007F10807BD4680BD80B582B034
:1012500000AF78607B685A687B681B681046194647
:10126000FFF7CCFF7B687A681A607B687A685A60FF
:1012700007F10807BD4680BD80B483B000AF786039
:101280007B681A687B689A4214BF002301231846C2
:1012900007F10C07BD4680BC704700BF80B500AFAA
:1012A0004CF21003C2F207031B68002B01D100F0BF
:1012B000ADFA4CF21003C2F207031B6803F10102FE
:1012C0004CF21003C2F207031A6080BD80B500AF74
:1012D0004CF21003C2F207031B6803F1FF324CF219
:1012E0001003C2F207031A604CF21003C2F20703A4
:1012F0001B68002B01D100F083FA80BD80B584B05B
:1013000000AF78603960FFF7C9FF7868FFF7B4FF76
:101310000346002B07D03B6803F10C03184679689D
:10132000FFF74CFF15E07B68FB6002E0FB685B6841
:10133000FB60FB685B68A3F10C039A883B689B88A1
:101340009A42F3D93B6803F10C031846F968FFF79A
:1013500045FFFFF7BBFF4FF00303184607F11007E7
:10136000BD4680BD80B584B000AF78603960FFF7BE
:1013700095FF7868FFF780FF0346002B04D0FFF746
:10138000A5FF4FF000031BE07B681B68BB6010E00B
:10139000BB68A3F10C03FB60FB689B881A463B68A3
:1013A0009A4203D1B868FFF751FF06E0BB681B689B
:1013B000BB60BA687B689A42EAD1FFF787FFFB6897
:1013C000184607F11007BD4680BD00BF80B584B048
:1013D00000AF7860FFF762FF7868FFF74DFF0346C4
:1013E000002B04D0FFF772FF4FF000030CE07B6886
:1013F0001B68A3F10C03FB607B681B681846FFF7B2
:101400000DFFFFF763FFFB68184607F11007BD46A5
:1014100080BD00BF80B483B000AF78603960FEE764
:1014200080B500AF4CF21003C2F207031B68002B1B
:1014300001D100F0EBF94CF21003C2F207031B6874
:1014400003F101024CF21003C2F207031A6080BDDF
:1014500080B500AF4CF21003C2F207031B6803F122
:10146000FF324CF21003C2F207031A604CF2100371
:10147000C2F207031B68002B01D100F0C1F980BD47
:1014800080B500AFFFF7CCFF4CF21403C2F20703A4
:101490001B6803F101024CF21403C2F207031A6045
:1014A000FFF7D6FF80BD00BF90B583B000AFFFF758
:1014B000B7FF4CF21403C2F207031B6803F1FF32BB
:1014C0004CF21403C2F207031A604CF21403C2F286
:1014D00007031B68002B31D14CF28873C2F207035B
:1014E0001B687B607B68B3FA83F4FC70FB78C3F104
:1014F0001F024CF22843C2F2070353F822204CF299
:101500002043C2F207031A604CF22043C2F20703E1
:101510001A684CF22443C2F207031B689A420DD0AA
:10152000FFF7E4FC4FF46D43CEF200034FF46D423D
:10153000CEF20002526842F080525A60FFF788FFF4
:1015400007F10C07BD4690BD80B582B000AFFFF734
:1015500097FF4CF20C03C2F207031B6803F1010270
:101560004CF20C03C2F207031A60FFF759FF4CF26A
:10157000A843C2F207031B687B601FE07B68A3F1EE
:1015800014033B603B689B68002B14D03B689B684E
:1015900003F1FF323B689A603B689B68002B0AD1DD
:1015A0003B68DB79032B03D03B684FF00202DA7112
:1015B0003868FFF745F87B681B687B607A684CF2F7
:1015C000A843C2F207039A42D8D1FFF741FFFFF7C1
:1015D0006BFF07F10807BD4680BD00BF80B582B034
:1015E00000AF7860FFF71CFF4CF22443C2F2070300
:1015F0001B687A689A604CF22443C2F207031B68A6
:101600004FF002029A714CF22443C2F207031B68A6
:101610009B881A464CF22843C2F207034FF00001A0
:1016200043F822104CF22443C2F207031B689B8844
:1016300003F01F034FF0010202FA03F36FEA030302
:101640001A464CF28873C2F207031B681A404CF228
:101650008873C2F207031A60FFF7FAFE00F082F9FE
:1016600007F10807BD4680BD80B483B000AF0346D4
:101670003960FB7197F90730002B10DA4FF46D4396
:10168000CEF20003FA7902F00F02A2F104013A68E7
:10169000D2B24FEAC202D2B25B181A760DE04FF412
:1016A0006143CEF2000397F907103A68D2B24FEACD
:1016B000C202D2B25B1883F8002307F10C07BD46C3
:1016C00080BC704780B487B000AFF860B9607A60C2
:1016D0003B60FB6803F00303002B05D0FB6803F1BC
:1016E000030323F00303FB60FB687B617B69A3F1C9
:1016F00004037B617B694FF080721A607B69A3F100
:1017000004037B61BA687B691A607B69A3F10403F7
:101710007B617B694FF000021A607B69A3F11003C3
:101720007B617B69A3F104037B617A687B691A6042
:101730007B69A3F120037B617B69184607F11C07D5
:10174000BD4680BC704700BF80B400AF054800684C
:10175000006880F3088862B600DF00BFBD4680BC29
:101760007047000008ED00E080B400AF044A116843
:101770000868B0E8F00F80F309884EF00D0E70474E
:1017800020C40720BD4680BC704700BF80B400AFB6
:101790004EF21003CEF200034FF007021A60BD466E
:1017A00080BC704780B582B000AF48F2A063C0F241
:1017B00001037B607A686FF07F439A4202D94FF051
:1017C000010318E04EF21003CEF200037A6822F013
:1017D0007F4202F1FF325A604FF0FF304FF01F019D
:1017E000FFF742FF4EF21003CEF200034FF000026B
:1017F0009A604FF00003184607F10807BD4680BD08
:1018000080B400AF62B6BD4680BC704780B400AF04
:1018100072B6BD4680BC7047EFF3098020E9F00F37
:1018200007490A681060074A11680868B0E8F00FB5
:1018300080F30988024803490A680260704700BFC4
:1018400024C4072020C4072080B400AF4EF62053E4
:10185000CEF200034EF62052CEF20002126842F49D
:101860007F021A604EF62053CEF200034EF620524D
:10187000CEF20002126842F07F421A60BD4680BC80
:10188000704700BF80B500AF4CF21003C2F20703EF
:101890001B68002B01D1FFF7B9FF4CF21003C2F215
:1018A00007031B6803F101024CF21003C2F20703A5
:1018B0001A6080BD80B500AF4CF21003C2F207037E
:1018C0001B6803F1FF324CF21003C2F207031A60E7
:1018D0004CF21003C2F207031B68002B01D1FFF783
:1018E0008FFF80BD80B500AFFFF736FBFEF7B6FD7A
:1018F000FFF7AAFF80BD00BF90B583B000AF4CF2E8
:101900008873C2F207031B687B607B68B3FA83F4B9
:10191000FC70FB78C3F11F024CF22843C2F20703AC
:1019200053F822204CF22043C2F207031A604CF213
:101930002043C2F207031A684CF22443C2F20703A1
:101940001A60FFF72FFFFFF721FF4CF21C03C2F2D2
:1019500007034FF001021A70FFF7F6FE07F10C07BC
:10196000BD4690BD90B583B000AFFFF78BFF4CF242
:101970001403C2F207031B68002B37D14CF28873A3
:10198000C2F207031B687B607B68B3FA83F4FC70C8
:10199000FB78C3F11F024CF22843C2F2070353F84D
:1019A00022204CF22043C2F207031A604CF2244377
:1019B000C2F207031A684CF22043C2F207031B6805
:1019C0009A4202D1FFF776FF13E0FFF773FFFFF7AC
:1019D0008DFA4FF46D43CEF200034FF46D42CEF218
:1019E0000002526842F080525A6002E0FFF762FF44
:1019F00000BF07F10C07BD4690BD00BF80B582B0A7
:101A000000AF78604CF21803C2F207031B6803F1C1
:101A100001024CF21803C2F207031A60FFF760FAE2
:101A2000F0E700BF80B500AFFFF72CFF4CF2244376
:101A3000C2F207031B684FF002029A714CF2244372
:101A4000C2F207031B689B881A464CF22843C2F275
:101A500007034FF0000143F822104CF22443C2F276
:101A600007031B689B8803F01F034FF0010202FA73
:101A700003F36FEA03031A464CF28873C2F20703BA
:101A80001B681A404CF28873C2F207031A60FFF712
:101A900011FFFFF767FF80BD80B500AF4FF0020078
:101AA0004FF03E014FF00102FFF71AFB4FF002002A
:101AB0004FF03E01FFF754FB4FF000004FF4FE6182
:101AC0004FF00102FFF70CFB4FF000004FF4FE61F6
:101AD000FFF730FB80BD00BF80B483B000AF7860FB
:101AE0007B68062B12DC4FF44043C2F209034FF42B
:101AF0004042C2F20902526911464FF010007A6862
:101B000000FA02F26FEA02020A405A6107F10C077A
:101B1000BD4680BC704700BF80B483B000AF786022
:101B20007B68062B10DC4FF44043C2F209034FF4EC
:101B30004042C2F20902526911464FF010007A6821
:101B400000FA02F20A435A6107F10C07BD4680BC55
:101B5000704700BF80B483B000AF78604CF24003A0
:101B6000C2F209037A684FEA42025A6107F10C0790
:101B7000BD4680BC704700BF80B500AF4CF210037B
:101B8000C2F207031B68002B01D1FFF73FFE4CF2A6
:101B90001003C2F207031B6803F101024CF21003A9
:101BA000C2F207031A6080BD80B500AF4CF210038B
:101BB000C2F207031B6803F1FF324CF21003C2F2BA
:101BC00007031A604CF21003C2F207031B68002BD4
:101BD00001D1FFF715FE80BD80B584B000AF7860FD
:101BE0004FF00C00FFF7E6F90346FB60FB687A68EC
:101BF0001A60FB6803F10402FB685A60FB6803F19A
:101C00000402FB689A60FB68184607F11007BD469E
:101C100080BD00BF80B582B000AF78603960FFF74B
:101C2000ABFF7B681B68002B0AD07B681B6803F145
:101C3000FF327B681A60FFF7B7FF4FF0030341E004
:101C40004CF22443C2F207031B684FF00102DA7121
:101C50007B6803F104024CF22443C2F207031B68C1
:101C600010461946FFF74AFB3B68002B1CD038682A
:101C7000FFF7B4FCFFF798FF4CF22443C2F20703CE
:101C80001B68DB79022B13D17B6803F104024CF251
:101C90002443C2F207031B689B8810461946FFF7CE
:101CA00061FB4FF006030DE0FFF77EFFFFF7BAFE82
:101CB0004CF22443C2F207031B684FF00302DA71AF
:101CC0004FF00303184607F10807BD4680BD00BF6B
:101CD00080B483B000AF78607B681A687B689A42F2
:101CE00014BF00230123184607F10C07BD4680BC32
:101CF000704700BF80B500AF4CF21003C2F207037B
:101D00001B68002B01D1FFF781FD4CF21003C2F2DA
:101D100007031B6803F101024CF21003C2F2070330
:101D20001A6080BD80B500AF4CF21003C2F2070309
:101D30001B6803F1FF324CF21003C2F207031A6072
:101D40004CF21003C2F207031B68002B01D1FFF70E
:101D500057FD80BD80B584B000AF786039604FF02A
:101D60002C00FFF727F90346FB60FB68002B02D12C
:101D70004FF0000340E03B687A6802FB03F318462B
:101D8000FFF718F90246FB689A60FB689B68002B16
:101D900002D14FF000032FE0FB689A683B68796836
:101DA00001FB03F3D218FB68DA60FB689A68FB68F2
:101DB0001A60FB689A68FB685A60FB687A681A6167
:101DC000FB684FF000025A61FB683A689A61FB6851
:101DD00003F11C02FB68DA61FB6803F11C02FB687B
:101DE0001A62FB6803F12402FB685A62FB6803F184
:101DF0002402FB689A62FB68184607F11007BD468B
:101E000080BD00BF80B584B000AF78603960FFF757
:101E100071FF7B685A697B681B699A4204D1FFF79E
:101E200081FF4FF0050343E07B685A687B689B693C
:101E3000D2187B68DB689A4203D37B689A687B6818
:101E40005A607B6859687B689B693A680846114606
:101E50001A4600F0CFF87B685A687B689B69D218F5
:101E60007B685A607B685B6903F101027B685A6199
:101E70007B6803F124031846FFF72AFF0346002B73
:101E800012D17B6803F124031846FFF79FFA03463B
:101E9000FB60FB689B68002B03D0FB684FF00002DF
:101EA0009A60F868FEF7CCFBFFF73CFF4FF00303A6
:101EB000184607F11007BD4680BD00BF80B584B04D
:101EC00000AFF860B9607A60FFF714FFFB685B69E8
:101ED000002B10D04CF22443C2F207031B684FF0D2
:101EE0000302DA71B868F96800F056F8FFF71AFFD4
:101EF0004FF003034AE0FB6803F124024CF2244351
:101F0000C2F207031B6810461946FFF7F7F94CF2B7
:101F10002443C2F207031B684FF00002DA717B68AA
:101F2000002B1DD07B681846FFF758FBFFF7FAFE21
:101F30004CF22443C2F207031B68DB79022B13D156
:101F4000FB6803F124024CF22443C2F207031B682E
:101F50009B8810461946FFF705FA4FF0060315E077
:101F6000FFF7E0FEFFF75EFDFFF7C4FE4CF22443EF
:101F7000C2F207031B684FF00302DA71B868F96810
:101F800000F00AF8FFF7CEFE4FF00303184607F102
:101F90001007BD4680BD00BF80B582B000AF78603D
:101FA00039603B681A683B689B6979680846114646
:101FB0001A4600F01FF83B685B6903F1FF323B688B
:101FC0005A613B681A683B689B69D2183B68DB68BA
:101FD0009A4204D33B689A683B681A6006E03B6803
:101FE0001A683B689B69D2183B681A6007F10807BA
:101FF000BD4680BD0F2AF0B43AD941EA00039B07E1
:1020000038D10C46034615462668103D1E606668AA
:102010005E60A6689E60E6681034DE6010330F2DA7
:10202000F2D8A2F1100424F00F0402F00F021034D1
:10203000032A00EB0403214411D90E461D46144621
:1020400056F8047B043C032C45F8047BF8D8141F95
:1020500024F00304043402F0030209191B192AB105
:1020600011F8014B013A03F8014BF9D1F0BC70476C
:102070000346F4E70346F3E7433A5C55736572732E
:102080005C686C6961735C4465736B746F705C72DF
:10209000746F732D6C61746573745C4743435C7536
:1020A0004B65726E656C5C6C7063313778785F6C11
:1020B00069625C736F757263655C6C7063313778ED
:1020C000785F6164632E630001000000000000007F
:1020D000001F0804081F0010080708100000001F58
:1020E0000101001F111F001806010618001F151519
:00000001FF
